:020000040800F2
:1000000080230020452200087103000873030008C4
:10001000770300087B0300087F030008000000004E
:100020000000000000000000000000008303000842
:10003000850300080000000087030008890300080A
:100040005F2200085F2200085F2200085F2200088C
:100050005F2200085F2200085F2200085F2200087C
:100060005F2200085F2200085F2200085F2200086C
:100070005F2200085F2200085F2200085F2200085C
:100080005F2200085F2200085F2200085F2200084C
:100090005F2200085F2200085F2200085F2200083C
:1000A0005F2200085F2200085F2200085F2200082C
:1000B000BB4800085F2200085F2200085F2200089A
:1000C0005F2200085F2200085F2200085F2200080C
:1000D0005F220008BB2100085F2200085F220008A1
:1000E0005F2200085F2200085F2200085F220008EC
:1000F0005F2200085F2200085F2200085F220008DC
:100100005F2200085F2200085F2200085F220008CB
:100110005F2200085F2200085F2200085F220008BB
:100120005F2200085F2200085F2200085F220008AB
:1001300000F002F800F06BF80AA090E8000C82448E
:100140008344AAF10107DA4501D100F060F8AFF26B
:10015000090EBAE80F0013F0010F18BFFB1A43F0A5
:100160000103184734410100544101000A444FF093
:10017000000C10F8013B13F0070408BF10F8014B06
:100180001D1108BF10F8015B641E05D010F8016B4B
:10019000641E01F8016BF9D113F0080F1EBF10F8AF
:1001A000014BAD1C0C1B09D16D1E58BF01F801CBD2
:1001B000FAD505E014F8016B01F8016B6D1EF9D555
:1001C0009142D6D37047000000230024002500266A
:1001D000103A28BF78C1FBD8520728BF30C148BFAA
:1001E0000B607047642905F02987752905F026877B
:1001F000782905F05F87632906F0BA80732906F035
:10020000BF80002070471FB51FBD10B510BD06F0A0
:10021000E9F81146FFF7F7FF00F054F806F007F988
:1002200003B4FFF7F2FF03BC01F06AFFFEB5054619
:100230000E46002400200290002744A01021CDE9A2
:10024000001006F1100083B2EF223146284601F07B
:1002500013FE00BF0BE00122214602A801F0B1FE0F
:100260009DF80800401CC0B2029004F58054B4F51B
:10027000801FF0D3002420E00122214602A801F0D3
:10028000ACFE14B99DF8087004E09DF80800B8426F
:1002900000DC15E000201021CDE900109DF80810C9
:1002A000C91B491C09048A0B05F1780188B2042393
:1002B000314601F082FD04F58054B4F5801FDBD394
:1002C00000BFFEBD2DE9F0410024002500F0CCF870
:1002D00001F0A8FE01F00EFF4FF4165001F01EFFD2
:1002E00000F042F901F08AF800F064F901F004FE30
:1002F0001C4800680622B0FBF2F1B1F1807F01D307
:1003000001201BE021F07F40401E4FF0E0225061B1
:1003100050170F22002806DA1301134E00F00F07C2
:100320003F1FF35502E01301104E335400BF00206D
:100330004FF0E022906107201061002008B100BF5B
:10034000FEE705F034F80020BDE8F0814578204D47
:10035000656D6F727920546573743A202020304B9C
:10036000420000000000002018ED00E000E400E082
:10037000704700BFFEE700BFFEE700BFFEE700BF1B
:10038000FEE7704770477047704700000CB50020CB
:10039000019000906B48006840F480306949086023
:1003A00000BF6848006800F4003000900198401CCD
:1003B0000190009818B90198B0F5A06FF1D161488B
:1003C000006810F4003F02D00120009001E00020FE
:1003D00000900098012842D15B48006840F010006E
:1003E000594908600846006820F003000860084684
:1003F000006840F002000860524840685149486077
:100400000846406848600846406840F4806048609C
:100410000846406820F47C1048600846406840F474
:10042000E81048600846006840F08070086000BF2F
:100430004448006810F0007FFAD04248406820F03D
:100440000300404948600846406840F002004860A8
:1004500000BF3C48406800F00C000828F9D10CBDF2
:1004600010B5FFF793FF10BD10B53648006840F097
:100470000100344908600846406834490840314961
:10048000486008460068324908402E49086008461E
:10049000006820F4802008600846406820F4FE00D0
:1004A00048604FF41F008860FFF7DAFF4FF00060EC
:1004B0002849086010BD10B5002100200022214B02
:1004C0005B6803F00C0121B1042906D0082928D16A
:1004D00007E0214B214C236027E01F4B1F4C23607A
:1004E00023E0184B5B6803F47010164B5B6803F451
:1004F0008032022303EB904022B9194B4343174C3F
:1005000023600DE00F4B5B6813F4003F04D0144BE5
:100510004343124C236003E00F4B43430F4C2360D3
:1005200003E00D4B0D4C236000BF00BF054B5B6823
:10053000C3F303130B4CE15C084B1B68CB40074C27
:10054000236010BD00100240002002400000FFF8B0
:10055000FFFFF6FE08ED00E000127A000000002028
:1005600000093D000400002008B50121482002F0E8
:1005700019FD2020ADF8000010208DF803000320A5
:100580008DF802006946094802F056FA2021074812
:1005900002F0FDFA2020ADF800006946044802F0A0
:1005A0004BFA2021024802F0F2FA08BD000C01408B
:1005B0000018014008B50121442002F0F3FC1C2082
:1005C000ADF8000048208DF803006946354802F078
:1005D00033FA0120ADF8000028208DF803006946A9
:1005E000314802F029FA08BD10B5044614B10120C3
:1005F0002E4908702D480078002837D0102129484E
:1006000002F0ABFA78B10821264802F0A6FA50B100
:100610000421244802F0A1FA28B10121224802F065
:100620009CFA012822D10A2001F038FD00201F4940
:10063000087010211B4802F090FA08B9012010BD83
:100640000821184802F089FA08B90220F7E70421C6
:10065000144802F082FA08B90320F0E70121124899
:1006600002F07BFA01281BD10420E8E710210D4895
:1006700002F073FA012813D108210A4802F06DFA3A
:1006800001280DD10421074802F067FA012807D19B
:100690000121054802F061FA10B9012003490870F0
:1006A0000020CCE7001801400008014014000020A1
:1006B0004FF0D041088070474FF0D04148807047DC
:1006C00008B54FF0D04040880090BDF8000008BD4C
:1006D0004FF0D04210805180704700B5024610465E
:1006E000FFF7E6FFFFF7ECFF00BDF74800894FF08A
:1006F000D041088070474FF0D0414880704730B5F6
:10070000014601F01F04C1F34513CA0AE50205EBD7
:1007100043151544A8B230BD00BF0100A0F101028D
:10072000D0B2FAD1704710B503460C46E64880882F
:10073000A0F51341413905D0E3488088A0F5A641D2
:10074000103914D1E0494889FFF7B2FF1812FFF7BA
:10075000B3FFD8B2FFF7B0FFDB498889FFF7A8FFE6
:100760002012FFF7A9FFE0B2FFF7A6FFABE0D648E3
:100770008088A0F5D04104391DD1D3488079012863
:1007800004D1D1480088401EC01A83B2CE4948899E
:10079000FFF78EFF1812FFF78FFFD8B2FFF78CFF1D
:1007A000C9498889FFF784FF2012FFF785FFE0B26F
:1007B000FFF782FF87E0C4488088A0F5C8516339FD
:1007C00047D1C1488079A8B9BF480088401EC01AE7
:1007D00083B2BD494889FFF76BFF0020FFF76CFF2C
:1007E0000020FFF769FF1812FFF766FFD8B2FFF786
:1007F00063FF16E0B4494889FFF75AFF1812FFF764
:100800005BFFD8B2FFF758FFAF490988491EC1F313
:100810000F20FFF751FFAC490978491EC8B2FFF716
:100820004BFFA9498889FFF743FF2012FFF744FFD8
:10083000E0B2FFF741FFA4494988491EC1F30F20E8
:10084000FFF73AFFA0498978491EC8B2FFF734FF85
:1008500039E09D488088A0F5AA41103920D19A49F5
:100860004889FFF725FF1812FFF726FF96494989A7
:10087000491C88B2FFF71CFFD8B2FFF71DFF924951
:100880008889FFF715FF2012FFF716FF8E49898927
:10089000491C88B2FFF70CFFE0B2FFF70DFF12E032
:1008A00089488079012804D187480088401EC01AF1
:1008B00083B2854948891946FFF70AFF824988892A
:1008C0002146FFF705FF10BD2DE9F04105460E4614
:1008D00000240027A0467C480088A84203DD7A480F
:1008E0004088B04202DC0020BDE8F0813146284655
:1008F000FFF719FF74488088A0F51341413911D0E2
:1009000071488088A0F5D04104390BD06E488088AA
:10091000A0F5A641103905D06B488088A0F5C851D4
:10092000633903D12E20FFF7C3FE0DE066488088AF
:10093000A0F5AA41103904D14FF43850FFF7B8FEA2
:1009400002E02220FFF7B4FE5F488088A0F5134143
:10095000203902D10220FFF7DFFEFFF7B1FE044687
:1009600059488088A0F5C851633901D12046BBE7BA
:100970000220FFF7D1FEFFF7A3FE0446524880880D
:10098000A0F5134141390BD04F488088A0F5A6410E
:10099000103905D04C488088A0F5AA4110390AD1F9
:1009A0000220FFF7B9FEFFF78BFE8046E7B24FF655
:1009B000FF7000EA072744488088A0F513412539D5
:1009C00017D041488088A0F58A41353911D03E487A
:1009D0008088A0F58A4131390BD03B488088A0F54A
:1009E0003541053905D038488088A0F5454105399D
:1009F00001D1204678E734488088A0F51341413979
:100A00000BD031488088A0F5A641103905D02E487A
:100A10008088A0F5AA41103907D1E012C002B912AE
:100A200040EA411040EAE8205EE72046FFF767FE13
:100A30005AE700B524488088A0F51341413911D008
:100A400021488088A0F5D04104390BD01E48808809
:100A5000A0F5A641103905D01B488088A0F5C851E3
:100A6000633903D12920FFF723FE0FE01648808861
:100A7000A0F5AA41103904D14FF42450FFF718FE15
:100A800004E040F273110720FFF722FE00BD00B51D
:100A90000D488088A0F51341413911D00A4880885B
:100AA000A0F5D04104390BD007488088A0F5A641B5
:100AB000103905D004488088A0F5C851633905D1A4
:100AC0002820FFF7F5FD10E024060020FE4880886E
:100AD000A0F5AA41103904D14FF42050FFF7E8FDEA
:100AE00003E000210720FFF7F3FD00BDF0B5054648
:100AF00000240027F448807901280BD1F24880882F
:100B0000A0F5D041043905D0EF488088A0F5C85140
:100B1000633908D1EC488079F0B9EB488088A0F5BA
:100B2000C851633918D1082D15D2DFE805F0040645
:100B3000080A0C0E101206250DE007250BE004250F
:100B400009E0052507E0012505E0002503E0032570
:100B500001E0022500BF00BFDB488088A0F51341FB
:100B6000413917D0D8488088A0F5D041043911D038
:100B7000D5488088A0F5A64110390BD0D24880888E
:100B8000A0F5AA41103905D0CF488088A0F5C851FA
:100B900063397DD1082D1CD2DFE805F00406090C6D
:100BA0000F12151800BF14E044F0800411E044F067
:100BB00040040EE044F0C0040BE044F0200408E0E0
:100BC00044F0600405E044F0A00402E044F0E004D6
:100BD00000BF00BFBC488088A0F5AA41103902D1EF
:100BE0004FF4585700E03627B7488088A0F5A64153
:100BF00010390DD0B4488088A0F5AA41103907D02B
:100C0000B1488088A0F5C851633901D044F0080488
:100C1000AD488088A0F5D041043901D144F00204E8
:100C200021463846FFF754FDA7488088A0F5C851F3
:100C300063391DD014F0200F0DD0A3480088A249BD
:100C40004988884214DAA048068840889E4908806E
:100C5000084646800CE09C4800889B4949888842A9
:100C600006DD9948068840889749088008464680EE
:100C700095488088A0F5AA41103954D192494889F5
:100C8000FFF716FD0020FFF717FD8F49498900E0A7
:100C900078E0491C88B2FFF70BFD0020FFF70CFD40
:100CA00089494989891C88B2FFF702FD864909886C
:100CB000491EC1F30F20FFF7FFFC83494989C91C76
:100CC00088B2FFF7F5FC80490978491EC8B2FFF7E2
:100CD000F3FC7D498889FFF7EBFC0020FFF7ECFC73
:100CE00079498989491C88B2FFF7E2FC0020FFF7A7
:100CF000E3FC75498989891C88B2FFF7D9FC7249E0
:100D00004988491EC1F30F20FFF7D6FC6E49898937
:100D1000C91C88B2FFF7CCFC6B498978491EC8B260
:100D2000FFF7CAFC55E068494889FFF7C1FC00207D
:100D3000FFF7C2FC0020FFF7BFFC63490988491E8A
:100D4000C1F30F20FFF7B8FC5F490978491EC8B20C
:100D5000FFF7B2FC5C498889FFF7AAFC0020FFF787
:100D6000ABFC0020FFF7A8FC57494988491EC1F396
:100D70000F20FFF7A1FC54498978491EC8B2FFF73C
:100D80009BFC26E0082D1CD2DFE805F004070A0DC5
:100D90000F12151844F0300413E044F0100410E072
:100DA00044F020040DE000BF0BE044F0380408E0FC
:100DB00044F0280405E044F0180402E044F008047C
:100DC00000BF00BF032744F4805421463846FFF794
:100DD0007FFCF0BD30B504460D4629462046FFF79E
:100DE000A2FCFFF782FC394800884FF0D0414880D0
:100DF00030BD30B503460C46154633488088A0F513
:100E00001341413905D030488088A0F5A6411039FA
:100E100014D12D494889FFF74BFC1812FFF74CFC01
:100E2000D8B2FFF749FC28498889FFF741FC201216
:100E3000FFF742FCE0B2FFF73FFC91E022488088D8
:100E4000A0F5AA41103920D11F494889FFF730FC8D
:100E50001812FFF731FC1C494989491C88B2FFF779
:100E600027FCD8B2FFF728FC17498889FFF720FC38
:100E70002012FFF721FC14498989491C88B2FFF729
:100E800017FCE0B2FFF718FC6AE00F488088A0F575
:100E9000C85163392DD10C48807920B90A4800889F
:100EA000401EC01A83B208494889FFF701FC181296
:100EB000FFF702FCD8B2FFF7FFFB1812FFF7FCFBAD
:100EC000D8B2FFF7F9FB03E024060020160000204B
:100ED000FE498889FFF7ECFB2012FFF7EDFBE0B23B
:100EE000FFF7EAFB2012FFF7E7FBE0B2FFF7E4FBB6
:100EF00036E0F6488088A0F5D04104391DD1F3488A
:100F00008079012804D1F1480088401EC01A83B2BC
:100F1000EE494889FFF7CCFB1812FFF7CDFBD8B29A
:100F2000FFF7CAFBE9498889FFF7C2FB2012FFF7E8
:100F3000C3FBE0B2FFF7C0FB12E0E4488079012870
:100F400004D1E2480088401EC01A83B2DF494889B4
:100F50001946FFF7BDFBDD4988892146FFF7B8FB3D
:100F6000DA4800894FF0D04108800846458030BDFE
:100F70002DE9F0470446BE20FFF79AFB0520FFF756
:100F80009BFB204607F0CBFB07464FF06632D04B69
:100F900007F0D8FB054607F095FB1FFA80F9484695
:100FA000FFF78AFB0120FFF787FBFF20FFF784FB99
:100FB0000020FFF781FB0020FFF77EFBBDE8F087F4
:100FC00010B50446002C66D1C0498871F020088015
:100FD0004FF4A070488008468088A0F5134141393D
:100FE0000BD0BA488088A0F5D041043905D0B74865
:100FF0008088A0F5A64110391AD12C20B349088168
:101000002A2048812B20888108468088A0F5D0417D
:10101000043905D0AD488088A0F5A641103906D125
:101020004FF4A070A94908804FF4F0704880A1E007
:10103000A6488088A0F5AA41103910D14FF430504D
:10104000A24908814FF4285048814FF42C508881E0
:101050004FF4F07008804FF4487048808AE09B4855
:101060008088A0F5C85163390DD12C20974908819B
:101070002B2048812A2088814FF4F07008804FF49B
:101080004870488076E022209049088120204881DD
:10109000212088816EE001208C4988714FF4A07076
:1010A0000880F020488008468088A0F51341413927
:1010B00005D086488088A0F5A641103907D12C209C
:1010C000824908812A2048812B2088813FE07F487F
:1010D0008088A0F5D041043907D12C207B490881B4
:1010E0002B2048812A20888131E078488088A0F52B
:1010F000AA41103910D14FF43050744908814FF48F
:10110000285048814FF42C5088814FF44870088053
:101110004FF4F07048801AE06C488088A0F5C85100
:1011200063390DD12C20694908812A2048812B2060
:1011300088814FF4487008804FF4F070488006E0D2
:1011400022206249088121204881202088815F482F
:101150008088A0F5D041043905D05C488088A0F58E
:10116000A641103906D14FF4F070584908804FF469
:10117000A07048800020FFF7B9FC10BD2DE9F04FAA
:1011800086B004460D469046994604EB0800401E82
:1011900086B205EB0900401E87B24C488088A0F556
:1011A0001341413915D049488088A0F5A64110392E
:1011B0000FD046488088A0F5D041043909D0434873
:1011C0008079012826D141488088A0F5C85163392B
:1011D00020D13E494889FFF76BFA2012FFF76CFADD
:1011E000E0B2FFF769FA3012FFF766FAF0B2FFF7E4
:1011F00063FA36498889FFF75BFA2812FFF75CFA31
:10120000E8B2FFF759FA3812FFF756FAF8B2FFF7CB
:1012100053FABDE02D488088A0F5C851633934D118
:101220002A480088A0EB0800001B84B205EB0900E7
:10123000401E1FFA80F925494889FFF739FA201224
:10124000FFF73AFAE0B2FFF737FA04EB0801491E5C
:10125000C1F30F20FFF730FA04EB0801491EC8B2B2
:10126000FFF72AFA19498889FFF722FA2812FFF7AF
:1012700023FAE8B2FFF720FA4FEA2920FFF71CFA19
:1012800009F0FF00FFF718FA82E010488088A0F507
:10129000AA41103949D10D494889FFF709FA2012AE
:1012A000FFF70AFA09494989491C88B2FFF700FA91
:1012B000E0B2FFF701FA05494989891C88B2FFF7B6
:1012C000F7F93012FFF7F8F9004903E0240600208F
:1012D000666604404989C91C88B2FFF7E9F9F0B293
:1012E000FFF7EAF9FE498889FFF7E2F92812FFF7CC
:1012F000E3F9FB498989491C88B2FFF7D9F9E8B2BB
:10130000FFF7DAF9F6498989891C88B2FFF7D0F925
:101310003812FFF7D1F9F2498989C91C88B2FFF761
:10132000C7F9F8B2FFF7C8F932E0ED488079012833
:101330000ED1AA46BB46EA480088801B401E80B2F8
:101340000190E7480088001B401E80B2009003E037
:10135000A246B34601950097502005905120049075
:10136000522003905320029051460598FFF7B0F9A0
:1013700059460498FFF7ACF901990398FFF7A8F9CB
:1013800000990298FFF7A4F929462046FFF7CBF908
:1013900006B0BDE8F08F70B504460026D048058839
:1013A00040884543CE488088A0F5D041043916D105
:1013B000CB488079012812D10020C94988712A20A0
:1013C00048812B20888100210846FFF7ACF90120D5
:1013D000C34988712B2048812A20888103E000219D
:1013E0000846FFF7A0F9FFF780F9002603E04FF069
:1013F000D0404480761CAE42F9D370BD00B59FB09A
:101400000121080201F0C1FD01214FF4FC7001F03F
:10141000C9FD0120ADF8780010208DF87B00032075
:101420008DF87A001EA9AF4801F006FB2020ADF828
:10143000780010208DF87B0003208DF87A001EA91B
:10144000A84801F0F9FA4CF23370ADF87800182092
:101450008DF87B0003208DF87A001EA9A24801F0C8
:10146000EBFA4FF68070ADF8780018208DF87B000D
:1014700003208DF87A001EA99C4801F0DDFA4FF494
:101480008060ADF8780018208DF87B0003208DF87F
:101490007A001EA9964801F0CFFA0120ADF8780035
:1014A00018208DF87B0003208DF87A001EA9914842
:1014B00001F0C2FA02200890002009900F200A9043
:1014C00000200B900C900D900E9001900290042043
:1014D00003900020049005900690079004200F9040
:1014E0000020109011901020129000201390159061
:1014F0001490169017904FF4805018900020199077
:101500004FF480401A9000201B9008A81C9001A85E
:101510001D900FA800F073FF0121042001F0D0F806
:101520000020754908604FF0640000F0B7FD01200D
:101530007249C1F89401322000F0B0FD0020FFF79D
:10154000CCF86749888008468088FF280ADB08466F
:101550008088A0F57F41FF3904D061488088B0F5CC
:10156000134F7CD1D320FFF7A3F8FFF7A9F85C490C
:101570008880FFF7A5F85A498880FFF7A1F85849F5
:101580008880084680884FF6FF7101EA00205449A0
:101590008880FFF795F85249898808435049888028
:1015A00008468088A0F51341413958D0BF20FFF785
:1015B0007FF8FFF785F84A498880FFF781F84849A6
:1015C0008880FFF77DF846498880FFF779F844491D
:1015D0008880084680884FF6FF7101EA0020404964
:1015E0008880FFF76DF83E49898808433C49888028
:1015F00008468088A0F5D041043930D0D420FFF7C8
:1016000057F8FFF75DF836498880FFF759F83449F5
:101610008880FFF755F832498880084680884FF661
:10162000FF7101EA00202E498880FFF749F82C4914
:10163000898808432A49888008468088A0F5A64101
:10164000103967D04FF45A40FFF732F8FFF738F8F7
:10165000234988804FF45B40FFF72AF800E059E007
:10166000FFF72EF81E498880084680884FF6FF71E4
:1016700001EA00201A4988804FF45C40FFF718F80F
:10168000FFF71EF8164989880843154988800846DF
:101690008088B0F5004F02D145F210508880104884
:1016A0008088A0F5AA41103934D0A120FFF700F8B6
:1016B000FFF706F80A498880FFF702F80849888092
:1016C000084680884FF6FF7101EA002004498880AF
:1016D000FEF7F6FF024989880843014988800FE038
:1016E00024060020001001400014014000180140B1
:1016F00000200140001C01409401224200002242CF
:1017000008468088A0F5AE41613903D141F66310E7
:10171000FE498880FD488088A0F5134141397CD17D
:10172000CF20FEF7C5FF0020FEF7C6FFC120FEF761
:10173000C3FF3020FEF7C0FFED20FEF7B9FF6420A5
:10174000FEF7BAFF0320FEF7B7FF1220FEF7B4FF43
:101750008120FEF7B1FFE820FEF7AAFF8520FEF703
:10176000ABFF1020FEF7A8FF7A20FEF7A5FFCB20E5
:10177000FEF79EFF3920FEF79FFF2C20FEF79CFF0F
:101780000020FEF799FF3420FEF796FF0220FEF7B7
:1017900093FFF720FEF78CFF2020FEF78DFFEA2055
:1017A000FEF786FF0020FEF787FF0020FEF784FF8C
:1017B000C020FEF77DFF1B20FEF77EFFC120FEF755
:1017C00077FF0120FEF778FFC520FEF771FF30207C
:1017D000FEF772FF3020FEF76FFFC720FEF768FFAD
:1017E000B720FEF769FF3620FEF762FF4820FEF7BC
:1017F00063FF3A20FEF75CFF5520FEF75DFFB12046
:10180000FEF756FF0020FEF757FF1A20FEF754FFA1
:10181000B620FEF74DFF0A2000E097E0FEF74CFFF0
:10182000A220FEF749FFF220FEF742FF0020FEF75C
:1018300043FF2620FEF73CFF0120FEF73DFFE0209E
:10184000FEF736FF0F20FEF737FF2A20FEF734FFA2
:101850002820FEF731FF0820FEF72EFF0E20FEF7AE
:101860002BFF0820FEF728FF5420FEF725FFA920B4
:10187000FEF722FF4320FEF71FFF0A20FEF71CFFA2
:101880000F20FEF719FF0020FEF716FF0020FEF7DD
:1018900013FF0020FEF710FF0020FEF70DFFE120F0
:1018A000FEF706FF0020FEF707FF1520FEF704FFF6
:1018B0001720FEF701FF0720FEF7FEFE1120FEF7BE
:1018C000FBFE0620FEF7F8FE2B20FEF7F5FE562065
:1018D000FEF7F2FE3C20FEF7EFFE0520FEF7ECFEE1
:1018E0001020FEF7E9FE0F20FEF7E6FE3F20FEF790
:1018F000E3FE3F20FEF7E0FE0F20FEF7DDFE2B208B
:10190000FEF7D6FE0020FEF7D7FE0020FEF7D4FE3D
:101910000120FEF7D1FE3F20FEF7CEFE2A20FEF783
:10192000C7FE0020FEF7C8FE0020FEF7C5FE00201F
:10193000FEF7C2FEEF20FEF7BFFE1120FEF7B8FE55
:10194000782000F0ABFB2920FEF7B2FE0020FFF765
:1019500037FB00206E4908604FF47840FFF71BFD0D
:101960001FB000BD2DE9FC4F05460E4617469846B0
:10197000DDF82C900020019064488088A0F5D041CB
:10198000043929D161488079012825D1AB463546F3
:101990005E480088C01B401E86B247465B480088F0
:1019A000A0EB0B00401E1FFA80F8002057498871F9
:1019B0002A2048812B20888143463A4631462846D2
:1019C000CDF80090FFF7CEFF0120504988712B2001
:1019D00048812A2088811DE0781B401C80B201903C
:1019E000344615E021462846FEF79DFEFEF77DFEB3
:1019F0004FF0000A07E04FF0D040A0F802900AF143
:101A000001001FFA80FA01988245F4DB601C84B261
:101A10004445E7DDBDE8FC8F2DE9F84F07460D464C
:101A200090469946DDF828B0A8EB0700401C1FFA45
:101A300080FAA9EB0500401C80B20090002415E05C
:101A4000281981B23846FEF76EFEFEF74EFE0026DC
:101A500008E004FB0A603BF810004FF0D0414880DA
:101A6000701C86B25645F4DB601C84B20098844238
:101A7000E6DBBDE8F88F2DE9FF4F84B081468A464A
:101A80000020039002900698A0EB09050798A0EBB0
:101A90000A06CDF80490CDF800A0002D01DD012745
:101AA00005E00DB9002702E04FF0FF376D42002E30
:101AB00002DD4FF0010806E016B94FF0000802E021
:101AC0004FF0FF387642B54201DD2C4600E0344647
:101AD0004FF0000B26E0009A91B2019A90B2FFF706
:101AE00079F90398284403900298304402900398AF
:101AF000A04205DD0398001B039001983844019033
:101B00000298A0420ADD0298001B03E02406002090
:101B10008001224202900098404400900BF10100A5
:101B20001FFA80FB601C8345D5DD08B0BDE8F08F4F
:101B3000F0B504460D4616461F462B46324629464A
:101B40002046FFF798FF3B46224629462046FFF7EE
:101B500092FF3B46324639462046FFF78CFF3B4614
:101B6000324629463046FFF786FFF0BD2DE9F043A7
:101B700006460F469046002445460320A0EB480940
:101B80003CE07A1B91B2321990B2FFF723F93A1B6D
:101B900091B2721990B2FFF71DF93A1991B2721908
:101BA00090B2FFF717F97A1991B2321990B2FFF794
:101BB00011F97A1991B2321B90B2FFF70BF93A1969
:101BC00091B2721B90B2FFF705F97A1B91B2321BEA
:101BD00090B2FFF7FFF83A1B91B2721B90B2FFF779
:101BE000F9F8641CB9F1000F03DAA000801D8144EC
:101BF00004E0601B80000A3081446D1EAC42C0DDF1
:101C0000BDE8F0832DE9F84F80460E4617461C4686
:101C1000B3462046E31704EB5373DB1021464FEA2B
:101C2000E47C04EB5C7C4FEAEC0CB4EBCC0C02D013
:101C30004FF0010C01E04FF0000C6344224604EB2E
:101C4000D27C4FEA6C0C03FB0CF3DBB20093A7F1E0
:101C50002000C7B2002556E00C2C07D107EB470047
:101C60009F4901EB800010F8059013E0102C05D17E
:101C70009C4800EB071010F805900BE0182C07D1DA
:101C800007EBC700984901EB800010F8059001E0D0
:101C9000BDE8F88F4FF0000A2FE019F0800F06D052
:101CA0009248028831464046FFF7A3F807E00A98B9
:101CB00028B98F48028831464046FFF79AF84FEA24
:101CC00049604FEA1069701C86B28A484088B04269
:101CD00000DCDDE7A6EB0B00A0420AD15E4608F16E
:101CE00001001FFA80F883480088404500DCCFE7F8
:101CF00006E00AF1010000F0FF0ABAF1080FCCDBA0
:101D000000BF681CC5B200988542A5DB00BFBFE7D5
:101D100010B50246012000E050430B00A1F1010480
:101D2000E1B2F9D110BD2DE9FF4F81B007469146D0
:101D30001E460E9D4FF0000A002439E0301B401E65
:101D4000C1B20A20FFF7E4FFB9FBF0F00A21B0FBB3
:101D5000F1F201FB1208BAF1000F16D1701EA04279
:101D600013DDB8F1000F0ED10020AB4605EBDB719F
:101D7000491001FB0471009088B22B462022029981
:101D8000FFF740FF12E04FF0010A0020AB4605EBE1
:101D9000DB71491001FB0471009088B208F1300139
:101DA000CAB22B460299FFF72DFF00BF601CC4B2D8
:101DB000B442C3DB05B0BDE8F08F2DE9FF4F82B020
:101DC000064692461F46DDE90F4800200190002597
:101DD0004DE0781B401EC1B20A20FFF799FFBAFB05
:101DE000F0F00A21B0FBF1F201FB1209019850BB9F
:101DF000781EA84227DDB9F1000F22D118F0800F1C
:101E00000FD008F00100A34604EBDB71491001FB81
:101E10000561009088B2234630220399FFF7F2FE55
:101E20000EE008F00100A34604EBDB71491001FB52
:101E30000561009088B2234620220399FFF7E2FE55
:101E400013E00120019008F00100A34604EBDB71D0
:101E5000491001FB0561009088B209F13001CAB256
:101E600023460399FFF7CEFE00BF681CC5B2BD42F2
:101E7000AFDB06B0BDE8F08F2DE9F84704460D460C
:101E800090469946DDE9096704F0FF0A08EB040073
:101E90001FFA80F809EB05001FFA80F916E04445A7
:101EA00002DB5446A81985B24D4500DB14E0002042
:101EB00000903A78334629462046FFF7A3FE304685
:101EC00006EBD07104EB61018CB27F1C38787E2860
:101ED00002DC38782028E2DA00BFBDE8F88700008D
:101EE00040890008B48D0008A49300081600002063
:101EF000180000202406002000B597B001214FF4FF
:101F0000F07001F04FF80121080201F03EF84FF6A1
:101F10003370ADF8000018208DF8030003208DF811
:101F2000020069463B4800F087FD4FF68370ADF82C
:101F300000006946384800F07FFD4FF23F00ADF8E1
:101F400000006946354800F077FD3F20ADF80000FD
:101F50006946334800F070FD8020ADF8000018207D
:101F60008DF8030003208DF802006946294800F02F
:101F700063FD002001900290032003900020049054
:101F8000059006900790089009900A9010200B90F9
:101F900000200C900E900D900F9010904FF48050F8
:101FA0001190002012901390149001A81590169093
:101FB00008A800F024FA0121002000F081FB17B0EE
:101FC00000BD10B506E004784FF0C0435C54891C96
:101FD000401C521E002AF6D110BD06E04FF0C0434F
:101FE0005B5C00F8013B891C521E002AF6D1704749
:101FF00013B50C46012221466846FFF7E2FF1CBDDF
:1020000018B50446012221466846FFF7E6FF9DF811
:10201000000018BD0014014000180140001C0140E0
:102020000020014010B56FF0040000F07BF92D484E
:1020300000682D49B0FBF1F02C4908700846007883
:1020400000EB4001C1EBC0104FF6FF7101EAC00088
:102050002749088010BD0146244A12784A434FF0B0
:10206000E0235A6100229A611A46126942F0010285
:102070001A6100BF4FF0E022106910F0010F02D08A
:1020800010F4803FF6D04FF0E022126922F00102F6
:102090004FF0E0231A6100229A6170470146144A0A
:1020A00012884A434FF0E0235A6100229A611A468F
:1020B000126942F001021A6100BF4FF0E02210697C
:1020C00010F0010F02D010F4803FF6D04FF0E02264
:1020D000126922F001024FF0E0231A6100229A6196
:1020E000704700000000002000127A001A00002053
:1020F0001C00002010B54FF4A06000F0C3F810BD24
:10210000014600BF704700BF4A4A128812F0400FD4
:10211000FAD0C2B2474B1B1D1A80704710B586B06B
:102120000446012144F2040000F03CFF414800F065
:10213000A1FF4FF40070ADF8140003208DF81600D5
:1021400018208DF8170005A93B4800F075FC4FF4E6
:102150008060ADF8140004208DF8170005A93648FA
:1021600000F06AFC25208DF8000003208DF80100A6
:102170008DF8020001208DF80300684600F087F812
:1021800001940020ADF80800ADF80A00ADF80C008D
:10219000ADF810000C20ADF80E0001A9254800F0A4
:1021A000ACFF012240F22551224801F03EF8012106
:1021B000204801F02EF806B010BD10B540F22551B0
:1021C0001C4801F017F910B31A4801F093F8C4B293
:1021D0001A48008810F4004F2BD11848008810F4DA
:1021E000804F0CD00A2C03D000201449088020E036
:1021F0001248008840F400401049088019E00D2C76
:1022000006D10E48008840F480400C49088010E058
:102210000A480088C0F30D0009490C54074800889B
:10222000401C0649088008460088C72801DD0020B8
:10223000088010BD00380140000801402000002047
:10224000320600200948804709480047FEE7FEE7BC
:10225000FEE7FEE7FEE7FEE7FEE7FEE7FEE7FEE756
:1022600004480549054A064B704700006904000808
:1022700031010008801D002080230020801F0020E5
:10228000801F002031490143314A1160704770B509
:10229000002100230F22C4780CB32D4C246804F4D1
:1022A000E064C4F5E064210AC1F10403CA40447843
:1022B00004FA03F18478144021430901254C06787F
:1022C000A155047804F01F050124AC4005786D1178
:1022D0004FF0E02606EB8505C5F8004109E00478DB
:1022E00004F01F050124AC401B4D0678761145F81B
:1022F000264070BD194A0A400243154B1B1F1A6045
:10230000704739B1124A121D12680243104B1B1D4F
:102310001A6006E00E4A121D126882430C4B1B1D08
:102320001A607047042808D14FF0E021096941F094
:1023300004014FF0E022116107E04FF0E02109694C
:1023400021F004014FF0E022116170470000FA050E
:102350000CED00E000E400E080E100E080FFFF1F02
:1023600030B943F2DB014FF0204242F8201005E083
:1023700043F2D2014FF0204242F820106FF0704239
:10238000411C4FF0204343F8212011461A4602EB2E
:102390008002C2F80411704710280AD118214FF0AA
:1023A00020421166402151664FF0FC319166D166A2
:1023B00010E01821F84A11604FF040014FF0204220
:1023C000C2F884104FF0FC31F44A11604FF0204203
:1023D000C2F88C1070471820F14908604FF00000D7
:1023E0004FF02041C1F8A4004FF0FC30ED490860E7
:1023F00001F10401086001F1040108607047D0E9AF
:1024000001121143C2681143026911434269114329
:1024100082691143C2691143026A1143426A11433E
:10242000826A1143C26A1143026B11434FF0204389
:10243000026843F822108168082908D11A46016809
:1024400052F8211041F04001026843F82210416B1C
:102450000968426B526841EA0211426B926841EA94
:102460000221426B928941EA0241426B128A41EA9F
:102470000251426B127D41EA0261426B9269114343
:102480000268521C4FF0204343F82210C16AB1F594
:10249000804F1AD1816B0968826B526841EA021140
:1024A000826B926841EA0221826B128A41EA0251F0
:1024B000826B127D41EA0261826B9269114302686C
:1024C00003EB8202C2F8041108E06FF070414FF094
:1024D0002043026803EB8202C2F80411704730B552
:1024E000002100220023446844F0080485682C433E
:1024F000C5682C4305692C43456944EA4524856930
:1025000044EA4531C4692468C5696D6844EA052414
:10251000C5692D8944EA0544C5692D7B44EA0562F5
:10252000046A2468056A6D6844EA0524056A2D89F1
:1025300044EA0544056A2D7B44EA05630468102CCF
:1025400005D14FF020442166A266E36607E0924C75
:1025500021604FF02044C4F88820934C236030BDA4
:10256000016841F01001426841EA4221826841EA73
:1025700042318B4A1160C1680968C268526841EAF9
:102580000221C268128941EA0241C268127B41EA13
:102590000261844A1160016909680269526841EA6E
:1025A00002210269128941EA02410269127B41EA71
:1025B00002617E4A1160416909684269526841EAD4
:1025C00002214269128941EA02414269127B41EAD1
:1025D00002614FF02042C2F8B01070470021016044
:1025E0000221416000218160C1600161416181611E
:1025F000C16101624FF48051416249008162002152
:10260000C16201630F21426B1160426B5160FF2177
:10261000426B91600F21426BD160426B1161426B42
:1026200051610021426B91610F21826B1160826BBD
:102630005160FF21826B91600F21826BD160826BB0
:102640001161826B51610021826B91617047102191
:102650000160002141608160C1600161416181616F
:10266000FC21C2691160C2695160C2699160C2698E
:10267000D160026A1160026A5160026A9160026A66
:10268000D16070470021016041608160FC21C26817
:102690001160C2685160C2689160C268D16002690D
:1026A000116002695160026991600269D1604269FA
:1026B000116042695160426991604269D16070471E
:1026C00051B14FF0204252F8202042F001024FF069
:1026D000204343F8202009E04FF0204252F8202008
:1026E000334B1A404FF0204343F82020704799B1F4
:1026F000102808D14FF02042126E42F004024FF031
:1027000020431A661DE0244A126842F004024FF08A
:102710002043C3F8802014E0102809D14FF0204254
:10272000126E234BDB1E1A404FF020431A6608E05E
:10273000194A12681F4B02EA03024FF02043C3F804
:102740008020704740B11649096841F004014FF0FC
:102750002042C2F8A01008E011490968154A01EAB0
:1027600002014FF02042C2F8A010704799B1102822
:1027700008D14FF02042126E42F040024FF0204349
:102780001A662DE0044A126842F040024FF02043DE
:10279000C3F8802024E00FE0800000A0880000A0A3
:1027A000A00000A0A80000A08C0000A0AC0000A029
:1027B000FEFF0F00FBFF0F00102808D14FF0204252
:1027C000126E684B1A404FF020431A6608E0664AC2
:1027D0001268644B02EA03024FF02043C3F88020E2
:1027E000704701460020102903D14FF02042506F5E
:1027F00001E05E4A1068704710B5F2B1102807D1A9
:102800004FF020435B6E0B434FF02044636632E091
:10281000B0F5807F08D1564B1B6843EA01034FF0A7
:102820002044C4F8843026E0524B1B6843EA01037D
:102830004FF02044C4F8A4301DE0102807D14FF019
:1028400020435B6E8B434FF02044636613E0B0F58A
:10285000807F08D1464B1B6823EA01034FF02044D8
:10286000C4F8843007E0434B1B6823EA01034FF0B0
:102870002044C4F8A43010BD10B502460020002347
:10288000102A03D14FF02044636E07E0B2F5807F39
:1028900002D1374C236801E0364C23680B4201D04B
:1028A000012000E0002010BD102807D14FF0204289
:1028B000526E8A434FF020435A6613E0B0F5807F92
:1028C00008D12B4A126822EA01024FF02043C3F8D4
:1028D000842007E0274A126822EA01024FF02043D1
:1028E000C3F8A420704770B50246002000230024DE
:1028F0000025102A03D14FF02046736E07E0B2F591
:10290000807F02D11A4E336801E01A4E336803EA21
:10291000010403EAD10514B10DB1012000E000204B
:1029200070BD102808D14FF02042526E22EAD10229
:102930004FF020435A6613E0B0F5807F08D10C4A6F
:10294000126822EAD1024FF02043C3F8842007E046
:10295000084A126822EAD1024FF02043C3F8A420AB
:1029600070470000BFFF0F00800000A0940000A08F
:10297000840000A0A40000A010B50446CA48844208
:1029800008D10121042000F027FB0021042000F0E1
:1029900023FB46E0C548844208D10121082000F00D
:1029A0001BFB0021082000F017FB3AE0C0488442DE
:1029B00008D10121102000F00FFB0021102000F0B1
:1029C0000BFB2EE0BB48844208D10121202000F0FF
:1029D00003FB0021202000F0FFFA22E0B6488442E9
:1029E00008D10121402000F0F7FA0021402000F03A
:1029F000F3FA16E0B148844208D10121802000F0AA
:102A0000EBFA0021802000F0E7FA0AE0AC488442AB
:102A100007D10121801500F0DFFA0021A01500F098
:102A2000DBFA10BD10B50121084600F0D5FA0021EF
:102A3000012000F0D1FA10BD2DE9F0410246002539
:102A40000026002000230024002791F803C00CF08A
:102A50000F0591F803C01CF0100F03D091F802C0CD
:102A60004CEA050591F800C0BCF1000F31D01468A4
:102A700000202BE04FF0010C0CFA00F3B1F800C07D
:102A80000CEA03069E4220D183004FF00F0C0CFA93
:102A900003F7BC4305FA03FC4CEA040491F803C0B5
:102AA000BCF1280F06D14FF0010C0CFA00FCC2F863
:102AB00014C00AE091F803C0BCF1480F05D14FF0F3
:102AC000010C0CFA00FCC2F810C0401C0828D1D33D
:102AD0001460B1F800C0BCF1FF0F34DD5468002071
:102AE0002EE000F1080C4FF0010808FA0CF3B1F8E1
:102AF00000C00CEA03069E4221D183004FF00F0C68
:102B00000CFA03F7BC4305FA03FC4CEA040491F801
:102B100003C0BCF1280F05D100F1080C08FA0CF82D
:102B2000C2F8148091F803C0BCF1480F07D100F13E
:102B3000080C4FF0010808FA0CF8C2F81080401C8D
:102B40000828CED35460BDE8F0814FF6FF710180B4
:102B5000022181700421C1707047024600209368F1
:102B60000B4201D0012000E0002070470146886838
:102B700080B2704702460020D3680B4201D001208A
:102B800000E0002070470146C86880B270470161CC
:102B90007047416170470AB1016100E041617047CF
:102BA000C16070474FF480320A4382618161826163
:102BB00082698269704702460020424B18684FF6CE
:102BC0008073184040EA021008433E4B186070477B
:102BD0003D49C8617047F0B50A4600230024002132
:102BE000002500F00046B6F1004F02D1354EF169E4
:102BF00001E0344E7168C0F3034583B200F440161F
:102C0000B6F5401F08D121F070612E4E766826F08F
:102C100070662C4F7E6012E000F48016B6F5801FBF
:102C200006D1032606FA05F4A14341F0706106E0DF
:102C3000460D360103FA06F6B14341F0706122B148
:102C4000460D360103FA06F6314300F00046B6F1B0
:102C5000004F02D11B4EF16101E01A4E7160F0BDD0
:102C600030B500228B071C0F0F2303FA04F2154B1B
:102C700008338C1053F824309343124C08348D10D1
:102C800044F8253023468C1053F824308C07240F49
:102C900000FA04F423430B4C08348D1044F825301B
:102CA00030BD0A490860704700080140000C01402F
:102CB000001001400014014000180140001C0140B8
:102CC000002001400000014000002042DC002042C2
:102CD000DD48006840F00100DB49086008464068B4
:102CE000DA490840D849486008460068D849084091
:102CF000D54908600846006820F48020086008462E
:102D0000406820F4FE0048604FF41F008860704760
:102D1000CD49096821F48031CB4A11601146096818
:102D200021F480211160B0F5803F03D0B0F5802FF1
:102D30000ED106E0C449096841F48031C24A1160ED
:102D400007E0C149096841F4A021BF4A116000E0D1
:102D500000BF00BF704710B50146002200230020CD
:102D60004A11012A02D1B84C236806E0022A02D196
:102D7000B54C236A01E0B44C636A01F01F020124E0
:102D800094401C4201D0012000E0002010BD38B565
:102D9000002000900024002500BF3120FFF7DBFF5A
:102DA00005460098401C00900098B0F5A06F01D037
:102DB000002DF2D03120FFF7CEFF08B1012400E052
:102DC0000024204638BD014600209F4A106820F0AC
:102DD000F80040EAC100106070479E4908607047E3
:102DE00002460020984B586820F47C1042EA010308
:102DF0001843954B586070479649086670470146DE
:102E00000020914A506820F003000843506070474A
:102E10008D48406800F00C007047014600208A4A47
:102E2000506820F0F00008435060704701460020D1
:102E3000854A506820F4E0600843506070470146BE
:102E40000020814A506820F4605040EAC100506080
:102E5000704729B17C4A527A02437B4B5A7204E094
:102E6000794A527A8243784B5A7270477A4908609D
:102E7000704701460020744A506820F440400843DF
:102E8000506070470021754A11706F4A82F8201017
:102E9000012802D0042808D103E001216F4A1170F3
:102EA00004E005216D4A117000E000BF00BF7047CB
:102EB0006B49086070476449096A0143624A1162BC
:102EC0007047674944390860704730B500210022D7
:102ED000002400235C4D6D6805F00C0121B104292C
:102EE00005D0082923D105E05E4D056022E05D4D47
:102EF00005601FE0544D6D6805F47012524D6D6809
:102F000005F48034022505EB92421CB9564D554319
:102F100005600BE04C4D6D6815F4003F03D0524D39
:102F20005543056002E04F4D5543056002E04D4DAD
:102F3000056000BF00BF444D6D6805F0F001090950
:102F40004A4D6B5C0568DD4045603F4D6D6805F49A
:102F5000E061090A454D6B5C4568DD4085603A4D8E
:102F60006D6805F46051C90A404D6B5C4568DD40F1
:102F7000C560354D6D6805F44041890B3C4D6B5C77
:102F8000C568B5FBF3F5056130BD29B12E4A52691C
:102F900002432D4B5A6104E02B4A526982432A4B6B
:102FA0005A61704729B1284A92690243264B9A61B7
:102FB00004E0254A92698243234B9A61704729B104
:102FC000214AD2690243204BDA6104E01E4AD269E9
:102FD00082431D4BDA61704729B11B4AD268024314
:102FE000194BDA6004E0184AD2688243164BDA6063
:102FF000704729B1144A12690243134B1A6104E065
:10300000114A12698243104B1A61704714494039C2
:10301000086070470F49C86470470B49C871704712
:103020000948406A40F0807007494862704701468D
:103030000020054A92680A4201D0012000E00020E9
:103040007047014988727047001002400000FFF885
:10305000FFFFF6FE00004242D8004242201002402C
:103060008004424200127A0000093D00280000203E
:103070003800002010B50446FB48844209D10121E4
:103080008803FFF7A9FF00214FF48040FFF7A4FF5A
:1030900032E0F648844209D101214804FFF7A9FF34
:1030A00000214FF40030FFF7A4FF25E0F0488442F0
:1030B00009D101218804FFF79CFF00214FF48020F3
:1030C000FFF797FF18E0EB48844209D10121C804BB
:1030D000FFF78FFF00214FF40020FFF78AFF0BE07E
:1030E000E548844208D101210805FFF782FF00214D
:1030F0004FF48010FFF77DFF10BD2DE9F04786B03B
:1031000005460E460024A24600BFA1460027B0890E
:1031100000B100BF2F462C8A4CF6FF700440F088A7
:1031200004432C82AC894EF6F3100440B0883189F8
:103130000843718908430443AC81AC8A4FF6FF40D1
:103140000440B0890443AC8201A8FFF7BEFEC64824
:10315000874202D1DDF810A001E0DDF80CA0A889BB
:1031600010F4004F08D00AEBCA0000EB0A103168D7
:103170004900B0FBF1F807E00AEBCA0000EB0A10C7
:1031800031688900B0FBF1F86420B8FBF0F004016D
:103190002009642101FB1089A88910F4004F08D090
:1031A000322000EBC900B0FBF1F000F0070004434F
:1031B00008E0322000EB09106421B0FBF1F000F0D0
:1031C0000F0004432C8106B0BDE8F0874FF4165180
:1031D000016000218180C18001810C214181002199
:1031E0008181704710B502460020108A4FF2FF031C
:1031F00018400B884C8823438C882343CC88234376
:103200001843108210BD0021018041808180C1805F
:10321000704721B1828942F40052828104E08289A0
:103220004DF6FF731A4082817047F0B503460024C3
:10323000002600250020A1F510676A3F00D100BFDD
:103240001846C1F3421401F01F06012707FA06F5DC
:10325000012C01D10C3004E0022C01D1103000E02F
:1032600014301AB107682F43076002E00768AF43C4
:103270000760F0BD1AB1838A0B43838202E0838A20
:103280008B4383827047028A4FF6F0731A400282A2
:10329000028A0A430282704782894FF2FF731A4002
:1032A000828182890A438281704721B1828942F0FA
:1032B0000202828104E082894FF6FD731A40828106
:1032C0007047028A4FF6DF731A400282028A0A436D
:1032D0000282704721B1028A42F48042028204E0F5
:1032E000028A4BF6FF731A4002827047C1F308024C
:1032F0008280704701468888C0F308007047818942
:1033000041F0010181817047028BD2B20283028BAE
:1033100042EA012202837047028B02F47F42028359
:10332000028B0A430283704721B1828A42F0200255
:10333000828204E0828A4FF6DF731A4082827047ED
:1033400021B1828A42F01002828204E0828A4FF622
:10335000EF731A408282704721B1828A42F00802DC
:10336000828204E0828A4FF6F7731A4082827047A5
:1033700021B1828942F40042828103E08289C2F352
:103380000E028281704721B1828A42F400628282F9
:1033900004E0828A4FF2FF731A4082827047828A69
:1033A0004FF6FB731A408282828A0A4382827047F8
:1033B00021B1828A42F00202828204E0828A4FF6C0
:1033C000FD731A408282704702460020B1F5007FEB
:1033D00000D100BF13880B4201D0012000E0002083
:1033E000704701F40072B2F5007F00D100BFCA43FC
:1033F0000280704770B5024600240023002500209B
:10340000A1F510666A3E00D100BFC1F3421501F07C
:103410001F03012606FA03F3012D02D196893340DA
:1034200006E0022D02D1168A334001E0968A33402D
:103430000C12012606FA04F41688344013B10CB1BC
:10344000012000E0002070BD10B500220023A1F58E
:1034500010646A3C00D100BF0A1201249440A3B258
:10346000DC43048010BD00000038014000440040EF
:1034700000480040004C00400050004010B5044699
:10348000FE48844208D10121C014FFF7A5FD0021A8
:10349000E014FFF7A1FDC4E0B4F1804F08D1012191
:1034A0000846FFF7A6FD00210120FFF7A2FDB8E0C6
:1034B000F348844208D101210220FFF79AFD002140
:1034C0000220FFF796FDACE0EE48844208D10121CE
:1034D0000420FFF78EFD00210420FFF78AFDA0E005
:1034E000E948844208D101210820FFF782FD00212C
:1034F0000820FFF77EFD94E0E448844208D10121D2
:103500001020FFF776FD00211020FFF772FD88E004
:10351000DF48844208D101212020FFF76AFD002105
:103520002020FFF766FD7CE0DA48844208D10121C3
:103530004014FFF751FD00216014FFF74DFD70E0CE
:10354000D548844209D10121C804FFF745FD002177
:103550004FF40020FFF740FD63E0D048844209D1DA
:1035600001210805FFF738FD00214FF48010FFF717
:1035700033FD56E0CA48844209D101214805FFF7CE
:103580002BFD00214FF40010FFF726FD49E0C54850
:10359000844208D101214020FFF72BFD002140206B
:1035A000FFF727FD3DE0C048844208D1012180207B
:1035B000FFF71FFD00218020FFF71BFD31E0BB4816
:1035C000844208D101218015FFF713FD0021A015C9
:1035D000FFF70FFD25E0B648844209D10121080418
:1035E000FFF7FAFC00214FF48030FFF7F5FC18E0FC
:1035F000B048844209D101214804FFF7EDFC0021C5
:103600004FF40030FFF7E8FC0BE0AB48844208D1F0
:1036100001218804FFF7E0FC00214FF48020FFF730
:10362000DBFC10BD00220288944B98420ED0994BCF
:1036300098420BD0B0F1804F08D0914B984205D002
:10364000904B984202D0904B984204D14FF68F7322
:103650001A404B881A438D4B984207D08C4B9842A6
:1036600004D04FF6FF431A40CB881A4302808B8860
:1036700083850B880385814B98420BD0854B9842FC
:1036800008D08B4B984205D08A4B984202D08A4B87
:10369000984201D10B7A038601238382704770B56B
:1036A000002400220023058C4FF6FE763540058469
:1036B000028C8388048B4FF68F752C40B51E2C40EE
:1036C0000D882C43751E2A400D892A434D882A43B4
:1036D0006A4DA8420BD06F4DA84208D0744DA84245
:1036E00005D0744DA84202D0734DA84213D14FF6B5
:1036F000F7752A404D892A434FF6FB752A408D887D
:103700002A434FF6FF652B404FF6FF552B408D891E
:103710002B43CD892B4383800483CD888586028407
:1037200070BD70B5002400220023058C4FF6EF76A3
:1037300035400584028C8388048B48F6FF752C4045
:103740004FF6FF452C400D884FF6FF7606EA05251B
:103750002C434FF6DF752A400D8906EA05152A43EA
:103760004D8806EA05152A43444DA84202D0494D2A
:10377000A8421DD14FF67F752A404D894FF6FF763E
:1037800006EA05152A434FF6BF752A408D8806EADA
:1037900005152A434FF6FF352B404FF2FF752B409E
:1037A0008D8906EA85052B43CD8906EA85052B43DD
:1037B00083800483CD880587028470BD70B50024A2
:1037C00000220023058C4FF6FF6635400584028CED
:1037D0008388848B4FF68F752C404FF6FC752C40F8
:1037E0000D882C434FF6FF552A400D894FF6FF7682
:1037F00006EA05252A434D8806EA05252A431F4D7A
:10380000A84202D0234DA8421DD14FF2FF752A4095
:103810004D894FF6FF7606EA05252A434FF6FF3518
:103820002A408D8806EA05252A434EF6FF752B406F
:103830004DF6FF752B408D8906EA05152B43CD8982
:1038400006EA05152B4383808483CD88858702840F
:1038500070BD70B5002200230024058C4EF6FF7663
:1038600035400584038C8488828B48F6FF752A4096
:103870004FF6FF452A400D8820E00000002C014053
:103880000004004000080040000C00400010004010
:103890000014004000340140004C01400050014041
:1038A0000054014000180040001C0040002000406F
:1038B0000040014000440140004801404FF6FF76BF
:1038C00006EA05252A434DF6FF752B400D8906EAC9
:1038D00005352B434D8806EA05352B43FA4DA842A2
:1038E00002D0FA4DA84208D14BF6FF752C408D89C5
:1038F0004FF6FF7606EA85152C4384808283CD88B7
:10390000A0F84050038470BD828B4FF2FF331A4001
:103910008283828B4FF6FF7303EA01231A4382836B
:103920007047F0B50C461546002200210026078C92
:103930004EF6FF7C07EA0C070784828B018C4FF65A
:10394000FF7707EA043640F6FF473A404FF6FF7725
:1039500007EA05273A434FF6FF7707EA03373A436A
:10396000D94FB8420ED0D94FB8420BD0B0F1804FEA
:1039700008D0D74FB84205D0D64FB84202D0D64F64
:10398000B84206D14DF6FF77394046F480573943A7
:1039900005E047F6FF57394044F4805739438283A6
:1039A0000184F0BD828B4FF6F3731A408283828BC1
:1039B0000A4382837047F0B50C4615460022002169
:1039C0000026078C4FF6FF6C07EA0C070784828BF2
:1039D000018C4FF6FF7707EA04264FF60C773A4042
:1039E0004FF6FF7707EA03172F433A43B64FB84223
:1039F0000ED0B64FB8420BD0B0F1804F08D0B44FC4
:103A0000B84205D0B34FB84202D0B34FB84206D146
:103A10004FF6FF57394046F48077394305E04FF2BF
:103A2000FF57394044F48077394382830184F0BDE5
:103A3000028B4FF2FF331A400283028B4FF6FF7363
:103A400003EA01231A4302837047F0B50C4615467A
:103A5000002200210026078C4FF6EF7C07EA0C07B6
:103A60000784028B018C4FF6FF7707EA041640F6B5
:103A7000FF473A404FF6FF7707EA03373A434FF6DE
:103A8000FF7707EA05273A438F4FB8420ED08F4F92
:103A9000B8420BD0B0F1804F08D08D4FB84205D05E
:103AA0008C4FB84202D08C4FB84206D14FF6DF7728
:103AB000394046F01007394305E04FF65F7739404B
:103AC00044F01007394302830184F0BD028B4FF6A6
:103AD000F3731A400283028B0A4302837047F0B5E6
:103AE0000C46154600220021068C4FF6FE773E401C
:103AF0000684028B018C4FF60C7632407E1C06EA5F
:103B000003162E433243704EB0420ED06F4EB04279
:103B10000BD0B0F1804F08D06D4EB04205D06D4E45
:103B2000B04202D06C4EB04206D14FF6FD76314025
:103B300044F00106314305E04FF6F576314044F09C
:103B40000106314302830184F0BD70B505460C4681
:103B50005D4885420ED05D4885420BD0B5F1804F5F
:103B600008D05B48854205D05A48854202D05A4861
:103B7000854200D100E000BF208850B92389A28887
:103B800061882846FFF7ABFFE1882846FFF79EFFD4
:103B900025E0208804280AD12389A2886188284644
:103BA000FFF753FFE1882846FFF742FF17E0208820
:103BB00008280AD12389A28861882846FFF7FBFEDE
:103BC000E1882846FFF7EEFE09E02389A288618894
:103BD0002846FFF7A6FEE1882846FFF795FE70BD50
:103BE0002DE9F04105460C4600260127608808B9FA
:103BF000022600E00026A088012801D1022700E06B
:103C000001272088A0B92389A28861882846FFF768
:103C100066FFE1882846FFF759FF23893A46314677
:103C20002846FFF712FFE1882846FFF701FF13E05F
:103C30002389A28861882846FFF707FFE188284684
:103C4000FFF7F6FE23893A4631462846FFF747FF3D
:103C5000E1882846FFF73AFFBDE8F0810A884B88E3
:103C60001A438B881A43CB881A430B891A434B8912
:103C70001A438B891A43A0F8442070474FF6FF710E
:103C8000818000210180C180418001727047002144
:103C9000018041808180C180018141818181C18118
:103CA0007047002101804180012181800021C18075
:103CB000018170470021018041808180C1800181A4
:103CC0004181818170470000002C01400034014097
:103CD0000004004000080040000C004021B10288B0
:103CE00042F00102028004E002884FF6FE731A409F
:103CF0000280704731B1B0F8442042F40042A0F88D
:103D0000442005E0B0F84420C2F30E02A0F844209D
:103D100070471AB183890B43838102E083898B4307
:103D2000838170478182704741EA0203A0F84830DE
:103D300070471AB183890B43838102E083898B43E7
:103D40008381704701894FF6F872114001817047F5
:103D50000A46002101894FF68F73194011430181F2
:103D6000704730B504460D4629462046FFF7F0FF60
:103D7000208940F00700208130BD2DE9F041044644
:103D80000D4616461F46602D06D13B4601223146A0
:103D90002046FFF75AFE05E03B4601223146204609
:103DA000FFF79DFE29462046FFF7D2FF208940F00D
:103DB00007002081BDE8F08130B50C460021018963
:103DC000C9B24FF6FF7505EA03251543254329437C
:103DD000018130BD2DE9F04105460E461746984653
:103DE000002443463A4631462846FFF7E5FF2C8932
:103DF0004FF6F870044044F007044FF68F7004400B
:103E000044F070042C81BDE8F081F0B504460D4605
:103E100016461F463B46324629462046FFF7CCFF52
:103E2000208940F480402081F0BD01858282704766
:103E30000A46002101884FF68F7319401143018013
:103E40007047F0B50C4615461E460021002200239F
:103E50000189028B038C4FF6F877394021434FF6E6
:103E6000FC473A4040F201173A434FF6DD773B40BA
:103E70004FF6FF7707EA06172F433B430181028382
:103E80000384F0BD0A460021018B4FF68F73194061
:103E90001143018370470A460021018B48F6FF73E6
:103EA00019404FF6FF7303EA022319430183704759
:103EB0000A460021818B4FF68F731940114381838D
:103EC00070470A460021818B48F6FF7319404FF670
:103ED000FF7303EA022319438183704721B10288EB
:103EE00042F08002028004E002884FF67F731A409D
:103EF0000280704721B1828842F00402828004E08F
:103F000082884FF6FB731A408280704721B1828805
:103F100042F00802828004E082884FF6F7731A406C
:103F20008280704721B1828842F00102828004E0E1
:103F300082884FF6FE731A40828070470A4600213D
:103F4000018B4FF6F77319401143018370470A46FE
:103F50000021018B4FF2FF7319404FF6FF7303EA04
:103F600002231943018370470A460021818B4FF6D3
:103F7000F77319401143818370470A460021818BF2
:103F80004FF2FF7319404FF6FF7303EA0223194300
:103F9000818370470A460021018B4FF6FB7319405D
:103FA0001143018370470A460021018B4FF6FF330E
:103FB00019404FF6FF7303EA022319430183704748
:103FC0000A460021818B4FF6FB7319401143818310
:103FD00070470A460021818B4FF6FF3319404FF698
:103FE000FF7303EA02231943818370470A460021C5
:103FF000018B4FF67F7319401143018370470A46C6
:104000000021018BC1F30E014FF6FF7303EA022377
:104010001943018370470A460021818B4FF67F7355
:1040200019401143818370470A460021818BC1F3F7
:104030000E014FF6FF7303EA022319438183704791
:104040000A460021018C4FF6FD731940114301848B
:1040500070470A460021018C4FF6F773194011434F
:10406000018470470A460021018C4FF6DF73194026
:104070004FF6FF7303EA02131943018470470A469F
:104080000021018C4FF67F7319404FF6FF7303EA4E
:1040900002131943018470470A460021018C4FF630
:1040A000FF5319404FF6FF7303EA022319430184BB
:1040B00070470A460021018C4FF2FF7319404FF6FA
:1040C000FF7303EA02231943018470470A46002163
:1040D000018C4DF6FF7319404FF6FF7303EA02336C
:1040E00019430184704730B5002301248C40A3B2EA
:1040F000048C9C430484048C02FA01F5ADB22C4379
:10410000048430BD30B5002304248C40A3B2048C59
:104110009C430484048C02FA01F5ADB22C43048460
:1041200030BD70B503460020002418461830012524
:104130008D40ACB21D8CA5431D8409B1082909D15D
:1041400000EB6100056825F0700505600568154302
:1041500005600EE00D1FC5F34E052844056825F4E3
:10416000E045056005684FF6FF7606EA022635430E
:10417000056070BD21B1028842F00202028004E0B5
:1041800002884FF6FD731A400280704721B1028801
:1041900042F00402028004E002884FF6FB731A40EA
:1041A0000280704721B1828842F08002828004E060
:1041B00082884FF67F731A408280704702884FF6DC
:1041C000F7731A40028002880A430280704782888F
:1041D0004FF68F731A40828082880A43828070472C
:1041E00002894FF6F8731A40028102890A4302815C
:1041F000704702894FF67F731A40028102890A4391
:10420000028170478184704781857047818670473D
:104210000187704781877047A0F840107047028877
:104220004FF6FF431A40028002880A43028070471B
:104230000146888E70470146088F70470146888F77
:1042400070470146B1F8400070470146888C7047BE
:104250000146088D704702460020138A0B4201D0A8
:10426000012000E000207047CA430282704730B549
:104270000246002000230024158A05EA01039589DF
:1042800005EA010413B10CB1012000E0002030BDAB
:10429000CA4302827047000010B58CB004461E234A
:1042A0000BAA03A9204600F015FE0090009810B15B
:1042B00001200CB010BD9DF82C00044400200B9090
:1042C0000EE05E489DF82C2050F8221003A800F064
:1042D00069FD00B908E09DF82C00401CC0B20B90AD
:1042E0009DF82C000828ECDB00BF9DF82C00072867
:1042F00079D2DFE800F00405395B8BA2A10000BF92
:104300004FA001F03DFE4FA001F03AFE5DA001F08C
:1043100037FE6CA001F034FE7AA001F031FE89A0D6
:1043200001F02EFE97A001F02BFEA4A001F028FEC4
:10433000A9A001F025FEAEA001F022FEB2A001F07E
:104340001FFEB7A001F01CFEBBA001F019FEC1A02A
:1043500001F016FECCA001F013FED8A001F010FE73
:10436000E3A001F00DFEA5E235A001F009FEF0A0EA
:1043700001F006FE00200B900EE0FD4800689DF85D
:104380002C2000EBC2004168FAA001F0F9FD9DF875
:104390002C00401CC0B20B90F548007D9DF82C10FD
:1043A0008842EADC26A001F0EBFD83E224A001F0C4
:1043B000E7FDF2A001F0E4FD00200B901CE0EC49C9
:1043C00009689DF82C2001EBC20101AB02AA4868E4
:1043D00003A900F0A4FDE64800689DF82C1050F8F1
:1043E000312003A900E063E2F4A001F0C9FD9DF8CB
:1043F0002C00401CC0B20B90DD48007D9DF82C10B5
:104400008842DCDC0EA001F0BBFD53E20CA001F001
:10441000B7FD0BAA03A9204600F058FE9DF82C001A
:1044200040B9694603A800F0F0FC0B909DF82C0001
:1044300008B9CDE1DEE1D0E10DE2E1E13C00002090
:104440000D0A00002D2D2D2D2D2D2D2D2D2D2D2D39
:104450002D2D2D2D2D2D2D2D2D2D2D2D55534D410A
:1044600052542056322E382D2D2D2D2D2D2D2D2D03
:104470002D2D2D2D2D2D2D2D2D2D2D2D2D2D2D2079
:104480000D0A00002020202055534D415254CAC728
:10449000D3C9414C49454E54454BBFAAB7A2B5C4F8
:1044A000D2BBB8F6C1E9C7C9B5C4B4AEBFDAB5F777
:1044B000CAD4BBA5BDBBD7E9BCFE2CCDA8B9FD2095
:1044C0000D0A0000CBFC2CC4E3BFC9D2D4CDA8B9DF
:1044D000FDB4AEBFDAD6FACAD6B5F7D3C3B3CCD0E3
:1044E000F2C0EFC3E6B5C4C8CEBACEBAAFCAFD2C8F
:1044F000B2A2D6B4D0D02ED2F2B4CB2CC4E3BFC972
:104500000D0A0000D2D4CBE6D2E2B8FCB8C4BAAFF0
:10451000CAFDB5C4CAE4C8EBB2CECAFD28D6A7B35B
:10452000D6CAFDD7D62831302F3136BDF8D6C629A8
:10453000A1A2D7D6B7FBB4AEA1A2BAAFCAFDC8EB51
:104540000D0A0000BFDAB5D8D6B7B5C8D7F7CEAADE
:10455000B2CECAFD292CB5A5B8F6BAAFCAFDD7EEC2
:10456000B6E0D6A7B3D63130B8F6CAE4C8EBB2CEBF
:10457000CAFD2CB2A2D6A7B3D6BAAFCAFDB7B52032
:104580000D0A0000BBD8D6B5CFD4CABE2ED0C2D437
:10459000F6B2CECAFDCFD4CABEBDF8D6C6C9E8D6DB
:1045A000C3B9A6C4DC2CD0C2D4F6BDF8D6C6D7AAEF
:1045B000BBBBB9A6C4DC2E0D0A000000BCBCCAF50A
:1045C000D6A7B3D63A7777772E6F70656E65647627
:1045D0002E636F6D0D0A000055534D415254D3D0D8
:1045E00036B8F6CFB5CDB3C3FCC1EE3A0D0A000024
:1045F0003F3A20202020BBF1C8A1B0EFD6FAD0C5A9
:10460000CFA20D0A0000000068656C703A20BBF173
:10461000C8A1B0EFD6FAD0C5CFA20D0A00000000A5
:104620006C6973743A20BFC9D3C3B5C4BAAFCAFDAD
:10463000C1D0B1ED0D0A0A0069643A202020BFC93B
:10464000D3C3BAAFCAFDB5C44944C1D0B1ED0D0A58
:104650000A0000006865783A2020B2CECAFD3136E3
:10466000BDF8D6C6CFD4CABE2CBAF3B8FABFD5B8F7
:10467000F12BCAFDD7D6BCB4D6B4D0D0BDF8D6C6BF
:10468000D7AABBBB0D0A0A006465633A2020B2CEEC
:10469000CAFD3130BDF8D6C6CFD4CABE2CBAF3B8E5
:1046A000FABFD5B8F12BCAFDD7D6BCB4D6B4D0D09A
:1046B000BDF8D6C6D7AABBBB0D0A0A00C7EBB0B47B
:1046C000D5D5B3CCD0F2B1E0D0B4B8F1CABDCAE40C
:1046D000C8EBBAAFCAFDC3FBBCB0B2CECAFDB2A232
:1046E000D2D4BBD8B3B5BCFCBDE1CAF82E0D0A00CC
:1046F0002D2D2D2D2D2D2D2D2D2D2D2D2D2D2D2DEA
:104700002D2D2D2D2D2D2D2D2D2D414C49454E542A
:10471000454B2D2D2D2D2D2D2D2D2D2D2D2D2D2D93
:104720002D2D2D2D2D2D2D2D2D2D2D200D0A000063
:104730002D2D2D2D2D2D2D2D2D2D2D2D2D2D2D2DA9
:104740002D2D2D2D2D2D2D2D2DBAAFCAFDC7E5B543
:10475000A52D2D2D2D2D2D2D2D2D2D2D2D2D2D2D11
:104760002D2D2D2D2D2D2D2D2D2D2D2D200D0A00F6
:104770008400002025730D0A000000002D2D2D2D32
:104780002D2D2D2D2D2D2D2D2D2D2D2D2D2D2D2D59
:104790002D2D2D2D2DBAAFCAFD204944202D2D2DB4
:1047A0002D2D2D2D2D2D2D2D2D2D2D2D2D2D2D2D39
:1047B0002D2D2D2D2D2D2D2D200D0A002573206939
:1047C000642069733A0D0A3058253038580D0A00B4
:1047D000FBA0009901F0D4FB0EE09DF82C0004280A
:1047E00001D0022065E5F9A001F0CAFB0120FC49D7
:1047F000C87501E002205CE5F3A001F0C1FB59E0BF
:10480000F1A001F0BDFB0BAA03A9204600F05EFC5D
:104810009DF82C00C8B9694603A800F0F6FA0B9081
:104820009DF82C0020B9EFA0009901F0A9FB0EE043
:104830009DF82C00042801D002203AE5ECA001F0FC
:104840009FFB0020E649C87501E0022031E5DEA0AB
:1048500001F096FB2EE0DCA001F092FB0BAA03A96D
:10486000204600F033FC9DF82C00D8B9694603A817
:1048700000F0CBFA0B909DF82C0088B9D848C07D89
:10488000012806D1009801460268DEA001F078FBFD
:104890000AE0009801460268DEA001F071FB03E027
:1048A000022006E5022004E5C7A001F069FB01E053
:1048B0000120FEE400BF0020FBE410B501218807C1
:1048C000FFF7D5FC10B1C649086980470121880768
:1048D000FFF7DEFC10BD7FB504460D4601210846FA
:1048E000FEF76DFB41F28830ADF8080041F61F403D
:1048F000ADF804000020ADF80A00ADF8060001A9EB
:104900004FF08040FEF78EFE012241218807FFF71D
:1049100000FA1C208DF8000003208DF801008DF8AE
:10492000020001208DF803006846FDF7B0FC01216C
:104930008807FFF7D3F97FBD10B5044604EBC40028
:1049400000EB04100122C2EB800081B24FF47A70B8
:10495000FFF7C1FF0120A249C87510BD30B595B061
:10496000054613AB12AA09A9284600F0D8FA044656
:1049700014B1204615B030BD0020149026E09849AF
:1049800009689DF8502001EBC20113AB11AA4868D9
:1049900001A900F0C4FA04460CB12046EAE709A9CF
:1049A00001A800F0FFF960B99DF844009DF8481097
:1049B000884201DD0220DDE79DF8500088498875B6
:1049C0000AE09DF85000401CC0B214908448007D5D
:1049D0009DF850108842D2DC00BF8148007D9DF8D0
:1049E0005010884201D10420C4E714A9284600F0E1
:1049F000D8FB04460CB12046BCE79DF8500078492E
:104A000048750020B6E7F0B59BB07548847D007D01
:104A1000A04201DC1BB0F0BD7149096801EBC40183
:104A200007AB08AA486809A900F079FA09A97CA08F
:104A300001F0A6FA002644E06948018B0120B0404D
:104A400001421BD0222178A001F09AFA304600F0F2
:104A50009BFB634924314718394674A001F090FA52
:104A6000222171A001F08CFA304600F08DFB5C49E8
:104A70002431084411A941F8260018E0304600F01E
:104A800083FB57492431085811A941F8260054489E
:104A9000C07D30B911A850F8261065A001F070FA59
:104AA00005E011A850F8261062A001F069FA9DF8FF
:104AB0002000401EB04202D060A001F061FA701CDC
:104AC000C6B29DF820008642B6DB5DA001F058FA20
:104AD0004348407D0B280DD2DFE800F0060D151E7F
:104AE00027323F4E5FB4C9003D49096851F8340090
:104AF00080470546D2E03A4A126852F834101198BD
:104B000088470546CAE0364B1B6853F83420DDE978
:104B1000110190470546C1E0314F3F6857F83430E6
:104B200011A807C898470546B8E0DFF8B4C0DCF81C
:104B300000C05CF8347011A80FC8B8470546ADE056
:104B40001598DFF89CC00090DCF800C05CF8347069
:104B500011A80FC8B8470546A0E0DDE91501DFF848
:104B600080C0CDE90001DCF800C05CF8347011A809
:104B70000FC8B847054691E0DDE915121798DFF830
:104B800060C0CDE900120290DCF800C05CF834701F
:104B900011A80FC8B847054680E0DDE91523DDE917
:104BA0001710DFF83CC0CDE90023CDE90210DCF896
:104BB00000C05CF8347011A80FC8B84705466DE016
:104BC0004845583A305825580D0A00003136BDF88E
:104BD000D6C6B2CECAFDCFD4CABE210D0A0000008F
:104BE000840000204445433A256C750D0A000000FE
:104BF0003130BDF8D6C6B2CECAFDCFD4CABE210D63
:104C00000A0000002A2830582558293D30582558D8
:104C10000D0A00002A282564293D25640D0A00009C
:104C20000D0A25732800000025630000257300008D
:104C3000256C750030582558000000002C0000003D
:104C400029000000DDE91623DDE91810CDE9012374
:104C5000CDE903101598DFF8F4C00090DCF800C02F
:104C60005CF8347011A80FC8B847054616E0DDE9B6
:104C7000183217991A98CDE9033202910590DDE9AF
:104C80001501DFF8C8C0CDE90001DCF800C05CF810
:104C9000347011A80FC8B847054600BF00BF9DF883
:104CA0001C0001280CD12948C07D20B9294628A024
:104CB00001F066F907E0294627A001F061F902E05A
:104CC00024A001F05DF900BFA4E670B52548008876
:104CD00010F4004F33D0234805780020224948556E
:104CE0001A4881682048884704461CB91749C86893
:104CF000804721E01C48FFF7CFFA0546012D00D080
:104D00002C46CCB1012C06D0022C08D0032C0AD0A2
:104D1000042C10D10BE015A001F032F90BE016A025
:104D200001F02EF907E017A001F02AF903E018A01E
:104D300001F026F900BF00BF00200A49088070BDBD
:104D40000146086870470160704700008400002039
:104D50003D256C753B0D0A003D305825583B0D0A2A
:104D6000000000002000002032060020BAAFCAFD7B
:104D7000B4EDCEF3210D0A00B2CECAFDB4EDCEF3F0
:104D8000210D0A00B2CECAFDCCABB6E0210D0A005F
:104D9000CEB4D5D2B5BDC6A5C5E4B5C4BAAFCAFDBB
:104DA000210D0A0002460AE010780B78984201D0E3
:104DB00001207047107800B902E0521C491CF3E74B
:104DC00000BF0020F5E706E002780A70027802B919
:104DD00002E0401C491CF7E700BF70470146002075
:104DE00005E00A7802B903E0421CD0B2491CF8E79A
:104DF00000BF704710B50246012000E050430B0091
:104E0000A1F10104E1B2F9D110BD2DE9F04307464B
:104E10000E4600254FF00A083C46002030601FE097
:104E20002078392802DC207830280ADA20784628D1
:104E300002DC2078412804DA2078582809D1012D95
:104E400007D12078412801DB4FF01008681CC5B25B
:104E500005E0207800B904E00120BDE8F083641C7F
:104E6000DEE700BF3C46B8F1100F0FD1032D01DA89
:104E70000220F2E72078302806D16078582803D144
:104E8000A41CA81EC5B204E00320E6E70DB9042067
:104E9000E3E71BE00DB1681EC5B22078392806DCB7
:104EA0002078302803DB2078A0F1300902E0207858
:104EB000A0F1370929464046FFF79CFF316809FBFE
:104EC00000103060641C207800B900E0E2E700BF09
:104ED0000020C2E710B50446002010700BE02078D7
:104EE0000870641C491C1078401C1070107898429F
:104EF00001DB012010BD2078202802D02078002876
:104F0000EDD10020087000BFF4E7014600E0491C25
:104F10000878202801D10029F9D1087870472DE9B7
:104F2000FF4F85B0804689460026002004900390FC
:104F3000012002904FF0000B002544461DE0207830
:104F4000202816D005F07F00052812DA0DB945F0AB
:104F5000800505F07F00042803D120782A2800D09E
:104F60000EE0207805F07F010DF80100681CC5B245
:104F700002E0852D00D103E0641C20780028DED1FA
:104F800000BF8DB1002005F07F010DF80100C6A122
:104F90006846FFF707FF18B900210898017002E082
:104FA00001210898017000254FF0000A44460FE0E7
:104FB000641C0AF1010000F0FF0A2078202807D1C4
:104FC0002046FFF7A2FF0746282F01D0CDF810A0FA
:104FD0002078282802D020780028E9D14446049877
:104FE00010B10498401C04444FF0000A002754E01C
:104FF000207810B94FF0010A50E02078282803D11A
:1050000017B9701CC6B213E02078292808D13FB91F
:1050100016B1701EC6B201E04FF0010A46B93DE07C
:105020002078222804D10FB9012000E00020074693
:1050300046B9207820282FD0207889F8000009F17F
:10504000010929E020782C2804D101200290681C55
:10505000C5B214E02078202811D0207828280ED05E
:105060004DB9BBF1050F06DA20780DF80B000BF1F6
:10507000010000F0FF0B0298401CC0B20290012E0C
:105080000AD10298022807D10298401CC0B20290AF
:105090000398401CC0B20390641CA9E700BF0398AA
:1050A000012809D100200DF80B007FA16846FFF709
:1050B00079FE08B900200390079903980870002032
:1050C00089F80000504609B0BDE8F08FF0B50346FE
:1050D000154600200022002600244FE01F782C2FC8
:1050E00001D104B901221F78292F01D01F780FB9EF
:1050F00004B944E0002E34D11F78302F02DB1F7832
:10510000392F11DD1F78612F02DB1F78662F0BDD31
:105110001F78412F02DB1F78462F05DD1F78582F9F
:1051200002D01F78782F0CD102B128E01F78612FB0
:1051300003DB1F78203F0F7001E01F780F70491CC0
:1051400019E01F78222F04D102B118E001260124B2
:1051500011E01F78202F0ED01F782C2F0BD0FF26A8
:105160000DE01F78222F00D1002402B107E014B116
:105170001F780F70491C471CF8B25B1CAEE700BFDC
:1051800000270F702E70F0BD02460020002105E0C0
:10519000474B5B5C0344D8B24B1CD9B29142F7DB5E
:1051A00070472DE9F043B5B005460F4600240026B0
:1051B00004E000213E488155701CC6B20A2EF8DB7F
:1051C00006E06D1C287818B9012035B0BDE8F083E1
:1051D00028782828F5D16D1C61E034AA6946284654
:1051E000FFF774FF064635449DF8D00020B1012832
:1051F00027D0FF284CD149E09DF8000000B333A927
:105200006846FFF702FE06460EB10220DDE72046A3
:10521000FFF7BAFF26490A31339A0A50A1F1240058
:10522000008B0121A140884321491A3908830421B8
:105230001F480155601CC4B20A2C01DD0320C4E7DD
:1052400026E06846FFF7CAFD401C00F0FF08204634
:10525000FFF79AFF16490A3100EB010949466846F3
:10526000FFF7B1FD12481A38018B0120A04001431D
:1052700088B20F491A3908830D4800F80480601C71
:10528000C4B20A2C01DD03209FE701E002209CE765
:1052900000BF2878292801D0287800B900E09CE7D1
:1052A00000BF3C70002090E7766F6964000000004A
:1052B0009E0000207AE043480078401C4149087075
:1052C00041480078401C4049087000203F49087060
:1052D0003F4802F0B9FF15203E4908603E488078FB
:1052E00020F040003C49887043E0384800780128AD
:1052F0001ED13948807810F0400F19D1374909681C
:10530000C978C1EB0112C2EBC110C11700EB1161EA
:105310000C12200202F098FF2F48807840F04000E5
:105320002D498870C4F17101080202F08DFF03E07D
:105330004FF4E24002F088FF2748407810F0180F41
:1053400008D02248007828B922490968A1F115003F
:1053500000F0F3F91B480078032805D11D490968BE
:10536000A1F1150000F03BFD1A480068401C1949E6
:10537000086018480068B0F5827FB6DD4FF4E2405F
:1053800002F062FF1448807840F080001249887073
:105390000846007810F0800F01D002F06FFF094836
:1053A0000078032802D100200649087083E70C48E2
:1053B0000C49086003F0ACF801210B4800F016F826
:1053C000FFF778FF710100207001002081010020AB
:1053D00000450900840100207C01002078010020A4
:1053E00000A100087401002010210108FE4A50604D
:1053F00000F58052FC4B9A6051B9FC4ADA601346C2
:10540000F94A136103F58062F74B5A619A610CE027
:10541000F64AF54BDA6002F580621A61F34BF24A04
:10542000536103F58062F04B9A610022F04B1A70D1
:10543000F04B1A70F04B1A70F04B1A70F04B1A6068
:105440007047E9480088C0F30B01B1F5406F05DDF6
:10545000E5488269A1F54060105C7047B1F5006FC6
:1054600005DDE1484269A1F50060105CF5E7B1F5A2
:10547000806F05DDDC480269A1F58060105CECE717
:10548000D948C068405CE8E70146D74A1288C2F3B1
:105490000B00B0F5406F05DDD34A9369A0F540627B
:1054A00099547047B0F5006F05DDCF4A5369A0F5F8
:1054B00000629954F5E7B0F5806F05DDCA4A1369BB
:1054C000A0F580629954ECE7C74AD268115400BF36
:1054D000E7E710B50446C448008810F4704009D0CE
:1054E000B0F5805F07D0B0F5005F05D0B0F5405F44
:1054F00031D105E030E02FE02046FFF7C5FF2BE07B
:10550000B948007800F01F000F281CDDB64800786D
:1055100000F00F01B4482C3044542C38007810F0BF
:10552000030F17D1B048047780F82C4080F8204052
:1055300080F8304080F8244080F8344080F82840DB
:1055400080F8384006E0A848007800F00F01A6482F
:105550001C30445400E000BF00BFAA48007810F09F
:10556000040F05D0A048008820309F49088004E03F
:105570009D480088401C9C49088010BD00B59A4891
:105580008378008810F4704009D0B0F5805F0ED0A9
:10559000B0F5005F15D0B0F5405F33D116E092480A
:1055A000406891490988405C8F4988702CE08E489A
:1055B00080688D490988C1F30B01405C8A49887075
:1055C00022E0FFF73EFF884988701DE0864800888A
:1055D00043F61071884207DB8348007800F00F0122
:1055E00081482C30435C0FE07F480088B0F57C5F39
:1055F00007DB7D48007800F00F017B481C30435CDE
:1056000002E001E0002300BF00BF7E48007810F0F8
:10561000040F05D07448008820307349088004E0E6
:1056200071480088401C70490880184600BD30B59C
:1056300004460D46082D3CD2DFE805F004073B0A7E
:105640000D162A376F48047034E06E48447031E01C
:105650006D4804702EE06C4801780078401C6A4A5E
:1056600010706A48445425E06148007838B1EF2C46
:1056700001DD002000E020465F49087001E05F483E
:1056800004705B48007880F001005949087011E00F
:105690005548007804EB00205349088054480078AE
:1056A00080F001005249087004E02046FFF711FF26
:1056B00000E000BF00BF30BD30B50546082D37D231
:1056C000DFE805F004070A36293636324D480478FB
:1056D00030E04C4844782DE04A488478807820F0C7
:1056E000800048498870002041490870444800689B
:1056F00014280FDD42480068B0F5837F0ADA41487C
:10570000007810F0800F05D13E48007820F00300AB
:105710003C4908700EE03C4801780078401C3A4A49
:1057200010703A48445C05E0FFF728FF044601E0AA
:10573000E8B230BD00BF2046FBE72DE9F14F85B050
:10574000DFF8C0B09BF800B01BF0200F02D04FF084
:105750000F0B01E04FF0070BCDF80CB0DFF8B0B045
:10576000DBF800B09BF800B00BF1010B0BF0FF0E63
:10577000DDF814B0ABEB0E00DDF80CB000EA0B0B5B
:10578000834502D006B0BDE8F08FDFF878B09BF813
:1057900000B00BF00301DFF86CB09BF800B01BF019
:1057A000100F04D0DFF840B0DBF808B003E0DFF8FA
:1057B00038B0DBF804B0D846DFF83CE09EF800E0F3
:1057C000DDF814B00BEB0E04EF2C02DDF03C81F0A1
:1057D0000201C4F3C70BCDF810B0DFF834B0DBF82A
:1057E00000B09BF803B015E0001800200010002066
:1057F0008201002081010020880100208901002011
:10580000840100207C010020800100203C18002041
:1058100078010020DFF844E79EF800E0F3444FEA07
:10582000EB0504F00700DFF834B79BF800B00BF08D
:10583000070A1F2D01DD81F00101DFF824B75BF8B5
:1058400021E0DDF810B005EB4B1B1EF80B6000EB00
:10585000061B18F80BB0CDF808B000EB061B0BF1D7
:10586000080B18F80BB0DDF808E04BEA0E0BCDF88A
:1058700008B005F1010BBBF11F0F01DD81F0010143
:10588000DFF8DCB65BF821E0DDF810B005EB4B1B70
:105890000BF1010B1EF80B6000EB061B18F80BB0A8
:1058A000CDF804B000EB061B0BF1080B18F80BB099
:1058B000DDF804E04BEA0E0BCDF804B0DDF808B0DB
:1058C0000BFA0AFBDDF804E04EFA0AFE4BEA0E0B77
:1058D0000BF0FF0BCDF800B0DFF888B6DBF800B0B6
:1058E0009BF802B01BF0800F03D0DDF80CB0ABEBDF
:1058F0000000DFF874B69BF802B01BF0200F2DD02B
:10590000DFF860B6DBF800B09BF801B01BF0010FC8
:1059100006D0DFF84CB6ABF10C0BDBF808B005E0B5
:10592000DFF83CB6ABF10C0BDBF804B0D946DFF87E
:1059300034B6DBF800B09BF801B00BF0FE0B4FEA79
:105940000B1202EB000B19F80B7002EB000B0BF1C2
:10595000080B19F80BB04BEA070728E0DFF808B688
:105960009BF800B01BF0080F06D0DFF8F4B5ABF1E0
:105970000C0BDBF808B005E0DFF8E4B5ABF10C0B7D
:10598000DBF804B0D946DFF8DCB5DBF800B09BF8F3
:1059900001B04FEA0B1202EB000B19F80B7002EB8F
:1059A000000B0BF1080B19F80BB04BEA0707DFF8F7
:1059B000B4B5DBF800B09BF802B01BF0400F11D07B
:1059C0004FF0000C00230AE047FA03FB0BF0010B39
:1059D0004BEA0C0C0CFA03FB0BF0FF0C5B1C082BC6
:1059E000F2DB6746DDF800B017EA0B0F05D04FF089
:1059F000010BDFF878E58EF800B000BFC2E62DE9B4
:105A0000F14F82B0DFF860B59BF800B00BF00305F2
:105A1000DFF854B59BF800B01BF0100F06D0DFF88C
:105A200040B5ABF10C0BDBF808B005E0DFF830B5A2
:105A3000ABF10C0BDBF804B0D946DFF834E59EF887
:105A400000E0DDF808B00BEB0E06EF2E02DDF03EB5
:105A500085F00205F31006F00707DFF800B59BF8A4
:105A600000B00BF0070BCDF804B0DDF804B0CBF1BB
:105A7000080CDFF8E8B49BF800B04FEAEB0055E003
:105A8000DFF8DCB45BF825B000EB431E1BF80E809A
:105A900007EB081B19F80BB0CDF800B007EB081B9B
:105AA0000BF1080B19F80BA04FEAA30B4FF4707E13
:105AB0000EEBCB0B0BEBA00EDFF8A4B45BF825B01C
:105AC0001BF80E4000F0020B03F0020E4BEA4E0BE7
:105AD00044FA0BFB4FEA8B7B4FEA1B74072122E051
