:020000040800F2
:100000003023002031290008750700087707000811
:100010007B0700087F070008830700080000000036
:10002000000000000000000000000000870700083A
:10003000890700080000000017610008E926000891
:100040004B2900084B2900084B2900084B290008C0
:100050004B2900084B2900084B2900084B290008B0
:100060004B2900084B2900084B2900084B290008A0
:100070004B2900084B2900084B2900084B29000890
:100080004B2900084B2900084B2900084B29000880
:100090004B2900084B2900084B2900084B29000870
:1000A0004B2900084B2900084B2900084B29000860
:1000B0004B2900084B2900084B2900084B29000850
:1000C0004B2900084B2900084B2900084B29000840
:1000D0004B2900089F2800080D0A00084B2900083A
:1000E0004B2900084B2900084B29000800F002F8B2
:1000F00000F04AF80AA090E8000C82448344AAF178
:100100000107DA4501D100F03FF8AFF2090EBAE875
:100110000F0013F0010F18BFFB1A43F0010318473B
:100120004897000068970000103A24BF78C878C14B
:10013000FAD8520724BF30C830C144BF04680C60ED
:10014000704700000023002400250026103A28BF35
:1001500078C1FBD8520728BF30C148BF0B60704739
:10016000662907F05E87642906F0B080002070479A
:100170001FB506F015FC04000020002107F050F91F
:10018000E0601FBD10B510BD06F006FD1146FFF77B
:10019000EFFF00F0A2FA06F024FD03B4FFF7F2FF30
:1001A00003BC02F021FB00007047704770479AE0E3
:1001B00001F0C3FE064607F053FC0446FD4AFE4B21
:1001C00007F02AFA1AD84FF4FA7002F0DEFA4FF468
:1001D000FA7002F0DAFA4FF4FA7002F0D6FA4FF43D
:1001E000FA7002F0D2FA4FF4FA7002F0CEFA4FF43D
:1001F000FA7002F0CAFA02F05AFA71E04FF4FA709B
:1002000002F0C3FA4FF4FA7002F0BFFA4FF4FA703A
:1002100002F0BBFA4FF4FA7002F0B7FA4FF4FA703A
:1002200002F0B3FA4FF4FA7002F0AFFA4FF4FA703A
:1002300002F0ABFA4FF4FA7002F0A7FA4FF4FA703A
:1002400002F0A3FA4FF4FA7002F09FFA4FF4FA703A
:1002500002F09BFA4FF4FA7002F097FA4FF4FA703A
:1002600002F093FA4FF4FA7002F08FFA4FF4FA703A
:1002700002F08BFA4FF4FA7002F087FA4FF4FA703A
:1002800002F083FA4FF4FA7002F07FFA4FF4FA703A
:1002900002F07BFA4FF4FA7002F077FA4FF4FA703A
:1002A00002F073FA4FF4FA7002F06FFA4FF4FA703A
:1002B00002F06BFA4FF4FA7002F067FA4FF4FA703A
:1002C00002F063FA4FF4FA7002F05FFA4FF4FA703A
:1002D00002F05BFA4FF4FA7002F057FA02F0E7F915
:1002E0000A2002F052FA63E700244FF4FA7002F099
:1002F0004CFA4FF4FA7002F048FA4FF4FA7002F038
:1003000044FA4FF4FA7002F040FA25E04FF48041CD
:10031000AA4802F08EFC08B9641C1AE01E2C18D9F9
:1003200002E00A2002F031FA4FF48041A34802F0C3
:1003300080FC0028F5D04FF4FA7002F026FA4FF452
:10034000FA7002F022FA4FF4FA7002F01EFA02F08C
:10035000AEF90A2002F019FAD8E786B001F0B8FD2C
:10036000804607F07DFB04460D4601F0E6FD804621
:1003700007F076FB064632460B4691A19548CDE93B
:10038000004505F067FF00201021924A0346CDE9A1
:10039000002102901F22014601F0F7FA8E480078F2
:1003A0008D49C978CDE900108B48837842788BA1BC
:1003B000884805F04FFF00201021864A0346CDE90A
:1003C000002102901F22322101F0DFFA8D480078CF
:1003D0008C49C978CDE900108A48837842788AA18F
:1003E0007C4805F037FF002010217A4A0346CDE90A
:1003F000002102901F22462101F0C7FA8A490868AD
:1004000007F02EFB04460D468749C86807F028FB15
:1004100006460F468449886807F022FB80468946D5
:100420008149486807F01CFB824652460B467FA173
:100430006848CDE90089CDE90267CDE9044505F0BA
:1004400009FF00201021634A0346CDE900210290F4
:100450001F225A2101F099FA7D48006807F000FB3D
:10046000044622460B467BA15A4805F0F3FE0020C5
:100470001021584A0346CDE9002102901F2201466F
:10048000962001F082FA02E101F059FF01F020FD0F
:10049000804607F0E5FA04460D4601F0E1FC80468F
:1004A00007F0DEFA064632460B4645A14948CDE93B
:1004B000004505F0CFFE00201021464A0346CDE955
:1004C000002102901F22014601F05FFA42480078A5
:1004D0004149C978CDE900103F48837842783FA16F
:1004E0003C4805F0B7FE002010213A4A0346CDE90A
:1004F000002102901F22322101F047FA4148007882
:100500004049C978CDE900103E488378427855A12A
:10051000304805F09FFE002010212E4A0346CDE909
:10052000002102901F22462101F02FFA3E4908685F
:1005300007F096FA04460D463B49C86807F090FA62
:1005400006460F463849886807F08AFA8046894689
:100550003549486807F084FA824652460B4633A173
:100560001C48CDE90089CDE90267CDE9044505F0D5
:1005700071FE00201021174A0346CDE900210290A8
:100580001F225A2101F001FA3148006807F068FA89
:10059000044622460B462FA10E4805F05BFE0020C4
:1005A00010210C4A0346CDE9002102901F2201468A
:1005B000962067E0CDCCCCCCCCCC0440000C0140E4
:1005C0004241543A25312E326656202025312E32B2
:1005D00066410000B00B00202000002020202531C3
:1005E000642020202020202531642020202020206D
:1005F0002020253164202020202020253164202047
:100600000000000024000020202532645620202015
:1006100020202532645620202020202532645620B8
:1006200020202025326456009C0C00202025312EED
:10063000326641202025312E32664120202020259F
:10064000312E326641202025312E326641000000D5
:100650001C000020506F7765723A25322E316657A4
:1006600020202000202532645620202020253264BE
:1006700056202020202020253264562020202025AE
:100680003264560001F081F9642002F07EF8FBE646
:1006900070B50446002500BF03F0C6F905F014FD4F
:1006A00005460423264A0021AFF2513004F0D2FD62
:1006B0000223244A0021AFF2CF3004F0CBFD032304
:1006C000214A0021AFF2195004F0C4FD0A2005F0C0
:1006D00041F8284605F0FCFC70BD0EB502F00CF8A0
:1006E00002F07CF80121084602F0CCFC01211748F9
:1006F00002F0DDFA01F07EFF4FF4E13002F083F802
:100700004FF4165000F032F900F017FB01F056FBE1
:10071000002010210EA20346CDE9002102901F22E5
:100720001E2101F032F903F03EF80A23104A00219D
:10073000AFF2A30004F08EFD03F05EF900200EBDC1
:10074000AC030020AC070020AC0B002000023000FE
:10075000204F555432202020545950452D432020FD
:10076000202056494E202020204F555431000000B3
:10077000AC010020704700BFFEE700BFFEE700BFEE
:10078000FEE700BFFEE77047704700000CB5002091
:10079000019000906C48006840F480306A4908601D
:1007A00000BF6948006800F4003000900198401CC8
:1007B0000190009818B90198B0F5A06FF1D1624886
:1007C000006800F4003010B10120009001E000202A
:1007D00000900098012843D15C48006840F0100068
:1007E0005A4908600846006820F00300086008467F
:1007F000006840F002000860534840685249486071
:100800000846406848600846406840F48060486098
:100810000846406820F47C1048600846406840F470
:10082000E81048600846006840F08070086000BF2B
:100830004548006800F000700028F9D04248406840
:1008400020F00300404948600846406840F002003C
:10085000486000BF3C48406800F00C000828F9D10F
:100860000CBD10B5FFF792FF10BD10B536480068FB
:1008700040F00100344908600846406834490840A7
:100880003149486008460068324908402E490860EE
:100890000846006820F4802008600846406820F47C
:1008A000FE0048604FF41F008860FFF7DAFF4FF04A
:1008B00000602949086010BD10B500210020002209
:1008C000214B5B6803F00C0121B1042906D00829F3
:1008D00028D107E0214B224C236027E01F4B204CFE
:1008E000236023E0184B5B6803F47010164B5B68C1
:1008F00003F48032022303EB904022B9194B4343A7
:10090000174C23600DE0104B5B6803F4003323B1F8
:10091000144B4343124C236003E0104B4343104CF1
:10092000236003E00D4B0E4C236000BF00BF064B5D
:100930005B68C3F303130C4CE15C094B1B68CB40B1
:10094000074C236010BD0000001002400020024050
:100950000000FFF8FFFFF6FE08ED00E000127A004D
:100960000000002000093D000400002010B586B002
:1009700004460121042002F085FB0121480402F015
:100980008EFB434802F0E2FB18208DF8170004208C
:10099000ADF8140003208DF8160005A93D4802F0BB
:1009A000B5F804208DF817000820ADF8140005A94B
:1009B000384802F0ABF801940020ADF810000C208C
:1009C000ADF80E000020ADF80C00ADF80A00ADF84F
:1009D000080001A92E4802F0FCFB01212C4802F07E
:1009E00084FC012240F22551294802F08AFC26208D
:1009F0008DF8000001208DF803008DF801008DF8BE
:100A00000200684601F0B9FF06B010BD10B502F053
:100A1000E4FE40F225511E4802F058FD10B31C4878
:100A200002F0D4FCC4B21C48008800F40040C8B9ED
:100A30001948008800F4804060B10A2C03D00020DF
:100A40001549088020E01448008840F4004012490D
:100A5000088019E00D2C06D10F48008840F4804032
:100A60000D49088010E00C480088C0F30D000B49C8
:100A70000C5409480088401C074908800846008833
:100A8000C72801DD0020088002F0C2FE10BD000072
:100A9000004400400008014014000020C40B002066
:100AA00010B504464020FE4908602020086020461A
:100AB00000F01EFA4020FA49091F086010BD10B569
:100AC00004464020F64908602020091F086020469F
:100AD00000F00EFA4020F249091F086010BD70B501
:100AE00005460C462846FFF7DBFFE0B2FFF7E7FFBD
:100AF00070BD10B5EB49087AFFF7D2FF10BD10B5F5
:100B000004464020E64908602020091F08602012A2
:100B100000F0EEF9E0B200F0EBF94020E049091FE7
:100B2000086010BD2DE9F04104460D4616461F46EB
:100B3000DC49887AFFF7B4FFDA49897B2144C1F3A5
:100B40000720FFF7BCFFD749897B2144C8B2FFF7D4
:100B5000B6FFD449897B3144C1F30720FFF7AFFFCB
:100B6000D049897B3144C8B2FFF7A9FFCD49087B42
:100B7000FFF796FFCB49C97B2944C1F30720FFF754
:100B80009EFFC849C97B2944C8B2FFF798FFC549F1
:100B9000C97B3944C1F30720FFF791FFC149C97BE5
:100BA0003944C8B2FFF78BFFFFF7A3FFBDE8F08120
:100BB00070B504460D462B46224629462046FFF7CF
:100BC000B1FF70BD70B504460D4629462046FFF7BB
:100BD000EFFFB5480088FFF792FF70BD70B504467F
:100BE000B0484088401E83B2AE480088401E82B2A2
:100BF00000210846FFF796FF4020A9490860202001
:100C0000091F086000250DE0002606E0201200F014
:100C10006FF9E0B200F06CF9761CA2480088B0428F
:100C2000F4D86D1C9F484088A842EDD840209C49CC
:100C3000091F086070BD08B501210C2002F022FADE
:100C4000F820ADF8000003208DF8020010208DF888
:100C5000030069469248143801F058FFF821904883
:100C6000143802F000F84FF40040ADF800001020F6
:100C70008DF8030003208DF8020069468B4801F0CF
:100C800045FF08BD10B5102085490860142001F00B
:100C90007CFD10208249091F0860142001F075FDB9
:100CA00010BD10B504462A207E4948812B2088813A
:100CB0002C20088134B1012C12D0022C1ED0032C20
:100CC00038D129E0872077490880F02048803420F7
:100CD00088732820C87300213620FFF700FF2AE020
:100CE000F0207049088087204880282088733520AC
:100CF000C87360213620FFF7F2FE1CE087206949A7
:100D00000880F0204880352088732820C873C021CF
:100D10003620FFF7E4FE0EE0F020624908808720CD
:100D20004880282088733420C873A0213620FFF71C
:100D3000D6FE00E000BF00BF10BD10B5FFF77BFF7F
:100D4000FFF7A0FF782001F020FD1120FFF7A8FE9B
:100D5000782001F01AFD3620FFF7A2FE0020FFF7F1
:100D6000AEFE3A20FFF79CFE0520FFF7A8FE2120EB
:100D7000FFF796FEB220FFF793FE0520FFF79FFED8
:100D80000520FFF79CFE0020FFF799FE3320FFF7B8
:100D900096FE3320FFF793FEB720FFF781FE232056
:100DA000FFF78DFEBB20FFF77BFE2220FFF787FEBB
:100DB000C020FFF775FE2C20FFF781FEC220FFF751
:100DC0006FFE0120FFF77BFEC320FFF769FE1320B3
:100DD000FFF775FEC420FFF763FE2020FFF76FFECC
:100DE000C620FFF75DFE0F20FFF769FED020FFF75A
:100DF00057FEA420FFF763FEA120FFF760FED62078
:100E0000FFF74EFEA120FFF75AFEE020FFF748FE55
:100E10007020FFF754FE0620FFF751FE0C20FFF76D
:100E20004EFE0820FFF74BFE0920FFF748FE272063
:100E3000FFF745FE2E20FFF742FE3420FFF73FFE6E
:100E40004620FFF73CFE3720FFF739FE1320FFF75F
:100E500036FE1320FFF733FE2520FFF730FE2A2051
:100E6000FFF72DFEE120FFF71BFE7020FFF727FEA6
:100E70000420FFF724FE0820FFF721FE0920FFF7DA
:100E80001EFE0720FFF71BFE0320FFF718FE2C2095
:100E9000FFF715FE4220FFF712FE422008E0000097
:100EA000140C01408C0C00201600002000080140AA
:100EB000FFF705FE3820FFF702FE1420FFF7FFFDC5
:100EC0001420FFF7FCFD2720FFF7F9FD2C20FFF78A
:100ED000F6FD2920FFF7E4FD0120FFF7E2FE0120E7
:100EE000024908600020FFF779FE10BD9C81214275
:100EF0000021082114E000F080021AB108220A4BF8
:100F00001A6003E00822084B1B1D1A604FF40042D0
:100F1000064B1A601B1F1A604206100E4A1ED1B201
:100F20000029E8DC70470000100C01401408014063
:100F300070B505460E46144631462846FFF738FE82
:100F40002046FFF7DCFD70BD2DE9F05F04460D463D
:100F500016461F46301B401C1FFA80FA781B401CA7
:100F60001FFA80FB3B46324629462046FFF7DAFD52
:100F70004FF000080FE04FF0000906E00A98FFF775
:100F8000BEFD09F101001FFA80F9D145F6DB08F139
:100F900001001FFA80F8D845EDDBFE484088401E6E
:100FA00083B2FC480088401E82B200210846FFF749
:100FB000B9FDBDE8F09F2DE9FF4F85B081468A4617
:100FC0000020049003900798A0EB09050898A0EB77
:100FD0000A06CDF80890CDF804A0002D01DD012708
:100FE00005E00DB9002702E04FF0FF376D42002EFB
:100FF00002DD4FF0010806E016B94FF0000802E0EC
:101000004FF0FF387642B54201DD2C4600E0344611
:101010004FF0000B21E0019A91B2029A90B2FFF7D3
:10102000D1FD049828440490039830440390049818
:10103000A04205DD0498001B0490029838440290F9
:101040000398A04205DD0398001B039001984044DB
:1010500001900BF101001FFA80FB601C8345DADD73
:1010600009B0BDE8F08F2DE9F04104460D46164663
:101070001F462B46324629462046FFF79CFF3B463B
:10108000224629462046FFF796FF3B463246394620
:101090002046FFF790FF3B46324629463046FFF791
:1010A0008AFFBDE8F081F8B504460D4616461F4696
:1010B000B94800883B463246294600902046FFF753
:1010C00043FFF8BD2DE9F04104460D4616461F4684
:1010D000DDF81880EA1991B2A21990B24246FFF7E2
:1010E00027FFEA1991B2A21B90B24246FFF720FFF8
:1010F000EA1B91B2A21990B24246FFF719FFEA1B10
:1011000091B2A21B90B24246FFF712FFAA1991B208
:10111000E21990B24246FFF70BFFAA1991B2E21B07
:1011200090B24246FFF704FFAA1B91B2E21990B2B7
:101130004246FFF7FDFEAA1B91B2E21B90B2424667
:10114000FFF7F6FEBDE8F0812DE9FF4F81B0824642
:1011500017469846DDF838B0002445464FEA480067
:10116000C0F10306BBF1000F1FD01BE0A14608E051
:101170004B462246009750460299FFF7A3FF09F11C
:101180000109A945F4DD002E04DA042000FB046007
:10119000861D06E0601B042101FB006000F10A06C9
:1011A0006D1E641CAC42E1DD18E015E02B462246C2
:1011B000009750460299FFF785FF002E04DA0420BD
:1011C00000FB0460861D06E0601B042101FB00603B
:1011D00000F10A066D1E641CAC42E7DD05B0BDE8F7
:1011E000F08F2DE9F04704460D4616461F46DDE90F
:1011F00008893B46324629462046FFF7DCFE4B462F
:10120000424639463046FFF7D6FE2B46224649462F
:101210004046FFF7D0FEBDE8F08702880B880380C8
:101220000A8070472DE9FF4F85B000260027BDF8E2
:101230001800BDF82010884207DD08A906A8FFF7AE
:10124000ECFF07A905A8FFF7E8FFBDF82000BDF8EF
:101250004C10884207DD08A913A8FFF7DEFF07A995
:1012600012A8FFF7DAFFBDF81800BDF82010884279
:1012700007DD08A906A8FFF7D0FF07A905A8FFF713
:10128000CCFFBDF81800BDF84C10884238D1BDF82D
:10129000140003900490BDF81C00BDF810108842A3
:1012A00003DABDF81C00049008E0BDF81C00BDF88E
:1012B0000C10884202DDBDF81C000390BDF8480008
:1012C000BDF81010884203DABDF84800049008E029
:1012D000BDF84800BDF80C10884202DDBDF848009A
:1012E00003902D4800880090BDF81830BDF80C2000
:1012F0001946BDF81000FFF727FE09B0BDE8F08FD2
:10130000BDF81C00BDF81410A0EB010BBDF82000C7
:10131000BDF81810401A0290BDF84800BDF814102E
:10132000451ABDF84C00BDF81810A0EB0109BDF836
:101330004800BDF81C10A0EB010ABDF84C00BDF838
:101340002010401A0190BDF82000BDF84C108842D2
:1013500002D1BDF8208004E0BDF82000401E1FFA35
:1013600080F8BDF818402CE0029896FBF0F0BDF82C
:101370001410084480B2049097FBF9F0BDF81410E3
:10138000084480B203905E442F44BDF81000BDF8BD
:101390000C1003E08C0C002016000020884203DDB6
:1013A00003A904A8FFF739FFFE48008823460090F0
:1013B000BDF80C202146BDF81000FFF7C5FD601CEC
:1013C00084B24445D0DDBDF82000201A00FB0AF6A7
:1013D000BDF81800201A00FB05F727E0019896FBDE
:1013E000F0F0BDF81C10084480B2049097FBF9F0AF
:1013F000BDF81410084480B2039056442F44BDF841
:101400001000BDF80C10884203DD03A904A8FFF703
:1014100004FFE448008823460090BDF80C202146D4
:10142000BDF81000FFF790FD601C84B2BDF84C00C1
:101430008442D3DD00BF60E72DE9FF4F83B08146D2
:101440008A469346DDE91064D64800880290A6F1EA
:101450002000C6B204EBD47009EB6000401E82B2DB
:101460000AEB0400401E83B2514648460194FFF740
:1014700059FB129850BB002525E00C2C07D106EB38
:101480004600C94901EB800010F8058004E0C74818
:1014900000EB061010F8058000270DE008F00100B1
:1014A00018B15846FFF72BFB02E00698FFF727FB21
:1014B0004FEA6808781CC7B204EBD471B7EB610F30
:1014C000ECDB681CC5B2A542D7DB2DE0002529E086
:1014D0000C2C07D106EB4600B34901EB800010F855
:1014E000058004E0B14800EB061010F805800027E5
:1014F00011E0AC48A0F800B008F0010038B10AEBE8
:10150000050291B209EB070290B2FFF75BFB4FEACD
:101510006808781CC7B204EBD471B7EB610FE8DB45
:10152000681CC5B2A542D3DB9E4902980880A0483A
:101530004088401E83B29E480088401E82B200212F
:101540000846FFF7EFFA07B0BDE8F08F2DE9FE433C
:1015500006460F4615461C46DDF828801DE09448D7
:101560000088401EB04204DB91484088401EB842CB
:1015700001DABDE8FE8320788DE821018D480388DB
:101580008848028839463046FFF756FF284605EB63
:10159000D07106EB61018EB2641C20787E2802DCDB
:1015A00020782028DBDA00BFE3E710B502460120EF
:1015B00000E050430B1EA1F10104E1B2F9D110BDCE
:1015C0002DE9FF4F83B0074691461E46109C4FF011
:1015D000000A002543E0701B401EC1B20A20FFF73D
:1015E000E4FFB9FBF0F00A21B0FBF1F201FB1208B5
:1015F000BAF1000F1BD1701EA84218DDB8F1000F20
:1016000013D100202021A346CDE90014029004EB61
:10161000DB71491001FB057188B266490B8861498D
:101620000A880499FFF708FF17E04FF0010A00212C
:1016300008F13000C0B2A346CDE90141009004EBAF
:10164000DB71491001FB057188B25A490B88554975
:101650000A880499FFF7F0FE00BF681CC5B2B542C6
:10166000B9DB07B0BDE8F08F2DE9FC5F0546884681
:1016700091469A46DDF830B000953E200190002456
:101680005FE004EB04104C4911F810009BF80010C7
:10169000884253D104EB0410474901EB40004078E5
:1016A0009BF80110884249D108F10F0083B205F17F
:1016B0000F0082B241462846FFF734FA00263BE08D
:1016C000002734E00D9890B904EB04103A4901EB7F
:1016D0004000801C805D80213941084018B1484697
:1016E000FFF70DFA21E05046FFF709FA1DE02D48FB
:1016F000A0F8009004EB04102F4901EB4000801C7F
:10170000805D80213941084018B141462846FFF7E5
:1017100059FA681C85B20098281A102805D1009D36
:1017200008F101001FFA80F803E0781CC7B2082F07
:10173000C8DB00BF701CC6B2202EC1DB00BF601C1E
:1017400084B2019884429CDB19484088401E83B2D1
:1017500017480088401E82B200210846FFF7E2F9D0
:10176000BDE8FC9F2DE9FC5F0546884691469A46F8
:10177000DDF830B0009507200190002476E004EBFE
:10178000840000EB44100D4911F810009BF8001084
:10179000884268D104EB840000EB4410074901EB58
:1017A00040000DE016000020268000089A84000802
:1017B0008C0C0020180000208A8A0008C6920008BD
:1017C00040789BF8011088424DD108F1170083B290
:1017D00005F1170082B241462846FFF7A3F900261B
:1017E0003FE0002738E00D98A0B904EB840000EB3F
:1017F0004410CD4901EB4000801C805D80213941BF
:10180000084018B14846FFF77AF923E05046FFF741
:1018100076F91FE0C548A0F8009004EB840000EBC7
:101820004410C14901EB4000801C805D802139419A
:10183000084018B141462846FFF7C4F9681C85B234
:101840000098281A182805D1009D08F101001FFAF8
:1018500080F803E0781CC7B2082FC4DB00BF701CFF
:10186000C6B2482EBDDB00BF601C84B20198844222
:1018700085DBAF484088401E83B2AD480088401EDB
:1018800082B200210846FFF74DF9BDE8FC9F2DE923
:10189000FC5F0546884691469A46DDF830B00095D3
:1018A0000420019000245FE004EB8410A14911F8AA
:1018B00010009BF80010884253D104EB84109D491E
:1018C00001EB400040789BF80110884249D108F1B3
:1018D0001F0083B205F11F0082B241462846FFF780
:1018E00021F900263BE0002734E00D9890B904EB85
:1018F0008410904901EB4000801C805D80213941BB
:10190000084018B14846FFF7FAF821E05046FFF7C3
:10191000F6F81DE08548A0F8009004EB8410854996
:1019200001EB4000801C805D80213941084018B1E6
:1019300041462846FFF746F9681C85B20098281AE8
:10194000202805D1009D08F101001FFA80F803E06E
:10195000781CC7B2082FC8DB00BF701CC6B2802E2F
:10196000C1DB00BF601C84B2019884429CDB7048DC
:101970004088401E83B26E480088401E82B200211B
:101980000846FFF7CFF8BDE8FC9F2DE9FF4F83B075
:10199000064688469146DDE91147109DB2464FF054
:1019A000000B71E0BBF1000F40D104EBD471604A31
:1019B0001288A2EB6101B14204DB5D494988091B31
:1019C000414502DA07B0BDE8F08F2878802802DDB3
:1019D0004FF0010B58E028780D2806D108EB0400E1
:1019E0001FFA80F856466D1C1EE0102C0DDD1021EC
:1019F00028788DE883004A4641463046069BFFF72B
:101A00001BFD06F1080086B20EE028788DE89100F3
:101A10004A4641463046069BFFF70EFD204604EB42
:101A2000D07106EB61018EB26D1C2DE0404800883C
:101A3000001BB04204DB3E484088001B404500DAF2
:101A4000C0E74FF0000B202C08D1CDE900574A46E3
:101A500041463046069BFFF71AFF12E0182C08D1CA
:101A6000CDE900574A4641463046069BFFF77AFECD
:101A700007E0CDE900574A4641463046069BFFF74E
:101A8000F3FDAD1C301986B2287800288AD100BF3A
:101A900098E72DE9FE4F0E4617469846DDE90D9A68
:101AA0000C9C204604F0D5FC85B221490988A1EBA5
:101AB000C50000EBD071C1F34F0B43463A463146A7
:101AC00058468DE81006FFF760FFBDE8FE8F2DE950
:101AD000F04706460F46154607F1270083B206F188
:101AE000270082B239463046FFF71CF800240AE08E
:101AF00015F8149005EB440090F8018049EA08209D
:101B0000FEF7FDFF641CB4F5C86FF1DB08484088A0
:101B1000401E83B206480088401E82B2002108465B
:101B2000FFF700F8BDE8F087C69200081600002015
:101B30008C0C0020CC94000808B54FF48070ADF8F0
:101B4000000002208DF8020048208DF8030069464D
:101B5000A44800F0DBFF08BD08B54FF48070ADF875
:101B6000000002208DF8020010208DF80300694665
:101B70009C4800F0CBFF08BD10B504462CB14FF4D3
:101B80008071984801F06FF804E04FF48071954837
:101B900001F06BF810BD10B504462CB14FF4007184
:101BA000904801F060F804E04FF400718D4801F0B6
:101BB0005CF810BD10B54FF480718A4801F039F817
:101BC00010BD002100E0491C8142FCD3704710B5D4
:101BD0000020FFF7E0FF4FF4FA70FFF7F2FF01205B
:101BE000FFF7CAFF4FF4FA70FFF7EBFF0120FFF792
:101BF000D2FF4FF4FA70FFF7E4FF0020FFF7BCFFBD
:101C00004FF4FA70FFF7DDFF0020FFF7C4FF4FF439
:101C1000FA70FFF7D6FF10BD10B50020FFF7BBFF2D
:101C20004FF4FA70FFF7CDFF0020FFF7A5FF4FF448
:101C3000FA70FFF7C6FF0120FFF7ADFF4FF4FA700F
:101C4000FFF7BFFF0120FFF797FF4FF4FA70FFF790
:101C5000B8FF10BD10B50524FFF76EFF4FF4FA7002
:101C6000FFF7AFFF0120FFF796FF4FF4FA70FFF781
:101C7000A8FF0AE0601E84B24FF4FA70FFF7A1FFDC
:101C80001CB9FFF769FF002010BDFFF793FF002884
:101C9000F0D1FFF761FF0020FFF77DFF4FF4FA70EE
:101CA000FFF78FFF0120EFE710B50020FFF764FF7B
:101CB0004FF4FA70FFF785FF4FF4FA70FFF781FFDA
:101CC0000120FFF768FF4FF4FA70FFF77AFF00205A
:101CD000FFF761FF4FF4FA70FFF773FF10BD10B507
:101CE0000120FFF749FF4FF4FA70FFF76AFF012068
:101CF000FFF751FF4FF4FA70FFF763FF0020FFF783
:101D00004AFF4FF4FA70FFF75CFF10BD70B5044650
:101D100008251BE00020FFF73EFF4FF4FA70FFF7A5
:101D200050FF04F08000FFF727FF4FF4FA70FFF731
:101D300048FF6006040E4FF4FA70FFF742FF0120DF
:101D4000FFF729FF4FF4FA70FFF73BFF281EA5F1BC
:101D50000101CDB2DED1FFF71EFF4FF4FA70FFF79D
:101D600030FF70BD70B508250024FFF7E5FE16E0D2
:101D70006006040E0020FFF70EFF4FF4FA70FFF725
:101D800020FF4FF4FA70FFF71CFF0120FFF703FF5D
:101D90004FF4FA70FFF715FFFFF70CFF0443281EFE
:101DA000A5F10101CDB2E3D1FFF7F5FE4FF4FA70D2
:101DB000FFF707FFFFF7D0FE204670BD08B50121F1
:101DC000042001F05FF94FF44070ADF800000220EC
:101DD0008DF8020010208DF803006946014800F0DC
:101DE00095FE08BD000C014070B505460C46FFF796
:101DF000EEFEEA20FFF78AFFFFF72CFF2846FFF7E9
:101E000085FFFFF727FF2046FFF780FFFFF722FF40
:101E1000FFF702FF70BD70B50446FFF7D8FEEA2059
:101E2000FFF774FFFFF716FF2046FFF76FFFFFF77E
:101E300011FFFFF7CCFEEB20FFF768FFFFF70AFF6B
:101E4000FFF790FF0546FFF74AFFFFF7E5FE28463C
:101E500070BD10B5DB20FFF7DEFF0446204610BD45
:101E60002DE9F05F4FF0000B6420FFF7D4FF8246AE
:101E7000504605F085FF0446594605F01DFE834691
:101E80006520FFF7C8FF82464FEA0A2005F078FF79
:101E90000446594605F010FE8346F849584605F0B9
:101EA0003BFF02D10020BDE8F09F584605F0D8FD69
:101EB0008046F34AF34B05F0EBFB0646F24AF34B40
:101EC00005F0F6FA044605F0C1FA83465846EAE7FB
:101ED0002DE9F0474FF000096620FFF79CFF04460C
:101EE000204605F04DFF0546494605F0E5FD8146D3
:101EF0006720FFF790FF0446200205F041FF0546EA
:101F0000494605F0D9FD8146E149484605F0E3FF21
:101F100004D24946D94806F00FF88146484605F0F4
:101F20009FFD0746DB4ADC4B05F0B2FB054605F09A
:101F30008DFA81464846BDE8F0872DE9F05F4FF005
:101F4000000B7A20FFF767FF8246504605F018FF26
:101F50000446594605F0B0FD83467B20FFF75BFF42
:101F600082464FEA0A2005F00BFF0446594605F069
:101F7000A3FD8346C149584605F0CEFE02D100209C
:101F8000BDE8F09F584605F06BFD8046BC4ABD4B4E
:101F900005F07EFB0646BC4ABC4B05F089FA0446B8
:101FA00005F054FA83465846EAE770B50025002448
:101FB000B820FFF730FF0446FF2C01D1002070BD90
:101FC000C4F3400000B10125C4F3401000B1022564
:101FD0002846F4E770B500250024FF20FFF71BFF1B
:101FE0000446FF2C01D1002070BDC4F3401000B1A5
:101FF0000125C4F3801000B10225E00900B10325DA
:102000002846F1E72DE9F0474FF000096E20FFF771
:1020100002FF0446204605F0B3FE0546494605F09A
:102020004BFD81466F20FFF7F6FE0446200205F0C7
:10203000A7FE0546494605F03FFD814694494846BE
:1020400005F049FF04D249468C4805F075FF8146EA
:10205000484605F005FD0746904A914B05F018FBF0
:10206000054605F0F3F981464846BDE8F0872DE9BD
:10207000F0474FF000096D20FFF7CDFE04462046E3
:1020800005F07EFE0546494605F016FD81466C20AA
:10209000FFF7C1FE0446200205F072FE05464946E0
:1020A00005F00AFD81467A49484605F014FF04D23E
:1020B0004946724805F040FF8146484605F0D0FC8D
:1020C0000746764A764B05F0E3FA054605F0BEF979
:1020D00081464846BDE8F0872DE9F0474FF00009FA
:1020E0007020FFF798FE0446204605F049FE05469D
:1020F000494605F0E1FC81467120FFF78CFE04465D
:10210000200205F03DFE0546494605F0D5FC814616
:102110005F49484605F0DFFE04D24946574805F0BE
:102120000BFF8146484605F09BFC07465B4A5C4B2B
:1021300005F0AEFA054605F089F981464846BDE846
:10214000F0872DE9F0474FF000097220FFF763FE9A
:102150000446204605F014FE0546494605F0ACFC51
:1021600081467320FFF757FE0446200205F008FE63
:102170000546494605F0A0FC81464549484605F01C
:10218000AAFE04D249463D4805F0D6FE814648469F
:1021900005F066FC0746414A414B05F079FA0546D1
:1021A00005F054F981464846BDE8F0872DE9F0472F
:1021B0004FF000097C20FFF72EFE0446204605F074
:1021C000DFFD0546494605F077FC81467D20FFF797
:1021D00022FE0446200205F0D3FD0546494605F0DF
:1021E0006BFC81462549484605F096FD02D100204A
:1021F000BDE8F087484605F033FC0746294A2A4BDC
:1022000005F046FA054605F021F981464846EFE714
:1022100010B50024D120FFF7FEFD0446FF2C01D1AC
:10222000002010BD2046FCE710B50024D220FFF7A7
:10223000F2FD0446FF2C01D1002010BD2046FCE732
:1022400010B50024D520FFF7E6FD0446FF2C01D190
:10225000002010BD2046FCE710B50024D720FFF772
:10226000DAFD0446204610BD10B50024E520FFF736
:10227000D2FD0446FF2C19D1002010BD00FF7F477E
:102280008CA5A3778599313FCDCCCCCCCCCC044068
:1022900000FEFF46D8B8BC41CDF3543F9065660BB5
:1022A000ADF3443F7E6FD39FFD48813F204610BD74
:1022B00010B50024FB20FFF7AEFD0446FF2C01D132
:1022C000002010BD2046FCE710B500243E20FFF79B
:1022D000A2FD0446FF2C01D1002010BD2046FCE7E2
:1022E00010B50024A220FFF796FD0446FF2C01D173
:1022F000002010BD2046FCE710B50446302C04D069
:10230000202C02D0102C00D01CB921461020FFF741
:102310006BFD10BD2DE9F04107460D461646002421
:102320000FB144F040040DB144F008040EB144F084
:10233000040421460E20FFF757FDBDE8F0812DE98A
:10234000F041FFF791FF0546FFF730FFA349086012
:10235000FFF776FF8046FFF755FEA1498860FFF73B
:1023600086FE9F49C860FFF7B7FE9D490860FFF7EA
:10237000E8FE9B494860FFF79BFF044605F001001B
:1023800098490870C5F340004870C5F38000887014
:10239000C5F30010C8700846007820B38F48006865
:1023A00005F05EFB0646904A904B05F035F902D8E1
:1023B00000208C49087000218848006805F08BFDDA
:1023C00011D28848407828B98648807810B9854865
:1023D000C07840B182490868002105F09DFC02D117
:1023E0000020804908707F48C078C8B108F0070015
:1023F00088B101280BD0032805D007280FD10C2065
:102400007B49C8700BE009207949C87007E00720B4
:102410007749C87003E005207549C87000BF02E025
:1024200000207349C8706F488078C8B1C8F3C200F3
:1024300088B101280BD0032805D007280FD10C2024
:102440006B4988700BE009206949887007E0072014
:102450006749887003E005206549887000BF02E085
:102460000020634988705F48007858B35C49086869
:10247000002105F051FC03D005205D49087024E0DF
:10248000012C01DD012000E0002000F0010010B16E
:10249000052057490870022C01DD012000E00020D2
:1024A00000F0010010B1092051490870032C01DD32
:1024B000012000E0002000F0010030B10C204C4968
:1024C000087002E000204A4908704648407858B336
:1024D00043494868002105F01FFC03D0052044490A
:1024E000487024E0012C01DD012000E0002000F014
:1024F000010010B105203E494870022C01DD012089
:1025000000E0002000F0010010B1092038494870B7
:10251000032C01DD012000E0002000F0010030B1BB
:102520000C203349487002E00020314948702C49A2
:102530000868002105F0F0FB0ED12A48007858B158
:102540002B49087805F034FC0646314623480068DC
:1025500005F020FB2249086021494868002105F068
:10256000DBFB0ED11F48407858B12149487805F06F
:102570001FFC064631461948006805F00BFB184958
:10258000486017498868002105F0C6FB0ED1154840
:10259000807858B11649887805F00AFC064631461D
:1025A0000E48006805F0F6FA0D4988600C49C868C5
:1025B000002105F0B1FB0ED10A48C07858B10C4992
:1025C000C87805F0F5FB064631460448006805F07A
:1025D000E1FA0349C860BDE8F08100001C0000205A
:1025E0009C0C0020200000209A9999999999C93F44
:1025F00024000020F8B501210D2000F043FD4FF428
:102600000060ADF8000003208DF8020010208DF866
:1026100003006946314800F079FA4FF400612F4811
:1026200000F021FB4FF48040ADF8000048208DF809
:1026300003006946294800F069FA4FF480412748B1
:1026400000F011FB4FF40040ADF8000003208DF8BE
:10265000020014208DF803006946204800F056FA65
:102660004FF400411D4800F000FB00BF4FF48041D3
:102670001A4800F0DEFA0028F8D0FFF75EFC0646A4
:1026800005F0EEF90446164A164B04F0C5FF0DD8C6
:102690004FF40061114800F0E8FA4FF4FA7000F0CE
:1026A00074F84FF400610D4800F0DDFAF8BD08B58C
:1026B0004FF48040ADF8000014208DF80300694607
:1026C000064800F023FA4FF48041044800F0CDFAA8
:1026D0004FF40041014800F0C6FA08BD000C01406B
:1026E000CDCCCCCCCCCC044010B501F076F801F0C8
:1026F000BAF901F08DF810BD10B56FF0040000F0CC
:1027000086F9314800683149B0FBF1F03049087072
:102710002D4800682D49B0FBF1F44FF4FA604443B2
:1027200002202C4908804FF0E020006940F00200B0
:102730004FF0E021086108464461006940F0010063
:10274000086110BD70B5034600224FF0E0267569A0
:102750001F4E367803FB06F400BF4FF0E026B16948
:1027600010E04FF0E026B06988420BD0884202D2D8
:102770000E1A324402E02E1A0E4432440146A2429E
:1027800000D300E0EDE700BF70BD70B5044612480D
:102790000078012811D10F480088844206DB0D48DB
:1027A000008894FBF0F5284603F09CF8094800885F
:1027B00094FBF0F100FB114084B24FF47A7104FBFA
:1027C00001F0FFF7BFFF70BD0000002000127A008B
:1027D000280000202A0000206E00002010B54FF4D1
:1027E000A06000F0C5F810BD014600BF704700BFF3
:1027F0004B4A128802F04002002AF9D0C2B2484B7C
:102800001B1D1A80704710B586B00446012144F2A2
:10281000050000F037FC4FF40070ADF81400032001
:102820008DF8160018208DF8170005A93D4800F016
:102830006DF94FF48060ADF8140004208DF8170096
:1028400005A9384800F062F925208DF80000032022
:102850008DF801008DF8020001208DF80300684614
:1028600000F08BF801940020ADF80800ADF80A00E4
:10287000ADF80C00ADF810000C20ADF80E0001A969
:10288000274800F0A6FC012240F22551244800F020
:1028900038FD0121224800F028FD06B010BD10B51A
:1028A00000F09BFF40F225511D4800F00FFE10B3D1
:1028B0001B4800F08BFDC4B21B48008800F40040A8
:1028C000C8B91948008800F4804060B10A2C03D0D0
:1028D00000201549088020E01348008840F400409B
:1028E0001149088019E00D2C06D10F48008840F4EA
:1028F00080400D49088010E00B480088C0F30D00AF
:102900000A490C5408480088401C074908800846BA
:102910000088C72801DD0020088000F079FF10BD85
:10292000003801400008014030000020AC0C0020BD
:102930000948804709480047FEE7FEE7FEE7FEE753
:10294000FEE7FEE7FEE7FEE7FEE7FEE7044805498F
:10295000054A064B704700006B080008ED000008B0
:10296000301D002030230020301F0020301F0020A9
:1029700031490143314A1160704770B5002100238D
:102980000F22C47804B32D4C246804F4E064C4F529
:10299000E064210AC1F10403CA40447804FA03F157
:1029A0008478144021430901254C0678A155047808
:1029B00004F01F050124AC4005786D11AD0005F150
:1029C000E025C5F8004109E0047804F01F05012462
:1029D000AC401C4D0678761145F8264070BD1A4A69
:1029E0000A400243154B1B1F1A60704739B1134A46
:1029F000121D12680243114B1B1D1A6006E00F4A9C
:102A0000121D126882430D4B1B1D1A60704704286B
:102A100008D14FF0E021096941F004014FF0E022B4
:102A2000116107E04FF0E021096921F004014FF046
:102A3000E0221161704700000000FA050CED00E093
:102A400000E400E080E100E080FFFF1F10B50446D5
:102A5000CC48844208D10121042000F02DFB002144
:102A6000042000F029FB46E0C748844208D1012138
:102A7000082000F021FB0021082000F01DFB3AE0B7
:102A8000C248844208D10121102000F015FB00212A
:102A9000102000F011FB2EE0BD48844208D1012136
:102AA000202000F009FB0021202000F005FB22E09F
:102AB000B848844208D10121402000F0FDFA0021ED
:102AC000402000F0F9FA16E0B348844208D1012111
:102AD000802000F0F1FA0021802000F0EDFA0AE0F9
:102AE000AE48844207D10121801500F0E5FA0021AB
:102AF000A01500F0E1FA10BD10B50121084600F064
:102B0000DBFA0021012000F0D7FA10BD2DE9F041D9
:102B1000024600250026002000230024002791F80B
:102B200003C00CF00F0591F803C00CF0100CBCF1C1
:102B3000000F03D091F802C04CEA050591F800C0DF
:102B4000BCF1000F31D0146800202BE04FF0010CD5
:102B50000CFA00F3B1F800C00CEA03069E4220D143
:102B600083004FF00F0C0CFA03F7BC4305FA03FC8B
:102B70004CEA040491F803C0BCF1280F06D14FF0D1
:102B8000010C0CFA00FCC2F814C00AE091F803C072
:102B9000BCF1480F05D14FF0010C0CFA00FCC2F853
:102BA00010C0401C0828D1D31460B1F800C0BCF19B
:102BB000FF0F34DD546800202EE000F1080C4FF0C8
:102BC000010808FA0CF3B1F800C00CEA03069E42B3
:102BD00021D183004FF00F0C0CFA03F7BC4305FA28
:102BE00003FC4CEA040491F803C0BCF1280F05D1A2
:102BF00000F1080C08FA0CF8C2F8148091F803C030
:102C0000BCF1480F07D100F1080C4FF0010808FA99
:102C10000CF8C2F81080401C0828CED35460BDE8E0
:102C2000F0814FF6FF710180022181700421C17093
:102C300070470246002093680B400BB1012000E072
:102C4000002070470146886880B270470246002025
:102C5000D3680B400BB1012000E000207047014613
:102C6000C86880B2704701617047416170470AB11E
:102C7000016100E041617047C16070474FF48032EC
:102C80000A4382618161826182698269704702467A
:102C90000020434B18684FF68073184040EA02103A
:102CA00008433F4B186070473E49C8617047F0B514
:102CB0000A46002300240021002500F00046B6F15A
:102CC000004F02D1364EF16901E0354E7168C0F314
:102CD000034583B200F44016B6F5401F08D121F039
:102CE00070612F4E766826F070662D4F7E6012E080
:102CF00000F48016B6F5801F06D1032606FA05F407
:102D0000A14341F0706106E0460D360103FA06F674
:102D1000B14341F0706122B1460D360103FA06F667
:102D2000314300F00046B6F1004F02D11C4EF16174
:102D300001E01B4E7160F0BD30B500228B071C0F07
:102D40000F2303FA04F2164B08338C1053F8243087
:102D50009343134C08348D1044F8253023468C10CF
:102D600053F824308C07240F00FA04F423430C4C4E
:102D700008348D1044F8253030BD0A49DC31086034
:102D80007047000000080140000C014000100140A5
:102D90000014014000180140001C014000200140C7
:102DA0000000014000002042DF48006840F00100C0
:102DB000DD49086008464068DC490840DA49486057
:102DC00008460068DA490840D749086008460068A4
:102DD00020F4802008600846406820F4FE00486027
:102DE0004FF41F0088607047CF49096821F4803193
:102DF000CD4A11601146096821F480211160B0F5B7
:102E0000803F03D0B0F5802F0ED106E0C649096897
:102E100041F48031C44A116007E0C349096841F4B4
:102E2000A021C14A116000E000BF00BF704710B58B
:102E300001460022002300204A11012A02D1BA4C87
:102E4000236806E0022A02D1B74C236A01E0B64C9F
:102E5000636A01F01F02012494401C400CB1012060
:102E600000E0002010BD38B50020009000240025AF
:102E700000BF3120FFF7DBFF05460098401C0090A3
:102E80000098B0F5A06F01D0002DF2D03120FFF7EF
:102E9000CEFF08B1012400E00024204638BD0146E1
:102EA0000020A14A106820F0F80040EAC10010603C
:102EB0007047A04908607047024600209A4B586846
:102EC00020F47C1042EA01031843974B5860704786
:102ED00098490866704701460020934A506820F0E0
:102EE00003000843506070478F48406800F00C00B2
:102EF0007047014600208C4A506820F0F0000843DB
:102F00005060704701460020874A506820F4E06016
:102F100008435060704701460020834A506820F4FF
:102F2000605040EAC1005060704729B17E4A527A31
:102F300002437D4B5A7204E07B4A527A82437A4BB9
:102F40005A7270477B49D8310860704701460020AB
:102F5000754A506820F44040084350607047002193
:102F6000714A20321170704A82F82010012802D074
:102F700004280AD104E001216B4A2032117005E0D7
:102F80000521694A2032117000E000BF00BF704780
:102F90006949086070476449096A0143624A1162DD
:102FA0007047654944390860704730B500210022F8
:102FB000002400235C4D6D6805F00C0121B104294B
:102FC00005D0082923D105E05C4D056022E05B4D6A
:102FD00005601FE0544D6D6805F47012524D6D6828
:102FE00005F48034022505EB92421CB9544D55433B
:102FF00005600BE04C4D6D6805F400351DB1504D7A
:103000005543056002E04D4D5543056002E04B4DD0
:10301000056000BF00BF444D6D6805F0F00109096F
:10302000484D6B5C0568DD4045603F4D6D6805F4BB
:10303000E061090A434D6B5C4568DD4085603A4DAF
:103040006D6805F46051C90A3E4D6B5C4568DD4012
:10305000C560354D6D6805F44041890B3A4D6B5C98
:10306000C568B5FBF3F5056130BD29B12E4A52693B
:1030700002432D4B5A6104E02B4A526982432A4B8A
:103080005A61704729B1284A92690243264B9A61D6
:1030900004E0254A92698243234B9A61704729B123
:1030A000214AD2690243204BDA6104E01E4AD26908
:1030B00082431D4BDA61704729B11B4AD268024333
:1030C000194BDA6004E0184AD2688243164BDA6082
:1030D000704729B1144A12690243134B1A6104E084
:1030E000114A12698243104B1A61704712494039E4
:1030F000086070470F49C86470470B49C871704732
:103100000948406A40F080700749486270470146AC
:103110000020054A92680A400AB1012000E0002020
:103120007047014988727047001002400000FFF8A4
:10313000FFFFF6FE000042428004424200127A0085
:1031400000093D00320000204200002010B5044676
:10315000FB48844209D101218803FFF7ADFF00211C
:103160004FF48040FFF7A8FF32E0F648844209D1CF
:1031700001214804FFF7ADFF00214FF40030FFF7B5
:10318000A8FF25E0F048844209D101218804FFF717
:10319000A0FF00214FF48020FFF79BFF18E0EB48D1
:1031A000844209D10121C804FFF793FF00214FF4A5
:1031B0000020FFF78EFF0BE0E548844208D1012193
:1031C0000805FFF786FF00214FF48010FFF781FF0D
:1031D00010BD2DE9F04786B005460E460024A246F4
:1031E00000BFA1460027B08900B100BF2F462C8A3E
:1031F0004CF6FF700440F08804432C82AC894EF6F4
:10320000F3100440B08831890843718908430443AE
:10321000AC81AC8A4FF6FF400440B0890443AC82D5
:1032200001A8FFF7C2FEC648874202D1DDF810A010
:1032300001E0DDF80CA0A88900F4004040B10AEBE1
:10324000CA0000EB0A1031684900B0FBF1F807E052
:103250000AEBCA0000EB0A1031688900B0FBF1F8F4
:103260006420B8FBF0F004012009642101FB1089FF
:10327000A88900F4004040B1322000EBC900B0FB47
:10328000F1F000F00700044308E0322000EB0910E1
:103290006421B0FBF1F000F00F0004432C8106B074
:1032A000BDE8F0874FF41651016000218180C18094
:1032B00001810C21418100218181704710B50246B6
:1032C0000020108A4FF2FF0318400B884C882343DC
:1032D0008C882343CC8823431843108210BD0021DF
:1032E000018041808180C180704721B1828942F490
:1032F0000052828104E082894DF6FF731A40828178
:103300007047F0B50346002400260025002040F653
:103310006A17B94200D100BF1846C1F3421401F048
:103320001F06012707FA06F5012C01D10C3004E035
:10333000022C01D1103000E014301AB107682F437D
:10334000076002E00768AF430760F0BD1AB1838AE7
:103350000B43838202E0838A8B4383827047028A15
:103360004FF6F0731A400282028A0A4302827047C3
:1033700082894FF2FF731A40828182890A438281D7
:10338000704721B1828942F00202828104E0828981
:103390004FF6FD731A4082817047028A4FF6DF7341
:1033A0001A400282028A0A430282704721B1028ACD
:1033B00042F48042028204E0028A4BF6FF731A4014
:1033C00002827047C1F308028280704701468888F4
:1033D000C0F308007047818941F001018181704785
:1033E000028BD2B20283028B42EA0122028370472F
:1033F000028B02F47F420283028B0A4302837047EE
:1034000021B1828A42F02002828204E0828A4FF651
:10341000DF731A408282704721B1828A42F0100223
:10342000828204E0828A4FF6EF731A4082827047EC
:1034300021B1828A42F00802828204E0828A4FF639
:10344000F7731A408282704721B1828942F40042A8
:10345000828103E08289C2F30E028281704721B12A
:10346000828A42F40062828204E0828A4FF2FF7311
:103470001A4082827047828A4FF6FB731A4082821A
:10348000828A0A438282704721B1828A42F0020214
:10349000828204E0828A4FF6FD731A40828270476E
:1034A00002460020B1F5007F00D100BF13880B4019
:1034B0000BB1012000E00020704701F40072B2F56A
:1034C000007F00D100BFCA430280704770B502463A
:1034D000002400230025002040F66A16B14200D1E6
:1034E00000BFC1F3421501F01F03012606FA03F3E2
:1034F000012D02D19689334006E0022D02D1168AB1
:10350000334001E0968A33400C12012606FA04F497
:103510001688344013B10CB1012000E0002070BDCA
:1035200010B50022002340F66A14A14200D100BF6A
:103530000A1201249440A3B2DC43048010BD0000B1
:10354000003801400044004000480040004C00406A
:10355000005000407CB5002514E06946284602F082
:10356000B7F8064666B9F94850F8254044B1012C31
:1035700006D0D4E9020100EB810060640198A064E8
:10358000681CC5B23F2DE8D97CBD002400BF02E015
:10359000642002F0A7F9EE4800780028F8D0ED4842
:1035A00000686421B0FBF1F0EA4908600846006851
:1035B00028B90020E8490870FF2002F0CBF800BFCE
:1035C00002F082FD0446E5480068E54908600020F5
:1035D000E2490860204602F07BFDE1480068DD49D1
:1035E0000968B0FBF1F0C0F16400DB49087002F03B
:1035F000CDFDFFF7AFFF322002F074F9E0E700B530
:1036000087B0032000218022D64BCDE90132CDE9DD
:1036100003104FF6FE703E23D34A0090AFF29500A0
:1036200001F06FFE06AAD1A13E2001F0D3FF07B042
:1036300000BD002400BF00BF02F046FD0446C7489D
:103640000068401CC5490860204602F041FD02F0B8
:103650009CFDF1E700B587B0032000218022C74B15
:10366000CDE90132CDE903104FF6FF703F23C44A84
:103670000090AFF2410001F044FE06AAC1A13F2034
:1036800001F0A8FF07B000BD04E0002200F8012B04
:103690004A1E91B20029F8D1704770B5C821BD48C3
:1036A000FFF7F2FF00230FE0581C85B203EB830005
:1036B000B84901EB800405EB850001EB8006002092
:1036C00020706660581C83B2092BEDD303EB830096
:1036D000B04901EB80040020207060600846AE49CC
:1036E000086070BD70B54FF47C71AC48FFF7CCFF3B
:1036F0004FF480719548FFF7C7FF002413E0601C6A
:10370000C5B2C4EBC40000EB4000A44901EB800348
:10371000C5EBC50000EB400001EB80065E61A0A098
:10372000D864601CC4B20B2CE9D3C4EBC40000EB1A
:1037300040009A4901EB80030020586198A0D864AA
:1037400000209849086095489749086070BD00219D
:10375000964A1170002004E00021954A1154411C42
:10376000C8B20828F8D30021924A1170924A117009
:10377000924A1160924A1160704700209149086096
:1037800091490870914908709149087091490870F1
:103790009149086071490860714908606D49086085
:1037A0006B490870704710B502F0E8FCFFF7E5FFC1
:1037B000FFF7CDFFFFF796FFFFF76FFF00F0EEFE7C
:1037C00000F0DFFF01F0BDFAFFF744FFFFF717FF3E
:1037D00002F00EFC02F0D6FC10BD7E4800780128F5
:1037E00008D179480078FF2804D277480078401C37
:1037F00075490870704779496C4A1278885C6C4941
:10380000095C764A515C01EBC0016B4A117070474C
:1038100010B500246F480078012830D102F054FC24
:1038200004466948007820B167480078401E664920
:10383000087065480078F8B964480078E0B9FFF787
:10384000DAFF42485C49097850F821005B4908607A
:10385000594800785749097888420DD05748006880
:10386000806B401C5549096888635B480068401CB0
:103870005949086002F047FC204602F029FC10BDBF
:1038800010B5002453480078012811D102F01CFC27
:1038900004464D48007840B94C480078FF2804D2CF
:1038A0004A480078401C49490870204602F010FC44
:1038B00010BD10B5002402F007FC04464248007811
:1038C000F8B942480078E0B9FFF795FF1F483A4938
:1038D000097850F82100394908603748007835499F
:1038E000097888420DD035480068806B401C334908
:1038F0000968886338480068401C3749086002F04E
:10390000FBFB204602F0E4FB10BD10B5002431485B
:10391000007801286FD102F0D7FB04462B480078CD
:1039200080B12A480078401E28490870084600786F
:1039300048B92548007838B9204602F0C9FBFFF79E
:10394000B8FF58E054E04FE04AE000008C1200203D
:10395000600000205800002054000020700000206B
:103960005C0000208C0E00208810002075432F4F33
:10397000532D494920537461740000008C100020BD
:103980008812002075432F4F532D49492049646CFC
:1039900065000000740D00204C0000208C130020F6
:1039A0003F0000008000002078000020650000201B
:1039B0006600002063000020640000207C000020DE
:1039C00074000020900000206100002062000020B0
:1039D0006F0000206E00002048000020D4960008F0
:1039E000204602F075FB06E0204602F071FB02E083
:1039F000204602F06DFB10BD10B5EB48007890B981
:103A0000FFF7F9FEE9480078E9490870E948E74915
:103A1000097850F82100E849086008460068E7493D
:103A2000086002F058FB10BD10B50024022001F020
:103A300059FF02F049FB04460020E1490860204696
:103A400002F046FB322001F04DFF02F03DFB044640
:103A5000DB480068DB4908600120DB49087020462C
:103A600002F036FB10BD70B5002602F0DFFB02F05D
:103A70002BFB0646D5480068401CD44908603046F8
:103A800002F026FBC8480078012853D1D0480078BE
:103A900020B1012804D0022809D103E001250BE060
:103AA000002509E001250120C949087004E001252D
:103AB0000020C749087000BF00BF05B970BDC548E8
:103AC000046833E002F000FB0646E06A50B3E06AA7
:103AD000401EE062E06A28BB94F8300000F0370036
:103AE00040B114F8300F00F0C80020700120607061
:103AF000303C02E0002084F8310094F8300000F0FF
:103B0000080078B93434A078B34909780843B24939
:103B100008702078B149085C6178084314F83419BA
:103B2000AE4A50546469304602F0D2FA94F832003A
:103B30003F28C7D100BFC1E740F22310704770474C
:103B400010B590F8342001F10B039B5C90F83540E0
:103B5000A34301F10B04A35423469B5C23B98B7A46
:103B600090F83640A3438B7210BD2DE9F04F054607
:103B70000F4690469946A87A99490E5C05F10B00CC
:103B8000805D11F800B00BEBC60000F0FF0A894819
:103B900050F82A4000202034E0602760207C20EA92
:103BA0000800207484F81190207C203C00F008006C
:103BB00068B994F83600884909780843864908703E
:103BC0008648805D94F83510084384498855294615
:103BD0002046FFF7B5FF5046BDE8F08F10B5774A95
:103BE0001268D061754A126892F8343000F10B0205
:103BF000D25C724B1B6893F835301A436F4B1B68CD
:103C000093F8344000F10B031A55827A6B4B1B6812
:103C100093F836301A438272684A126892F8341068
:103C20006E4A525C654B1B6893F835309A436B4B78
:103C30005A541A46525C42B9604A126892F83630B9
:103C4000654A12789A43644B1A7010BD01460022EF
:103C50008A72002005E0002301F10B021354421C7C
:103C6000D0B20828F7D3704705E011F8013B00F8FF
:103C7000013B531E9AB2002AF7D17047014600203B
:103C800002E0491C421CD0B20A78002AF9D17047E0
:103C90002DE9F84F05460F4690469946DDE90AABF7
:103CA0000020009002F010FA00904E480468002CAA
:103CB00075D0183454F8040C4A490860009802F092
:103CC00007FA44F8187CA5760020207660766061BB
:103CD00044F814BC44F80CAC44F8108C0C9824F84C
:103CE000080C24F8069C0020E077E810207705F007
:103CF0000700E076217F01208840A077E17E012047
:103D00008840607700206060E060A0602062A06270
:103D10006062E0622063AFF278306063183C002696
:103D200006E0002104F1500040F82610701CC6B2D5
:103D3000002EF6D0204602F078FA204602F023FA50
:103D400002F0C2F900901B4840F825402148006865
:103D500060610020A0611F48006810B11D48006824
:103D600084611C4804603434A0781B4909780843F6
:103D70001949087020781949085C6178084314F8DB
:103D80003419164A505418480078401C16490870D7
:103D9000009802F09DF90020BDE8F88FFFE7009839
:103DA00002F096F94220F7E76E0000206400002040
:103DB000630000208C1200207C0000207400002092
:103DC00070000020580000206000002090000020BB
:103DD0008400002080000020650000206600002094
:103DE000D4960008780000206F0000202DE9F05FD5
:103DF00004460F4691461E464FF0000B20780528DA
:103E000004D0012030700020BDE8F09F09F0800A46
:103E1000BAF1000F04D029F080094FF0010801E049
:103E20004FF000080020307002F04EF98346B9F1DF
:103E3000000F2CD0B9F1010F3BD0B9F1020F03D024
:103E4000B9F1030F46D111E0208900EA0705BD4210
:103E500006D1B8F1010F05D12089A843208101E0E6
:103E600070203070584602F033F93AE0208900EAB9
:103E7000070535B1B8F1010F05D12089A84320818C
:103E800001E070203070584602F022F929E02089C4
:103E900027EA0005BD4206D1B8F1010F05D12089FE
:103EA0002843208101E070203070584602F010F95C
:103EB00017E0208927EA000535B1B8F1010F05D1D7
:103EC00020892843208101E070203070584602F09C
:103ED000FFF806E0584602F0FBF800256F2030702E
:103EE00000BF00BF28468FE72DE9F04106460D468A
:103EF0000027FA48007820B1102028700020BDE883
:103F0000F08102F0E1F80746F548046884B10068E2
:103F10004068F34908600520207026810020606019
:103F2000F0A0E060384602F0D3F80020287004E0EA
:103F3000384602F0CDF8722028702046DFE730B511
:103F400001464A6808682AB9CC68606028B1002533
:103F5000456002E0106000B142608B6800255D6240
:103F600030BDF0B506460F46B468002028346060C6
:103F70002780207A00F0DF00207200206072207A13
:103F8000283C88B93434A078D74909780843D64901
:103F900008702078D549085C6178084314F8341912
:103FA000D24A5054012500E000253046FFF7C7FFF4
:103FB0002846F0BD2DE9F0470446894615464FF0E6
:103FC000000AC648007820B10F2028702046BDE8BE
:103FD000F0872078052803D0012028702046F6E7D6
:103FE00002F072F88246606808B1012700E00027FD
:103FF000B9F1000F03D0B9F1010F3CD119E08FB92D
:10400000B8A0E06000202070B54800686060002023
:104010002081B3480460504602F05AF8002028700E
:10402000002605E0504602F053F849202870264645
:1040300028E0D4F8048005E000214046FFF791FF16
:10404000D8F80080B8F1000FF6D1A6A0E0600020FB
:104050002070A3480068606000202081A0480460B0
:10406000504602F035F8012F01D1FFF722FC002065
:104070002870002606E0504602F02AF80720287033
:10408000264600BF00BF3046A1E72DE9F0410546B6
:104090000E46144600279148007820B11120207068
:1040A0000020BDE8F08102F00FF8074628780528C7
:1040B00006D0384602F00CF8012020700020F0E70E
:1040C000E86830603068FFF7D9FD8046384601F077
:1040D000FFFF002020704046E3E72DE9F041054650
:1040E0000E46144600277D48007818B11220207033
:1040F000BDE8F08101F0E8FF07462878052805D0E3
:10410000384601F0E5FF01202070F1E7EE60384607
:1041100001F0DEFF0020207000BFE9E7F0B5144693
:10412000059E734F3F6897F8307047F02007DFF81F
:10413000C0C1DCF800C08CF830700027DFF8B0C1D7
:10414000DCF800C08CF83170694F3F68FE62684F40
:104150003F6879620C828B74654F3F688F60476857
:104160000F6000274F60C860456805B16960416015
:104170005F4F3F6897F834205C4FBF5CDFF870C139
:10418000DCF800C09CF835C027EA0C07DFF85CC1FA
:104190000CF802706746BF5C5FB9554F3F6897F8EF
:1041A00036C0514F3F7827EA0C07DFF83CC18CF846
:1041B0000070F0BD2DE9F04F89B005460F469146DD
:1041C0009A46129E002002904448007828B10220AE
:1041D0003070002009B0BDE8F08F4648007818B173
:1041E0000D2030700020F5E72878052803D0012045
:1041F00030700020EEE709F0800BBBF1000F04D017
:1042000009F07F094FF0010801E04FF0000801F0CC
:104210005BFF0290B9F1000F4AD0B9F1010F78D0DD
:10422000B9F1020F03D0B9F1030F71D120E0288951
:1042300000EA0704BC420FD1B8F1010F02D128896E
:10424000A04328812A4800680485029801F040FFB5
:10425000002030702046BDE74B463A4604A9284668
:10426000CDF800A0FFF75AFF029801F031FF78E087
:10427000288900EA07047CB1B8F1010F02D128892E
:10428000A04328811A4800680485029801F020FFA5
:104290000020307020469DE74B463A4604A9284648
:1042A000CDF800A0FFF73AFF029801F011FF58E0A7
:1042B000288927EA0004BC421ED1B8F1010F02D1BF
:1042C0002889204328810A4800680485029801F063
:1042D000FFFE0020307020467CE71AE061000020DD
:1042E000500000203F000000650000206600002014
:1042F00074000020620000204B463A4604A928467C
:10430000CDF800A0FFF70AFF029801F0E1FE28E0D7
:104310001FE0288927EA00047CB1B8F1010F02D11F
:10432000288920432881B14800680485029801F05B
:10433000CFFE0020307020464CE74B463A4604A999
:104340002846CDF800A0FFF7E9FE029801F0C0FE74
:1043500007E0029801F0BCFE00246F203070204678
:1043600038E700BFFFF7A5FA01F0AEFE02909F48C4
:10437000006890F8310020B39C48006890F8310044
:10438000039000209949096881F8310004A8FFF7DB
:10439000D6FD00209549096881F83000029801F0A7
:1043A00097FE00240398012805D0022802D10E2090
:1043B000307003E000BF0A20307000BF00BF20460D
:1043C00008E78A480068048DB8F1010F1ED1B9F1E1
:1043D000000F0ED0B9F1010F0CD0B9F1020F03D0CC
:1043E000B9F1030F0AD100E000BF2889A04328815A
:1043F0000BE000BF28892043288106E0029801F0E5
:1044000067FE6F2030700020E4E600BF029801F0E4
:104410005FFE002030702046DCE670B5002501F01C
:1044200053FE054671480068048D284601F050FE91
:10443000204670BD2DE9FC5F0446894692461E4623
:10444000002000902078052804D001203070002042
:10445000BDE8FC9F01F038FE0090BAF1000F03D0D8
:10446000BAF1010F0AD104E0208920EA0900208175
:104470000BE0208940EA0900208106E0009801F065
:1044800027FE712030700020E2E700BF4FF0000BE4
:10449000656855E0A87C40B3012838D0022802D0D6
:1044A000032844D111E02089298A00EA0107288ADB
:1044B000B84209D139462846FFF753FD8046B8F186
:1044C000010F01D14FF0010B38E02089298A00EA61
:1044D00001074FB139462846FFF743FD8046B8F142
:1044E000010F01D14FF0010B28E0288A218920EA31
:1044F0000107288AB84209D139462846FFF731FD1D
:104500008046B8F1010F01D14FF0010B16E0288A67
:10451000218920EA01074FB139462846FFF721FDDE
:104520008046B8F1010F01D14FF0010B06E0009871
:1045300001F0CEFD6F203070002089E700BF2D68AC
:10454000002DA7D1009801F0C3FDBBF1010F01D1EF
:10455000FFF7AFF901F0B8FD0090208901900098B5
:1045600001F0B6FD00203070019871E72DE9F041AF
:1045700004460D4600272078052804D00120287025
:104580000020BDE8F08101F09FFD074626893846EE
:1045900001F09EFD002028703046F2E72DE9F04141
:1045A00050211348FFF770F800250EE0681C86B212
:1045B0000F4800EB051400EB061700202070676021
:1045C000AFF2E020E060681C85B2042DEED308480D
:1045D00000EB0514002020706060AFF2F820E0606E
:1045E000034804490860BDE8F08100007400002021
:1045F0003C0E0020500000202DE9FC5F05460F46D0
:1046000091469A460020009001F05EFD00906348BC
:104610000468006820B16148006840685F4908602C
:10462000009801F055FD2CB95A208AF800000020AE
:10463000BDE8FC9FA8462E46781E01904FF0000B67
:1046400005E04E44C8F80060B0460BF1010B01983C
:104650008345F6D30020C8F8000025606560276117
:10466000E760C4F808908AF800002046E0E72DE9EA
:10467000F04104460D46002701F026FD074620695B
:1046800068B16668306860602069401E2061384605
:1046900001F01EFD002028703046BDE8F08138464C
:1046A00001F016FD5D2028700020F6E72DE9F041AD
:1046B00006460C46154600273948007820B11120DF
:1046C00028700020BDE8F08101F0FEFC074670690B
:1046D00020602068FFF7D2FA8046384601F0F8FCE7
:1046E000002028704046EDE72DE9F04105460E46D2
:1046F000144600272A48007818B112202070BDE81F
:10470000F08101F0E1FC07466E61384601F0E0FC03
:104710000020207000BFF2E770B504460D46002669
:1047200001F0D2FC0646D4E90310884204D3304697
:1047300001F0CEFC5E2070BD606828606560206975
:10474000401C2061304601F0C3FC0020F3E770B547
:1047500005460C46002601F0B7FC06462868206096
:1047600068686060A868A060E868E0602869206107
:10477000304601F0ADFCD4E90301401A606100202D
:1047800070BD10B518210748FEF77EFF05480349A4
:10479000086005A00968486110BD0000880000207D
:1047A000610000207C1700203F0000002DE9F0414F
:1047B00006460D464FF000083078022804D001204C
:1047C00028700020BDE8F08101F07EFC804674680E
:1047D000E08A78B12169081D20610F68E08A401ED7
:1047E000E082A1682069884201D1606820610020D0
:1047F000287002E01F2028700027404601F068FC66
:104800003846DFE72DE9F04106460F464FF0000835
:10481000F748007810B10020BDE8F08101F054FCA9
:104820008046F4480568006820B1F2480068406896
:10483000F0490860404601F04BFC3DB301F044FCF8
:104840008046ED480468C4B100680068EA49086021
:10485000404601F03DFC666006EB8700A060E66024
:104860002661A7820020E082022028700020288193
:104870006C602846FFF7EAF908E0DE4800686860E7
:10488000DC480560404601F023FC00252846C3E7CC
:104890002DE9F0470446894615464FF0000A207876
:1048A000022804D0012028702046BDE8F087D048B7
:1048B000007818B10F2028702046F6E701F004FCBC
:1048C0008246A07A10B14FF0010801E04FF00008D5
:1048D000B9F1000F03D0B9F1010F45D11FE0B8F1D4
:1048E000000F15D16668C44800683060C248066091
:1048F00000202070BF480068606000202081BD4813
:104900000460504601F0E4FB00202870002705E019
:10491000504601F0DDFB4920287027462BE005E0DA
:104920000023042219462046FFF71FF9A07A002829
:10493000F6D16668B04800683060AF480660002075
:104940002070AC480068606000202081A9480460A5
:10495000504601F0BDFBB8F1010F01D1FEF7A9FFF0
:1049600000202870002706E0504601F0B1FB072028
:104970002870274600BF00BF384696E770B5054649
:10498000002601F0A1FB06466C686068E060606884
:1049900020610020E082304601F09AFB002070BDCB
:1049A0002DE9F0470746884615464FF0000938784C
:1049B000022804D0012028700020BDE8F0878C4830
:1049C000007818B1022028700020F6E78B480078A4
:1049D00018B10D2028700020EFE701F075FB81462B
:1049E0007C68E08A98B12169081D20610E68E08A20
:1049F000401EE082A1682069884201D16068206180
:104A0000484601F065FB002028703046D5E77C4819
:104A1000006890F8300040F004007949096881F896
:104A2000300000207649096881F831007448006838
:104A3000C0F82C803846FFF7D1F8484601F048FB13
:104A4000FEF737FF01F040FB81466D48006890F8A3
:104A5000310020B101280DD002280AD105E06848B4
:104A60000068066A002028700DE000260E202870DD
:104A700009E000BF394662480068FFF761F8002688
:104A80000A20287000BF00BF00205D49096881F836
:104A900030005B49096881F8310059490968C861EB
:104AA000574909680862484601F012FB304684E71E
:104AB0002DE9F04104460F4615464FF000082078D6
:104AC000022804D0012028700020BDE8F08101F008
:104AD000FBFA8046A07A20B300267FB1012F0CD1CB
:104AE00007E00223042200212046FFF73EF8701C55
:104AF000C6B2A07A0028F4D109E000BF0223042244
:104B000000212046FFF731F8701CC6B200BF00BF7D
:104B1000404601F0DDFAFEF7CCFE0E20287030464C
:104B2000D3E7404601F0D4FA0020287000BFCCE75C
:104B30002DE9F04105460E4600272878022802D0CC
:104B40000120BDE8F08101F0BFFA0746A87A60B104
:104B50000023042231462846FFF707F8384601F0C3
:104B6000B7FAFEF7A6FE0020EBE76C68E08AA18AA0
:104B7000884204DB384601F0ABFA1E20E1E7E16829
:104B8000081DE0600E60E08A401CE082D4E902105B
:104B9000884201D16068E060384601F099FA00204F
:104BA000CFE72DE9F04105460E4600272878022878
:104BB00002D00120BDE8F08101F086FA0746A87A0C
:104BC00060B10023042231462846FEF7CEFF384666
:104BD00001F07EFAFEF76DFE0020EBE76C68E08ADC
:104BE000A18A88420EDB384601F072FA1E20E1E706
:104BF000610000204C0000208C000020620000209A
:104C00007400002061682069884201D1A068206199
:104C10002069001F206120690660E08A401CE08254
:104C2000384601F055FA0020C4E72DE9F041054669
:104C30000F4616464FF000082878022802D00120BF
:104C4000BDE8F08101F040FA8046A87AE8B106F0AC
:104C5000010050B105E00023042239462846FEF742
:104C600084FFA87A0028F6D105E000230422394603
:104C70002846FEF77AFF404601F02AFA06F00400C3
:104C800008B9FEF716FE0020DAE76C68E08AA18A10
:104C9000884204DB404601F01BFA1E20D0E706F0F4
:104CA000020058B161682069884201D1A068206182
:104CB0002069001F20612069076009E0E168081D84
:104CC000E0600F60D4E90210884201D16068E060C2
:104CD000E08A401CE082404601F0FAF90020AFE78C
:104CE0002DE9F04705460C464FF0000A28780228C7
:104CF00002D00120BDE8F08701F0E6F98246A87AEB
:104D0000207405F10B0804F10809002705E018F8E4
:104D1000010B09F8010B781CC7B2082FF7D36E6896
:104D2000F08A18B130690068206001E0002020603E
:104D3000F08AA080B08AE080504601F0C9F90020D6
:104D4000D8E72DE9F04178211048FEF79DFC0024BA
:104D50000DE0601C86B204EB44000C4901EBC00579
:104D600006EB460001EBC0072F60601C84B2042CE8
:104D7000EFD304EB4400054901EBC0050020286097
:104D8000084603490860BDE8F08100009417002040
:104D90008C00002070B5044600262078032801D03E
:104DA000002070BD01F090F90646258915B12089D3
:104DB000401E2081304601F08BF92846F1E770B59E
:104DC00005460026D248007808B1002070BD01F0E9
:104DD0007BF90646CF480468006820B1CD480068DA
:104DE0004068CC490860304601F072F93CB10320BC
:104DF00020702581002060602046FEF727FF2046B6
:104E0000E4E72DE9F0470446884615464FF00009CF
:104E10002078032804D0012028702046BDE8F087C0
:104E2000BB48007818B10F2028702046F6E701F043
:104E30004BF98146A07A08B1012700E00027B8F1BC
:104E4000000F03D0B8F1010F35D117E07FB9002072
:104E50002070B0480068606000202081AD48046088
:104E6000484601F035F900202870002605E0484644
:104E700001F02EF949202870264623E005E00023A2
:104E8000012219462046FEF770FEA07A0028F6D1CE
:104E90002070A04800686060002020819D48046068
:104EA000484601F015F9012F01D1FEF702FD00205F
:104EB0002870002606E0484601F00AF9072028700D
:104EC000264600BF00BF3046A8E72DE9F041054661
:104ED0000E46144600272878032803D001202070AE
:104EE000BDE8F0818A48007810B102202070F7E711
:104EF0008948007810B10D202070F1E701F0E4F846
:104F00000746288940B12889401E2881384601F08B
:104F1000DFF800202070E3E78048006890F8300058
:104F200040F001007D49096881F8300000207B498C
:104F3000096881F8310079480068C6622846FEF7A2
:104F40004DFE384601F0C4F8FEF7B3FC01F0BCF8A2
:104F500007467248006890F8310020B1012809D056
:104F6000022806D102E0002020700BE00E20207005
:104F700008E000BF294669480068FEF7E1FD0A2005
:104F8000207000BF00BF00206449096881F830002C
:104F90006249096881F8310060490968C86138468A
:104FA00001F096F800BF9BE72DE9F04104460F465B
:104FB00015464FF000082078032804D001202870FF
:104FC0000020BDE8F08101F07FF88046A07A20B390
:104FD00000267FB1012F0CD107E00223012200211E
:104FE0002046FEF7C2FD701CC6B2A07A0028F4D19C
:104FF00009E000BF0223012200212046FEF7B5FD93
:10500000701CC6B200BF00BF404601F061F8FEF759
:1050100050FC0E2028703046D3E7404601F058F887
:105020000020287000BFCCE770B50446002520782A
:10503000032801D0012070BD01F046F80546A07A92
:1050400060B10023012219462046FEF78EFD284656
:1050500001F03EF8FEF72DFC0020ECE720894FF62A
:10506000FF71884207D22089401C2081284601F028
:105070002FF80020DFE7284601F02AF83320DAE78E
:105080002DE9F04704460D464FF00009207803282B
:1050900002D00120BDE8F08701F016F88146A07A21
:1050A000A87204F10B0705F10208002605E017F8C5
:1050B000010B08F8010B701CC6B2082EF7D320892B
:1050C0002880484601F004F80020E3E72DE9F0418C
:1050D00004460E46154600272078032803D00120F9
:1050E0002870BDE8F08100F0EFFF0746002028702F
:1050F000208908B1268105E0A07A08B9268101E05F
:1051000049202870384600F0E3FF00BFE9E70000BF
:10511000610000204C00002062000020740000208C
:105120002DE9FF5F814688460020009000F0CCFF0B
:105130000090F94850F8280030B1009800F0C8FFFE
:10514000282004B0BDE8F09FB9F1FF0F03D1F34868
:10515000006890F83290F04850F8294024B900983F
:1051600000F0B6FF2920ECE7012C04D1009800F0F4
:10517000AFFF4320E5E74FEAE80708F00700039098
:105180000120B84000F0FF0A01210398814001F09E
:10519000FF0B0020E04941F82900084640F828406C
:1051A00014F8346FA07802906078343C0190DC48A9
:1051B000815D01980140D1B1D948805D0199884352
:1051C000D74988550846805D28B9D64800780299A5
:1051D0008843D4490870D348007840EA0A00D1498E
:1051E0000870CF48C05D40EA0B00CD49C855E5695D
:1051F000D5B105F10B00805D0199884305F10B01E4
:1052000088550846805D18B9A87A02998843A87223
:10521000A87A40EA0A00A87205F10B00C05D40EAD6
:105220000B0005F10B01C85584F8328084F8347006
:10523000039884F8330084F836A084F835B00098D9
:1052400000F046FFB8480078012801D1FEF731FB95
:10525000002076E72DE9FE4F06460F4690461C4695
:105260004FF0000900F030FF8146B048007828B1C7
:10527000484600F02DFF3C20BDE8FE8FA64850F8C0
:10528000240060BB0120A44941F82400484600F0F6
:105290001FFF002342463946304600F078FF824621
:1052A000002000900190034602465146029020469D
:1052B000FEF7EEFC054635B99B48007801280CD175
:1052C000FEF7F7FA09E000F0FFFE81460020924960
:1052D00041F82400484600F0FBFE2846CCE748464B
:1052E00000F0F6FE2820C7E702F0010343B102F008
:1052F00002032BB102E0491E002308C00029FAD1A5
:1053000070472DE9F04F85B081468A4693461C468A
:10531000DDE90F78129D0020039000F0D5FE039088
:105320008248007830B1039800F0D2FE3C2005B0EE
:10533000BDE8F08F784850F8240088BB01207649FA
:1053400041F82400039800F0C3FE2A46414638463F
:10535000FFF7CAFF2B465A465146484600F017FF52
:1053600004901198CDE9008002953A4620460E9BA4
:105370000499FEF78DFC064636B96B480078012883
:105380000CD1FEF796FA09E000F09EFE0390002093
:10539000614941F82400039800F09AFE3046C6E7C0
:1053A000FFE7039800F094FE2820C0E72DE9F041C4
:1053B000054600275D48007810B14020BDE8F08127
:1053C0003F2D01D13E20F9E700F07EFE0746FF2D7C
:1053D00003D15248006890F832504F4850F82540A9
:1053E00024B9384600F074FE4320E7E7012C04D1CD
:1053F000384600F06DFE3D20E0E714F8340F4849D0
:10540000085C617888432178454A505414F834097F
:105410001146085C30B994F8361042480078884349
:1054200040490870E06918B12046E169FEF788FB41
:10543000666A16B13046FEF782FD0020E06284F80D
:10544000300084F831003A480078FF2804D2384808
:105450000078401C36490870384600F039FEFEF7E7
:105460006EFB00F031FE07463148007820B130482D
:105470000078401E2E490870204600F085FE2D4819
:105480000078401E2B4908700020234941F8250070
:10549000A06930B9002061698861274960690860A6
:1054A00005E0D4E905014861D4E905108861234885
:1054B000006860612148046021A0E064384600F083
:1054C00007FE19480078012801D1FEF7F2F9002003
:1054D00074E72DE9F041044600273F2C02D13E201D
:1054E000BDE8F081FF2C0BD100F0EEFD07460B4824
:1054F000006890F83760384600F0EAFD3046EFE784
:1055000000F0E2FD0746044850F82450D5B938466B
:1055100000F0DEFD4320E3E78C1200207400002041
:1055200066000020650000206E0000206100002061
:10553000620000206F000020800000207800002022
:105540003F000000012D04D1384600F0C1FD3D2090
:10555000C6E73F2085F83700384600F0B9FD002047
:10556000BEE72DE9F04706460F4614464FF0000807
:10557000D648007820B1112020700020BDE8F087C7
:1055800000F0A2FD8046FF2E03D1D148006890F8BC
:105590003260D04850F8265035B9404600F098FDAA
:1055A000432020700020E9E7012D06D1404600F09D
:1055B0008FFD432020700020E0E7E86C38603868F9
:1055C000FEF75CFB8146404600F082FD0020207023
:1055D0004846D3E72DE9F04106460F4614464FF002
:1055E0000008BA48007818B112202070BDE8F08198
:1055F00000F06AFD8046FF2E03D1B548006890F8A0
:105600003260B44850F826502DB9404600F060FD95
:1056100043202070EAE7012D05D1404600F058FDF7
:1056200043202070E2E7EF64404600F051FD002087
:10563000207000BFDAE770B50546002600F044FD93
:105640000646A44850F8254024B9304600F040FDF5
:10565000462070BD012C04D1304600F039FD4320B6
:10566000F7E794F8300000F0080060B314F8300F4A
:1056700000F0F700207014F83009F8B9E06AC8B9F2
:105680003434A07894490978084393490870207805
:105690009249085C6178084314F834198F4A5054D1
:1056A000304600F015FD8E480078012809D1FEF73C
:1056B00000F906E0304600F00BFD02E0304600F055
:1056C00007FD0020C5E7304600F002FD4420C0E79A
:1056D0002DE9F04707460D464FF0000A00202860EC
:1056E000686000F0F1FC8246FF2F03D17848006823
:1056F00090F83270774850F827402CB9504600F0A7
:10570000E7FC4320BDE8F087012C04D1504600F0AF
:10571000DFFC4320F6E7207C00F0010020B9504672
:1057200000F0D6FC4520EDE70026D4F80C90D4F824
:105730000880504600F0CCFC00E0761C58F8041BB2
:105740000029FAD0B0002860A9EB0600800068604C
:105750000020D7E72DE9F04105464FF0000800F0A2
:10576000B3FC8046FF2D05D15948006890F83250AF
:10577000012608E05648006890F83200A84201D19E
:10578000012600E00026534850F825402CB9404639
:1057900000F09EFC4820BDE8F081012C04D1404679
:1057A00000F096FC4320F6E794F834704B48C05D57
:1057B00094F8351088434949C8550846C05D30B94A
:1057C00094F836104448007888434349087094F8A8
:1057D000300040F0080084F83000404600F078FCCB
:1057E000012E01D1FEF765F80020D4E72DE9F04144
:1057F00005460E46002700F067FC0746FF2D03D143
:105800003348006890F83250324850F825402CB99F
:10581000384600F05DFC2920BDE8F081012C04D160
:10582000384600F055FC4320F6E754222146304626
:10583000FEF71AFA384600F04BFC0020ECE72DE9A1
:10584000F04704460E4617464FF0000900F03CFCB6
:105850008146FF2C02D11E48056802E01D4850F821
:10586000245005F1500050F82680484600F030FCE6
:10587000002038704046BDE8F0872DE9F047044627
:105880000E46174698464FF0000900F01DFC814671
:10589000FF2C02D10E48056802E00E4850F8245053
:1058A00005F1500040F82670484600F011FC002039
:1058B00088F80000BDE8F08710B50548006800F0E2
:1058C000C4FCFF20FFF772FD10BD00006100002046
:1058D000740000208C12002065000020660000206B
:1058E0006E00002070B5054600266348007800B1C0
:1058F00070BD6248007800B1FAE71DB300F0E4FB28
:1059000006465F48006890F834405E48005D5C4998
:10591000096891F8351088435A4908550846005DD2
:1059200040B95748006890F83610574800788843C7
:105930005549087052480068C562304600F0C8FBFF
:10594000FDF7B7FF00BFD3E72DE9F04104460D4650
:1059500016461F464848007810B15520BDE8F08132
:105960004648007808B13220F8E7781C4FF4FA7105
:1059700048434900B0FBF1F14FF461606043C5EB6F
:10598000051200EB8200304400EB4002C2EBC01075
:1059900001EB80084046FFF7A5FF0020DEE770B569
:1059A000054600263F2D01D32A2070BD00F08CFB58
:1059B0000646364850F8254024B9304600F088FBAA
:1059C0004320F2E7012C04D1304600F081FB432054
:1059D000EBE7E06A20B9304600F07AFB5020E4E7BC
:1059E0000020E06294F8300000F0370040B114F875
:1059F000300F20F03700207001206070303C02E052
:105A0000002084F8310094F8300000F00800A8B9B4
:105A10003434A0781C49097808431B490870207861
:105A20001849085C6178084314F83419154A505431
:105A3000304600F04DFBFDF73CFF02E0304600F041
:105A400047FB0020B1E770B5002500F03DFB05469F
:105A50000F480468284600F03BFB204670BD70B537
:105A60000446002500F030FB05460948046028463E
:105A700000F02EFB70BD00006100002062000020DD
:105A80007400002066000020650000208C120020B9
:105A900090000020FC48006808B900207047FA48D0
:105AA0000168F94AC86810600020C8600861F748BA
:105AB0000088401CF54A1080F5480088401EF44AD2
:105AC00010800846EAE72DE9F05F06460F4690464B
:105AD0009946DDE90AAB0C9DEE48007820B18B2099
