:020000040000FA
:10000000F802002091010000B1010000750100001C
:1000100000000000000000000000000000000000E0
:10002000000000000000000000000000B50100001A
:100030000000000000000000B7010000B90100004E
:10004000BB010000BB010000BB010000BB010000C0
:10005000BB010000BB010000BB010000BB010000B0
:10006000BB010000BB010000BB010000BB010000A0
:10007000C5090000BB010000BB010000BB0100007E
:10008000BB010000BB010000BB010000BB01000080
:10009000BB010000BB010000BB010000BB01000070
:1000A000BB010000BB010000BB010000BB01000060
:1000B000BB010000BB010000BB010000BB01000050
:1000C00000F002F800F046F80CA030C808382418F8
:1000D0002D18A246671EAB4654465D46AC4201D180
:1000E00000F038F87E460F3E0FCCB646012633426C
:1000F00000D0FB1AA246AB4633431847680D0000F8
:10010000880D0000103A02D378C878C1FAD8520797
:1001100001D330C830C101D504680C6070470000BD
:100120000023002400250026103A01D378C1FBD813
:10013000520700D330C100D50B60704710B5782945
:1001400002D100F065F810BD002010BD1FB51FBD25
:1001500010B510BD00F044FA1146FFF7F7FF00F0AC
:1001600037FD00F05CFA03B4FFF7F2FF03BC00F0C8
:1001700063FA000004207146084202D0EFF30980C0
:1001800001E0EFF308807146004A10476108000063
:100190000D480E4901600E4901600E4901600E4A8A
:1001A0000E491160002101600D4880470D4800474D
:1001B000FEE7FEE7FEE7FEE7FEE7FEE70A480B493B
:1001C000094A0B4B70470000000100505900000025
:1001D000160000008800000024000050A55A00000E
:1001E000C1090000C1000000F8000020F802002052
:1001F000F80000200FB4054910B503AA029800F0DA
:10020000C3F910BC08BC04B018470000200000204F
:1002100070B504460D4621461068C046C046218888
:10022000090502D50F4A7A4402E00E4A7A440E329A
:1002300023460021243305E006070009360F965DAA
:100240005E54491C0028F7D120780023000705D50B
:10025000702D03D0002901D002231132204600F076
:100260003AF970BD120C0000F3B50446002081B0CD
:1002700020622046E168884700287AD0252802D0ED
:100280006268A16871E0E16820460025884706465B
:100290000020E0610746A0612A2E0AD0304600F017
:1002A0003BFC002827D0B8000019303E0090866142
:1002B00019E00298BA00121902C891610290204612
:1002C000E1688847012F064617D1E06900281FDA48
:1002D000202085431CE000980A218069484300994A
:1002E0008019303888612046E1688847064600F06A
:1002F00013FC0028EFD1012F0AD02E2E08D1204662
:10030000E16888470646202005437F1C022FC3DB97
:10031000A069002803DA4042A06101200543E807F4
:1003200001D010208543002E23D0304641381928B3
:1003300003D80120C00205432036204625603146FF
:10034000029A1546FFF7FAFE00280BD0012806D0C6
:10035000ED1DE808C000083002908AE709E02D1D75
:10036000029586E762683046A1689047206A401C83
:100370007EE7206AFEBD002203098B422CD3030ACC
:100380008B4211D300239C464EE003460B433CD4E2
:10039000002243088B4231D303098B421CD3030A4A
:1003A0008B4201D394463FE0C3098B4201D3CB017A
:1003B000C01A524183098B4201D38B01C01A5241AA
:1003C00043098B4201D34B01C01A524103098B42AE
:1003D00001D30B01C01A5241C3088B4201D3CB0099
:1003E000C01A524183088B4201D38B00C01A52417C
:1003F00043088B4201D34B00C01A5241411A00D22C
:1004000001465241104670475DE0CA0F00D0494294
:10041000031000D34042534000229C4603098B4204
:100420002DD3030A8B4212D3FC22890112BA030A8C
:100430008B420CD3890192118B4208D3890192110E
:100440008B4204D389013AD0921100E08909C30993
:100450008B4201D3CB01C01A524183098B4201D395
:100460008B01C01A524143098B4201D34B01C01A80
:10047000524103098B4201D30B01C01A5241C308F8
:100480008B4201D3CB00C01A524183088B4201D367
:100490008B00C01A5241D9D243088B4201D34B0082
:1004A000C01A5241411A00D20146634652415B10C4
:1004B000104601D34042002B00D5494270476346A5
:1004C0005B1000D3404201B50020C046C04602BDCB
:1004D000704770477047FFB504460D4681B0243021
:1004E00000902168880604D51022E06991432160BC
:1004F00000E00120A84201DD471B00E0002704982E
:10050000A1697A191018081AA0612078C00602D4CF
:100510002046C046C046002608E003986268A168ED
:10052000805D9047206A401C761C206204988642B9
:10053000F3DB2078C0060AD52046C046C04606E058
:100540006268A16830209047206A401C20623846CB
:100550007F1E0028F4DC07E000986268A168405D17
:100560009047206A401C206228466D1E0028F3DC5C
:100570002046C046C0462078000602D5022005B0BD
:10058000F0BD0120FBE70000084B70B50D467B4431
:1005900000F013F80446284600F0F4FA002802D0D0
:1005A0000020C04370BD204670BD0000330600002F
:1005B00001694A1C02610878704700B58FB002914A
:1005C0000021059105490193794403911146049056
:1005D0006846FFF749FE0FB000BD0000E5FFFFFFD2
:1005E000754600F025F8AE46050069465346C0083A
:1005F000C000854618B020B5FFF7E0FD60BC0027BD
:100600004908B6460026C0C5C0C5C0C5C0C5C0C5DE
:10061000C0C5C0C5C0C5403D49008D46704710B536
:100620000446C046C0462046FFF79DFD10BD0000B1
:10063000004870479400002001491820ABBEFEE737
:100640002600020070470000810F8A0004495118FB
:100650004A68C306DB0E0120984002434A60704797
:100660000002005002490A6802430A607047000015
:100670000002005008B511A0006800901048016AFF
:100680000013014201D0002008BD080301D50D4828
:1006900000E00D488A03F7D40A04920F6B469B5C76
:1006A000CA058904D20DC90E891C8008921C5943C1
:1006B0005043FFF760FE800008BD00000102020405
:1006C0000002005000805101001BB700F3B5114C2F
:1006D00081B0E5680F4610200540206804263043AD
:1006E0002060102000F052F82069072108432061A3
:1006F000A069000900013843A0612069884301997D
:100700000843206100F014F9002D02D12068B043A5
:100710002060FEBD0002005070B5430E5B070DD097
:1007200083009B0F0F4C9B001B191C6805016D0F6C
:10073000C601F60EB540AC430C431C60830A190693
:10074000090E0ED00103074C890F890008340919DE
:100750000C68DBB28005DB43C00E834023401343AB
:100760000B6070BD100200500649096848430649F5
:10077000486100228A61052008610869C003FCD530
:100780000A6170470400002000E000E010B5044654
:100790000749084B05E00A46491E002A01DC0020F3
:1007A00010BDDA6820469043F5D1012010BD00004D
:1007B000804F12000002005000230BE0162180221F
:1007C000521E1206120EFBD1491E0906090EF7D160
:1007D0005B1CDBB28342F1D37047000000B50649D1
:1007E0008860054A0120403A9062052000F0C4F973
:1007F0000020906200BD000080420050F8B5104C0F
:100800000546A068C0210840A060A0680121A94059
:100810000843A0600B4F3E460C3E785D3178FFF7F1
:10082000AAFDFFF7C9FFA068C0210840A060785D5D
:10083000372804D93178FFF79EFDFFF7BDFFF8BDDB
:10084000804000501800002000B5044A0020D0620B
:10085000052000F091F90120D06200BD4042005017
:10086000044603A0FFF7C6FC204600F04DFAFEE761
:10087000496E2048617264204661756C742048613D
:100880006E646C65720A000070B559211622164C10
:10089000882002E02160226020602368012BF9D1CA
:1008A0000420FFF7DFFE1020FFF770FF0021072074
:1008B000FFF70CFF0D4D2846FFF7C6FE032100226F
:1008C00009062846FFF728FF00F032F80520000748
:1008D000C16B074A1140C163C16B03221143C1635D
:1008E0000020206070BD000000010050103D8057C6
:1008F000FCFCFFFF0521020E090751188B6801223D
:10090000824013438B608868904388607047000082
:1009100006498A691202FCD408600A2804D1886951
:100920000002FCD40D200860704700000000054064
:10093000F8B51C4D286944071BA000680090296A7F
:10094000640F2813014201D0002016E0080301D5EE
:10095000164800E016488A030FD40A04920F6B462B
:100960009B5CCA058904D20DC90E891C8008921CA3
:1009700059435043FFF7FFFC80000E4E022CB0603D
:1009800002D00D49A0000858A9690907090F491CA0
:10099000FFF7F1FC094930604A108018FFF7EBFCC3
:1009A0007060F8BD00020050010202040080510195
:1009B000001BB70000000020EC0D000040420F00BB
:1009C0007047000070B5214AD069C00730D0106868
:1009D000204EC1B21E4D3079002429547F292BD9D5
:1009E000802908D029780123812909D082290CD0B7
:1009F000832910D011E0372811D100F02DF90EE035
:100A000000280AD1B370022008E0002805D1B47094
:100A1000F470032002E000280BD005201060347130
:100A20000D48B06000202C54401C80B23C28FAD302
:100A300070BDF3700420F1E7401CC0B23071B460A7
:100A40006F28F5D90548FFF755FF70BD0000054038
:100A5000240000200C00002061EA000010000004C7
:100A600010B50848FFF746FF074C4B2149022046C6
:100A700000F00EF861680122114361600349100320
:100A8000086010BD100000040000054000E100E017
:100A9000F0B504461C480D460FC885B06E460FC61B
:100AA0001A48416980698A010321960F0005070FE2
:100AB00000202063E160A06815490840A060012E75
:100AC00002D1FFF7D7FD0190002D1BD0B100684681
:100AD0004058791CFFF74FFC064669084018294624
:100AE000FFF749FC0B49801E884207D9E9007018BE
:100AF0002946FFF740FC0009801E02E00321090798
:100B00000843606205B0F0BD0C0E0000000200500A
:100B10000FFFF0FFFFFF000030380A2801D201204C
:100B2000704700207047000010B50A494878002837
:100B30000DD0401E4870084C0120E060487800F05D
:100B400037F90648FFF710FE0020E06010BD0320D3
:100B5000F0E700000C0000208042005088130000E5
:100B60000449002048710871C87088704870087086
:100B70007047000018000020002100E0491C81425D
:100B8000FCD370470020C0437047000070B50A498D
:100B90000024487803280CD0401C4870074D0120E1
:100BA000E860487800F004F90548FFF7DDFDEC60E7
:100BB00070BD4C70F2E700000C0000208042005035
:100BC0008813000000B50346FFF7A2FE184600BDDB
:100BD000FFF75AFE1A4A0024D4601948403884634B
:100BE000C4634463046317498B68C0252B408B6042
:100BF00084620121C1621160FFF732FF1249134E76
:100C0000134D00200C54401CC0B23C28FAD30527D9
:100C1000A868B04202D2401CA86006E0B04204D1ED
:100C2000401CA8600B482C710760A878002801D0F0
:100C3000FFF7ACFFE8780028EAD0FFF775FFE7E799
:100C400080420050804000502400002060EA0000F4
:100C50000C00002000000540F8B5FFF781FF0024DC
:100C6000254F264D402607212046FFF784FB385CA0
:100C70003246CA40104004D0A009295C491C2954BE
:100C80000120FFF7ABFD641CFF20A4B28130844239
:100C9000E9D3FFF7D9FD0024E0B2FFF7AFFD641CF4
:100CA000A4B2062CF8D3164EB068C0273840B06006
:100CB000FFF76CFF0024E0B2FFF7A0FD641CA4B2B4
:100CC000062CF8D328786978EA784018A97889182A
:100CD00040182979401869794018022803D27D20EC
:100CE000C000FFF749FFB0683840B060FFF74EFF23
:100CF000044901200860F8BD2400002018000020ED
:100D0000804000500000054010B50446016810A066
:100D1000FFF770FA11A06168FFF76CFA12A0A168E2
:100D2000FFF768FA13A0E168FFF764FA14A02169DD
:100D3000FFF760FA15A06169FFF75CFA16A0A169D8
:100D4000FFF758FA17A0E169FFF754FA10BD000049
:100D5000723020203D20307825780A007231202022
:100D60003D20307825780A00723220203D203078EE
:100D700025780A00723320203D20307825780A003B
:100D8000723132203D20307825780A006C722020A4
:100D90003D20307825780A00706320203D2030788F
:100DA00025780A00707372203D20307825780A007B
:100DB000002201230C4900280AD001280BD0022868
:100DC0000ED0032803D18A63CB634A630B63704759
:100DD0008A63CB6301E08B63CA634B630A6370472A
:100DE0008B63CA63F1E7000040420050001BB7006C
:100DF0000000000080F0FA02102700000000000050
:100E0000000000000000000000805101001BB7003E
:100E1000000000000000000000805101001BB7002E
:100E2000000000000000000000805101001BB7001E
:100E3000000000000000000000805101303132331A
:100E400034353637383941424344454640305800FE
:100E50003031323334353637383961626364656630
:100E600040307800840E00000000002024000000C4
:100E700004010000A80E000024000020D40200009D
:100E80002001000080F0FA023200000080F0FA0237
:100E9000030000000000000061EA00000000000004
:080EA00000000000000000004A
:040000050000019165
:00000001FF
