:100C5300021401F4010D00C100C18104090000EA7E
:040C63006101080023
:0A0C9700C2998F993099FDC299228D
:100BB900EF14601314601914601C1460222404706B
:100BC90026C2B6D2B78004D2B6C2B7D2B5C2B42251
:100BD900D2B6C2B78004C2B6D2B7C2B5D2B422C2A5
:080BE900B6C2B7C2B5C2B422C6
:100C6800E50DB40305E4F50D8002050DAF0D020B8B
:010C7800B9C2
:100C7900E50D7005750D038002150DAF0D020BB959
:05001D00AF0D020BB95C
:050CBC007F04020BB9EA
:0B0B6F0012001D7F2C7E017D007C0029
:080B7A008F358E348D338C326F
:100B8200E4F539F538F537F536AF35AE34AD33AC7B
:100B920032AB39AA38A937A836C31204CB5017E5AD
:100BA200392401F539E43538F538E43537F537E4D9
:060BB2003536F53680D354
:010BB800221A
:100B2000AD07AC06E4120131E4FBFA79C878421251
:100B30000026E4F52BF52AF52975283F1206311217
:100B4000016AD3EF940CEE940040047E007F0CEF1A
:100B50007802CEC313CE13D8F9FFE4FDEDC39FE4B2
:0E0B60009E500B7C237B08DBFEDCFC0D80EE40
:010B6E002264
:080CA1007F1C7E39DEFEDFFC42
:010CA9002228
:080CAA007F0B7E33DEFEDFFC50
:010CB200221F
:080CB3007F047E64DEFEDFFC1D
:010CBB002216
:100BF1008F235390C0AF237401A807088002C33329
:100C0100D8FC4290740E2523F8E6FF7E00120B20DB
:100C11005390C0740E2523F8E6FFD3943740057E28
:050C210000120B20226F
:10000300A20292CCD2B27F057E00120B76C2B27FDF
:0A001300017E007D007C00020B7AE4
:100C3D00C2B37F057E00120B76D2B37F017E007D9D
:060C4D00007C00020B7A9E
:0E0C8900E4F513F512F511F510F50FF50E2236
:1007480012001D7FF4120B74120C89E4F521F522B6
:10075800AE21AF227C007D0712046874407E00A899
:1007680005088006CEA2E713CE13D8F8FBAA06AE7A
:1007780021AF227C007D0712046874002FF5827473
:10078800003EF583E0FFEB5F24FF5015E522AE2124
:100798007806CEC313CE13D8F9240EF806D20280F9
:1007A80002C2021200030522E52270020521C39449
:1007B80080E52194014099120C3D7F0A7E00120BBE
:1007C80076E4F521F522AF22120BF10522E522701D
:1007D800020521C39406E521940040EA5390C01213
:1007E8000C68E4F521F522AF22120BF10522E5226F
:1007F80070020521C39406E521940040EAE50E2520
:100808000FFFE433FE7C00EF2510FFEC3EFEEF25E2
:1008180011FFEC3EFEEF2512FFEC3EFEEF2513FF25
:10082800EC3EFEC3EF9402EE940050097FE87E038D
:100838007D00120B7A5390C0120C687FE87E031279
:0A0848000B76120CBC7F01020C9726
:100C2600759850438E01438E0475D71C75D6FF43C5
:070C36008E10D2ACD2AF22F8
:030023000208527E
:10085200C0E0C0F0C083C082C0D075D000C000C06C
:0D08620001C002C003C004C005C006C007ED
:10086F0020980302091DC29874002508F582E4340C
:10087F0000F583E599F074002508F582E43400F55E
:10088F0083E0FFD3947F406EEFB48015E508B43753
:10089F00051207488043E508646E703D1200008022
:1008AF0038900000E0FEB4810AE5087006D2007FA0
:1008BF00028023EEB4820CE5087008C200C2017FEB
:1008CF00038013900000E0B4830AE5087006D2019C
:1008DF007F0480027F05120C97750800750C6175F7
:1008EF000BEA750A00750900E4FF7E3C900000E4F6
:1008FF00F0A3DEFC80180508750C00750B00750A57
:0E090F0000750900E508D3946F400375C760BA
:10091D00D007D006D005D004D003D002D001D0002E
:0B092D00D0D0D082D083D0F0D0E032D8
:10093800C2B6C2B7C2B5C2B45390C0C2B2D2B3D263
:1009480097120C267F3C900000E4F0A3DFFCC2CD98
:100958007FA07E867D017C00120B7AD2CDE47F6079
:100968007EEAFDFCAB0CAA0BA90AA809C31204CBAA
:100978005017E50C2401F50CE4350BF50BE4350AAA
:10098800F50AE43509F5098032E47F607EEAFDFC6A
:10099800AB0CAA0BA90AA809C31204CB701DE50C5D
:1009A8002401F50CE4350BF50BE4350AF50AE435BA
:1009B80009F509E4F5087F05120C97300017120BAA
:1009C8006F120C687F587E02120B76120CBC7F786F
:1009D8007E05120B76300185120B6F120C797F5849
:1009E8007E02120B76120CBC7F787E05120B760203
:0209F80009658F
:10002600EC4D6011E8497017ED33EC3304600DE4D4
:10003600FCFFFEFD22E933E8330470F80201D61214
:1000460001A158046009E4CC248150062850090215
:1000560001E02840030201DDC0E0EB4A7044B980AC
:1000660006D0E0FB0201CCEF4E701CBD8008EBFF12
:10007600EAFEE9FD80EBE98DF0A4FEE5F002010F52
:10008600E9CDF9EAFEEBFFEF89F0A4FCE5F0CE89B5
:10009600F0A42EFFE435F0CD89F0A42DFEE435F072
:1000A6008067EF4E7005BD80D780C3EF8BF0A4ACA0
:1000B600F0EE8BF0A42CFCE435F0F8EF8AF0A42CDB
:1000C600E5F038FCE433CB8DF0A42CFCE5F03BF8EE
:1000D600EE8AF0A42CFCE5F038F8E433CF89F0A4DE
:1000E6002CFCE5F038CF3400CE89F0A42FFFE5F0E4
:1000F6003EFEE433C98DF0A42EFEE5F039CD8AF03C
:10010600A42FFFE5F03EFEE43DFD33D0E0FB5007B3
:100116000BBB000F0201E0EC2CFCEF33FFEE33FECD
:06012600ED33FD0201B8FB
:10012C0075F020800E75F010800575F0087D007E4E
:10013C00007F003392D530D5031204BDEC33401050
:10014C00EF33FFEE33FEED33FDEC33FCD5F0ED2257
:0E015C00E5F0247EA2D513CC92E7CDCEFF2293
:10016A00EDD2E7CD33EC3392D524814006E4FFFE8D
:10017A00FDFC22FCE4CFCECDCC24E0501174FF80EC
:10018A00EDC3CC13CCCD13CDCE13CECF13CF047089
:07019A00F030D5DE0204BDC8
:100631008F278E268D258C24E4FFFE7D807C3FABA9
:1006410027AA26A925A8241202FD7009AF27AE26E4
:10065100AD25AC2422AF27AE26AD25AC241201EB8B
:10066100FBAF2BAE2AAD29AC281201EBFFBF01086D
:10067100E4FFFE7D807C3F22EF64046022EB640492
:10068100601DBB0127E4FFFEFDFCAB2BAA2AA929B3
:10069100A8281202FD60084006E4FFFEFDFC22745A
:1006A100FFF52BF52AF529F52802073FE4F52CF58E
:1006B1002DFFFEFDFCAB27AA26A925A8241202FDC9
:1006C100504BAF2BAE2AAD29AC2812016A8E2C8F6C
:1006D1002DAC2CAD2DEC120131C8ECC8C9EDC9CA45
:1006E100EECACBEFCBAF2BAE2AAD29AC2812020854
:1006F100E4FBFAF9F81202FD70A5AF27AE26AD258D
:10070100AC2412036A8F278E268D258C24AF27AE49
:1007110026AD25AC24120530AB2BAA2AA929A8287D
:10072100120026120A328F2B8E2A8D298C28E52D54
:1007310030E00B12036A8F2B8E2A8D298C28AF2B68
:07074100AE2AAD29AC28220D
:1001A100E9D2E7C933E833F892D5EDD2E7CD33ECA4
:0701B10033FC5002B2D5221D
:1001B800EC30E7100FBF000C0EBE00080DBD0004A8
:1001C8000BEB6014A2D5EB13FCED92E7FD2274FF54
:1001D800FCFDFEFF22E480F8A2D574FF13FC7D80AD
:0301E800E480EFC1
:1001EB00ED33EC33601004700FED547F7005740227
:0A01FB0092E0227404220422E422A0
:100205000201D6E86480F8E933E83360110460F050
:10021500ED33EC337009E8FCE9FDEAFEEBFF22045F
:1002250060DED3EB9FEA9EE99DE8C2E78CF0C2F75A
:1002350095F0400CE8CCF8E9CDF9EACEFAEBCFFB26
:100245001201A185D0F05804700320D5B3E80470DD
:10025500075002B2D50201E092D5EC0460F7E4CC78
:10026500C0E0C398F8603B94186008400DD0E0FBEF
:100275000201B8E4FBFAC9FC8028E830E406E4C9C9
:10028500FBE4CAFCE830E305E4C9CACBFCE8540743
:100295006010F8C3E913F9EA13FAEB13FBEC13FC4E
:1002A500D8F130F52FC3E49CFCEF9BFFEE9AFEEDF1
:1002B50099FDD0E0FBEF4E4D4C701222DB0302019D
:1002C500DDEC2CFCEF33FFEE33FEED33FDED30E7D7
:1002D500EB0201B8EF2BFFEE3AFEED39FDD0E0FB66
:1002E50050130BBB00030201E0ED13FDEE13FEEF0F
:0802F50013FFEC13FC0201B839
:1002FD0074F8CC6480CCC86480C8F582046043C3B4
:10030D00EB9FF5F0EA9E42F0E99D42F0E89C45F046
:10031D0060305018E5825FFFE582F42B5582FB506B
:10032D00210ABA001D09B90019088016E5825BFB88
:10033D00E582F42F5582FF50090EBE00050DBD005C
:10034D00010CC3EB9FF5F0EA9E42F0E99D42F0E807
:0D035D009C45F06007CC4820E701B3EC227E
:10036A00ED33EC33600A047003BD8004ECB2E7FCA1
:01037A002260
:1009FA0033DA929E35B16011377FE5FE3921848959
:100A0A003AAEC3FF3C1D955B3D6358473E75FDF00A
:100A1A003F3172183F800000C2D50201E00201D6C0
:100A2A00BD80FA50F30201DDED33EC330460F17B53
:100A3A003B7AAA79B8783F120026ED33EC3392D587
:100A4A00247B5011A2D570DB500BED448024045056
:100A5A0004A2D580CEEFFBEEFAEDF9ECF812016AAA
:100A6A00EFF582F404FC12013612020CC0829009DE
:100A7A00FA740912042AED33CC33D0F092D525F05A
:0A0A8A00A2D57001C313CC13FD22A6
:1004FC003E9248DA3ECCCCCD3F2AAAAB400000005D
:10050C003F8000003F9837F03FB504F33FD744FCE1
:10051C003E3172173EB172173F0515913EDE5BD925
:10052C00D2028002C202EDD2E7F8CD33EC33047074
:10053C000BBD800592D50201E00201D640FBD3141D
:10054C0060F2F5F07C3FEE7A00C39496C8948B4031
:10055C00230AC89469C8941A401A0AC89468C894A3
:10056C001F40110AC8945AC89425400805F07A0017
:10057C00CDC2E7CDC0F08C2E8D2F8E308F31EA237B
:10058C0023C0E0240CF582E43405F5831204EC124C
:10059C00020CECC0E0EDC0E0EEC0E0EFC0E01204F5
:1005AC00DCA82EA92FAA30AB31120208D0E0FBD068
:1005BC00E0FAD0E0F9D0E0B2E7F812037E8C2E8D91
:1005CC002F8E308F319004FC740312041BA82EA9BB
:1005DC002FAA30AB31120026D0E0600F2418F58220
:1005EC00E43405F5831204EC12020C8C2E8D2F8E44
:1005FC00308F31D0E0C3947FFDE49400FC120131C4
:10060C007B187A727931783F120026A82EA92FAA6E
:10061C0030AB3112020C30020B7BD97A5B79DE786D
:05062C003E1200262231
:10037B000201E0EC5D046005E8590470030201D64C
:10038B001201A1580460F6EC4860F2EC7004FDFE1B
:10039B00FF22C860DB2481C85009C3986002500655
:1003AB000201DD9850CAF582E9294B4A7005AB82F0
:1003BB000201CC75F0007C1A7880C3EF9BEE9AEDAE
:1003CB0099400DC3EF9BFFEE9AFEED99FDE842F0CD
:1003DB00DC23ACF0D0E0FFD0E0FED0E0FDAB822020
:1003EB00E7101BEB60BAEC2CFCEF33FFEE33FEEDAA
:1003FB0033FD0201B8E803F830E705C0F075F000F3
:10040B00EF2FFFEE33FEED33FD40B830E7C280AA8D
:10041B00C0E0EFFBEEFAEDF9ECF8120026D0E0F5B8
:10042B00F0EFFBEEFAEDF9ECF81204DCA3A3A3A3B7
:10043B00E8C0E0E9C0E0EAC0E0EBC0E0C0F01200C9
:10044B00261204ECA3A3A3A312020CD0F0D0E0FB62
:0D045B00D0E0FAD0E0F9D0E0F8D5F0D422DE
:03000000020A945D
:0C0A9400787FE4F6D8FD758139020ADB9A
:10046800BC000BBE0029EF8DF084FFADF022E4CC78
:10047800F875F008EF2FFFEE33FEEC33FCEE9DEC41
:10048800984005FCEE9DFE0FD5F0E9E4CEFD22ED87
:10049800F8F5F0EE8420D21CFEADF075F008EF2FD1
:1004A800FFED33FD4007985006D5F0F222C398FDC2
:0504B8000FD5F0EA225F
:0E04BD00C3E49FFFE49EFEE49DFDE49CFC2250
:1004CB00EB9FF5F0EA9E42F0E99D42F0E89C45F087
:0104DB0022FE
:1004DC00E493FC740193FD740293FE740393FF2266
:1004EC00E493F8740193F9740293FA740393FB2266
:100AA000020938E493A3F8E493A34003F68001F22B
:100AB00008DFF48029E493A3F85407240CC8C33357
:100AC000C4540F4420C8834004F456800146F6DF26
:100AD000E4800B0102040810204080900C53E47E57
:100AE000019360BCA3FF543F30E509541FFEE4931B
:100AF000A360010ECF54C025E060A840B8E493A3E2
:100B0000FAE493A3F8E493A3C8C582C8CAC583CA0C
:100B1000F0A3C8C582C8CAC583CADFE9DEE780BEC4
:010C6700008C
:00000001FF
