:020000040800F2
:1000000000040020DF0D0008ED0D0008EF0D0008D2
:10001000F10D0008F30D0008F50D000800000000C8
:10002000000000000000000000000000F70D0008C4
:10003000F90D000800000000FB0D0008FD0D000890
:10004000410E0008430E0008450E0008470E000848
:10005000490E00084B0E00084D0E00084F0E000818
:10006000510E0008530E0008550E0008570E0008E8
:10007000590E00085B0E00085D0E00085F0E0008B8
:10008000610E0008630E0008650E0008FF0D0008F1
:10009000FF0D0008FF0D0008FF0D00086F0E00089F
:1000A000710E0008730E0008750E0008770E000828
:1000B000790E00087B0E00087D0E00087F0E0008F8
:1000C000810E0008830E0008850E0008870E0008C8
:1000D000890E00088B0E00088D0E00088F0E000898
:1000E000910E0008930E0008950E0008970E000868
:1000F000990E00089B0E00089D0E00089F0E000838
:10010000A10E0008A30E0008A50E0008A70E000807
:10011000A90E0008AB0E0008AD0E0008AF0E0008D7
:10012000B10E0008B30E0008B50E0008B70E0008A7
:1001300000F002F800F03AF80AA090E8000C8244BF
:100140008344AAF10107DA4501D100F02FF8AFF29C
:10015000090EBAE80F0013F0010F18BFFB1A43F0A5
:10016000010318475060000070600000103A24BF7F
:1001700078C878C1FAD8520724BF30C830C144BF0C
:1001800004680C607047000000230024002500264E
:10019000103A28BF78C1FBD8520728BF30C148BFEA
:1001A0000B6070471FB51FBD10B510BD01F0ADFA53
:1001B0001146FFF7F7FF00F0A3FF01F0CBFA03B4FD
:1001C000FFF7F2FF03BC01F0CFFA000010B50446C0
:1001D000C248844208D10121042000F017FB00210D
:1001E000042000F013FB46E0BD48844208D1012101
:1001F000082000F00BFB0021082000F007FB3AE08C
:10020000B848844208D10121102000F0FFFA0021F3
:10021000102000F0FBFA2EE0B348844208D10121FF
:10022000202000F0F3FA0021202000F0EFFA22E075
:10023000AE48844208D10121402000F0E7FA0021B5
:10024000402000F0E3FA16E0A948844208D10121D9
:10025000802000F0DBFA0021802000F0D7FA0AE0CD
:10026000A448844207D10121801500F0CFFA002173
:10027000A01500F0CBFA10BD10B50121084600F022
:10028000C5FA0021012000F0C1FA10BD2DE9F041AE
:10029000024600250026002000230024002791F8B4
:1002A00003C00CF00F0591F803C01CF0100F03D031
:1002B00091F802C04CEA050591F800C0BCF1000FAE
:1002C00031D0146800202BE04FF0010C0CFA00F341
:1002D000B1F800C00CEA03069E4220D183004FF023
:1002E0000F0C0CFA03F7BC4305FA03FC4CEA0404B8
:1002F00091F803C0BCF1280F06D14FF0010C0CFAA5
:1003000000FCC2F814C00AE091F803C0BCF1480F29
:1003100005D14FF0010C0CFA00FCC2F810C0401CD3
:100320000828D1D31460B1F800C0BCF1FF0F34DD50
:10033000546800202EE000F1080C4FF0010808FA84
:100340000CF3B1F800C00CEA03069E4221D18300F1
:100350004FF00F0C0CFA03F7BC4305FA03FC4CEA10
:10036000040491F803C0BCF1280F05D100F1080C7A
:1003700008FA0CF8C2F8148091F803C0BCF1480FD9
:1003800007D100F1080C4FF0010808FA0CF8C2F888
:100390001080401C0828CED35460BDE8F0814FF691
:1003A000FF710180022181700421C17070470246F3
:1003B000002093680B4201D0012000E0002070472C
:1003C0000146886880B2704702460020D3680B421D
:1003D00001D0012000E0002070470146C86880B2CB
:1003E000704701617047416170470AB1016100E0E7
:1003F00041617047C16070474FF480320A438261A7
:1004000081618261826982697047024600203A4BAD
:1004100018684FF68073184040EA02100843364BC4
:10042000186070473549C8617047F0B50A46002327
:10043000002400210025304E7168C0F3034583B2CB
:1004400000F44016B6F5401F08D121F070612A4E25
:10045000766826F07066284F7E6012E000F4801601
:10046000B6F5801F06D1032606FA05F4A14341F034
:10047000706106E0460D360103FA06F6B14341F01D
:10048000706122B1460D360103FA06F631431A4E69
:100490007160F0BD30B500228B071C0F0F2303FAEB
:1004A00004F2154B08338C1053F824309343124C4C
:1004B00008348D1044F8253023468C1053F824302E
:1004C0008C07240F00FA04F423430B4C08348D10DE
:1004D00044F8253030BD0A490860704700080140E3
:1004E000000C0140001001400014014000180140C0
:1004F000001C01400020014000000140000020429B
:10050000DC002042DD48006840F00100DB49086063
:1005100008464068DA490840D849486008460068FB
:10052000D8490840D54908600846006820F4802072
:1005300008600846406820F4FE0048604FF41F0041
:1005400088607047CD49096821F48031CB4A116039
:100550001146096821F480211160B0F5803F03D075
:10056000B0F5802F0ED106E0C449096841F480310E
:10057000C24A116007E0C149096841F4A021BF4A9D
:10058000116000E000BF00BF704710B501460022B7
:10059000002300204A11012A02D1B84C236806E04A
:1005A000022A02D1B54C236A01E0B44C636A01F01F
:1005B0001F02012494401C4201D0012000E00020D1
:1005C00010BD38B5002000900024002500BF312068
:1005D000FFF7DBFF05460098401C00900098B0F53F
:1005E000A06F01D0002DF2D03120FFF7CEFF08B16F
:1005F000012400E00024204638BD014600209F4A27
:10060000106820F0F80040EAC100106070479E4971
:100610000860704702460020984B586820F47C1010
:1006200042EA01031843954B5860704796490866A3
:10063000704701460020914A506820F003000843AB
:10064000506070478D48406800F00C0070470146CC
:1006500000208A4A506820F0F0000843506070473C
:1006600001460020854A506820F4E060084350604D
:10067000704701460020814A506820F4605040EAEB
:10068000C1005060704729B17C4A527A02437B4BCB
:100690005A7204E0794A527A8243784B5A72704710
:1006A0007A490860704701460020744A506820F477
:1006B00040400843506070470021754A11706F4AEE
:1006C00082F82010012802D0042808D103E001217B
:1006D0006F4A117004E005216D4A117000E000BFFF
:1006E00000BF70476B49086070476449096A01435D
:1006F000624A11627047674944390860704730B5F3
:1007000000210022002400235C4D6D6805F00C01DF
:1007100021B1042905D0082923D105E05E4D0560EB
:1007200022E05D4D05601FE0544D6D6805F47012C8
:10073000524D6D6805F48034022505EB92421CB9D8
:10074000564D554305600BE04C4D6D6815F4003F68
:1007500003D0524D5543056002E04F4D55430560AF
:1007600002E04D4D056000BF00BF444D6D6805F0CF
:10077000F00109094A4D6B5C0568DD4045603F4D5D
:100780006D6805F4E061090A454D6B5C4568DD4024
:1007900085603A4D6D6805F46051C90A404D6B5C47
:1007A0004568DD40C560354D6D6805F44041890BF5
:1007B0003C4D6B5CC568B5FBF3F5056130BD29B1F7
:1007C0002E4A526902432D4B5A6104E02B4A52696A
:1007D00082432A4B5A61704729B1284A92690243E1
:1007E000264B9A6104E0254A92698243234B9A6121
:1007F000704729B1214AD2690243204BDA6104E0F3
:100800001E4AD26982431D4BDA61704729B11B4AE7
:10081000D2680243194BDA6004E0184AD268824376
:10082000164BDA60704729B1144A12690243134B20
:100830001A6104E0114A12698243104B1A61704731
:1008400014494039086070470F49C86470470B4924
:10085000C87170470948406A40F080700749486293
:10086000704701460020054A92680A4201D00120E3
:1008700000E0002070470149887270470010024074
:100880000000FFF8FFFFF6FE00004242D80042429F
:10089000201002408004424200127A0000093D000C
:1008A000000000201000002001460020FD4A1068D2
:1008B00000F03800084310607047FA49096821F0D9
:1008C0000801F84A11601146096801431160704738
:1008D000F449096821F01001F24A116011460968D3
:1008E000014311607047F048EE494860EF484860A6
:1008F0007047EC48006940F08000EA4908617047A1
:100900000420E849C96811F0010F01D001200EE070
:10091000E449C96811F0040F01D0022007E0E14961
:10092000C96811F0100F01D0032000E004207047C7
:1009300008B500200090FF20009002E00098401EC3
:10094000009000980028F9D108BD70B50446042530
:10095000FFF7D6FF054605E0FFF7EAFFFFF7D0FFF8
:100960000546641E012D01D1002CF5D104B90525E1
:10097000284670BD70B50546042440F6FF70FFF7A9
:10098000E4FF0446042C19D1C648006940F0020077
:10099000C449086108464561006940F040000861AB
:1009A00040F6FF70FFF7D1FF0446052C06D0BD4886
:1009B000006941F6FD710840BA490861204670BDE2
:1009C00010B5042440F6FF70FFF7BFFF0446042C67
:1009D00018D1B448006940F00400B24908610846E3
:1009E000006940F04000086140F6FF70FFF7ADFF7E
:1009F0000446052C06D0AB48006941F6FB7108405F
:100A0000A8490861204610BD10B5042440F6FF70C7
:100A1000FFF79BFF0446042C3BD1A348A149886003
:100A2000A24888600846006940F020000861084636
:100A3000006940F04000086140F6FF70FFF785FF55
:100A40000446042C1CD19748006941F6DF71084028
:100A5000944908610846006940F010000861A5202B
:100A6000934908800F20FFF770FF0446052C10D033
:100A70008C48006941F6EF7108408A49086108E036
:100A8000052C06D08748006941F6EF71084085497A
:100A90000861204610BDF8B506460D460424002026
:100AA00000900F20FFF751FF0446042C28D17D4809
:100AB000006940F001007B49086135800F20FFF795
:100AC00044FF0446042C12D1B01C0090280C00995D
:100AD00008800F20FFF739FF0446052C10D071481D
:100AE000006941F6FE7108406E49086108E0052C76
:100AF00006D06C48006941F6FE71084069490861FA
:100B00002046F8BD70B505460E4604240F20FFF7B9
:100B10001CFF0446042C13D16248006940F0010018
:100B2000604908612E800F20FFF70FFF0446052C57
:100B300006D05C48006941F6FE71084059490861D9
:100B4000204670BD70B505460E4604240F20FFF701
:100B5000FCFE0446042C17D1534852498860534880
:100B600088600846006940F0100008612E800F2060
:100B7000FFF7EBFE0446052C06D04A48006941F613
:100B8000EF71084047490861204670BD2DE9F047E4
:100B900004464FF6FF763746B046B1460425E44397
:100BA000E6B2C4F30727C4F307484FEA14690F20DD
:100BB000FFF7CBFE0546042D40D13B4839498860FC
:100BC0003A4888600846006940F010000861FF2E2E
:100BD00006D03748083006800F20FFF7B6FE0546DE
:100BE000042D08D1FF2F06D031480A3007800F208E
:100BF000FFF7ABFE0546042D0AD1B8F1FF0F07D071
:100C00002B480C30A0F800800F20FFF79EFE054611
:100C1000042D0AD1B9F1FF0F07D025480E30A0F8F6
:100C200000900F20FFF791FE0546052D06D01D48C8
:100C3000006941F6EF7108401A4908612846BDE88D
:100C4000F08770B50546042440F6FF70FFF77DFE7F
:100C50000446042C49D1144812498860134888601E
:100C60000846006940F0200008610846006940F02D
:100C70004000086140F6FF70FFF767FE0446042C51
:100C80002AD10848006941F6DF710840054908612A
:100C90000846006940F0100008615DB10020044979
:100CA00008800AE00020024023016745AB89EFCDB0
:100CB00000F8FF1FA5204549088040F6FF70FFF7A8
:100CC00044FE0446052C10D04148006941F6EF71FE
:100CD00008403F49086108E0052C06D03C480069FF
:100CE00041F6DF7108403A490861204670BD2DE9A0
:100CF000F04105460E4617460424364834498860BC
:100D0000354888600F20FFF720FE0446042C19D1D7
:100D10002F48006940F010002D49086147F0F800A5
:100D2000304328432949891C08800F20FFF70DFE16
:100D30000446052C06D02648006941F6EF710840AC
:100D4000234908612046BDE8F0812148C069800838
:100D500070471F48006A704700201D49C96911F09B
:100D6000020F01D0012000E0002070470020184948
:100D7000096811F0200F01D0012000E00020704729
:100D800029B1134A12690243114B1A6104E0104A57
:100D9000126982430E4B1A617047014600200129F7
:100DA00008D10B4AD26912F0010F01D0012008E0EE
:100DB000002006E0064AD2680A4201D0012000E085
:100DC000002070470249C8607047000000F8FF1F0C
:100DD0000020024023016745AB89EFCD70470B48E7
:100DE00080470B4981F308880A480047FEE7FEE781
:100DF000FEE7FEE7FEE7FEE7FEE7FEE7FEE7FEE7CB
:100E000005480649064A074B70470000DD0D0008FB
:100E10009806002031010008980000209806002064
:100E200098020020980200207047704700BFFEE73C
:100E300000BFFEE700BFFEE770477047704770478E
:100E400070477047704770477047704770477047EA
:100E500070477047704770477047704770477047DA
:100E600070477047704770477047704770477047CA
:100E700070477047704770477047704770477047BA
:100E800070477047704770477047704770477047AA
:100E9000704770477047704770477047704770479A
:100EA000704770477047704770477047704770478A
:100EB000704770477047704700E0401E0128FCD81B
:100EC00070470022002100BF05E0002200E0521C14
:100ED000FF2AFCD9491C8142F7D370477CB5AE4844
:100EE00000F006FC00F008FB002000900123272200
:100EF0000F21019000F02BFB01222721002000F0A0
:100F00000DFBFF224FF49471802000F0A6FA42F20C
:100F10001070FFF7D6FFFF224FF49471802000F08D
:100F20009CFA00F0D4FB9D48FFF7CBFF0020009017
:100F3000012327220F21019000F02DFB4FF4947222
:100F40008021974800F03EFB00F0C1FB9348FFF77B
:100F5000B8FF00200090012327220F21019000F00C
:100F60001AFB4FF4947280218D4800F02BFB42F263
:100F70001070FFF7A6FF002634E040F22710A0EB28
:100F80004610A0F11404A4F12005C5F30720E9B22E
:100F9000E2B2C4F30723CDE900100E21084600F0A9
:100FA000FAFA00222021082000F057FA00F08FFB07
:100FB00044F62060FFF785FFC5F30720E9B2E2B2EF
:100FC000C4F30723CDE900100E21084600F0E3FA30
:100FD00000222021082000F040FA42F21070FFF7B2
:100FE00070FF761C082EC8D37CBD10B500F02CFB1A
:100FF0006C4800F07DFB00F07FFA42F21070FFF7C2
:1010000060FF10BD08B501212020FFF7E5FB4FF47C
:10101000E060ADF8000002208DF8020010208DF88D
:10102000030069466048FFF731F901214020FFF7CE
:10103000D3FB4FF44840ADF8000002208DF80200C9
:1010400010208DF8030069465848FFF71FF94FF448
:101050000050ADF8000002208DF8020004208DF849
:10106000030069465148FFF711F908BD10B5FFF7B5
:1010700049FA4FF48030FFF765FAFFF7A2FA4C49BE
:10108000087008460078012805D14FF4E0110004EB
:10109000FFF7C0FA0DE00120FFF7B9FA00BF2120E9
:1010A000FFF773FA0028FAD04FF460110020FFF721
:1010B000B1FA1020FFF70CFC0220FFF7F5FB00202F
:1010C000FFF7C5FA0020FFF7D4FA4FF48060FFF76E
:1010D000C7FA0120FFF7AAFA00BF3920FFF755FA37
:1010E0000028FAD00220FFF7A4FA00BFFFF7AAFAFF
:1010F0000828FBD1012144F20500FFF76DFB10BD6C
:10110000FFF7B4FFFFF77EFFFFF76FFF01222721F4
:10111000002000F003FA274A4FF49471802000F079
:101120004CF900F0C8FA2448FFF7CBFE0122272132
:10113000002000F0F3F9214A4FF49471802000F070
:101140003CF900F0B8FA1C48FFF7BBFE012227214A
:10115000002000F0E3F91A4A4FF49471802000F067
:101160002CF900F0A8FA1448FFF7ABFE0122272162
:10117000002000F0D3F9FF224FF49471802000F09A
:101180006CF900F098FA0548FFF79BFEFFF7A6FE02
:1011900000BFFEE77047000076610008A0860100EE
:1011A00076170008956100080014014000180140FE
:1011B00014000020F6290008400D0300763C0008CA
:1011C000F64E000800E0401E0128FCD870470022BF
:1011D000002100BF05E0002200E0521CFF2AFCD9DC
:1011E000491C8142F7D3704707E0002101E04A1C07
:1011F000D1B20229FBDB421ED0B20028F5D17047E4
:1012000070B504460120FFF7EFFF002527E04FF4FB
:101210000071FE48FFF7E7F80120FFF7E5FF14F043
:10122000800F05D04FF48061F848FFF7DAF804E04A
:101230004FF48061F548FFF7D6F86006040E0120F0
:10124000FFF7D2FF0120FFF7BDFF4FF40071EF4819
:10125000FFF7C7F80120FFF7C7FF681CC5B2082DCC
:10126000D5DB70BD10B504460120FFF7BDFF4FF47C
:101270008071E648FFF7B7F84FF40041E448FFF704
:10128000B2F82046FFF7BCFF4FF48071DF48FFF74C
:10129000A8F810BD10B504460120FFF7A5FF4FF4D4
:1012A0008071DA48FFF79FF84FF40041D848FFF704
:1012B00098F82046FFF7A4FF4FF48071D348FFF75A
:1012C00090F810BD70B505460C4600BF4FF40051B4
:1012D000CF48FFF779F80128F8D04FF48071CB4858
:1012E000FFF781F84FF40041C948FFF77CF8284622
:1012F000FFF786FF4FF40041C548FFF772F820461C
:10130000FFF77EFF4FF48071C048FFF76AF870BDA9
:1013100070B506460C46154600BF4FF40051BC4858
:10132000FFF752F80128F8D04FF48071B748FFF763
:101330005AF84FF40041B648FFF755F83046FFF72A
:101340005FFF4FF40041B248FFF74BF82046FFF72C
:1013500057FF2846FFF754FF4FF48071AB48FFF763
:1013600040F870BD2DE9F04104460E4600272546A1
:101370004FF48071A548FFF736F84FF40041A448B8
:10138000FFF731F82878FFF73BFF6D1C4FF4004161
:101390009F48FFF726F800BF05E02878FFF730FFE9
:1013A0006D1C781CC7B2701EB842F6DC4FF4807119
:1013B0009648FFF716F8BDE8F0812DE9F0410446A4
:1013C0000E4615460027B846E11704EB5171C910C7
:1013D000B4EBC1010AD02046E11704EB5171C910EA
:1013E000A4EBC101C1F108012144CCB22046E117B0
:1013F00004EB5171C1F3C70400BF4FF4005184489E
:10140000FEF7E2FF0128F8D04FF480717F48FEF725
:10141000EAFF4FF400417E48FEF7E5FF2420FFF786
:10142000EFFE4FF400417A48FEF7DBFF00270BE0A8
:101430004FF0000805E02878FFF7E2FE6D1C08F188
:101440000108A045F7DB7F1CB742F1D34FF4807150
:101450006E48FEF7C6FFBDE8F0812DE9F041044675
:101460000D4616460027B846E11704EB5171C91026
:10147000B4EBC1010AD02046E11704EB5171C91049
:10148000A4EBC101C1F108012144CCB22046E1170F
:1014900004EB5171C1F3C70400BF4FF400515C4825
:1014A000FEF792FF0128F8D04FF480715748FEF7FD
:1014B0009AFF4FF400415648FEF795FF2420FFF7AE
:1014C0009FFE4FF400415248FEF78BFF00270AE0D1
:1014D0004FF0000804E03046FFF792FE08F10108E3
:1014E000A045F8DB7F1CAF42F2D34FF48071474830
:1014F000FEF777FFBDE8F08110B5C0212220FFF78D
:10150000E1FE2020FFF7AEFE10BD10B5C321222062
:10151000FFF7D8FE2020FFF7A5FE10BD7CB50646DC
:101520000C4615464E208DF804008DF805604F20BE
:101530008DF800008DF801408DF80250022101A8BD
:10154000FFF710FF03216846FFF70CFF7CBD2DE974
:10155000FE4304460D4617461E46DDE90A8944202F
:101560008DF808008DF809408DF80A5045208DF857
:1015700000008DF801708DF802608DF803808DF801
:101580000490032102A8FFF7EDFE05216846FFF74E
:10159000E9FEBDE8FE832DE9FC4706460F461446EA
:1015A0001D46DDE90A892B46224639463046CDE9FB
:1015B0000089FFF7CCFF2A4621463046FFF7AEFFF1
:1015C000BDE8FC8770B504460D46164622463146F6
:1015D0002846FFF7F2FE70BD1CB504210D48FFF749
:1015E000C1FE04210C48FFF7BDFE02210B48FFF7A6
:1015F000B9FE02210A48FFF7B5FE02210948FFF7AC
:10160000B1FE02210848FFF7ADFE0FE000140140D3
:1016100000180140150000201900002025000020BE
:10162000290000202B0000202F0000200020009027
:10163000012327220F210190FFF789FF0022C721F4
:101640001046FFF76BFF1CBD10B54FF400612C482E
:10165000FEF7C9FE4FF480412948FEF7C4FE42F26E
:101660001070FFF7B4FD4FF480412548FEF7B9FE36
:1016700042F21070FFF7ABFDFFF7AEFF10BD10B5E3
:101680008F21F020FFF71EFEC0212220FFF71AFE57
:101690002020FFF7E7FDFF20FFF7E4FD10BD10B5A8
:1016A000F0212220FFF70EFE2020FFF7DBFDFF20B8
:1016B000FFF7D8FD10BD10B5C4212220FFF702FEB0
:1016C0002020FFF7CFFDFF20FFF7CCFD10BD10B5A8
:1016D00004212220FFF7F6FD2020FFF7C3FDFF20A5
:1016E000FFF7C0FD10BD10B52420FFF7BBFD10BDF6
:1016F00010B504461F212046FFF734FE10BD000040
:1017000000180140704770477047754600F028F890
:10171000AE4605006946534620F00700854618B0DE
:1017200020B5FFF76DFBBDE820404FF000064FF0FD
:1017300000074FF000084FF0000B21F00701AC4606
:10174000ACE8C009ACE8C009ACE8C009ACE8C00925
:101750008D4670470446AFF300802046FEF72FFD0C
:10176000004870473400002001491820ABBEFEE756
:10177000260002007047FFFFFFFFFFFFFFFFFFFF94
:10178000FFFFFFFFFFFFFFFFFFFFFFFFFFFFFFFF69
:10179000FFFFFFFFFFFFFFFFFFFFFFFFFFFFFFFF59
:1017A000FFFFFFFFFFFFFFFFFFFFFFFFFFFFFFFF49
:1017B000FFFFFFFFFFFFFFFFFFFFFFFFFFFFFFFF39
:1017C000FFFFFFFFFFFFFFFFFFFFFFFFFFFFFFFF29
:1017D000FFFFFFFFFFFFFFFFFFFFFFFFFFFFFFFF19
:1017E000FFFFFFFFFFFFFFFFFFFFFFFFFFFFFFFF09
:1017F000FFFFFFFFFFFFFFFFFFFFFFFFFFFFFFFFF9
:10180000FFFFFFFFFFFFFFFFFFFFFFFFFFFFFFFFE8
:10181000FFFFFFFFFFFFFFFFFFFFFFFFFFFFFFFFD8
:10182000FFFFFFFFFFFFFFFFFFFFFFFFFFFFFFFFC8
:10183000FFFFFFFFFFFFFFFFFFFFFFFFFFFFFFFFB8
:10184000FFFFFFFFFFFFFFFFFFFFFFFFFFFFFFFFA8
:10185000FFFFFFFFFFFFFFFFFFFFFFFFFFFFFFFF98
:10186000FFFFFFFFFFFFFFFFFFFFFFFFFFFFFFFF88
:10187000FFFFFFFFFFFFFFFFFFFFFFFFFFFFFFFF78
:10188000FFFFFFFFFFFFFFFFFFFFFFFFFFFFFFFF68
:10189000FFFFFFFFFFFFFFFFFFFFFFFFFFFFFFFF58
:1018A000FFFFFFFFFFFFFFFFFFFFFFFFFFFFFFFF48
:1018B000FFFFFFFFFFFFFFFFFFFF800000000003AF
:1018C000FFFFFFFFFFFFFFFFFFFF8000000000039F
:1018D000FFFFFFFFFFFFFFFFFFFF807FFFFFF8031A
:1018E000FFFFFFFFFFFFFFFFFFFF83FFFFFFFF0380
:1018F000FFFFFFFFFFFFFFFFFFFF8FFFFFFFFF83E4
:10190000FFFFFFFFFFFFFFFFFFFF8FFFFFFFFFC393
:10191000FF83FFFFFFFFFFFFFFFF9FFFFFFFFFE3CF
:10192000FF801FFFFFFFFFFFFFFF9FFFFFFFFFE3A2
:10193000FF801FFFFFFFFFFFFFFFBF00000007E367
:10194000FF801FFFFFFFFFFFFFFFBF0003C003E398
:10195000FFF83FFFFFFFFFFFFFFFBF0007E003E3CC
:10196000FFE0FFFFFFFFFFFFFFFF9FFE07FFFFE31B
:10197000FF83FFFFFFFFFFFFFFFF9FFE07FFFFE368
:10198000FF801FFFFFFFFFFFFFFF9FFE07FFFFC35B
:10199000FF801FFFFFFFFFFFFFFF8FFE07FFFFC35B
:1019A000FFE01FFFFFFFFFFFFFFF87FE07FFFF8333
:1019B000FFF81FFFFFFFFFFFFFFF81FE07FFFE0392
:1019C000FFC0FFFFFFFFFFFFFFFF800000000003DD
:1019D000FF83FFFFFFFFFFFFFFFF8000000000030A
:1019E000FF8FFFFFFFFFFFFFFFFF800000000003EE
:1019F000FFFFFFFFFFFFFFFFFFFF81FFFFFFFE0372
:101A0000FFFFFFFFFFFFFFFFFFFF87FFFFFFFF83DA
:101A1000FF80FFFFFFFFFFFFFFFF8FFFFFFFFFC301
:101A2000FF801FFFFFFFFFFFFFFF9FFFFFFFFFC3C1
:101A3000FF801FFFFFFFFFFFFFFF9FFFFFFFFFE391
:101A4000FFE01FFFFFFFFFFFFFFF9FFFFFFFFFE321
:101A5000FFF03FFFFFFFFFFFFFFFBF00000003E3BA
:101A6000FFC1FFFFFFFFFFFFFFFFBF00000003E319
:101A7000FF83FFFFFFFFFFFFFFFFBF00000007E343
:101A8000FF801FFFFFFFFFFFFFFF9FFFFFFFFFE341
:101A9000FF801FFFFFFFFFFFFFFF9FFFFFFFFFE331
:101AA000FFF81FFFFFFFFFFFFFFF8FFFFFFFFFC3D9
:101AB000FFF03FFFFFFFFFFFFFFF8FFFFFFFFF83F1
:101AC000FFC0FFFFFFFFFFFFFFFF83FFFFFFFF03DD
:101AD000FF87FFFFFFFFFFFFFFFF807FFFFFF00398
:101AE000FF9FFFFFFFFFFFFFFFFF800000000003DD
:101AF000FFFFFFFFFFFFFFFFFFFF8000000000036D
:101B0000FF8FFFFFFFFFFFFFFFFF800000000003CC
:101B1000FF801FFFFFFFFFFFFFFF83FFFFFFFE03AD
:101B2000FF801FFFFFFFFFFFFFFF87FFFFFFFF8318
:101B3000FF801FFFFFFFFFFFFFFF8FFFFFFFFFC3C0
:101B4000FFF81FFFFFFFFFFFFFFF9FFFFFFFFFE308
:101B5000FFE0FFFFFFFFFFFFFFFF9FFFFFFFFFE330
:101B6000FF83FFFFFFFFFFFFFFFFBFD5FFFFFFE387
:101B7000FF801FFFFFFFFFFFFFFFBF00000003E329
:101B8000FF801FFFFFFFFFFFFFFFBF00000003E319
:101B9000FF801FFFFFFFFFFFFFFFBFFFFFFFFFE310
:101BA000FFF81FFFFFFFFFFFFFFF9FFFFFFFFFE3A8
:101BB000FFE07FFFFFFFFFFFFFFF9FFFFFFFFFE350
:101BC000FF81FFFFFFFFFFFFFFFF8FFFFFFFFFC34F
:101BD000FF8FFFFFFFFFFFFFFFFF87FFFFFFFF8379
:101BE000FFBFFFFFFFFFFFFFFFFF83FFFFFFFF03BD
:101BF000FFFF1FFFFFFFFFFFFFFF8000000000034C
:101C0000FFFE1FFFFFFFFFFFFFFF8000000000033C
:101C1000FFFE1FFFFFFFFFFFFFFF8000000000032C
:101C2000FFFE1FFFFFFFFFFFFFFF9FFFFFFFFFE321
:101C3000FFFFFFFFFFFFFFFFFFFF9FFFFFFFFFE330
:101C4000FFFFFFFFFFFFFFFFFFFF9FFFFFFFFFE320
:101C5000FFFF63FFFFFFFFFFFFFF9FFFFFFFFFE3AC
:101C6000FFE603FFFFFFFFFFFFFF9FFFFFFFFFE315
:101C7000FF8003FFFFFFFFFFFFFF9FFFFFFFFFE36B
:101C8000FF8013FFFFFFFFFFFFFF9FA0000007E3A0
:101C9000FF811BFFFFFFFFFFFFFF9F00000003E32B
:101CA000FF991BFFFFFFFFFFFFFF9F80000007E37F
:101CB000FF9913FFFFFFFFFFFFFF9FFFFFFFFFE302
:101CC000FF0103FFFFFFFFFFFFFF9FFFFFFFFFE39A
:101CD000FE0103FFFFFFFFFFFFFF8FFFFFFFFFC3BB
:101CE000FC0387FFFFFFFFFFFFFF8FFFFFFFFFC327
:101CF000FCC7CFFFFFFFFFFFFFFF87FFFFFFFF8353
:101D0000FCFFFFFFFFFFFFFFFFFF83FFFFFFFE035F
:101D1000FFFFFFFFFFFFFFFFFFFF8000000000034A
:101D2000FFF07FFFFFFFFFFFFFFF800000000003C9
:101D3000FFC03FFFFFFFFFFFFFFF80000000000329
:101D4000FF801FFFFFFFFFFFFFFF80000000000379
:101D5000FF801FFFFFFFFFFFFFFFFFFFFFFFFFFFF2
:101D6000FF8F9FFFFFFFFFFFFFFFFFFFFFFFFFFF53
:101D7000FF9F9FFFFFFFFFFFFFFFFFFFFFFFFFFF33
:101D8000FF9E1FFFFFFFFFFFFFFFFFFFFFFFFFFFA4
:101D9000FF801FFFFFFFFFFFFFFFFFFFFFFFFFFFB2
:101DA000FF803FFFFFFFFFFFFFFFFFFFFFFFFFFF82
:101DB000FFC07FFFFFFFFFFFFFFFFFFFFFFFFFFFF2
:101DC000FFF1FFFFFFFFFFFFFFFFE0000000003F0C
:101DD000FFFFFFFFFFFFFFFFFFFFE0000000001F0E
:101DE000FFF8FFFFFFFFFFFFFFFFE0000000001F05
:101DF000FFE03FFFFFFFFFFFFFFFE0000000001FCD
:101E0000FFC01FFFFFFFFFFFFFFFE0000000001FFC
:101E1000FF801FFFFFFFFFFFFFFFE0000000001F2C
:101E2000FF871FFFFFFFFFFFFFFFE0FFFFFFFC1F1C
:101E3000FF9F9FFFFFFFFFFFFFFFE0FFFFFFFC1F74
:101E4000FF9F1FFFFFFFFFFFFFFFE07FFFFFF81F68
:101E5000FF801FFFFFFFFFFFFFFFE0000000001FEC
:101E6000FF803FFFFFFFFFFFFFFFF0000000003F8C
:101E7000FFC03FFFFFFFFFFFFFFFF0000000003F3C
:101E8000FFE0FFFFFFFFFFFFFFFFF0000000007F0C
:101E9000FFFFFFFFFFFFFFFFFFFFF800000000FF55
:101EA000FFFFFFFFFFFFFFFFFFFFFF00000003FF3B
:101EB000FFF07FFFFFFFFFFFFFFFFFFFFFFFFFFFC1
:101EC000FFC03FFFFFFFFFFFFFFFFFFFFFFFFFFF21
:101ED000FFC01FFFFFFFFFFFFFFFFFFFFFFFFFFF31
:101EE000FF801FFFFFFFFFFFFFFFE0000000001F5C
:101EF000FF8F9FFFFFFFFFFFFFFFE0000000001FBD
:101F0000FF9F9FFFFFFFFFFFFFFFE0000000001F9C
:101F1000FF9F1FFFFFFFFFFFFFFFE0000000001F0C
:101F2000FF801FFFFFFFFFFFFFFFE0000000001F1B
:101F3000FF803FFFFFFFFFFFFFFFE0000000001FEB
:101F4000FFC07FFFFFFFFFFFFFFFFFFFFFFFFFFF60
:101F5000FFE0FFFFFFFFFFFFFFFFFFFFFFFFFFFFB0
:101F6000FFFFFFFFFFFFFFFFFFFFFFFFFFFFFFFF81
:101F7000FFFFFFFFFFFFFFFFFFFFFE007FFC00FFF3
:101F8000FFF03FFFFFFFFFFFFFFFF8001FFC007F98
:101F9000FFC01FFFFFFFFFFFFFFFF00007FC003F38
:101FA000FF801FFFFFFFFFFFFFFFF00003FC003F6C
:101FB000FF801FFFFFFFFFFFFFFFE00000FC001F8F
:101FC000FF8F9FFFFFFFFFFFFFFFE000007FF01F7D
:101FD000FF9FBFFFFFFFFFFFFFFFE0FF003FFC1F72
:101FE000FF9E1FFFFFFFFFFFFFFFE1FF801FFC1FA2
:101FF000FF801FFFFFFFFFFFFFFFE0FFE007FC1F69
:10200000F8001FFFFFFFFFFFFFFFE001F000001FD0
:10201000F8001FFFFFFFFFFFFFFFE000F800001FB9
:10202000F803FFFFFFFFFFFFFFFFE000FE00003FA0
:10203000F8FFFFFFFFFFFFFFFFFFF000FF00007F43
:10204000FFF9FFFFFFFFFFFFFFFFF800FF8000FF2A
:10205000FFF1FFFFFFFFFFFFFFFFFE00FFF001FFAB
:10206000FFF1FFFFFFFFFFFFFFFFFFFFFFFFFFFF8E
:10207000FFF1FFFFFFFFFFFFFFFFFFFFFFFFFFFF7E
:10208000FFF1FFFFFFFFFFFFFFFFFFFFFFFFFFFF6E
:10209000FFF7FFFFFFFFFFFFFFFFE0000000001F53
:1020A000FFFFFFFFFFFFFFFFFFFFE0000000001F3B
:1020B000FFF03FFFFFFFFFFFFFFFE0000000001FFA
:1020C000FFC01FFFFFFFFFFFFFFFE0000000001F3A
:1020D000FF801FFFFFFFFFFFFFFFE0000000001F6A
:1020E000FF801FFFFFFFFFFFFFFFE0000000001F5A
:1020F000FF8F9FFFFFFFFFFFFFFFE0FFE0FFFFFFFE
:10210000FF9FBFFFFFFFFFFFFFFFE0FFE0FFFFFFBD
:10211000FF9E1FFFFFFFFFFFFFFFE07FC0FFFFFFEE
:10212000FF801FFFFFFFFFFFFFFFE00001FFFFFF3A
:10213000F8001FFFFFFFFFFFFFFFE00001FFFFFFB1
:10214000F8001FFFFFFFFFFFFFFFF00001FFFFFF91
:10215000F803FFFFFFFFFFFFFFFFF00003FFFFFF9C
:10216000F8FFFFFFFFFFFFFFFFFFF80007FFFFFF84
:10217000FFFFDFFFFFFFFFFFFFFFFC000FFFFFFF81
:10218000FFF01FFFFFFFFFFFFFFFFFFFFFFFFFFF4E
:10219000F8801FFFFFFFFFFFFFFFFFFFFFFFFFFFB5
:1021A000F8801FFFFFFFFFFFFFFFE0000000001FA0
:1021B000F880FFFFFFFFFFFFFFFFE0000000001FB0
:1021C000F8BFFFFFFFFFFFFFFFFFE0000000001F61
:1021D000FFFFFFFFFFFFFFFFFFFFE0000000001F0A
:1021E000FFE73FFFFFFFFFFFFFFFE0000000001FD2
:1021F000FFC31FFFFFFFFFFFFFFFE0000000001F06
:10220000FF811FFFFFFFFFFFFFFFFFFFFFFFFC1F1F
:10221000FF819FFFFFFFFFFFFFFFFFFFFFFFFC1F8F
:10222000FF919FFFFFFFFFFFFFFFFFFFFFFFFC1F6F
:10223000FF901FFFFFFFFFFFFFFFFFFFFFFFFC1FE0
:10224000FF981FFFFFFFFFFFFFFFFFFFFFFFFC1FC8
:10225000FF881FFFFFFFFFFFFFFFFFFFFFFFFC1FC8
:10226000FFDC3FFFFFFFFFFFFFFFFFFFFFFFFC3F24
:10227000FFFFFFFFFFFFFFFFFFFFFFFFFFFFFFFF6E
:10228000FFFFFFFFFFFFFFFFFFFFFFFFFFFFFFFF5E
:10229000FFFFC3FFFFFFFFFFFFFFFFFFFFFF001F69
:1022A000FFF003FFFFFFFFFFFFFFFFFFFF00001F27
:1022B000FF8003FFFFFFFFFFFFFFFFFE0000001F87
:1022C000FF8003FFFFFFFFFFFFFFFC000000001F78
:1022D000FF803FFFFFFFFFFFFFFFE0000000001F48
:1022E000FF8F9FFFFFFFFFFFFFFFE0000000003FA9
:1022F000FF9F9FFFFFFFFFFFFFFFE000000F83FF37
:10230000FF9E1FFFFFFFFFFFFFFFE00FFFFF83FFA9
:10231000FF801FFFFFFFFFFFFFFFE003FFFF83FFC3
:10232000FF803FFFFFFFFFFFFFFFE000000183FF93
:10233000FF807FFFFFFFFFFFFFFFE0000000001FA7
:10234000FFE1FFFFFFFFFFFFFFFFE0000000001FB6
:10235000FFFFFFFFFFFFFFFFFFFFFF800000001FE9
:10236000FFFF1FFFFFFFFFFFFFFFFFFF8000001FBA
:10237000FFC01FFFFFFFFFFFFFFFFFFFFFC0001FAA
:10238000F8001FFFFFFFFFFFFFFFFFFFFFFFF81F2A
:10239000F8001FFFFFFFFFFFFFFFE1FFFFFFFFFF51
:1023A000F803FFFFFFFFFFFFFFFFE01FFFFFFFFF3F
:1023B000F8FFFFFFFFFFFFFFFFFFE001FFFFFFFF51
:1023C000FFFE7FFFFFFFFFFFFFFFE0001FFFFFFF9C
:1023D000FFFC1FFFFFFFFFFFFFFFE00000FFFFFF0D
:1023E000FFD81FFFFFFFFFFFFFFFF0000000001FEF
:1023F000FF881FFFFFFFFFFFFFFFFFC00000001F60
:10240000FF891FFFFFFFFFFFFFFFFFFFC000001F4F
:10241000FF9B9FFFFFFFFFFFFFFFFFFF8000001FED
:10242000FF933FFFFFFFFFFFFFFFFFC00000001F04
:10243000FF901FFFFFFFFFFFFFFFE0000000003FD6
:10244000FF801FFFFFFFFFFFFFFFE00003FFFFFF15
:10245000FF801FFFFFFFFFFFFFFFE0001FFFFFFFE9
:10246000FF801FFFFFFFFFFFFFFFE001FFFFFFFFF8
:10247000FFC7FFFFFFFFFFFFFFFFE01FFFFFFFFFA3
:10248000FFFFFFFFFFFFFFFFFFFFE3FFFFFFFFFF78
:10249000FFFFF1FFFFFFFFFFFFFFFFFFFFFFFFFF5A
:1024A000FF9FF1FFFFFFFFFFFFFFFFFFFFFFFFFFAA
:1024B000FF81F1FFFFFFFFFFFFFFFFFFFFFFFFFFB8
:1024C000FF8003FFFFFFFFFFFFFFFFFFFFFFFFFF97
:1024D000FF8003FFFFFFFFFFFFFFFFFFFFFFFFFF87
:1024E000FFF80FFFFFFFFFFFFFFFFFFFFFFFFFFFF3
:1024F000FFF83FFFFFFFFFFFFFFFFFFFFFFFFFFFB3
:10250000FFE0FFFFFFFFFFFFFFFFFFFFFFFFFFFFFA
:10251000FF83FFFFFFFFFFFFFFFFFFFFFFFFFFFF47
:10252000FF8FFFFFFFFFFFFFFFFFFFFFFFFFFFFF2B
:10253000FFBFFFFFFFFFFFFFFFFFFFF80000000FDF
:10254000FFFE1FFFFFFFFFFFFFFFFFF00000000F78
:10255000FFFE1FFFFFFFFFFFFFFFFFF00000000F68
:10256000FFFE1FFFFFFFFFFFFFFFFFF00000000F58
:10257000FFFE1FFFFFFFFFFFFFFFFFF00000000F48
:10258000FFFFFFFFFFFFFFFFFFFFFFF80000000F4F
:10259000FFFFFFFFFFFFFFFFFFFFFFFFFFFFF80F42
:1025A000FFFFFFFFFFFFFFFFFFFFFFFFFFFFF80F32
:1025B000FFE03FFFFFFFFFFFFFFFFFFFFFFFF80F01
:1025C000FFC03FFFFFFFFFFFFFFFFFFFFFFFF80F11
:1025D000FF801FFFFFFFFFFFFFFFFFFFFFFFF80F61
:1025E000FF831FFFFFFFFFFFFFFFFFFFFFFFF80F4E
:1025F000FF9F9FFFFFFFFFFFFFFFFFFFFFFFF80FA2
:10260000FF9F1FFFFFFFFFFFFFFFFFFFFFFFF80F11
:10261000FF861FFFFFFFFFFFFFFFC0000001F80F55
:10262000FF863FFFFFFFFFFFFFFFC0000001F80F25
:10263000FFC77FFFFFFFFFFFFFFFC0000001F80F94
:10264000FFFFFFFFFFFFFFFFFFFFC0000001F80FCC
:10265000FFFFFFFFFFFFFFFFFFFFC0000001F80FBC
:10266000FFF07FFFFFFFFFFFFFFFC0000001F80F3B
:10267000FFC03FFFFFFFFFFFFFFFC07FFF01F80F1D
:10268000FFC01FFFFFFFFFFFFFFFC07FFF01F80F2D
:10269000FF801FFFFFFFFFFFFFFFC07FFF01F80F5D
:1026A000FF8F9FFFFFFFFFFFFFFFC07FFF01F80FBE
:1026B000FF9F9FFFFFFFFFFFFFFFC07FFF01F80F9E
:1026C000FF9F1FFFFFFFFFFFFFFFC07FFF01F80F0E
:1026D000FF801FFFFFFFFFFFFFFFC07FFF01F80F1D
:1026E000FF803FFFFFFFFFFFFFFFC07FFF01F80FED
:1026F000FFC07FFFFFFFFFFFFFFFC07FFF01F80F5D
:10270000FFE0FFFFFFFFFFFFFFFFC07FFF01FFFFB5
:10271000FFFFFFFFFFFFFFFFFFFFC07FFF01FFFF86
:10272000FFFFDFFFFFFFFFFFFFFFC07FFF01FFFF96
:10273000FFF01FFFFFFFFFFFFFFFC07FFF01FFFF55
:10274000FF801FFFFFFFFFFFFFFFE07FFF01FFFF95
:10275000FF801FFFFFFFFFFFFFFFFFF80FFFF80FD6
:10276000FF81FFFFFFFFFFFFFFFFFFF80FFFF80FE5
:10277000FF8FFFFFFFFFFFFFFFFFFFF80FFFF80FC7
:10278000FF9F1FFFFFFFFFFFFFFFFFF80FFFF80F87
:10279000FF801FFFFFFFFFFFFFFFFFF80FFFF80F96
:1027A000FF801FFFFFFFFFFFFFFFFFF80FFFF80F86
:1027B000FF801FFFFFFFFFFFFFFFFFF80FFFF80F76
:1027C000FFC3FFFFFFFFFFFFFFFFFFF80FFFF80F43
:1027D000FFDFFFFFFFFFFFFFFFFFFFF80FFFF80F17
:1027E000FF9E1FFFFFFFFFFFFFFFFFF80FFFF80F28
:1027F000FF801FFFFFFFFFFFFFFFFFF80FFFF80F36
:10280000FF801FFFFFFFFFFFFFFFFFF80FFFF80F25
:10281000FF801FFFFFFFFFFFFFFFFFF80FFFF80F15
:10282000FFC7FFFFFFFFFFFFFFFFFFF80FFFF80FDE
:10283000FFFFFFFFFFFFFFFFFFFFFFF80000000F9C
:10284000FFFFFFFFFFFFFFFFFFFFFFF80000000F8C
:10285000FFFFFFFFFFFFFFFFFFFFFFF80000000F7C
:10286000FFFFFFFFFFFFFFFFFFFFFFF80000000F6C
:10287000FFFFFFFFFFFFFFFFFFFFFFF80000000F5C
:10288000FFFFFFFFFFFFFFFFFFFFFFF80000000F4C
:10289000FFFFFFFFFFFFFFFFFFFFFFFFFFFFFFFF48
:1028A000FFFFFFFFFFFFFFFFFFFFFFFFFFFFFFFF38
:1028B000FFFFFFFFFFFFFFFFFFFFFFFFFFFFFFFF28
:1028C000FFFFFFFFFFFFFFFFFFFFFFFFFFFFFFFF18
:1028D000FFFFFFFFFFFFFFFFFFFFFFFFFFFFFFFF08
:1028E000FFFFFFFFFFFFFFFFFFFFFFFFFFFFFFFFF8
:1028F000FFFFFFFFFFFFFFFFFFFFFFFFFFFFFFFFE8
:10290000FFFFFFFFFFFFFFFFFFFFFFFFFFFFFFFFD7
:10291000FFFFFFFFFFFFFFFFFFFFFFFFFFFFFFFFC7
:10292000FFFFFFFFFFFFFFFFFFFFFFFFFFFFFFFFB7
:10293000FFFFFFFFFFFFFFFFFFFFFFFFFFFFFFFFA7
:10294000FFFFFFFFFFFFFFFFFFFFFFFFFFFFFFFF97
:10295000FFFFFFFFFFFFFFFFFFFFFFFFFFFFFFFF87
:10296000FFFFFFFFFFFFFFFFFFFFFFFFFFFFFFFF77
:10297000FFFFFFFFFFFFFFFFFFFFFFFFFFFFFFFF67
:10298000FFFFFFFFFFFFFFFFFFFFFFFFFFFFFFFF57
:10299000FFFFFFFFFFFFFFFFFFFFFFFFFFFFFFFF47
:1029A000FFFFFFFFFFFFFFFFFFFFFFFFFFFFFFFF37
:1029B000FFFFFFFFFFFFFFFFFFFFFFFFFFFFFFFF27
:1029C000FFFFFFFFFFFFFFFFFFFFFFFFFFFFFFFF17
:1029D000FFFFFFFFFFFFFFFFFFFFFFFFFFFFFFFF07
:1029E000FFFFFFFFFFFFFFFFFFFFFFFFFFFFFFFFF7
:1029F000FFFFFFFFFFFFFFFFFFFFFFFFFFFFFFFFE7
:102A0000FFFFFFFFFFFFFFFFFFFFFFFFFFFFFFFFD6
:102A1000FFFFFFFFFFFFFFFFFFFFFFFFFFFFFFFFC6
:102A2000FFFFFFFFFFFFFFFFFFFFFFFFFFFFFFFFB6
:102A3000FFFFFFFFFFFFFFFFFFFFFFFFFFFFFFFFA6
:102A4000FFFFFFFFFFFFFFFFFFFFFFFFFFFFFFFF96
:102A5000FFFFFFFFFFFFFFFFFFFFFFFFFFFFFFFF86
:102A6000FFFFFFC00003FFFFFFFFFFFFFFFFFFFFB0
:102A7000FFFFFFC00003FFFFFFFFFFFFFFFFFFFFA0
:102A8000FFFFFFC00003FFFFFFFFFFFFFFFFFFFF90
:102A9000FFFFFFC00003FFFFFFFFFFFFFFFFFFFF80
:102AA000FFFFFFC00003FFF80001FFFFF3E0F8E7BE
:102AB00000007FC00003FFF80001FFFFF3E0F8E72C
:102AC00000007FC00103FFF87FF1FFDEF3E0F8E7CD
:102AD0001FFC7FC07103FFF8FFF9FF8C63E0F8E78C
:102AE0003FFE7FC06303FFF8FFF9FF8C73E0F8E758
:102AF0003FFE7FC06203FFF8E039CE03FC7F07FF93
:102B0000380E7FC06C03FFF8C039CE03FC7F07FF8F
:102B1000380E7FC1F003FFF8C039E023DFBF1F8FFD
:102B2000380E7FC06803FFF8C039F0738F9F1F070E
:102B3000380E7FC06603FFF8C039F0738F9F1F0700
:102B4000380E7FC06303FFF8C039FFFC7063E7C72E
:102B5000380E7FC06383FFF8C039FFFC7063E7E77E
:102B6000380E7FC00103FFF8E039FFFC6077C7E74C
:102B7000380E7FC00003FFF8FFF9CE00007F071F6B
:102B80003FFE7FC00003FFF8FFF9CE00007F071F64
:102B90003FFE7FC00003FFF80001CE318C6318E7D1
:102BA00000007FC00003FFF80001CE739C6318E6AD
:102BB00000007FC1A203FFFC0001CE738C6318E705
:102BC00000007FC1F603FFFFFFFFC1F38F9C18FFDA
:102BD000FFFFFFC14203FFFFFFFFC1F38F9C18FF00
:102BE000FFFFFFC00203FFFF0001C1FFF0631FE012
:102BF0000FCFFFC1AA03FFFF0001C1FFE0631FE089
:102C000007CFFFC1EA03FFFF0001C1FFF0E31FE0B0
:102C100007C7FFC13F03FFF8C03E3E7073FC18F8C2
:102C2000F8007FC1E903FFF8C03E3E7073FC18F85E
:102C3000F8007FC12983FFFFFE39CE70001C67FFBB
:102C4000F8FFFFC12983FFFFFF39CE70001CE7FFAB
:102C5000F9FFFFC00183FFFFFF39CE70001CE7FFC3
:102C6000F9FFFFC00003FFF8C706318003830707A1
:102C7000C1CE7FC00003FFF8C7063180038307077A
:102C8000C1CE7FC00003FFFDC30671C007830716D6
:102C9000C3CE7FC08003FFFFC0C1F1F01F831F18A8
:102CA0003FF1FFC1C003FFFFE0C1F1F00F831F1828
:102CB0003FF1FFC1FF83FFFFFF060E0F807C181856
:102CC000C1FFFFC10103FFFFFF060E0F807C181933
:102CD000C1FFFFC0B503FFFDBF148E0BE0F5081068
:102CE000E1FF7FC1A503FFF83F39CFF1F3E307E030
:102CF000F9FE7FC1FE03FFF83F39CFF3F3E307E1AD
:102D0000F9FE7FC15303FFFF3F07C1FFFC7CE7E7EC
:102D1000F9CE7FC15303FFFF3F07C1FFFC7CE7E70C
:102D2000F9CE7FC15303FFFF3F07C1FFFC7CE7C71C
:102D3000F1CE7FC00203FFFF38C1C1807C7FF8075E
:102D4000C1CFFFC00003FFFF38C1C1807C7FF807FF
:102D5000C1CFFFC00003FFFF07C7FE701C1C0007A8
:102D60003E01FFC00003FFFF07C7FE700C1C0007F9
:102D70003E01FFC00003FFFF07C7FE701C1C0006DA
:102D80003E01FFC00103FFF8FFC1FE7E7F9CFFF8FC
:102D90003831FFC10503FFF8FFC1FE7C7F9CFFF8BF
:102DA0003831FFC1F603FFFF01FE01801C600707F9
:102DB000C00FFFC1F203FFFF00FE01800C60070798
:102DC000C00FFFC17E03FFFF00FE01C00CE0030740
:102DD000C007FFC16203FFFFC7380FFF8FE3E0FFAB
:102DE000C6007FC17E03FFFFC7380FFF8FE3E0FF00
:102DF000C6007FC16603FFFFC0C7F1C07FFFFFFFB2
:102E000039847FC16F03FFFFC0C7F1807FFFFFFFE1
:102E100039CE7FC18303FFFFE0C7F1807FFFFFFF53
:102E200039CE7FC00303FFF8F8C03FFFF060E0FF3A
:102E300000307FC00003FFF8F8C03FFFF060E0FF04
:102E400000307FC00003FFFDF8BC38781C4040FF15
:102E500080FB7FC00003FFFFF83E30701C0000FFC6
:102E6000C1FFFFC08003FFFFF83E30700C0000FF81
:102E7000C1FFFFC1FC03FFF8E60001F003FF1F00E4
:102E800001C07FC1F403FFF8C70001F003FF1F007A
:102E900001C07FC1B403FFFDE70001F003FF3F0065
:102EA00000C07FC3FF03FFFFFFFFC1F3FF9CF8E7F4
:102EB000F831FFC3B903FFFFFFFFC1F1FF9CF8E743
:102EC000F831FFC1A903FFFC0001F070701C00E79E
:102ED00039F07FC1A903FFF80001F070601C00E623
:102EE00039F07FC1F183FFF80001F020701C00C7AA
:102EF00038F87FC18183FFF8FFF9C0007C7F0707A6
:102F0000F83FFFC00383FFF8FFF9C0007C7F07078D
:102F1000F83FFFC00003FFF8E039CE3FFFE0FF00BD
:102F2000000E7FC00003FFF8C039CE7FFFE0FF0036
:102F3000000E7FC00003FFF8C039CE3FFFE0FF0066
:102F400000067FC00003FFF8C039C0007C60E707BF
:102F5000C6007FC01803FFF8C039C0007C60E707D7
:102F6000C6007FC09803FFF8C039C03C7F83E7FFED
:102F70003E3FFFC09003FFF8C039C07C7F83E7FE6F
:102F80003E3FFFC1B083FFF8E039C07E7F83E7FF9B
:102F90003E3FFFC17083FFF8FFF9CF8FFC7C1FE736
:102FA000C7CFFFC17303FFF8FFF9CF8FFC7C1FE78A
:102FB000C7CFFFC17C03FFF80001F0001C0300E055
:102FC000070E7FC1A003FFF80001F0000C0300E032
:102FD000060E7FC13003FFFC0001F0001C0300E07F
:102FE000060E7FC03003FFFFFFFFFFFFFFFFFFFF65
:102FF000FFFFFFC03003FFFFFFFFFFFFFFFFFFFFEB
:10300000FFFFFFC00003FFFFFFFFFFFFFFFFFFFF0A
:10301000FFFFFFC00003FFFFFFFFFFFFFFFFFFFFFA
:10302000FFFFFFC00003FFFFFFFFFFFFFFFFFFFFEA
:10303000FFFFFFC00003FFFFFFFFFFFFFFFFFFFFDA
:10304000FFFFFFC00003FFFFFFFFFFFFFFFFFFFFCA
:10305000FFFFFDC00003FFFFFFFFFFFFFFFFFFFFBC
:10306000FFFFF9FFFFFFFFFFFFFFFFFFFFFFFFFF76
:10307000FFFFF1FFFFFFFFFFFFFFFFFFFFFFFFFF6E
:10308000FFFFF1FFFFFFFFFFFFFFFFFFFFFFFFFF5E
:10309000FFFFF1FFFFFFFFFFFFFFFFFFFFFFFFFF4E
:1030A000FFFFF1FFFFFFFFFFFFFFFFFFFFFFFFFF3E
:1030B000FFFFF3FFFFFFFFFFFFFFFFFFFFFFFFFF2C
:1030C000FFFFF7FFFFFFFFFFFFFFFFFFFFFFFFFF18
:1030D000FFFFFFFFFFFFFFFFFFFFFFFFFFFFFFFF00
:1030E000FFFFFFFFFFFFFFFFFFFFFFFFFFFFFFFFF0
:1030F000FFFFFCFFFFFFFFFFFFFFFFFFFFFFFFFFE3
:10310000FFFFF8FFFFFFFFFFFFFFFFFFFFFFFFFFD6
:10311000FFFFF0FFFFFFFFFFFFFFFFFFFFFFFFFFCE
:10312000FFFFF0FFFFFFFFFFFFFFFFFFFFFFFFFFBE
:10313000FFFFF0FFFFFFFFFFFFFFFFFFFFFFFFFFAE
:10314000FFFFF7FFFFFFFFFFFFFFFFFFFFFFFFFF97
:10315000FFFFFFFFFFFFFFFFFFFFFFFFFFFFFFFF7F
:10316000FFFFF0FFFFFFFFFFFFFFFFFFFFFFFFFF7E
:10317000FFFFF0FFFFFFFFFFFFFFFFFFFFFFFFFF6E
:10318000FFFFF0FFFFFFFFFFFFFFFFFFFFFFFFFF5E
:10319000FFFFF6FFFFFFFFFFFFFFFFFFFFFFFFFF48
:1031A000FFFFFFFFFFFFFFFFFFFFFFFFFFFFFFFF2F
:1031B000FFFFFFFFFFFFFFFFFFFFFFFFFFFFFFFF1F
:1031C000FFFFFFFFFFFFFFFFFFFFFFFFFFFFFFFF0F
:1031D000FFFFFFFFFFFFFFFFFFFFFFFFFFFFFFFFFF
:1031E000FFFFFFFFFFFFFFFFFFFFFFFFFFFFFFFFEF
:1031F000FFFFFFFFFFFFFFFFFFFFFFFFFFFFFFFFDF
:10320000FFFFFE7FFFFFFFFFFFFFFFFFFFFFFFFF4F
:10321000FFFFF03FFFFFFFFFFFFFFFFFFFFFFFFF8D
:10322000FFFFF83FFFFFFFFFFFFFFFFFFFFFFFFF75
:10323000FFFFDC3FFFFFFFFFFFFFFFFFFFFFFFFF81
:10324000FFFFCC3FFFFFFFFFFFFFFFFFFFFFFFFF81
:10325000FFFFEC3FFFFFFFFFFFFFFFFFFFFFFFFF51
:10326000FFFFAC3F9FFFFFFFFFFFFFFFFFFFFFFFE1
:10327000FFFFBC781FFFFFFFFFFFDFFFFFFFFFFF28
:10328000FFFF9D7C1FFFFFFFFFFFC7FFFFFFFFFF4B
:10329000FFFF9FEE1FFFFFFFFFFF47FFFFFFFFFF47
:1032A000FFFFFFFF9FFFFFFFFFFF0FFFFFFFFFFF7E
:1032B000FFFFFFFFFFFFFFFFFFFF9BFFFFFFFFFF82
:1032C000FFFFFFFFFFFFFFFFFFFF3BFFFFFFFFFFD2
:1032D000FFFFF7FF3FFFFFFFFFFFC3FFFFFFFFFF02
:1032E000FFFFF3FF3FFFFFFFFFFDD9DFFFFFFFFF02
:1032F000FFFFF9FF3FFFFFFFFFFB591FFFFFFFFF2E
:10330000FFFFF9F83FFFFFFFFFFB1172FFFFFFFF19
:10331000FFFFF9F43FFFFFFFFFFBF119FFFFFFFF86
:10332000FFFFFDFE3FFFFFFFFFFFB20FFFFFFFFFAD
:10333000FFFFFFFF3FFFFFFFFFFFA207FFE1FFFFD0
:10334000FFFFFFFFBFFFFFFFFFFFFE07FFE0FFFFE5
:10335000FFFFCFFFFFFFFFFFFFFFFC07FFF07FFF37
:10336000FFFECFFFFFFFFFFFFFFFB007FE887FFFDD
:10337000FFFEE7FF1FFFFFFFFF887033FC803FFF6A
:10338000FFFFFFFF1FFFFFFFFF8F7800FF003FFFE2
:10339000FFFBFFFF1FFFFFFFCF8F1C0780001FFFFA
:1033A000FFFDFFFF9FFFFFFFF39FC00300001FFF14
:1033B000FFFF7EFFCFFFFFFFD78E700000001FFFD3
:1033C000FFFFFC3F9FFFFFFFCF0C610000003FFFAE
:1033D000FFFFFFDF9FFFFFFFF90CC38000003FFFEF
:1033E000FFF3FBF91FFFFFFF7319C7C00000FFFFCA
:1033F000FFF0F8FF3FFFFFFE5FB3CFC00001FFFF0C
:10340000FFFC7C07FFFFFFFE6CB3E6E30007FFFF56
:10341000FFC7FF0DFFFFFFFE24BFE67FC01FFFFFBA
:10342000FFC1FFFFFFFFFFFDA4B773FCC07FFFFFDD
:10343000FFF0FFFF87FFFFFFE283F03DFFFFFFFF8D
:10344000FFF9FFFFC7FFFFFFFE07F03BFFFC7FFF19
:10345000FFF9FFFE37FFFFF81F0E00F303F07FFFB9
:10346000FFFFEFFCFFFFFFF80F7C000300F07FFF82
:10347000FFFFECFFFFFFFFF8073C000C00F07FFFB1
:10348000FF9FE67FFFFFFFF80F1C061800F81FFFE5
:10349000FF0FFE7FFFFFFFFE7F181FF803FC3FFFBB
:1034A000FF0FF9FFFFFFFFFFEF081FF00FFE7FFF89
:1034B000FF0FFDFFFFFFFFFE0F883DE3FFFE7FFFD5
:1034C000FE1FC3FFE7FFFFFC1E883807FFFFFFFF5B
:1034D000FE3FFBFF07FFFFF80E00300FFFC1FFFFAD
:1034E000FF3FFFFE6FFFFFF81F584019EFFDFFFF82
:1034F000FFFF1FDF8FFFFFF8383F8073C07FDFFFC4
:10350000FFFF01FFFFFFFFFFFE7F006784F8187FCA
:10351000FF7FE17FFFFFFFF83F3F00FD8FE1FC0FE2
:10352000DFBFF377FFFFFFF8038F8FFB1F07FE0F4F
:10353000E3BFF3BFFFFFFFFB007FFFFEE08FFF87CE
:10354000F1DFFFFFFFFFFFFFF77FFFFFE07FE7C334
:10355000F8FFFFFFFFFFFFFEFFBFFFFF83FFCFC1AD
:10356000FC7DFFFFFFFFFFFC0FFFFFFFFF1FCFE012
:10357000FC3CFFFFEFFFFFFC07EFFFFFFC7FF03C91
:103580007E3C3FFF87FFFFFC39C3FFFFE0FFFFFCEE
:103590001F0E1FFF87FFFFFFF9E2FFFF03FFC2FEC1
:1035A00007861FFFC7FFFFFFF1E0FFFFFE7F81FEE1
:1035B00003C70C7FEFFFFFF9FCE09FFFFCFF07FF55
:1035C00003E39C3FFFFFFFF1FFE1CFFFFF9FF8FF09
:1035D000E1F1DFDFFFFFFFE1FFF1C7FFF83FE1FFB0
:1035E000F0F8FFFFFFFFFFE1FBF1F80FA07F80FF86
:1035F000F8FC3FFFFFFFFFE001F8BCF803FF007F8E
:10360000F87E3FFFFFFFFFF001FB0FF8C7FC003F14
:10361000F83E3FFF8FFFFFF003FE002F1FF8003F33
:10362000F01F7FFFE7FFFFFC03FE0C03FFF0001F0E
:10363000F007FFFFF7FFFFFC67FC01FF9E00803FE4
:10364000F003FFFFFFFFFFFCEFE003FF3807FFFF82
:10365000FF01FFFFFFFFFFFFCFE02FFEC1FFFFFFD6
:10366000FFC0FFFF0FFFFFFFDFC4FFFFCFF81FFE0C
:103670003FF1FFFF9FFFFFFF9FBC7FFFFFC03000B8
:103680000079FFFF9FFFFFFFBF2E03FFFF024000F7
:10369000000FFFFF9FFFFFFF9F0E7FFFFC3E80009C
:1036A000FC03FFFF9FFFFFFFFF867F1FF07F000FE0
:1036B000FFFFFFFF1FFFFFFFFFE43F0FC0FE003FC4
:1036C000FFFFFFFF3FFFFFFFFFE41FEF81F800FF59
:1036D000FFF3FFFF3FFFFFFFFFFC7FFF03F003FF50
:1036E000CFE3FFFFBFFFFFFFFFFE3FFF07E007FF46
:1036F00031C3FFFFFFFFFFFF3FFF3FFE1FC01FFC67
:103700004787FFFFDFFFFFFC27FFB3FC3F003FF0D1
:103710009F0FFFFFDFFFFFF80FFFF9F8FE007FE0CC
:103720003E3FFFFF9FFFFFFC1FFFFDFBF000FFC0C0
:10373000FCCFFFFF1FFFFFFF37FBBFFFF007FF03BB
:10374000F98FFFFF1FFFFFFF65FD9FFFE03FFE3F7B
:10375000F30FFFFF1FFFFFFFE6FC9FFFC1FFFC7F92
:10376000E03FFFFF1FFFFFFFFE3C0BFF87FFF8FF5F
:10377000E07FFFFF1FFFFFFFFF1E03FF9FFFF9FF1B
:10378000C0FFFFFE1FFFFFFFFF0E00FF3FFFF3FF25
:1037900081FFFFFE1FFFFFFFFFE700FFFFFFE3FFCB
:1037A00083EFFFFE3FFFFFFFFFE7807FFFFFC7FFC5
:1037B0000FEFFFFEFFFFFFFFFFF3807FFFFF0FFE16
:1037C0001FCFFFFEFFFFFFFFFFF9C07FFFFC3FFCA5
:1037D0007FCFFFFFFFFFFFFFFFF8E07FFFF1FFF864
:1037E000FFCFFFFFFFFFFFFFFFFC703FFFE7FFF38F
:1037F000FFCFFFFFFFFFFFFFFFFF1E3FFFEFFFC7F2
:10380000FF9FFFFFFFFFFFFFFFFF879FFFFFFF9F60
:10381000FF1FFFFFFFFFFFFFFFFF81CFFFFFFF3F06
:10382000FC3F7F9FFFFFFFFFFFFFC0FFFFFC7C7F90
:10383000F87F7F8FFFFFFFFFFFFFE07FFE78F8FF3D
:10384000F0FF7F3FFFFFFFFFFFFFF01FF8E1F9FFF1
:10385000E1FF7FFFFFFFFFFFFFFE3E1FE3C3FFFF10
:10386000C3FF3FFFFFFFFFFFFFFF1F8F830FFFFF20
:103870008FEE7FFFFFFFFFFFFFFF03EC003FFFFE28
:103880001F807EFFFFFFFFFFFFFF803E00FFFE184F
:103890007F00FEF9FFFFFFFFFFFF800FF9FFDE0B48
:1038A000E003FDF9FFFFFFFFFFFFC001FFFF387FCF
:1038B000C007F9F9FFFFFFFFFFFFE0000FFC70FFFB
:1038C000801FF1F3FFFFFFFFFFFFFE2000E0E3FF9B
:1038D000007FE1E3FFFFFFFFFFFFFFFCFF83CFFC63
:1038E00001FFC1C7FFFFFFFFFFFFFFFFFF07BF8013
:1038F00007FF81C7FFFFFFFFFFFFDFFFFC0FFE0099
:103900001FFF038FFFFFFFFFFFFFC3FFE03FF0003C
:103910003FFF879FFFFFFFFFFFFFE00000FFE0305A
:103920007F00BFFFFFFFFFFFFFFFF00003FF81E00D
:10393000FF001E7FFFFFFFFFFFFFF8000FF807806B
:10394000FF00007FFFFFFFFFFFFFFE0FFFC00F0321
:10395000FE0000FFFFFFFFFFFFFFFFBFFF803C07F0
:10396000FC0007FFFFFFFFFFFFFFFFFF0000780FD6
:10397000F0001FFFFFFFFFFFFFFFFFC00003C01F9E
:10398000E0007FF7FFFFFFFFFFFFFFE0000F003FBA
:10399000C000FFF7FFFFFFFFFFFFFFE003F000FFA6
:1039A0008003FFE7FFFFFFFFFFFFFFF7FFC001FFFF
:1039B0000007FFE7FFFFFFFFFFFFFFFC00001FFE08
:1039C00003BFFFEFFFFFFFFFFFFFFFF800007FFCDB
:1039D00007FFFFEFFFFFFFFFFFFFFFFE00C3FFF842
:1039E0003FFFFFEFFFFFFFFFFFFFFFFFBFFFFFE115
:1039F000FFFF07EFFFFFFFFFFFFFFFFFFFFFFF03DB
:103A0000FFF80FCFFFFFFFFFFFFFFFFFFFFFF807EC
:103A1000FF1C7CCFFFFFFFFFFFFFFFFFFFFFF8074B
:103A2000F031F1EFFFFFFFFFFFFFFFFFF7FFF007B0
:103A300080E3E1EFFFFFFFFFFFFFFFFFF7FFC07F26
:103A40000387C3EFFFFFFFFFFFFFFFFFF3FF00FC54
:103A5000070F83EFFFFFFFFFFFFFFFFFF3FE00F8FD
:103A60001E1F07EFFFFFFFFFFFFFFFFFF3FFFFE05A
:103A70003C1E07FFFFFFFFFFFFFFFFFFF9FFFF00F7
:103A800078FC0FFFFFFFFFFFFFFFFFFFF9FFFC00C8
:103A9000E1F01FFFFFFFFFFFFFFFFFFFF8FC00014A
:103AA000C3E03FFFFFFFFFFFFFFFFFFFF87E0007C0
:103AB00087807FFFFFFFFFFFFFFFFFFFFC1F001F4F
:103AC0000F00FFFFFFFFFFFFFFFFFFFFFC0FFFFCEB
:103AD0003C01FBFFFFFFFFFFFFFFFFFFFF03FFF8BE
:103AE000F003CFFFFFFFFFFFFFFFFFFFFF81FFFF9F
:103AF000E00F9FFFFFFFFFFFFFFFFFFFFFC0FFFC87
:103B0000001F3FFFFFFFFFFFFFFFFFFFFFE03EE063
:103B1000003C7FFFFFFFFFFFFFFFFFFFFFFBFC00FD
:103B200001F8FFFFFFFFFFFFFFFFFFFFFFFFFC00AC
:103B300003F1FFFFFFFFFFFFFFFFFFFFFFFFFC00A1
:103B400007E7FFFFFFFFFFFFFFFFFFFFFFFFFC0097
:103B50000F8FFFFFFFFFFFFFFFFFFFFFFFFFFC00D7
:103B60003E3FFFFFFFFFFFFFFFFFFFFFFFFFFE00E6
:103B7000F87FFFFFFFFFFFFFFFFFFFFFFFFFFE07D5
:103B8000F1FFC3FFFFFFFFFFFFFFFFFFFFFFFF0F7F
:103B9000E7FF07DFFFFFFFFFFFFFFFFFFFFFFF3F25
:103BA000CFFC1F9FFFFFFFFFFFFFFFFFFFFFFFFF98
:103BB000FFF83F9FFFFFFFFFFFFFFFFFFFFFFFFF3C
:103BC000FFF07F3FFFFFFFFFFFFFFFFFFFFFFFFE55
:103BD000FFE0FE3FFFFFFFFFFFFFFFFFFFFFFFFCD8
:103BE000FF81FE3FFFFFFFFFFFFFFFFFFFFFFFFC27
:103BF000FF03FE7FFFFFFFFFFFFFFFFFFFFFFFFC55
:103C00002E07FE7FFFFFFFFFFFFFFFFFFFFFFFFE0F
:103C1000006FFE7FFFFFFFFFFFFFFFFFFFFFFFFFC4
:103C2000C0FFFCFFFFFFFFFFFFFFFFFFFFFFFFFFE6
:103C3000F3FFFCFFFFFFFFFFFFFFFFFFFFFFFFFFA3
:103C4000FFFFF9FFFFFFFFFFFFFFFFFFFFFFFFFF8A
:103C5000FFFFFFFFFFFFFFFFFFFFFFFFFFFFFFFF74
:103C6000FFFFFFFFFFFFFFFFFFFFFFFFFFFFFFFF64
:103C7000FFFFFFFFFFFFFFFFFFFFFFFFFFFFFFFF54
:103C8000FFFFFFFFFFFFFFFFFFFFFFFFFFFFFFFF44
:103C9000FFFFFFFFFFFFFFFFFFFFFFFFFFFFFFFF34
:103CA000FFFFFFFFFFFFFFFFFFFFFFFFFFFFFFFF24
:103CB000FFFFFFFFFFFFFFFFFFFFFFFFFFFFFFFF14
:103CC000FFFFFFFFFFFFFFFFFFFFFFFFFFFFFFFF04
:103CD000FFFFFFFFFFFFFFFFFFFFFFFFFFFFFFFFF4
:103CE000FFFFFFFFFFFFFFFFFFFFFFFFFFFFFFFFE4
:103CF000FFFFFFFFFFFFFFFFFFFFFFFFFFFFFFFFD4
:103D0000FFFFFFFFFFFFFFFFFFFFFFFFFFFFFFFFC3
:103D1000FFFFFFFFFFFFFFFFFFFFFFFFFFFFFFFFB3
:103D2000FFFFFFFFFFFFFFFFFFFFFFFFFFFFFFFFA3
:103D3000FFFFFFFFFFFFFFFFFFFFFFFFFFFFFFFF93
:103D4000FFFFFFFFFFFFFFFFFFFFFFFFFFFFFFFF83
:103D5000FFFFFFFFFFFFFFFFFFFFFFFFFFFFFFFF73
:103D6000FFFFFFFFFFFFFFFFFFFFFFFFFFFFFFFF63
:103D7000FFFFFFFFFFFFFFFFFFFFFFFFFFFFFFFF53
:103D8000FFFFFFFFFFFFFFFFFFFFFFFFFFFFFFFF43
:103D9000FFFF87FFFFFFFFFFFFFFFFFFFFFFFFFFAB
:103DA000FFFF03FFFFFFFFFFFFFFFFFFFFFFFFFF1F
:103DB000FFFE03FFFFFFFFFFFFFFFFFFFFFFFFFF10
:103DC000FFFC03FFFFFFFFFFFFFFFFFFFFFFFFFF02
:103DD000FFF807FFFFFFFFFFFFFFFFFFFFFFFFFFF2
:103DE000FFF80780FFFFFFFFFFFFFFFFFFFFFFFF61
:103DF000FFF80E007FFFFFFFFFFFFFFFFFFFFFFF4A
:103E0000FFF81C007FFFFFFFFFFFFFFFFFFFFFFF2B
:103E1000F0F81C007FFFFFFFFFFFFFFFFFFFFFFF2A
:103E2000E0783C03FFFFFFFFFFFFFFFFFFFFFFFF07
:103E3000E07C183FFFFFFFFFFFFFFFFFFFFFFFFFDB
:103E4000E03C187F1FFFFFFFFFFFFFFFFFFFFFFFAB
:103E5000E03E0C7807FFFFFFFFFFFFFFFFFFFFFFC4
:103E6000E03F0CF007FFFFFFFFFFFFFFFFFFFFFF3B
:103E7000F01F80E007FFFFFFFFFFFFFFFFFFFFFFD7
:103E8000F00FC04007FFFFFFFFFFFFFFFFFFFFFF37
:103E9000F803E001DFFFFFFFFFFFFFFFFFFFFFFF72
:103EA000FC01E007FFFFFFFFFFFFFFFFFFFFFFFF3A
:103EB000FE00000FFFFFFFFFFFFFFFFFFFFFFFFF01
:103EC000FF80001FFFFFFFFFFFFFFFFFFFFFFFFF60
:103ED000FFE0000FFFFFFFFFFFFFFFFFFFFFFFFF00
:103EE000FFFFF003FFFFFFFFFFFFFFFFFFFFFFFFED
:103EF000FFFFF000FFFFFFFFFFFFFFFFFFFFFFFFE0
:103F0000FFFFF1003FFFFFFFFFFFFFFFFFFFFFFF8E
:103F1000FFFFE1801FFFFFFFFFFFFFFFFFFFFFFF2E
:103F2000FFC781C00FFFFFFFFFFFFFFFFFFFFFFF86
:103F3000FF8003C003FFFFFFFFFFFFFFFFFFFFFF47
:103F4000FF8003E001FFFFFFFFFFFFFFFFFFFFFF19
:103F5000FF8007F000FFFFFFFFFFFFFFFFFFFFFFF6
:103F6000FFC00FF8007FFFFFFFFFFFFFFFFFFFFF16
:103F7000FFF03FF8003FFFFFFFFFFFFFFFFFFFFFE6
:103F8000FFFFFFFC001FFFFFFFFFFFFFFFFFFFFF23
:103F9000FFFFFFFC000FFFFFFFFFFFFFFFFFFFFF23
:103FA000FFFFFFFE000FFFFFFFFFFFFFFFFFFFFF11
:103FB000FFFFFFFE000FFFFFFFFFFFFFFFFFFFFF01
:103FC000FFFFFFFF000FFFFFFFFFFFFFFFFFFFFFF0
:103FD000FFFFFFFF000FFFFFFFFFFFFFFFFFFFFFE0
:103FE000FFFFFFFF800FFFFFFFFFFFFFFFFFFFF05F
:103FF000FFFFF0FF800FFFFFFFFFFFFFFFFFFF80CE
:104000003FFF801F800FFFFFFFFFFFFFF807FE004D
:104010000FFF0007C00FFFFFFFFFFFFFE003FC00E3
:1040200007FC0003C00FFFFFFFFFFFFF8000F80049
:1040300003F80001C00FFFFFFFFFFFFF000070004B
:1040400001F00000400FFFFFFFFFFFFE0000200017
:1040500000E00000600FFFFFFFFFC7FC00003FFF14
:10406000FFFFFFFFE00FFFFFFFFF007C0FFFFFFFE1
:10407000FFFFC7FFC00FFFFFFFFE0019FFE00000BA
:1040800000000000000FFFFFFFFC003F8000000069
:1040900000000000000FFFFFFFF801F80000000023
:1040A00000000000000FFFFFFFF807800000000085
:1040B00000000000000FFFFFFFF03C0000000000C8
:1040C00000000000000FFFFFFFF0F0000000000004
:1040D00000000000000FFFFFFFF1C0000000000023
:1040E00000070000000FFFFFFFF700000001FFF0D6
:1040F00000070000000FFFFFFFFC0000003FFFFF74
:10410000000F0000000FFFFFFFF8000001FFFFFF9E
:1041100080060000000FFFFFFFE0000007FFFFFF29
:1041200080000000000FFFFFFFC000001FFFFFFF27
:1041300098000000000FFFFFFF8000007FFFFFFFDF
:10414000FC000000000FFFFFFF000001FFFFFFFF6A
:10415000FE000000000FFFFFFE000007FFFFFFFF53
:10416000FF0001F8000FFFFFF800000FFFFFFFFF47
:10417000FF8001FFC00FFFFFE000003FFFFFFFFFD8
:10418000FF8000FFFE0FFFFFC7F0007FFFFFFFFF74
:10419000FF801C7FFFCFFFC187F8007FFFFFFFFF7D
:1041A000FF003C7FFFCFFFE10FFC001FFFFFFFFF81
:1041B000FC003C3FFF0FFFE10E7C001FFFFFFFFFF5
:1041C000FFC0183FFE0FFFF0080E007FFFFFFFFF4C
:1041D000FFE0001FFC0FFFF00BFE007FFFFFFFFF63
:1041E000FFE0001FF80FFFF01BFE003FFFFFFFFF87
:1041F000FFE0000FF00FFFF019FE0030000000009C
:104200000030000FE00FFFF81CFE0030000000003F
:1042100000300007C00FFFF81E1E001FFFFFFFFF4A
:10422000FFF00007801FFFF83F9C0018000000000F
:1042300000300003003FFFF89FF8001FFFFFFFFF63
:10424000FFF00000007FFFFBCFF00018000000002F
:1042500000100002007FFFFFE1C000080000000026
:1042600000100007007FFFFFE000000800000000D2
:104270000010000F007FFF7F0000000C0000000016
:104280000010003F807FFC7C7000000FFFFFFFFFED
:10429000FFF0007F807FF8FCF800600C0000000059
:1042A000001000FFC07FF8F9FC00F007FFFFFFFFE0
:1042B000FFF001FFC07FF1F3FE01F00400000000F9
:1042C000001003FFE03FE1F3FE01F007FFFFFFFFF7
:1042D000FFF007FFF03FE3F30F01F007FFFFFFFFE1
:1042E000FFF00FFFF01FE3F60700F00600000000EC
:1042F00000101FFFF80FC3E6FF006007FFFFFFFF7E
:10430000FFF003FFF80FE3E6FF000007FFFFFFFFEA
:10431000FFF0003FFC0FFFE63F000003FFFFFFFF41
:10432000FFF00003FC0FFFE78F0000020000000019
:10433000001000003E0FFFF7FF000003FFFFFFFF2C
:10434000FFF00000020FFFF3FF4000030000000039
:1043500000100000000FFFF3FE600003FFFFFFFFEF
:10436000FFF00000000FFFF9FE700003FFFFFFFFEA
:10437000FFF01000000FFFF9FCF00003FFFFFFFF4C
:10438000FFF01C00000FFFFCF9F802030000000022
:1043900000101F00000FFFFE03F8070300000000DD
:1043A00000101FC0000FFFFF07F80F03FFFFFFFF04
:1043B000FFF01FE0000FFFFFFFFC0F038000000075
:1043C00000101FF8000FFFFFFFFC060100000000B7
:1043D00000101FFF000FFFFFFFFC0001FFFFFFFFAA
:1043E000FFF01FFFC00FFFFFFFFE000100000000F5
:1043F00000101FFFF00FFFFFFFFE0001FFFFFFFF98
:10440000FFF01FFFFC0FFFFFFFFE0001FFFFFFFF9C
:10441000FFF01FFFFF8FFFFFFFFE0001FFFFFFFF09
:10442000FFF01FFFFFEFFFFFFFFF0001FFFFFFFF98
:10443000FFF01FFFFFFFFFFFFFFF000180000000F4
:1044400000101EFDFFFFFFFFFFFF0001FFFFFFFF4A
:10445000FFF01E01FFFFFFFFFFFF000180000000D3
:1044600000101FFDFFFFFFFFFFFF0001FFFFFFFF29
:10447000FFF01FFFFFFFFFFFFFFF8001FFFFFFFFB8
:10448000FFF01FFFFFFFFFFFFFFF80018000000024
:1044900000101FFFFFFFFFFFFFFF8001FFFFFFFF77
:1044A000FFF01FFFFDFFFFFFFFFF80018000000006
:1044B00000103FFFF80FFFFFFFFF8001FFFFFFFF2E
:1044C000FFF03F7DF81FFFFFFFFFC001FFFFFFFF71
:1044D000FFF03EF9FE7FFFFFFFFFC001FFFFFFFF80
:1044E000FFF03EF5FC0FFFFFFFFFC0018000000062
:1044F00000103EEDF81FFFFFFFFFC001FFFFFFFFB1
:10450000FFF03F19FF3FFFFFFFFFC001FFFFFFFF6D
:10451000FFF03FFFF8FFFFFFFFFFC001800000003A
:1045200000103FFFFFFFFFFFFFFFE00180000000E2
:1045300000103FFFFFFFFFFFFFFFE001FFFFFFFF56
:10454000FFF03FFFFDFFFFFFFFFFE00180000000E5
:1045500000103F7DF80FFFFFFFFFE001800000002B
:1045600000103EFDF81FFFFFFFFFE001FFFFFFFF10
:10457000FFF03EDDFE7FFFFFFFFFE001FFFFFFFFDB
:10458000FFF03EDDFC0FFFFFFFFFE00180000000B9
:1045900000103F23F81FFFFFFFFFE001FFFFFFFFB9
:1045A000FFF03FFFFF3FFFFFFFFFE001FFFFFFFFC7
:1045B000FFF03FFFF8FFFFFFFFFFF001800000006A
:1045C00000183FFFFFFFFFFFFFFFF001FFFFFFFFAE
:1045D000FFF83FFFFFFFFFFFFFFFF001FFFFFFFFBF
:1045E000FFF83FE7FFFFFFFFFFFFF001FFFFFFFFC7
:1045F000FFF83F97FDFFFFFFFFFFF0018000000085
:1046000000183F77F80FFFFFFFFFF001FFFFFFFFEC
:10461000FFF83E01F81FFFFFFFFFF00180000000E0
:1046200000183FF7FE7FFFFFFFFFF001FFFFFFFFD6
:10463000FFF83FFFFC0FFFFFFFFFF00180000000CD
:1046400000183FFFF81FFFFFFFFFF001FFFFFFFF14
:10465000FFF83FFFFF3FFFFFFFFFF001800000007A
:1046600000183FFFF8FFFFFFFFFFF001FFFFFFFF14
:10467000FFF83FFDFFFFFFFFFFFFF001FFFFFFFF20
:10468000FFF83F3DFFFFFFFFFFFFF001FFFFFFFFD0
:10469000FFF83EBDFFCFFFFFFFFFF001FFFFFFFF71
:1046A000FFF83EDDFFCFFFFFFFFFF00180000000BD
:1046B00000183EE3FFFFFFFFFFFFF001FFFFFFFFDA
:1046C000FFF83FFFFFFFFFFFFFFFF001FFFFFFFFCE
:1046D000FFF83FFFFFF3FFFFFFFFF001FFFFFFFFCA
:1046E000FFF83FFFFC4DFFFFFFFFF00180000000DF
:1046F00000183FFFF82DFFFFFFFFF00180000000D2
:1047000000183FC3F9A5FFFFFFFFF001FFFFFFFF08
:10471000FFF83F2DFB21FFFFFFFFF00180000000AD
:1047200000183F5DF833FFFFFFFFF001800000003D
:1047300000183EDDF87FFFFFFFFFF001FFFFFFFFE6
:10474000FFF83EE3FBFFFFFFFFFFF00180000000EA
:1047500000183FFFFFFFFFFFFFFFF001FFFFFFFF1C
:10476000FFF83FFFFF1FFFFFFFFFF001FFFFFFFF0D
:10477000FFF83FFFFC0FFFFFFFFFF001FFFFFFFF10
:10478000FFF83FFFF8EFFFFFFFFFF001FFFFFFFF24
:10479000FFF83F7FFBCFFFFFFFFFE001800000003D
:1047A00000183EFFF81FFFFFFFFFE001FFFFFFFFC4
:1047B000FFF83EF9F87FFFFFFFFFE00180000000F7
:1047C00000183EC7FFFFFFFFFFFFE001FFFFFFFFF5
:1047D000FFF83E3FFFFFFFFFFFFFE001800000000A
:1047E00000183FFFFFFFFFFFFFFFE001FFFFFFFF9C
:1047F000FFF83FFFFF1FFFFFFFFFE001FFFFFFFF8D
:10480000FFF83FFFFC0FFFFFFFFFE001FFFFFFFF8F
:10481000FFF83FFFF8EFFFFFFFFFE001000000009F
:1048200000183F33FBCFFFFFFFFFE001FFFFFFFF5B
:10483000FFF83ECDF81FFFFFFFFFE0010000000082
:1048400000183EDDF87FFFFFFFFFE001FFFFFFFFE5
:10485000FFF83ECDFFFFFFFFFFFFE001FFFFFFFF7F
:10486000FFF81F33FFFFFFFFFFFFE0010000000024
:1048700000181FFFFFFFFFFFFFFFC001FFFFFFFF4B
:10488000FFF81FFFFF0FFFFFFFFFC0010000000048
:1048900000181FFFFC0FFFFFFFFFC0030000000018
:1048A00000181FFFF8EFFFFFFFFFC003FFFFFFFF30
:1048B000FFF81F1DDB0FFFFFFFFFC003FFFFFFFF20
:1048C000FFF81EEDC00FFFFFFFFFC0030000000058
:1048D00000181EEBC0EFFFFFFFFFC0030000000049
:1048E00000181EE3DFDFFFFFFFFFC003FFFFFFFF36
:1048F000FFF81F0FFFFFFFFFFFFFC003FFFFFFFFDA
:10490000FFF81FFFFE7FFFFFFFFFC0030000000056
:1049100000181FFFFE7FFFFFFFFFC0030000000025
:1049200000181FFFFE7FFFFFFFFFC003FFFFFFFF19
:10493000FFF81FFFFE7FFFFFFFFF80030000000066
:1049400000181F03FFFFFFFFFFFF8003FFFFFFFFB4
:10495000FFF81EFDFFFFFFFFFFFF800300000000C8
:1049600000181EFDFF0FFFFFFFFF80030000000087
:1049700000181EFDFC0FFFFFFFF000030000000009
:1049800000181F03F8EFFFFFFF800003FFFFFFFF8A
:10499000FFF81FFFDB0FFFFFFE0000030000000019
:1049A00000181FFFC00FFFFFF8000003FFFFFFFF0D
:1049B000FFF81FFFC0EFFFFFF003F8030000000047
:1049C00000181FFFDFDFFFFFE007FC03FFFFFFFF13
:1049D000FFF81FFFFFFFFFFFE003FC0300000000E4
:1049E00000F01FFFFB8FFFFFF001FC020000000042
:1049F00001C01FFFF80FFFFFF800000200000000D9
:104A000003800FFF986FFFFFFF000002000000000F
:104A1000060007FF9FDFFFFFFFFC0003FFFFFFFF14
:104A2000FC0003FFFFFFFFFFFFFF8002000000000C
:104A3000380000F1FFCFFFFFFFFC00020000000084
:104A400060000003FCEFFFFFFFF00007FFFFFFFF28
:104A5000C0000007F86FFFFFFF800007FFFFFFFFA8
:104A6000C000000FFA0FFFFFFF003C07FFFFFFFF32
:104A70008000401FFB9FFFFFFE00FE07FFFFFFFFC0
:104A80008001E03FF9FFFFFFFE00FC07FFFFFFFF93
:104A9000C00FF8FFFFFFFFFFFF000007FFFFFFFF52
:104AA000FFFFFFFFFFFDFFFFFFF00007FFFFFFFF1E
:104AB000FFFFFFFFFB81FFFFFFFFFF07FFFFFFFF80
:104AC000FFFFFFFFF805FFFFFFFFFFFFFFFFFFFFF7
:104AD000FFFFFFFFF82DFFFFFFFFFFFFFFFFFFFFBF
:104AE000FFFFFFFFFDCFFFFFFFFFFFFFFFFFFFFF08
:104AF000FFFFFFFFF81FFFFFFFFFFFFFFFFFFFFFAD
:104B0000FFFFFFFFF83FFFFFFFFFFFFFFFFFFFFF7C
:104B1000FFFFFFFFFFFFFFFFFFFFFFFFFFFFFFFFA5
:104B2000FFFFFFFFFFFFFFFFFFFFFFFFFFFFFFFF95
:104B3000FFFFFFFFFF8FFFFFFFFFFFFFFFFFFFFFF5
:104B4000FFFFFFFFD80FFFFFFFFFFFFFFFFFFFFF8C
:104B5000FFFFFFFFC01FFFFFFFFFFFFFFFFFFFFF84
:104B6000FFFFFFFFC7FFFFFFFFFFFFFFFFFFFFFF8D
:104B7000FFFFFFFFFFFFFFFFFFFFFFFFFFFFFFFF45
:104B8000FFFFFFFFFFFFFFFFFFFFFFFFFFFFFFFF35
:104B9000FFFFFFFFFF0FFFFFFFFFFFFFFFFFFFFF15
:104BA000FFFFFFFFFC0FFFFFFFFFFFFFFFFFFFFF08
:104BB000FFFFFFFFF9EFFFFFFFFFFFFFFFFFFFFF1B
:104BC000FFFFFFFFFB0FFFFFFFFFFFFFFFFFFFFFE9
:104BD000FFFFFFFFF80FFFFFFFFFFFFFFFFFFFFFDC
:104BE000FFFFFFFFF85FFFFFFFFFFFFFFFFFFFFF7C
:104BF000FFFFFFFFFFFFFFFFFFFFFFFFFFFFFFFFC5
:104C0000FFFFFFFFFFF9FFFFFFFFFFFFFFFFFFFFBA
:104C1000FFFFFFFFFDFDFFFFFFFFFFFFFFFFFFFFA8
:104C2000FFFFFFFFF803FFFFFFFFFFFFFFFFFFFF97
:104C3000FFFFFFFFFC0FFFFFFFFFFFFFFFFFFFFF77
:104C4000FFFFFFFFFFDFFFFFFFFFFFFFFFFFFFFF94
:104C5000FFFFFFFFF83FFFFFFFFFFFFFFFFFFFFF2B
:104C6000FFFFFFFFFFFFFFFFFFFFFFFFFFFFFFFF54
:104C7000FFFFFFFFFFFFFFFFFFFFFFFFFFFFFFFF44
:104C8000FFFFFFFFFFFFFFFFFFFFFFFFFFFFFFFF34
:104C9000FFFFFFFFFFCFFFFFFFFFFFFFFFFFFFFF54
:104CA000FFFFFFFFFFCFFFFFFFFFFFFFFFFFFFFF44
:104CB000FFFFFFFFFFFFFFFFFFFFFFFFFFFFFFFF04
:104CC000FFFFFFFFFFFFFFFFFFFFFFFFFFFFFFFFF4
:104CD000FFFFFFFFFF1FFFFFFFFFFFFFFFFFFFFFC4
:104CE000FFFFFFFFFC0FFFFFFFFFFFFFFFFFFFFFC7
:104CF000FFFFFFFFF9EFFFFFFFFFFFFFFFFFFFFFDA
:104D0000FFFFFFFFFBEFFFFFFFFFFFFFFFFFFFFFC7
:104D1000FFFFFFFFF9DFFFFFFFFFFFFFFFFFFFFFC9
:104D2000FFFFFFFFFFFFFFFFFFFFFFFFFFFFFFFF93
:104D3000FFFFFFFFFFFFFFFFFFFFFFFFFFFFFFFF83
:104D4000FFFFFFFFFFFFFFFFFFFFFFFFFFFFFFFF73
:104D5000FFFFFFFFFF1FFFFFFFFFFFFFFFFFFFFF43
:104D6000FFFFFFFFFC0FFFFFFFFFFFFFFFFFFFFF46
:104D7000FFFFFFFFF8EFFFFFFFFFFFFFFFFFFFFF5A
:104D8000FFFFFFFFFBCFFFFFFFFFFFFFFFFFFFFF67
:104D9000FFFFFFFFF81FFFFFFFFFFFFFFFFFFFFF0A
:104DA000FFFFFFFFF87FFFFFFFFFFFFFFFFFFFFF9A
:104DB000FFFFFFFFFFFFFFFFFFFFFFFFFFFFFFFF03
:104DC000FFFFFFFFFFFFFFFFFFFFFFFFFFFFFFFFF3
:104DD000FFFFFFFFFFFFFFFFFFFFFFFFFFFFFFFFE3
:104DE000FFFFFFFFFB8FFFFFFFFFFFFFFFFFFFFF47
:104DF000FFFFFFFFF80FFFFFFFFFFFFFFFFFFFFFBA
:104E0000FFFFFFFFF87FFFFFFFFFFFFFFFFFFFFF39
:104E1000FFFFFFFFFE8FFFFFFFFFFFFFFFFFFFFF13
:104E2000FFFFFFFFF80FFFFFFFFFFFFFFFFFFFFF89
:104E3000FFFFFFFFF87FFFFFFFFFFFFFFFFFFFFF09
:104E4000FFFFFFFFFE8FFFFFFFFFFFFFFFFFFFFFE3
:104E5000FFFFFFFFF80FFFFFFFFFFFFFFFFFFFFF59
:104E6000FFFFFFFFF86FFFFFFFFFFFFFFFFFFFFFE9
:104E7000FFFFFFFFFFDFFFFFFFFFFFFFFFFFFFFF62
:104E8000FFFFFFFFFFFFFFFFFFFFFFFFFFFFFFFF32
:104E9000FFFFFFFFFFFFFFFFFFFFFFFFFFFFFFFF22
:104EA000FFFFFFFFFFFFFFFFFFFFFFFFFFFFFFFF12
:104EB000FFFFFFFFFFFFFFFFFFFFFFFFFFFFFFFF02
:104EC000FFFFFFFFFFFFFFFFFFFFFFFFFFFFFFFFF2
:104ED000FFFFFFFFFFFFFFFFFFFFFFFFFFFFFFFFE2
:104EE000FFFFFFFFFFFFFFFFFFFFFFFFFFFFFFFFD2
:104EF000FFFFFFFFFFFFFFFFFFFFFFFFFFFFFFFFC2
:104F0000FFFFFFFFFFFFFFFFFFFFFFFFFFFFFFFFB1
:104F1000FFFFFFFFFFFFFFFFFFFFFFFFFFFFFFFFA1
:104F2000FFFFFFFFFFFFFFFFFFFFFFFFFFFFFFFF91
:104F3000FFFFFFFFFFFFFFFFFFFFFFFFFFFFFFFF81
:104F4000FFFFFFFFFFFFFFFFFFFFFFFFFFFFFFFF71
:104F5000FFFFFFFFFFFFFFFFFFFFFFFFFFFFFFFF61
:104F6000FFFFFFFFFFFFFFFFFFFFFFFFFFFFFFFF51
:104F7000FFFFFFFFFFFFFFFFFFFFFFFFFFFFFFFF41
:104F8000FFFFFFFFFFFFFFFFFFFFFFFFFFFFFFFF31
:104F9000FFFFFFFFFFFFFFFFFFFFFFFFFFFFFFFF21
:104FA000FFFFFFFFFFFFFFFFFFFFFFFFFFFFFE0011
:104FB00000FFFFFFFFFFFFFFFFFFFFFFFFFF0000FE
:104FC00000FFFFFFFFFFFFFFFFFFFFFFFFE000000D
:104FD0000FFFFFFFFFFFFFFFFFFFFFFFFE000000CF
:104FE0003FFFFFFFFFFFFFFFFFFFFFFFF00000019C
:104FF000FFFFFFFFFFFFFFFFFFFFFFFF800000003D
:10500000003FFFFFFEFFFFFFFFFFFFFC000000006F
:105010000000FFFFFDBFFFFFFFFFFFF0000FFFFFDE
:10502000FFFF03FFF87FFFFFFFFFFFC007FFFFFF4A
:10503000FFFFFC3FE0FFFFFFFFFFFF007FFFFFFFE1
:10504000FFFFFFC3E03FFFFFFFFFFC07FFFFFFFF86
:10505000FFFFFFFC00FFFFFFFFFFF83FFFFFFFFF29
:10506000FFFFFFFF001FFFFFFFFFE0FFFFFFFFFF4E
:10507000FFFFFFFF807FFFFFFFFFC3FFFFFFFFFF7B
:10508000FFFFFFFF80FFFFFFFFFF87FFFFFFFFFF27
:10509000FFFFFFFFC0BFFFFFFFFF0FFFFFFFFFFF8F
:1050A000FFFFFFFFC07FFFFFFFFE1FFFFFFFFFFFB0
:1050B000FFFFFFFFC1FFFFFFFFFC3FFFFFFFFFFF01
:1050C000FFFFFFE003FFFFFFFFF87FFFFFFFFFFF92
:1050D000FFFFFF1FFFFFFFFFFFF0FFFFFFFFFFFFCF
:1050E000FFFFFEFFFFFFFFFFFFE0FFFFFFFFFFFFF0
:1050F000FFFFFDFFFFFFFFFFFFC1FFFFFFFFFFFF00
:10510000FFFFFDFFFFFFFFFFFF83FFFFFFFFFFFF2D
:10511000FFFFFBFFFFFFFFFFFF03FFFFFFFFFFFF9F
:10512000FFFFFBFFFFFFFFFFFE07FFFFFFFFFFFF8C
:10513000FFFFFBFFFFFFFFFFFC0FFFFFFFFFFFFF76
:10514000FFFFFBFFFFFFFFFFF80FFFFFFFFFFFFF6A
:10515000FFFFFBFFFFFFFFFFE01FFFFFFFFFFFFF62
:10516000FFFFFBFFFFFFFFFF803FFFFFFFFFFFFF92
:10517000FFFFFDFFFCFFFFFE7C7FFFFFFFFFFFFF48
:10518000FFFFFDFFF9FFFFF9801FFFFFFFFFFFFF9C
:10519000FFFFFDFFF23FFFF6001FFFFFFFFFFFFFD6
:1051A000FFFFFEFFE47FFFE0000FFFFFFFFFFFFFB9
:1051B000FFFFFEFFC07FFFC0000FFFFFFFFFFFFFED
:1051C000FFFFFF7F801FFF80000FFFFFFFFFFFFF3C
:1051D000FFFFFFBF001FFF0000183FFFFFFFFFFFA3
:1051E000FFFFFFCE001FFE0000101FFFFFFFFFFFAD
:1051F000FFFFFFF0003FFE0000000FFFFFFFFFFF7B
:10520000FFFFFFFE001FFC00000007FFFFFFFFFF86
:10521000FFFFFFFE003FFC00000007FFFFFFFFFF56
:10522000FFFFFFFF007FFC00000003FFFFFFFFFF09
:10523000FFFFFFFF00FFF80003FF01FFFFFFFFFF7D
:10524000FFFFFFFFC1FFF8000FFFC1FFFFFFFFFFE0
:10525000FFFFFFFFE7FFF8001FFFE0FFFFFFFFFF7B
:10526000FFFFFFFFCFFFF8003FFFF0FFFFFFFFFF53
:10527000FFFFFFFE1FFFF8007FFFF87FFFFFFFFF2C
:10528000FFFFFFF1FFFFFC607FFFFC07FFFFFFFF59
:10529000FFFFFFCFFFFFFC60FFFFFE003FFFFFFFB0
:1052A000FFFFFE3FFFFFFCE1FFFFF60000000000F4
:1052B000000001FFFFFFFCE3FFFFF700000000001C
:1052C00000001FFFFFFFFCE3FFFFE7C0000000003E
:1052D00003FFFFFFFFFFFCE7FFFFE7F00000000018
:1052E000003FDFFFFFFFFCC7FFFFE7FE00000000FD
:1052F0000007DFFFFFFFFCCFFFFFE7FF800000009C
:105300000001CFFFFFFFFD9FFFFFEBFFF7800000D5
:105310000003CFFFFFFFFDBFFFFFEBFFCFFFF0005C
:1053200000078FFFFFFFFDBFFFFFEDFFBFFFFFFF88
:10533000FFFB9FFFFFFFFC7FFFFFC5FF7FFFFFFF1E
:10534000FFFC1FFFFFFFFC7FFFFFC4FEFFFFFFFF0F
:10535000FFFE1FFFFFFFFCFFFFFFC0FDFFFFFFFF82
:10536000FFFE3FFFFFFFFCFFFFFFC003FFFFFFFF4C
:10537000FFF0FFFFFFFFFCFFFFFFC0067FFFFFFF07
:10538000FFF7FFFFFFFFFDFFFFFFC0040FFFFFFF61
:10539000FFF3FFFFFFFFFDFFFFFFC00803FFFFFF5D
:1053A000FFFCFFFFFFFFFDFFFFFFE00801FFFFFF26
:1053B000FFFE7FFFFFFFFDFFFFFFF0F800FFFFFF95
:1053C000FFFF7FFFFFFFFDFFFFFFF8F0007FFFFF04
:1053D000FFFF0FFFFFFFFFFFFFFFFCF0003FFFFF9E
:1053E000FFFF07FFFFFFFFFFFFFFFE0000001FFFA3
:1053F000FFFE0FFFFFFFFFFFFFFFFFFFE0000001C9
:10540000FFF9EFFFFFFFFFFFFFFFFFFFF0000000CE
:105410000007E7FFFFFFFFFFFFFFFFFFFC000000AB
:1054200001FFE7FFFFFFFFFFFFFFFFFFFE000000A0
:1054300000FFF7FFFFFFFFFFFFFFFFFFFF80000000
:1054400000FFFFFFFFFFFFFFFFFFFFFFFFC00000A8
:1054500001FFFFFFFFFFFFFFFDFFFFFFFFF0000069
:1054600001FFFFFFFFFFFFFFFDFFFFFFFFFE003F0C
:10547000FC3FFFFFFFFFFFFFFDFFFFFFFFFF07FFF9
:10548000FF83FFFFFFFFFFFFFCFFFFFFFFFE3FFF6C
:10549000FFF87FFDFFFFFFFFFC7FFFFFFFF1FFFF36
:1054A000FFFF07F9FFFFFFFFFD7FFFFF7F8FFFFF7C
:1054B000FFFFF0F0FFFFFFFFFFBFFFFF7E3FFFFF9B
:1054C000FFFFFE21FFFFFFFFFEDFFFFFB9FFFFFF32
:1054D000FFFFFF81FFFFFFFFFECFFFFF87FFFFFF03
:1054E000FFFFFF81FFFFFFFFFE67FFFF3FFFFFFFA3
:1054F000FFFFFF81FFFFFFFFFF43FFFCFFFFFFFFF9
:10550000FFFFFE31FFFFFFFFFF00FFE3FFFFFFFF95
:10551000FFFFF8FFFFFFFFFFFF003F1FFFFFFFFF41
:10552000FFFFF3FFFFFFFFFFFF0000FFFFFFFFFF95
:10553000FFFFF7FFFFFFFFFFFF000FFFFFFFFFFF72
:10554000FFFFF3FFFFFFFFFFFF000FFFFFFFFFFF66
:10555000FFFFFBFFFFFFFFFFFF000C3FFFFFFFFF11
:10556000FFFFFBFFFFFFFFFFFF80003FFFFFFFFF8D
:10557000FFFFFBFFFFFFFFFFFF80101FFFFFFFFF8D
:10558000FFFFF9FEFFFFFFFFFFC0301FFFFFFFFF20
:10559000FFFFFC3CFFFFFFFFFFE1E00FFFFFFFFF0E
:1055A000FFFFFE003FFFFFFFFFFBC007FFFFFFFF06
:1055B000FFFFFF003FFFFFFFFFFFE703FFFFFFFFCE
:1055C000FFFFFF003FFFFFFFFFFFF7C1FFFFFFFFF0
:1055D000FFFFFE007FFFFFFFFFFFF7F0FFFFFFFF72
:1055E000FFFFF9FE7FFFFFFFFFFFF3F83FFFFFFF25
:1055F000FFFFE7FFFFFFFFFFFFFFF7FE0FFFFFFFCC
:10560000FFFF1FFFFFFFFFFFFFFFF1FF07FFFFFF90
:10561000FFFCFFFFFFFFFFFFFFFFF07F80FFFFFFAB
:10562000FFC3FFFFFFFFFFFFFFFFF00FC00FFFFFF4
:10563000FC1FFFFFFFFFFFFFFFFFF01E60000000E9
:1056400003FFFFFFFFFFFFFFFFFFF0181800000040
:1056500001FFFFFFFFFFFFFFFFFFF0180E0000003C
:10566000001FFFFFFFFFFFFFFFFFF030078000007C
:105670000007FFFFFFFFFFFFFFFFFBE007E0000069
:105680000003FFFFFFFFFFFFFFFFFDE001FE000043
:105690000003FFFFFFFFFFFFFFFFFEC0007FF000E2
:1056A0000007FFFF9FFFFFFFFFFFFFFE001FFF0040
:1056B000000FFFFFC3FFFFFFFFFFFFFF800FFFF0A3
:1056C000000FFFFFF8FFFFFFFFFFFFF7E0003FFEC7
:1056D000003FFFFFC3FFFFFFFFFFFFF3F00000F9F4
:1056E000FFFFFFFF9FFFFFFFFFFFFFE3F800000743
:1056F000FFFFFFFFE1FFFFFFFFFFFFEDFE000001E7
:10570000FFFFFFFFFCFFFFFFFFFFFFCE7FC000009A
:10571000FFFFFFFFE3FFFFFFFFFFFFE43FFC007F12
:10572000FFFFFFFF9FFFFFFFFFFFFFF03FFFF9FFBE
:10573000FFFFFFFFFFFFFFFFFFFFFFFF9FFFFBFFDD
:10574000FFFFFFFF9FFFFFFFFFFFFFFFCFFFFDFFFB
:10575000FFFFFFFFC3FFFFFFFFFFFFFFE7FFFE3F6E
:10576000FFFFFFFFF8FFFFFFFFFFFFFFF07FFC3FA2
:10577000FFFFFFFFC3FFFFFFFFFFFFFFF807E1FF92
:10578000FFFFFFFF9FFFFFFFFFFFFFFFFE001FFF69
:10579000FFFFFFFFE1FFFFFFFFFFFFFFFFF00FFF36
:1057A000FFFFFFFFFCFFFFFFFFFFFFFFFFFFCFFF3C
:1057B000FFFFFFFFE3FFFFFFFFFFFFFFFFFFFFFF15
:1057C000FFFFFFFF9FFFFFFFFFFFFFFFFFFFFFFF49
:1057D000FFFFFFFFFFFFFFFFFFFFFFFFFFFFFFFFD9
:1057E000FFFFFFFFFFFFFFFFFFFFFFFFFFFFFFFFC9
:1057F000FFFFFFFF9FFFFFFFFFFFFFFFFFFFFFFF19
:10580000FFFFFFFFC3FFFFFFFFFFFFF807FFFFFFE3
:10581000FFFFFFFFF8FFFFFFFFFFFFC7F03FFFFFA6
:10582000FFFFFFFFC3FFFFFFFBFFFF3FFFC7FFFFC0
:10583000FFFFFFFF9FFFFFFFFBFC1CFFFFF8FFFFC9
:10584000FFFFFFFFE1FFFFFFFBF803FFFFFF1FFF6D
:10585000FFFFFFFFFCFFFFFFF3F003FFFFFFE3FF8E
:10586000FFFFFFFFE3FFFFFFF3F1041FFFFFFCFF5C
:10587000FFFFFFFF9FFFFFFFF3F0080FFFFFFF3F5A
:10588000FFFFFFFFFFFFFFFFF7F00007FFFFFFCF66
:10589000FFFFFFFFFFFFFFFFF7F80007FFFFFFF627
:1058A00000FFFFFFFCFFFFFFF7FFFE03FFFE03F01B
:1058B000007FFFFFFCFFFFFFF7FFFF03FF01FC007E
:1058C00000FFFFFFFFFFFFFFF7FFFF83F0FFFFFF7A
:1058D00001FFFFFFFFFFFFFFF7FFFFC1CFFFFFFF4C
:1058E000E3FFFFFFFFFFFFFFF3FFFFE03FFFFFFFCF
:1058F000FC7FFFFFC1BFFFFFF3FFFFF3FFFFFFFFD1
:10590000FF9FFFFF9CDFFFFFF2FFFFE7FFFFFFFFAF
:10591000FFE7FFFFBEDFFFFFE07FFF1FFFFFFFFF8F
:10592000FFF3FFFFBEDFFFFFE03FF8FFFFFFFFFFDA
:10593000FFFCFFFFDDBFFFFFE01F07FFFFFFFFFFD3
:10594000FFFF7CFF807FFFFFE000FFFFFFFFFFFF07
:10595000FFFFB8FFFFFFFFFFE00FFFFFFFFFFFFFAD
:10596000FFFFC0FFFFFFFFFFE00FFFFFFFFFFFFF95
:10597000FFFFC0FFFFFFFFFFE0103FFFFFFFFFFF44
:10598000FFFFC0FFC1FFFFFFE7E00FFFFFFFFFFFCB
:10599000FFFFC0FF9CFFFFFFE7C001FFFFFFFFFF0E
:1059A000FFFE3FFFBEFFFFFFF3C000FFFFFFFFFF53
:1059B000FFFDFFFFBEFFFFFFF800007FFFFFFFFFBF
:1059C000FFFDFFBF9CFFFFFFFF80001FFFFFFFFFEA
:1059D000FFFDFF3FC1FFFFFFFFFC0007FFFFFFFFD1
:1059E000FFF9FE7FFFFFFFFFFFFC0001FFFFFFFF4E
:1059F000FFFE785FFFFFFFFFFFF9E001FFFFFFFF02
:105A0000FFFF703FFFFFFFFFFFFBF000FFFFFFFF07
:105A1000FFFF007FFFFFFFFFFFF7F8003FFFFFFFE3
:105A2000FFFF001FC1FFFFFFFFFFFC00003FFFFF64
:105A3000FFFF00FF9CFFFFFFFFFFFE0000007FFF56
:105A4000FFFF00FFBEFFFFFFFFFFBF00000001FFE1
:105A5000FFFE003FBEFFFFFFFFFFBF800000000F03
:105A6000FFE0F8FF9CFFFFFFFFFFBFC0000000004A
:105A70007E1FFFFFC1FFFFFFFFFF9FE00000000050
:105A800001FFFFFFFFFFFFFFFFFF83E000000000BB
:105A900000FFFFFFFFFFFFFFFFFF8200000000008D
:105AA000001FFFFFFFFFFFFFFFFF9C000000000043
:105AB0000007FFFFC1FFFFFFFFFFD800000000004D
:105AC0000001FFFF9CFFFFFFFFFFD0000000000070
:105AD0000001FFFFBEFFFFFFFFFFFC001C000000F6
