:100000000C94ED030C9434040C9434040C943404D8
:100010000C9434040C9434040C9434040C94340480
:100020000C9434040C9434040C94422E0C94162F2B
:100030000C9498280C9434040C9434040C943404D8
:100040000C9434040C9434040C9434040C94340450
:100050000C9434040C94EF280C9434040C94340461
:100060000C9434040C9434040C9434040C94340430
:100070000C9434040C9434040C9434040C94340420
:100080000C9434040C9434040C9434040C94340410
:100090000C9434040C9434040C9434040C94340400
:1000A0000C9434040C9434040C94340452474220CD
:1000B00053455455500A0042494F530A0011502AE3
:1000C00000000000000000570056005F0060006163
:1000D00000550054005C005D005E000000580059AF
:1000E000005A005B00AA00A9004C006200630012E5
:1000F000502A00000000000000440045004000417C
:10010000004200010001003D003E003F00000028C9
:10011000003A003B003C0050004F00010043004CFF
:10012000001050005C000000000000C65CC75C01CD
:100130000001000100C85CC95C0100010001000071
:1001400000C35C010001000100010001000100C4C6
:100150005C01000000000000000000000000000042
:10016000000000000000000000000000000000008F
:10017000000000000000000000000000000000007F
:10018000000000000000000000000000000400006B
:10019000000000000000000000000000000000005F
:1001A000000000000200000000000000000000004D
:1001B000000000000000000000000000000000003F
:1001C000000000000000000000000000000000002F
:1001D000000000000000000000000000000000001F
:1001E000000000000000000000000000000000000F
:1001F00000000000000000000000000000000040BF
:1002000020100000000080000000000080000000BE
:10021000000000000000200000008000000000003E
:1002200000000000000000800000000000008000CE
:1002300000000000000000000000000000000000BE
:1002400000000000000000000000000000000000AE
:10025000000000000000000000000000000000009E
:10026000000000000000000000000000000000008E
:10027000000000000000000000000020000000005E
:10028000000000000000000000002004000000202A
:1002900010080000042420000000001020000000CE
:1002A00008020000200000004000000000010000E3
:1002B000000000000000000000000000000000003E
:1002C000000000000000000000000000000000002E
:1002D000000000000000000000000000000000001E
:1002E000000000000000000000000000000000000E
:1002F00000000000000000000000000000000000FE
:1003000000000000000000000000000000000000ED
:10031000000000000000000000000000004040005D
:1003200000000000000000000000000000000000CD
:1003300000000000000000000000000000000000BD
:1003400000000000000000000000000000000000AD
:1003500000000000000000000000002A2B28000020
:100360000000000000000000000000000000290064
:100370000000002C1E3420212224342627252E366E
:100380002D3738271E1F20212223242526333336DC
:100390002E37381F0405060708090A0B0C0D0E0F2F
:1003A000101112131415161718191A1B1C1D2F31B2
:1003B00030232D350405060708090A0B0C0D0E0F16
:1003C000101112131415161718191A1B1C1D2F3192
:1003D00030354C000000000000000000000000006C
:1003E000000000000000000000000000000000000D
:1003F000000000000000007E0F00D4FFFFFFC700D8
:100400000000781E0F0500047F3F1F643214643221
:1004100014783C1E1E140A052223252628292A2C7E
:100420002D2F3032333536383A3B3D3E404243453E
:1004300047494A4C4E5051535557595A5C5E606279
:10044000646668696B6D6F71737577797B7D7F8189
:10045000838587898A8C8E90929496989A9C9E9F89
:10046000A1A3A5A7A8AAACAEAFB1B3B4B6B8B9BBA7
:10047000BCBEBFC1C2C3C5C6C7C9CACBCCCDCED016
:10048000D1D2D2D3D4D5D6D7D7D8D9D9DADADBDB03
:10049000DBDCDCDCDCDCDDDDDDDDDCDCDCDCDCDB9A
:1004A000DBDBDADAD9D9D8D7D7D6D5D4D3D2D2D1E3
:1004B000D0CECDCCCBCAC9C7C6C5C3C2C1BFBEBCD6
:1004C000BBB9B8B6B4B3B1AFAEACAAA8A7A5A3A147
:1004D0009F9E9C9A98969492908E8C8A8987858309
:1004E000817F7D7B79777573716F6D6B69686664E9
:1004F00062605E5C5A5957555351504E4C4A4947B9
:10050000454342403E3D3B3A3836353332302F2D5D
:100510002C2A292826252322FFAA7F5540000102E4
:10052000030405060708090A0B0C0D0E1314150F1A
:100530001011120001010101010101010102020279
:10054000020202020202030303030303030304047F
:100550000404040404050505050506060606060749
:100560000707070708080808090909090A0A0A0B02
:100570000B0B0C0C0C0D0D0D0E0E0E0F0F0F1010A3
:10058000111111121213131414151516161717182A
:100590001819191A1A1B1B1C1D1D1E1E1F20202195
:1005A0002222232424252626272829292A2B2C2DDC
:1005B0002D2E2F30313232333435363738393A3BFD
:1005C0003C3D3E3F404142434445464748494A4CF2
:1005D0004D4E4F50515354555658595A5B5D5E5FBE
:1005E000616264656668696B6C6D6F707273757754
:1005F000787A7B7D7E8082838587888A8C8E8F91B6
:10060000939596989A9C9EA0A2A3A5A7A9ABADAFDF
:10061000B1B3B5B7BABCBEC0C2C4C6C9CBCDCFD1C9
:10062000D4D6D8DBDDDFE2E4E7E9EBEEF0F3F5F872
:10063000FAFDFF00AE00AF00DA0281FFD9F1DB2046
:10064000A4A62EAF00A0C000A1C800AED580A81FF0
:10065000D300408D14200028034C004E004B005363
:100660000059002D004F004C00450044002D004B68
:10067000004500590042004F004100520044000074
:1006800000160371006D006B006200750069006C5C
:100690000064006500720000000403090409025BA5
:1006A00000030100A0FA0904000001030101000990
:1006B00021110100012240000705810308000A09F9
:1006C000040100020300000009211101000122229F
:1006D000000705820320000107050303200001092C
:1006E0000402000103000000092111010001226D34
:1006F000000705840320000A120110010000000811
:10070000AEAE66600100010200010660FF0961A152
:10071000010962150026FF00952075088102096312
:10072000150026FF00952075089102C0050109807B
:10073000A101850319012AB700150126B70095010B
:1007400075108100C0050C0901A101850419012A59
:10075000A002150126A002950175108100C00501B7
:100760000906A1018505050719E029E715002501FE
:100770009508750181020507190029EF150025016B
:1007800095F0750181020508190129059505750186
:100790009102950175039101C005010906A10105AA
:1007A0000719E029E71500250195087501810295D3
:1007B00001750881010507190029FF150026FF00B2
:1007C000950675088100050819012905950575012B
:1007D0009102950175039101C00011241FBECFEF56
:1007E000DAE0DEBFCDBF04B603FE27C08091BD05B1
:1007F0009091BE05A091BF05B091C0058730904B88
:10080000A740B04BD1F41092BD051092BE051092D6
:10081000BF051092C00514BE84B7877F84BF0FB692
:10082000F894A89580916000886180936000109290
:1008300060000FBEE0E0F8E3099511E0A0E0B1E050
:10084000E6E1F5E602C005900D92AA3EB107D9F7A0
:1008500025E0AAEEB1E001C01D92AD3BB207E1F781
:100860000E94002B0C943A320C94000008950895D5
:1008700081E00895262F811142C06091020370919A
:10088000030380910403909105032223F1F00E9459
:10089000940640E064E00E94F3140E94401D8FE340
:1008A0009CE90197F1F700C000006091020370918C
:1008B000030380910403909105030E94940640E095
:1008C00064E00E94F3140C94CA1D0E94940641E057
:1008D00064E00E94F3140E94401D8FE39CE901979D
:1008E000F1F700C000006091020370910303809152
:1008F0000403909105030E94940641E0E1CF08951E
:1009000008950E9445114AED6AED8EE10C942A0D7E
:1009100082E00895609102037091030380910403C3
:10092000909105030E949406813059F0882319F0B4
:10093000823061F0089560E074E083E591E00C940A
:10094000141770E060E087EB90E0F9CF70E060E0B2
:100950008CEA90E0F4CF81E008950C943804089577
:100960000C94AF041F93CF93DF9300D000D00F926D
:10097000CDB7DEB749835A836B833091B502898145
:100980009A8131111DC06623B9F02223A9F00E947B
:100990008F25182F682F89819A810E9438256981B7
:1009A0007A81812F0F900F900F900F900F90DF9111
:1009B000CF911F910C94A7150E946625182FEFCF99
:1009C0000E948F2569817A81EDCFFC01262F40811D
:1009D00051816281738184810C94B204CF93DF933F
:1009E000EC0160E00E94E504BE01DF91CF910C9420
:1009F000B0048F929F92AF92BF92CF92DF92EF920C
:100A0000FF920F931F936B017C0181E090E0A0E0C7
:100A1000B0E04C015D0104C0880C991CAA1CBB1CF1
:100A20004A95D2F7B501A4014C015D0104C0880CC0
:100A3000991CAA1CBB1C2A95D2F7482959296A2956
:100A40007B2904C0880F991FAA1FBB1F0A95D2F7E4
:100A50008A019B010C211D212E213F21041715071E
:100A60002607370789F48C299D29AE29BF29BC01A7
:100A7000CD011F910F91FF90EF90DF90CF90BF902D
:100A8000AF909F908F90089580959095A095B09588
:100A90008C219D21AE21BF21EACF0F93382F262F25
:100AA0006091020370910303809104039091050308
:100AB000042F432F0E94F9040F910C9476240E9476
:100AC0003E290E94DB26811102C00E947F270C94E0
:100AD000E1080C94E30808950E94A2200E946B058F
:100AE0002FEF84E39CE0215080409040E1F700C06C
:100AF00000000C9413290F931F93CF93DF93EC0105
:100B000061E00E94E5048C01BE010E9490138823DD
:100B100089F1BE01C8010E94AD04882359F1BE01CC
:100B2000C8010E942319882329F1BE01C8010E942F
:100B300075198823F9F0BE01C8010E94981A88230C
:100B4000C9F0BE01C8010E943E12882399F08A8133
:100B5000882339F001158CE5180751F00F3D1C452D
:100B600079F0CE01DF91CF911F910F910C94AB04DE
:100B70000E946C0580E0DF91CF911F910F91089545
:100B80000E947F27F7CFDF92EF92FF920F931F9380
:100B9000CF93DF93E82FF0E0ED5AFC4FD490282F4D
:100BA00026952695269530E0F901ED50FC4F0491ED
:100BB000877010E0082E02C0159507950A94E2F799
:100BC00001701127F901ED51FC4FE490F12C082E32
:100BD00002C0F594E7940A94E2F791E0E922FF2439
:100BE000F901ED52FC4FC491D0E002C0D595C795F4
:100BF0008A95E2F7C170DD270115110519F081EE24
:100C00000E94401DE114F10419F086EE0E94401D7F
:100C10008D2D0E94301EEF2819F086EE0E94CA1D0D
:100C2000012B19F081EE0E94CA1DCD2B51F08CE2F0
:100C3000DF91CF911F910F91FF90EF90DF900C9477
:100C4000301EDF91CF911F910F91FF90EF90DF90B9
:100C50000895EF92FF920F931F93CF93DF93EC01D0
:100C6000162F0AE08881882309F454C0813009F0E6
:100C70004EC08981813099F47E0122E0E20EF11CA0
:100C80008A810E94301EE7012196812F815050F306
:100C9000EFE9FFE03197F1F700C00000F7CF8230B5
:100CA00041F47E0182E0E80EF11C8A810E94401D21
:100CB000EACF833041F47E01E2E0EE0EF11C8A813E
:100CC0000E94CA1DE0CF843011F02196DDCF2A8129
:100CD000229690E080E0AE014F5F5F4F2053330BD0
:100CE0002A30310548F0019778F2EFE9FFE03197BB
:100CF000F1F700C00000F7CF089FB001099F700D09
:100D00001124C901860F971F2981EA01E4CF0E94AF
:100D1000C305BACFDF91CF911F910F91FF90EF9054
:100D2000089560E00C942906CF92DF92EF92FF9233
:100D30006C01EE24FF2420E0C114D104E104F1048D
:100D400019F0C701B60120E1C72ED82EE92EFF24E5
:100D5000C114D104E104F10419F0285FC701B60100
:100D60006B017C0154E0F694E794D794C7945A95AC
:100D7000D1F7C114D104E104F10419F02C5FC701CB
:100D8000B6016B017C0142E0F694E794D794C794D6
:100D90004A95D1F7C114D104E104F10419F02E5F92
:100DA000C701B6019695879577956795672B682B50
:100DB000692B09F02F5F822FFF90EF90DF90CF908B
:100DC00008950C94800481E008950C94E306CF9379
:100DD000C82F0E94E1068C2FCF910C94E50690E07D
:100DE00080E008950895FC01EE0FFF1FED5FFB4FBB
:100DF000859194910895CF93DF930E94A7150E9447
:100E00000708EC01811520E5920708F041C0811523
:100E100030E4930708F0B4C0803E910518F5803C9B
:100E2000910508F09DC0883A910570F4853A9105C6
:100E300008F08EC081309105F9F00097E9F0049731
:100E4000D8F4D0E0C0E018C08F3B9105D0F7C85A65
:100E5000D0E0CC0FDD1FC55DDE4F0990D881C02DDD
:100E6000D4640AC08115904258F4C11581E0D807B6
:100E700018F4C83ED10528F7CE01DF91CF9108952F
:100E8000C11590E3D90708F071C0CE019F706AC008
:100E9000811525E5920758F5811534E5930708F08B
:100EA0009EC0811542E5940750F4C11581E5D8072D
:100EB00008F469C0DC2FCC27C16FD06ADDCF982F32
:100EC000969596959E0123703327C115D34508F05A
:100ED00077C0C1E0D0E002C0CC0FDD1F2A95E2F759
:100EE00020E2929FC0011124C82BD92B67C0C115E5
:100EF00089E5D807A8F4C11598E5D90708F074C0AA
:100F0000C11526E5D20708F09CCF8C2F0E949E08C1
:100F1000C82FD0E0DC2FCC27CC27DF71D062ACCF3C
:100F2000C1153AE5D30708F464C0CE019056811587
:100F3000904208F086CF8D2F8F710E949E0890E01E
:100F4000982F882788279F719C012C2BE901E6CFD9
:100F5000C55AD0E0C75ADE4FC881D0E0D0648CCFEC
:100F6000805C91090E94F306EC0186CFCE0199279F
:100F7000D3FF03C0EC01D86C7FCFEC01D06C7CCFE9
:100F8000DF70D06A79CFCE01E4E096958795EA9537
:100F9000E1F783702C2F26952695237090E2299FE8
:100FA00090011124382B8C2F8370C1E0D0E002C057
:100FB000CC0FDD1F8A95E2F7C22BD32BDC685CCF08
:100FC000C1E0D0E002C0CC0FDD1F2A95E2F730E28D
:100FD000939FC0011124C82BD92BDA684DCFD82F8D
:100FE000CC27C46FD06A48CFDC2FCC27C06FD06A23
:100FF00043CF8C2F8F700E949E0834E0D695C79502
:101000003A95E1F7CF709C2FEC01D06935CF82384B
:101010009105B1F1B0F48133910509F475C048F43C
:101020008932910509F469C08A32910509F473C0C7
:1010300008958533910509F459C08933910501F16B
:101040000895833E9105A9F138F4803E9105F9F0A9
:10105000823E910549F10895863E9105A9F1873EAA
:101060009105C9F1843E910519F52091AF0521FF45
:101070001FC08091AE0584FD14C087EE90E00895F6
:101080002091AE052370A1F080EE90E008952091AC
:10109000AE0520FD47C03091AF0530FF09C024FFE9
:1010A00044C090E080E004C02091AE0522FDF7CF5F
:1010B00008952091AE0522FD3BC03091AF0530FD73
:1010C000E3CF24FFF5CFEDCF2091AE0523FFF0CF86
:1010D00024FDE7CFD2CF2091AE0523FD2CC0309167
:1010E000AF0531FFEECF84EE90E008952091AE057C
:1010F00025FFDECF89E290E008952091AE0525FF1F
:10110000D7CF85E390E008952091AE0526FFD0CF9C
:101110008AE290E008952091AE0526FFC9CF81E3D1
:1011200090E0089589E390E0089583EE90E00895BB
:1011300082EE90E0089586EE90E008959091AE05DD
:1011400092FF06C0282F28712830F9F4877F846029
:1011500093FF06C0282F28712831F1F4877E84611F
:101160002091AF0520FF06C0382F38713830D9F4F0
:10117000877F816021FF06C0282F28712831D1F494
:10118000877E816194FD877E0895282F2471243005
:10119000F9F68B7F8860DCCF282F2471243101F78A
:1011A0008B7E8861DDCF382F3171313019F78E7F1A
:1011B0008860E0CF282F2171213121F78E7E886150
:1011C000E1CF0C9436040C943704E82FF0E0E85A91
:1011D000FC4F80810895089580EA8A95F1F708957B
:1011E00000C008950C94EC08F894E82FE295EF7095
:1011F000F0E031A1282F2F7081E090E001C0880F2E
:101200002A95EAF7982F9095932391A392A1892B81
:1012100082A37894089582E30E94F40887E30E94F1
:10122000F40884EF0E94F40886EF0E94F40887EF28
:101230000E94F40885EF0E94F40886EC0E94F408EE
:1012400080E30E94F40881E30E94F40883E30E9493
:10125000F408A3E5B3E01C92E8E5F3E010821196F0
:101260001C921197118212961C9212971282139659
:101270001C921397138214961C92148285E00E948C
:10128000BE090C945F05BF92CF92DF92EF92FF925E
:101290000F931F93CF93DF9301E611E0C3E5D3E0F3
:1012A000C12CD12CEE24E394F12CF80181918F0113
:1012B000F894E82FE295EF70F0E021A18F70A7017C
:1012C00002C0440F551F8A95E2F7CA01922F982B4E
:1012D00091A392A18095892382A378940E94F0081B
:1012E000ECE5F1E030E020E0B12C4191A42FA29593
:1012F000AF70B0E090968C9190E04F7002C09595E1
:1013000087954A95E2F780FD35C08E2D022E01C0EB
:10131000880F0A94EAF7B82A2F5F3F4F253031052E
:1013200021F7F801319780810E94F40854E0C5123A
:101330000E94F2088881B816F9F0B88281E0D82AB4
:10134000C394219685E0C812B0CF2D2D45E068E505
:1013500073E083E593E00E94BF090E9469058D2D2B
:10136000DF91CF911F910F91FF90EF90DF90CF9081
:10137000BF90089580E0CFCF80E0E1CF0895FF9245
:101380000F931F93CF93DF93F82E092F162FD72F8C
:10139000C42F222349F081E08093EE010E94C828E7
:1013A0009093ED018093EC018091EE018823A1F0F0
:1013B0008091EC019091ED010E94E028069760F089
:1013C000EF2DF02FA12FBD2FCE0FDF2FD11DEC174A
:1013D000FD0741F41092EE01DF91CF911F910F9123
:1013E000FF90089581918D93F2CFEF92FF920F932A
:1013F0001F93CF93DF93EB01E82FD11110C044234B
:1014000021F0F0E0ED5CFA4FE4916E2F7E2F8E2FED
:10141000DF91CF911F910F91FF90EF9008950D2FC5
:1014200010E0282F30E0442329F02D5C3A4FF901D9
:10143000249130E0F6E0CF9FC0011124EFEFF0E0FF
:10144000BF010E94E230AB018C2F90E0880F991F02
:10145000A5E5A49FB001A59F700D1124861B970BD5
:10146000982F990F980FBF01601B710B629FD001DD
:10147000639FB00D729FB00D11248B2F9D9FB00103
:101480001124672F7727EF01C61BD70BBE01629F80
:10149000E001639FD00D729FD00D11247F01E91AE6
:1014A000F108E09EB001E19E700DF09E700D1124D8
:1014B000672F7727E61BF70BE29F8001E39F100D54
:1014C000F29F100D1124E12F722F4230510599F037
:1014D00048F44115510569F04130510581F0EB2F79
:1014E0008D2F07C04430510569F080F0463051051A
:1014F000B1F76E2F8DCFE22F7B2F812FFACFE22F06
:101500007D2FF7CFEB2F822F712FF3CF7B2F822FE1
:10151000ED2FEFCF41E00C94F50908950C948A0A61
:10152000CF93DF93762FE901682F842F0E948E0AD4
:10153000798368838A83DF91CF91089580915D03D9
:10154000982F9E7F29F48170826080935D030895B7
:101550008635E8F381708465F8CF88E090E00C94DC
:10156000DB31CF92DF92EF92FF926B017C010E9400
:101570009E0AB701A60188E090E0FF90EF90DF900F
:10158000CF900C94F93160915D0370915E0380916E
:101590005F03909160030C94B10AEDE5F3E083E002
:1015A000808311828FEF828383831482ACE6B2E062
:1015B00012968C911297836012968C936081718140
:1015C000828193810C94B10A80915D0380FF02C0F7
:1015D0008695089580E0089590916103933018F402
:1015E0009F5F90936103882351F060915D03709138
:1015F0005E0380915F03909160030C94B10A08959B
:1016000081E00C94EC0A90916103992319F09150B8
:1016100090936103882351F060915D0370915E03A4
:1016200080915F03909160030C94B10A089581E06A
:101630000C94030B809161030895809361036623EA
:1016400051F060915D0370915E0380915F03909112
:1016500060030C94B10A089560E00C941D0B809116
:101660005E03089580915F0308958091600308955B
:1016700070E00C94AE12CF92DF92EF920F931F9313
:10168000CF93DF93CDB7DEB7C254D1090FB6F8942C
:10169000DEBF0FBECDBF6091080180915D0380FF6A
:1016A00037C0EDE1F5E09E012F5F3F4F8E010D5BEE
:1016B0001F4FC901A4914A2F50E0DA01AA0FBB1FA6
:1016C000A40FB51FAE59BC4FCD90DD90EC90D90161
:1016D000CD92DD92ED929D013196A017B10751F7A1
:1016E00020910701B3E02B9F800D911D11240E94D2
:1016F000380BCE5BDF4F0FB6F894DEBF0FBECDBF09
:10170000DF91CF911F910F91EF90DF90CF900895CF
:101710008091090190910A0123E0829FF001112438
:10172000EE59FC4F891708F0BCCF1182108212824B
:101730008F5F3396F7CF90915D0390FF14C0909127
:10174000090120910A0133E0939FF0011124EE5921
:10175000FC4F921710F00C943B0B81836083428303
:101760009F5F3396F6CF0895CF93DF9300D00F920B
:10177000CDB7DEB790915D0390FF0AC09E012F5F49
:101780003F4F0E94900A4B8169818A810E949B0B86
:101790000F900F900F90DF91CF910895CF93DF932B
:1017A000EC01EC81F0E0E85EFB4F4491EDE5F3E005
:1017B000628181810E94B40B8C818F5F8C83DF9169
:1017C000CF910895CF93DF93EC01EDE5F3E04381F2
:1017D00062818C810E94B40B8C818F5F8C83DF913E
:1017E000CF9108950F931F93CF93DF9300D00F9263
:1017F000CDB7DEB78C018091EF0181110AC09E0147
:101800002F5F3F4F4FEF6FEF0E94900A8A818093C6
:10181000EF01F8016481613069F08091EF0140E0EF
:10182000662361F040E0623011F44091EF0180E006
:1018300060E004C06091EF0140E080E00E949B0BFB
:10184000F801848190E0019663E070E00E94F63038
:1018500084830F900F900F90DF91CF911F910F9184
:101860000895AF92BF92CF92DF92EF92FF920F93C3
:101870001F93CF93DF9300D00F92CDB7DEB7182F11
:10188000F62E042FE22E90915D0390FF3AC0E92FCF
:10189000E695AE2FB0E0AA59BE4F8C9180936C02B2
:1018A0009E7F9230E1F59E012F5F3F4F812F0E9476
:1018B000900A4B8169818A810E949B0B80915E0313
:1018C000811308C080915F038F1104C08091600371
:1018D000801729F080916E02826080936E021093CF
:1018E0005E03F0925F0300936003EE2051F060917D
:1018F0005D0370915E0380915F03909160030E948D
:10190000B10A0F900F900F90DF91CF911F910F911F
:10191000FF90EF90DF90CF90BF90AF90089582300E
:1019200019F400916003CACF863019F410915E0358
:10193000C5CF8930D9F3893109F6E9518E2F8170ED
:10194000D82EE695F0E0E85EFA4FA590B490C12C51
:10195000BB2460910B01C61618F00E943B0BAECF62
:101960002C2D30E0A29EC001A39E900DB29E900D42
:10197000112470E00E94E230812FD11013C0860F35
:1019800040910901420F532F511D9A01220F331F1D
:10199000240F351F2E593C4F402F6F2D0E94900A67
:1019A000C394D7CF861BECCFEDE5F3E09181282FD0
:1019B0004381628188E0890F0C94310C81E00C94A2
:1019C000D40CEDE5F3E09181282F4381628188EF0B
:1019D000890F0C94310C81E00C94E10CEDE5F3E0FF
:1019E000628128E0620F08F46FEF282F4381818124
:1019F0000C94310C81E00C94EE0CEDE5F3E0628187
:101A000028E0621B08F460E0282F438181810C9458
:101A1000310C81E00C94FD0CEDE5F3E0438128E00E
:101A2000420F08F44FEF282F628181810C94310C12
:101A300081E00C940C0DEDE5F3E0438128E0421BBE
:101A400008F440E0282F628181810C94310C81E000
:101A50000C941B0D20E00C94310CEF92FF921F931D
:101A6000CF93DF93EC0110E0EE24EA94F12C609127
:101A70000B01161770F00E943B0B9A818C8190FF2E
:101A800027C08F5F8C83DF91CF911F91FF90EF90E4
:101A9000089520910901422F410F5527551FCA0172
:101AA0009A01220F331F280F391F2E593C4F70E027
:101AB000C7010E94F630962F8C814091600360919F
:101AC0005F03199F800D11240E94900A1F5FCFCFE2
:101AD0008150D8CF8F929F92AF92BF92CF92DF92D8
:101AE000EF92FF920F931F93CF93DF93EC018A81C4
:101AF000BB24BA9480FD02C0BB24B3948C818111B5
:101B00000AC081E0B8122AC080910B0181508093F5
:101B1000F10181E08C83A12C46E1942E80910B0190
:101B2000A816F8F00E943B0B8091F10191E0B912E8
:101B300061C081115AC080910B0181508093F101E5
:101B40001C82DF91CF911F910F91FF90EF90DF905A
:101B5000CF90BF90AF909F908F9008951092F10119
:101B6000D8CF00910901CA2CD12C0C0D1D2D111DAF
:101B7000C801880F991F080F191F0E591C4FF80133
:101B800011821082128234E0E32EF12C812C80919C
:101B9000F101880D87311CF1692D0E94D430892F05
:101BA000082E000C990BC816D90691F48091600399
:101BB0008E9DA0018F9D500D1124559547955595EB
:101BC0004795980160915F0380915E030E94900A9F
:101BD0008B0CF1E0EF1AF108D1F6A3949FCF87FFA9
:101BE000DFCF90910B01890FDBCF81508093F10102
:101BF000BC82A7CF90E0019660910B0170E00E943B
:101C0000F6308093F1018C839CCFEF92FF920F937B
:101C10001F93CF93DF93EC018C81811109C081E088
:101C20008C831092F00192E090930601809305015D
:101C30008091090190910A0123E0829FF001112413
:101C4000EE59FC4F891768F110E003E060910B0139
:101C5000161768F10E943B0B809105012091F0015D
:101C6000280F2093F00190910601980F90930601A0
:101C7000191654F4022E000C330B40910B01415005
:101C8000550B2417350734F0819580930501813079
:101C900009F41C82DF91CF911F910F91FF90EF907B
:101CA00008951182108212828F5F3396CBCFE12E7E
:101CB000F12C70E0C7010E94F63020910901820FDB
:101CC000482F50E02091F001022E000C330BE21659
:101CD000F306BCF020910601022E000C330B2E15EA
:101CE0003F057CF0809F900111242E593C4F40917C
:101CF000600360915F0380915E030E94900A1F5F02
:101D0000A5CFFA01EE0FFF1FE40FF51FEE59FC4FB0
:101D1000118210821282F3CF8F929F92AF92BF9264
:101D2000CF92DF92EF92FF920F931F93CF93DF93A7
:101D3000EC014C81042F10E09801D8010E94413140
:101D40009B01AC010E9457314B015C01E0E2F0E0E5
:101D5000E01BF10BA5E5B0E0AC019B010E945731FF
:101D60006B017C019F01DF010E9439319B01AC01B5
:101D70000E9462319B01AC01280D391D4A1D5B1D7B
:101D8000C701B6010E940A31F22E822F90E039E29B
:101D90003F1560F143E0249F90011124359527956C
:101DA000122F109500E085E5E82EEF1880910B01C9
:101DB000081758F10E943B0B9C8181E0992319F090
:101DC000903219F48FEF8093040180910401890F00
:101DD0008C83DF91CF911F910F91FF90EF90DF9057
:101DE000CF90BF90AF909F908F90089525E530E001
:101DF000B901681B790B9B01220F331F260F371F78
:101E000037FFCCCF2F5F3F4FC9CF8E2D01FD8F2DD8
:101E100020910901622F600F7727771F9B01220F06
:101E2000331F260F371F2E593C4F412F60915F0300
:101E30000E94900A0F5FBACF0F931F93CF93DF9347
:101E4000EC0110E000E090910B019017110609F0F1
:101E50006CF40E943B0B8C8190E001968170992775
:101E60008C83DF91CF911F910F91089520910901EB
:101E7000A801420F511D9A01220F331F240F351F55
:101E80002E593C4F4C8160915F0380915E03969583
:101E90009017110651F04CF0442349F04091600333
:101EA0000E94900A0F5F1F4FCECF4423B9F340E04A
:101EB000F7CF4F925F926F927F928F929F92AF92E5
:101EC000BF92CF92DF92EF92FF920F931F93CF9327
:101ED000DF93FC016280448081E08483E8E1F4E0E8
:101EE0007490E7E9F4E0E491812C75E0972EF2E03C
:101EF000CF2EDD24D394AA24AA94B12C55245A942D
:101F0000E7190E2F10E080910B01881690F0DF91F9
:101F1000CF911F910F91FF90EF90DF90CF90BF90E6
:101F2000AF909F908F907F906F905F904F900C94A8
:101F30003B0BE82CF12C82E0861568F09E9CF001AA
:101F40009F9CF00D1124EB50FE4F80915E03808327
:101F500080915F038183411023C09E9CF0019F9C70
:101F6000F00D1124EB50FE4F1382128220910901D3
:101F7000C701820F911D9C01220F331F280F391FAB
:101F80002E593C4F9E9CF0019F9CF00D1124EB506C
:101F9000FE4F4281618180810E94900A8394B3CF79
:101FA0009E9CE0019F9CD00D1124CB50DE4F8B8175
:101FB0008823E9F081508B83859DC00111246C81B9
:101FC00070E00E94E230FB01FF27E85EFB4F849146
:101FD000E82FE719E59DC0011124B8010E94E23005
:101FE00080916003689FB00111247A83BFCF0E9463
:101FF000B63120916003269521582C9DA0012D9D7E
:10200000500D1124452F5527841795070CF0AECF9E
:1020100082E0861588F40E94B631B5010E94F63040
:1020200088830E94B63120915F032695622F70E06D
:102030000E94F630280F29839E9CF0019F9CF00D92
:102040001124EB50FE4F128280916003893C58F0BE
:1020500088EC9E9CF0019F9CF00D1124EB50FE4FEC
:102060008483838383CF8431A0F784E1F2CFECE6CD
:10207000F2E011828281846082830895EDE5F3E0CD
:1020800080818E7F80830E943710ECE6F2E08281AF
:10209000816082832FEF80E792E021508040904062
:1020A000E1F700C000000C943B0B0E9437108091B8
:1020B0006A0281110AC081E080936A0280915D0307
:1020C0008170809369020C943E100895EDE5F3E071
:1020D00080818E7F808360817181828193810E9463
:1020E000B10A0E943710ECE6F2E0828181608283BF
:1020F0002FEF80E792E0215080409040E1F700C050
:1021000000000C943B0B60915D03669570E04BE022
:1021100050E08CE091E00E94C631892B19F481E0F7
:1021200080936D020E94C82890936402809363029A
:1021300080916E02846080936E02089590915D0399
:1021400090FF3AC0917081112DC0926090935D0311
:1021500080916E02816080936E02662351F06091DF
:102160005D0370915E0380915F03909160030E9414
:10217000B10A60915D03669570E04BE050E08CE041
:1021800091E00E94C631892BA1F00E94371081E0B6
:10219000809366024091600360915F0380915E03CB
:1021A0000C942A0D8B3210F09465D0CF880F982BA9
:1021B000CDCF0E948310EBCF0895682F90915D03DF
:1021C000969581E0890F8B3208F081E00C949E1087
:1021D00081E00C94DD10682F90915D0396958FEF50
:1021E000890F09F48AE20C949E1081E00C94EB10A4
:1021F00061E00C949E10EDE5F3E0808181608083C6
:1022000086950C94F81080915D0380FD0C94661007
:102210000C94FB1060E00C949E1080916B02811175
:1022200033C00E94DB26811104C00E947F270E94D8
:10223000CD0A0E94AD0A60935D0370935E038093A4
:102240005F039093600380916E02836080936E02BF
:102250006E7F61F40E94CD0A0E94AD0A60935D0317
:1022600070935E0380935F03909360030E949E0AC5
:102270000E94371080915D0380FF03C086950E9405
:102280000A1181E080936B020895EDE5F3E080810F
:102290008160808386950C940A1110926A02809165
:1022A000690281110E9445110C948310EF92FF92F4
:1022B0000F931F93CF93DF9380916D02882309F4CE
:1022C00062C080916C02E0915D03E695E81BE093AB
:1022D0006502823009F05EC0F0E0EC5EFB4FE491F5
:1022E000CE2FD0E00EEC1BE080916602882361F0D7
:1022F000109266020E94C828909364028093630241
:1023000010926802109267020E94C828E09163024E
:10231000F09164029C012E1B3F0B2F3F3F4798F525
:102320002091F4012223B1F01092F4012091F201E6
:102330003091F301821B930B8F3F9F4758F4205D30
:102340003A483093F3012093F20180916E02886045
:1023500080936E02E0906702F0906802EC0FFD1F20
:10236000F0936402E093630283E692E0F80109953A
:102370008091670290916802892B29F4EF2819F067
:1023800081E08093F401DF91CF911F910F91FF9035
:10239000EF900895863049F4F0E0EF5EFB4FE49152
:1023A000CE2FD0E002EE1BE09FCF893051F4E695AE
:1023B000F0E0E25FFB4FE491CE2FD0E00DE21DE0B4
:1023C00093CF8F3051F4E695F0E0E55FFB4FE49159
:1023D000CE2FD0E00AE61DE087CF853149F4F0E04A
:1023E000E85FFB4FE491CE2FD0E005E01EE07CCF0C
:1023F000C8E2D0E00CE81EE0883109F475CF8332E2
:1024000039F4E6E0F4E0C591D49102EF1BE06CCF23
:10241000C4EFD1E00CE11FE0843209F465CFC0EDD8
:10242000D7E00DE81AE0853209F05ECF8E2F63E029
:102430000E94C830E92FF0E0ED5FFB4FE491CE2F12
:10244000D0E009E51FE050CFFA01811101C0FB0186
:102450000994CF93DF93C82FD62F0E94E40A8C17DC
:1024600040F00E94E40A8D1720F4DF91CF910C9484
:10247000E8108C2FDF91CF910C94F8100F931F93DD
:10248000CF938C01FB01C281CC2309F465C00E946B
:1024900024268272F801E35CFC45E431F10538F44E
:1024A000E45CFD4C0C942C310E940311C0E08C2F95
:1024B000CF911F910F91089545EF50E168EE70E1C3
:1024C0000E942412F3CF48EE50E165EF70E1F8CF9F
:1024D0004BEE5CE06EED7CE0F3CF4EED5CE06BEE3E
:1024E0007CE0EECF49E05DE06AEF7CE0E9CF4AEFC7
:1024F0005CE069E07DE0E4CF47E25DE068E17DE03B
:10250000DFCF48E15DE067E27DE0DACF47E15BE005
:1025100060E07BE0D5CF40E05BE067E17BE0D0CFDF
:1025200081E00E94F810C2CF65E082E00E9429128B
:10253000BDCF68E086E0FACF6EE089E0F7CF64E1D6
:102540008FE0F4CF67E185E1F1CF88E1EACF62E285
:1025500089E1ECCF83E2E5CFC1E0A9CF549A4BB13A
:102560004F7E5BB15061EFB7F8949B01220F331F90
:10257000260F371F280F391F2817390741F4EFBFDF
:102580008FE594E00197F1F700C000000895DC01A9
:102590006D91CD0178E05BB9000000C067FF4BB9D9
:1025A000660F000000C000C000C04BB900C07A95A3
:1025B00091F7E2CF0C943A043F98479A3E98469A96
:1025C00086B190E0880F892F881F990B369905C036
:1025D00020E0822B80937102089522E0FACFE091EF
:1025E0007102EE0FEE0FE093710286B190E0880F5A
:1025F000892F881F990B46B146FB222720F946FFF9
:1026000002C022E030E0822BE82BE0937102EF70F1
:10261000F0E0EF56FE4F808190917002890F809319
:10262000700220E0843054F080916F028F5F8093BD
:102630006F0260E080E00E94DA1221E08091700277
:102640008D3F54F480916F02815080936F0261E05E
:1026500080E00E94DA1221E080917002082E000CC6
:10266000990B64E070E00E94F63080937002822F34
:10267000089582E290E00E94D331813289F483E2AE
:1026800090E00E94D331833059F484E290E00E94BC
:10269000D33191E0883009F090E0892F817008955E
:1026A00080E0FCCFCF93C82F6FEF811161E282E20F
:1026B00090E00E94E7316FEFC11163E083E290E0A8
:1026C0000E94E7316FEFC11168E084E290E0CF91A2
:1026D0000C94E73180E00E9452130C94D5260895A3
:1026E00085E290E00E94D331682F70E090E080E0B6
:1026F000089585E290E00C94E7310E946F130E94E8
:10270000391381110CC060E070E0CB010E94791395
:102710000E9421150E940B1681E00C94521308951B
:10272000CF93FB01C281CC2309F19C0122513F458B
:102730002031310520F582510E941B16C0E08C2FFC
:10274000CF91089581E00E949C2443E062E081E003
:102750000E944D05F3CF81E00E94BD2443E062E07A
:1027600081E00E944D05EBCF82E0F6CF8031FFE59E
:102770009F0789F381319F45B9F3C1E0E0CF8031F4
:10278000EFE59E07F9F281319F45C9F682E0DBCF84
:102790002FEFFC0120830895CF93DF93EC01888114
:1027A0008138A9F028F4803871F0DF91CF91089535
:1027B000823881F08338C9F70E942F0B89830E94E9
:1027C000320B8A83F2CF0E94350B8983EECF0E94B1
:1027D000E40AFBCF0E941A0BF8CFCF93DF93EC01F2
:1027E00088818138E1F028F4803869F0DF91CF9159
:1027F0000895823811F18338C9F70E94350B482FAC
:102800006A81898108C0D9810E94320BC82F0E9439
:102810002F0B4D2F6C2FDF91CF910C942A0D8981B6
:102820000E940A118981811104C0DF91CF910C941B
:102830003E10DF91CF910C9445118981DF91CF91AA
:102840000C942C0BEF92FF920F931F93CF93DF9377
:10285000EC01062FDC01ED91CD01E150E33108F0F0
:10286000ADC0F0E0E05BFD4C0C942C31198289E0A6
:102870008A83602FCE01DF91CF911F910F91FF903E
:10288000EF900C94F5298981823069F0833071F0E2
:102890008130D9F40E94D4280E9432316A837B832C
:1028A0008C839D83E6CF0E947013F6CF7E01B2E049
:1028B000EB0EF11C10E0812F0E94E508F7018193D7
:1028C0007F011F5F1530B9F7D4CF602FCE010E9472
:1028D000C813CFCF89818230C1F76A817B818C8117
:1028E0009D810E9432310E947913C3CF4B816A814E
:1028F00089810E94F3149827892798279D838C83C8
:10290000B8CF2C813D813227232732274B816A8122
:1029100089810E940C15ADCF0E942115AACF0E947B
:10292000ED13A7CF0E94CC13A4CF0E94C30AA1CF5E
:102930000E94B41589839DCF0E94B61598278927D8
:1029400098279A83898395CF6B8170E089819A81DA
:10295000AE014C5F5F4F9827892798270E94B915D1
:1029600088CF6B8170E089819A81AE014C5F5F4FA7
:102970009827892798270E94E0157BCF0E940B1685
:1029800078CF0E94E114D6CF6B8170E089819A8163
:10299000AE014C5F5F4F9827892798270E945915F1
:1029A00068CF6B8170E089819A81AE014C5F5F4F87
:1029B0009827892798270E947E155BCF8FEF888301
:1029C00058CF84E0089550E0440F551F9AE0699F66
:1029D000400D511D112492E3899F400D511D11247A
:1029E000CA01869608950F931F93CF93DF930E9499
:1029F000E3148C010E94D331C82FD0E0DC2FCC2708
:102A0000C80101960E94D3319E01282BC901DF9194
:102A1000CF911F910F9108950F931F93CF93DF9341
:102A2000122F032F0E94E314EC01602F0E94E73164
:102A3000612FCE010196DF91CF911F910F910C94E0
:102A4000E731AF92BF92CF92DF92EF92FF921F9346
:102A5000CF93DF938DEBC82E80E0D82ED0E07601A7
:102A6000C0E014C0F50125913491412F6C2F8D2FBA
:102A70000E940C1582E0A80EB11C1F5F153091F763
:102A80008AE0E80EF11CCF5FC53019F0570110E065
:102A9000E9CFDF5F82E3C80ED11CD43001F7DF91AC
:102AA000CF911F91FF90EF90DF90CF90BF90AF90AC
:102AB0000895EF92FF920F931F93CF93DF93EC0152
:102AC0008A017C01E60EF71ECE018696CE15DF0543
:102AD00039F4DF91CF911F910F91FF90EF900895FE
:102AE000C83CD10540F40E94D331F80180830F5FC8
:102AF0001F4F2196E9CFF8011082F9CFCF92DF92D4
:102B0000EF92FF920F931F93CF93DF937C016A01A3
:102B10008C01060F171FEC01CE018696C017D10756
:102B200049F4DF91CF911F910F91FF90EF90DF90CB
:102B3000CF900895C83CD10540F4FE01EE19FF097D
:102B4000EC0DFD1D60810E94E7312196E5CF462FF7
:102B5000843038F4753028F4653018F4672F0C94FD
:102B6000F31490E080E0089580E1089582E193E01D
:102B70000895EF92FF920F931F93CF93DF93EC0191
:102B80008A017C01E60EF71ECE0182519F4FCE15C1
:102B9000DF0539F4DF91CF911F910F91FF90EF90F6
:102BA0000895C23123E0D20740F40E94D331F801E6
:102BB00080830F5F1F4F2196E7CFF8011082F9CF76
:102BC000CF92DF92EF92FF920F931F93CF93DF93F9
:102BD0007C016A018C01060F171FEC01CE018251A6
:102BE0009F4FC017D10749F4DF91CF911F910F91EB
:102BF000FF90EF90DF90CF900895C23123E0D2078D
:102C000040F4FE01EE19FF09EC0DFD1D60810E94EC
:102C1000E7312196E3CFCF93DF93CEEED0E060E0B3
:102C2000CE010E94E7312196C11584E0D807B9F79B
:102C3000DF91CF910895DF92EF92FF920F931F9350
:102C4000CF93DF9300D000D0CDB7DEB7F82E8FE062
:102C50008F1540F08FEF93E00E94D3310EEE10E01D
:102C60008823C1F00F900F900F900F90DF91CF91BC
:102C70001F910F91FF90EF90DF900895011584E070
:102C8000180781F3C8010E94D331811101C0FA9461
:102C90000F5F1F4FF110F2CF19821A821B821C8224
:102CA000DD24D39478018FEFE81AF80AC8010E9456
:102CB000D33189831A828823A9F29FEF980F93302A
:102CC00078F48A83D9820E5F1F4FC7010E94D331E7
:102CD0008B83882339F2CE0101960E949106E2CFC0
:102CE0008701F9CFCF92DF92EF92FF920F931F935C
:102CF000CF93DF936C017B0164E670E088E70E946C
:102D0000C81AEC0197FD12C010E000E0F601E00FD8
:102D1000F11F849164E670E00E94241BEC01892B72
:102D200029F40F5F1F4F0E151F0581F70E94A71B87
:102D3000CE01DF91CF911F910F91FF90EF90DF9027
:102D4000CF900895E4EAF3E080E092E0DF019C0197
:102D50001D9221503040E1F7F093A905E093A805BA
:102D60008FEF9FEF909398028093970208950E94AF
:102D700088048093930280FD0FC080E880939202C4
:102D80000E94C21A6DE070E08AE496E00E9472161A
:102D9000892B21F080E0089580E2F0CF80919302AA
:102DA00063E070E081FD26C087E496E00E94721621
:102DB000892B81F76DE070E087E396E00E94721640
:102DC000892B41F70E94D428605679478E4F9F4F38
:102DD0006093A4057093A5058093A6059093A7051D
:102DE0000E94A21681E08093960280939502109231
:102DF0009402089584E496E0D9CF2091920236E0BF
:102E0000839FC0011124629F800D911D11248115A3
:102E100022E0920714F090E080E08C559C4F909354
:102E2000A9058093A8050895CF93DF932091A80565
:102E30003091A905245A3340A901460F571F41304C
:102E4000524020F060E072E0621B730B40919702E9
:102E500050919802FC01C901620F731FC1E0D0E0DC
:102E60008617970738F05093980240939702DF91A6
:102E7000CF9108952491DC01AC55BC4F3C913217A1
:102E800081F02C939C01A5E036952795AA95E1F752
:102E9000DE0102C0AA0FBB1F2A95E2F79D014A2B53
:102EA000532B01963196DCCF80919602811103C09D
:102EB0008091950208950E94D428605679478E4FDC
:102EC0009F4F6093A4057093A5058093A6059093EA
:102ED000A705809195028111EBCF62E070E085E358
:102EE00096E00E947216892B19F781E08093950273
:102EF000DFCF2F923F925F926F927F928F929F923D
:102F0000AF92BF92CF92DF92EF92FF920F931F93F7
:102F1000CF93DF9380919602882369F020919702E6
:102F2000309198022115310531F08091940261E0D1
:102F300070E0882399F0DF91CF911F910F91FF905E
:102F4000EF90DF90CF90BF90AF909F908F907F9049
:102F50006F905F903F902F9008958F5F082F10E043
:102F60001B01082E02C0220C331C0A94E2F7A901AF
:102F700042215321452B89F39091930290FD44C047
:102F80008295880F80768093190198013695279550
:102F90003695279520931C01815E80931A0110922B
:102FA0001D0124E630E047E050E067E171E088E78A
:102FB0000E94531B892B09F0BECFA80125E0440FC6
:102FC000551F2A95E1F78091930280FD2BC04C5547
:102FD0005C4F04E610E020E230E060E488E70E9405
:102FE0007A1B892B09F0A7CF0E945417E101C095E5
:102FF000D0958091970290919802C823D923D093BD
:103000009802C093970297CF880F880F880F8093FC
:10301000190110921C01895F80931A0183E080934B
:103020001D01BFCFE2E7F2E080E2DF011D928A9549
:10303000E9F7A5EAB1E001EA11E089EAC82E81E0EA
:10304000D82E97E0592E772473948D91E801299119
:103050008E01240F352F311D2C553C4FE82FF0E009
:10306000EE58FD4F90E080E0652C681A872C082E02
:1030700001C0880C0A94EAF77901A12CE701B99004
:103080007E01B820662D6A196770962E062E000CF8
:10309000770BDB2D01C0DD0F9A94EAF771956195EE
:1030A00071096770772701C0B6946A95EAF7BD2A5F
:1030B0006081962E9B289082A39468E0A612DECFB2
:1030C000019631968830910579F6CA16DB0609F02B
:1030D000BCCF04E610E020E230E042E752E07DCFD2
:1030E0008091950290919602911103C091E08927F9
:1030F0000895882369F062E070E083E396E00E941F
:103100007216892B19F080919502089510929502FC
:1031100080919502EBCF0F931F93809196028823A5
:1031200019F160E080E00E94FD160E948A040E946E
:103130007917809195028823B9F00E94D4280091D4
:10314000A4051091A5052091A6053091A705601B47
:10315000710B820B930B6F3F7F4F8F4F9F4720F474
:103160001F910F910C9470181F910F9108950F9358
:103170001F93CF93DF93C42FD22FFC01828188232A
:10318000C9F040939B020E94C82890939A028093B2
:10319000990280E28C0F883008F050C0C77081E03F
:1031A00001C0880FCA95EAF7DF91CF911F910F9167
:1031B0000C94381E10919B02141335C08091990213
:1031C00090919A020E94E028883C910560F5C0E247
:1031D000CD0F1D17B9F080E2810F883040F41770D1
:1031E00081E001C0880F1A95EAF70E943F1EC8309F
:1031F00048F481E09D2F977001C0880F9A95EAF7F7
:103200000E94381E802F0E94301EC830B8F4D7703C
:1032100081E001C0880FDA95EAF7DF91CF911F9125
:103220000F910C943F1E80E28C0F883038F4C770E9
:1032300081E001C0880FCA95EAF7EFCFDF91CF9107
:103240001F910F9108950F939C01CB01243F4CE5F2
:10325000340759F1A8F4293DFCE53F0701F12A3D67
:103260004CE53407D1F1283D3C4591F406E221EECE
:1032700041EE68ED7CE50E94B71880E00F9108955B
:10328000263FFCE53F07E9F0B0F0273F3C45F9F069
:10329000FC018281882339F110929B02EFCF07E273
:1032A00025EE45EE69ED7CE5E6CF06E221EE40EE47
:1032B00064EF7CE5E0CF07E225EE44EE65EF7CE5C8
:1032C000DACF06E221EE42EE66EF7CE5D4CF07E2EC
:1032D00025EE46EE67EF7CE5CECF08E221E045EE35
:1032E0006AED7CE5C8CF81E0C9CFCF93DF93EC01D5
:1032F000FB018281882309F419C1C230FCE5DF0794
:10330000C0F1C6319CE5D90730F09E012B5F3C45EA
:103310002930310570F50E94EE269093AF05809319
:10332000AE05C031ECE5DE0709F4CFC008F05BC0A4
:10333000C8308CE5D80709F4B6C088F5C430ECE590
:10334000DE0709F4A8C0C0F4C2308CE5D80709F440
:103350009CC08091AE058260C330DC4509F498C002
:103360008091AE059091AF050E94FC260E94A2209C
:1033700080E0DF91CF9108958091AE058061C630E5
:10338000ECE5DE0709F484C08091AE058860C730A3
:10339000DC4508F47DC08091AE05806279C0CC30F8
:1033A0008CE5D80709F489C070F48091AE058C6073
:1033B000CA30ECE5DE0709F46BC008F478C08091F0
:1033C000AE058E7F65C0CE308CE5D80709F479C094
:1033D0008091AE058B7FCF30DC4508F459C08091D9
:1033E000AE058F7E55C0CC3FECE5DE0709F457C033
:1033F00030F5C3318CE5D80709F46FC078F4C131DA
:10340000ECE5DE0709F465C0C231DC4509F0A8CF60
:103410000E94A2208091AE058F773AC0C5318CE51D
:10342000D80709F462C008F476C08091AF058160C6
:10343000CB3FDC4509F094CF8093AF0591CFC11508
:10344000FDE5DF0709F44DC088F48091AF058D7F5D
:10345000CE3F9CE5D90781F38091AF058E7FCF3FAA
:10346000DC4550F38091AF058360E6CFC230FDE5C7
:10347000DF0709F459C008F444C080E0C330DD45DB
:1034800009F06ECF0E9481276BCF8091AE058160DD
:103490008093AE0565CF8091AE058460F9CF8091B1
:1034A000AF058260C9CF8091AE058064F1CF0E94E4
:1034B000A2208091AE058068EBCF8091AE058D7F14
:1034C000E7CF8091AE05877FE3CF8091AE058F7DFA
:1034D000DFCF8091AE058F7BDBCF8091AE05837F00
:1034E000D7CF8091AF058C7FA7CF8091AE0582FBAF
:1034F000992790F921E0922790FB82F990FB83F9BC
:10350000C7CF8091AF05982F909591708E7F892BB2
:1035100090FB81F991CF0E94A2209091AE05892F56
:1035200097FB87F98058B4CF81E0ACCF81E021CF01
:10353000CF93DF93EB0186319C4511F50E94242641
:103540009A81992399F08A7A91E009F490E0909316
:103550009C02811109C089E20E94FF250E94702609
:1035600080E0DF91CF91089585E3F6CF80919C02B2
:10357000811104C089E20E940626F0CF85E3FBCFCB
:1035800081E0EFCF1092B9008CE08093B8000895ED
:10359000EF92FF920F931F93CF93DF93182FEB01BE
:1035A0001092BC0084EA8093BC000E94C8287C0171
:1035B0008091BC0087FF27C08091B900887F883048
:1035C00029F08091B900887F8031D9F51093BB0034
:1035D00084E88093BC000E94C8288C018091BC00C4
:1035E00087FF24C02091B900287F90E080E0283137
:1035F000B1F081E090E0203411F490E080E091950A
:10360000819591090CC0CF3FDC0791F20E94C82838
:103610008E199F098C179D0758F28EEF9FEFDF914F
:10362000CF911F910F91FF90EF900895CF3FDC074E
:10363000A9F20E94C828801B910B8C179D0770F27D
:10364000ECCF8FEF9FEFEBCF0F931F93CF93DF93D1
:10365000EB018093BB0084E88093BC000E94C828E3
:103660008C018091BC0087FF11C02091B900287F98
:1036700081E090E0283211F490E080E0919581950E
:103680009109DF91CF911F910F910895CF3FDC07F2
:1036900041F30E94C828801B910B8C179D0708F3EB
:1036A0008EEF9FEFEECFCF92DF92EF92FF920F93CC
:1036B0001F93CF93DF936B018A017901B9010E94B7
:1036C000C81AE6010C0D1D1DC017D10761F424E9CD
:1036D0002093BC00DF91CF911F910F91FF90EF904D
:1036E000DF90CF90089597FDF2CFB70189910E94A6
:1036F000241BEACFCF92DF92EF92FF920F931F939A
:10370000CF93DF93C62F6A017901B8010E94C81ACE
:1037100097FD0CC0B8018C2F0E94241BE601EC0C15
:10372000FD1CCE15DF0511F097FF0CC024E9209396
:10373000BC00DF91CF911F910F91FF90EF90DF9030
:10374000CF900895B80189910E94241BEACF84E9A3
:103750008093BC0008959093A2028093A1020895E3
:10376000E091A102F091A202309721F00190F08146
:10377000E02D099480E00895E091A102F091A20269
:10378000309799F020912A01222359F02091AE051B
:1037900027FF07C0DC012C9111962C93119725E08F
:1037A0002C930280F381E02D0994089520919F02CB
:1037B0003091A0022817390771F09093A0028093EE
:1037C0009F02E091A102F091A202309721F00680C1
:1037D000F781E02D0994089520919D0230919E0279
:1037E0002817390771F090939E0280939D02E09113
:1037F000A102F091A202309721F00084F185E02D22
:10380000099408950E94D4286093B1027093B20283
:103810008093B3029093B4026093AD027093AE02B2
:103820008093AF029093B00208950E94D4286093D1
:10383000B1027093B2028093B3029093B40260938A
:10384000A9027093AA028093AB029093AC020895F0
:1038500085B7806885BF85B7806885BF089508955E
:1038600008950C942F1C0C9481040E94281C83ED55
:1038700096E20E9437290E94301C0C94311C81E092
:1038800008950C943F1C089508950E94BF280E943B
:103890000B090E947D1380E00E94B7160E945529F3
:1038A0000E940D110E94DC120C94331C9F92AF9267
:1038B000BF92CF92DF92EF92FF920F931F93CF931D
:1038C000DF93CDB7DEB72A970FB6F894DEBF0FBEF1
:1038D000CDBF0E94431C0E94441C0E944309C82E75
:1038E00081110E94021C84EAA82E82E0B82E10E00A
:1038F00000E0902E802F0E94E508E82EF501F1905F
:103900005F01F81609F45CC080912F0381FD0E94CD
:10391000EB088F2D8E25D12CFF24F394982F9F2117
:1039200009F449C00E94411C882399F0DE829F82DD
:10393000EF2081E009F480E088870E94C828816038
:10394000782F9A8789874E815F8168858A850E9452
:10395000091DF801EC55FD4F8081F826F0820E9488
:1039600056110E94EF12182F81110E94151C0E94FF
:103970008B18C11001C011110E9454170E94B01B76
:103980009091A302891799F10E94B01B8093A30222
:103990002A960FB6F894DEBF0FBECDBFDF91CF9150
:1039A0001F910F91FF90EF90DF90CF90BF90AF905D
:1039B0009F900C94E706D394FF0CF5E0DF12AECF96
:1039C0000F5F1F4F0530110509F093CF8FEF8983EB
:1039D0008A831B820E94C8288160782F9D838C83F4
:1039E00049815A816B818D810E94091DB8CF2A9629
:1039F0000FB6F894DEBF0FBECDBFDF91CF911F9100
:103A00000F91FF90EF90DF90CF90BF90AF909F907D
:103A10000895DF92EF92FF920F931F93CF93DF935E
:103A2000CDB7DEB72B970FB6F894DEBF0FBECDBF74
:103A30007A878B87F42E052F162FE72ED82E61114B
:103A40000E9444261E821D827E2DEC82DD824F2D37
:103A5000502F612F8D2D9E812B960FB6F894DEBFCF
:103A60000FBECDBFDF91CF911F910F91FF90EF90CF
:103A7000DF900C941823FC01808191810C94D12556
:103A8000CF93C82F882309F483C08238C1F40E94E1
:103A9000B01B81FD7DC089E30E94FF250E94702636
:103AA0002FEF81EE94E0215080409040E1F700C07C
:103AB000000089E30E940626CF910C94702683387B
:103AC000A1F40E94B01B80FD63C083E50E94FF2526
:103AD0000E9470262FEF81EE94E0215080409040AC
:103AE000E1F700C0000083E5E5CF8438A1F40E942F
:103AF000B01B82FD4DC087E40E94FF250E94702606
:103B00002FEF81EE94E0215080409040E1F700C01B
:103B1000000087E4CFCF8CEF8C0F813A90F46C2FAC
:103B200080911E0190911F010E949A27882329F0FD
:103B30008C2F0E9406260E9470268C2F0E94FF2543
:103B4000BBCF80E28C0F883048F4C77081E001C0A1
:103B5000880FCA95EAF70E942726AECFEBE5EC0F57
:103B6000E33040F4F0E0E952FE4F808190E0CF91E5
:103B70000C94D61BC85AC73158F4EC2FF0E0EE0F66
:103B8000FF1FE755FE4F80819181CF910C94EC1B74
:103B9000CF910895882309F44BC0823871F40E94B4
:103BA000B01B81FF45C089E30E94FF250E9470265B
:103BB00089E30E9406260C947026833859F40E94EB
:103BC000B01B80FF35C083E50E94FF250E94702650
:103BD00083E5EFCF843859F40E94B01B82FF28C0E0
:103BE00087E40E94FF250E94702687E4E2CF9CEFC5
:103BF000980F913AF0F290E2980F983050F4877055
:103C000091E001C0990F8A95EAF7892F0E942D262D
:103C1000D2CF9BE5980F933020F490E080E00C9495
:103C2000D61B885A873120F490E080E00C94EC1B7E
:103C300008951F93CF93DF93182FEB010E94401D2F
:103C4000209731F4812FDF91CF911F910C94CA1DE1
:103C50008FE99FE00197F1F700C000002197F0CFB6
:103C600070E060E0893311F460E570E00C94191E97
:103C7000882321F00E9427260C947026089588231B
:103C800021F00E942D260C9470260895BF92CF92A9
:103C9000DF92EF92FF920F931F93CF93DF936C010C
:103CA000D62FC72FFC011281058102950F700E944B
:103CB0001D26E82E8823A1F0E12E112389F08C2FF8
:103CC000807F803429F080E28D0FE12C883040F035
:103CD00082E00E94BB260E941D2691E0E82EE92684
:103CE000BC2EB2949FE0B922EB2DF0E0ED59FD4CD3
:103CF0000C942C310C2F0F70C07F11F00295007FB7
:103D00001123A9F0002359F080E28D0F883010F0C4
:103D1000D11109C0802F0E9427260E9470268D2F66
:103D20000E94401D14C0802F0E943726F6CF8D2F91
:103D30000E94CA1D002359F080E28D0F883010F0D8
:103D4000D1112CC0802F0E942D260E9470262B2D71
:103D50002850330B2430310520F40E94B01B0E9400
:103D6000E706EE2009F493C10E94192680FD8FC159
:103D7000F60112820E9413260E949C24C6010E9412
:103D800068200E941326DF91CF911F910F91FF9021
:103D9000EF90DF90CF90BF900C94BD24802F0E94B5
:103DA0003D26D3CFFC2FFF70FF2EC07FC03219F00D
:103DB000F29480EFF822DD2369F0D13049F111232C
:103DC00091F1002351F1F601858180FFA8CF8F701A
:103DD000858323C0112381F0011106C00E9457265C
:103DE0008F290E94381EB3CF0130C1F70E94572699
:103DF0008F290E945D26ABCF011106C00E94662666
:103E00008F2D0E943F1EA3CF013009F4A0CFF6CF23
:103E1000112329F0063008F09ACF8F2DE2CF05301C
:103E200008F095CFEDCF002359F3D93349F4FFEFD4
:103E300027EE33E0F15020403040E1F700C00000B1
:103E40008D2F0E94CA1D83CF8C2F869586958370F7
:103E500069F0813009F07BCF8D2F9C2F9370111169
:103E600002C090E080E00E94EC1B71CF8D2F9C2F50
:103E70009370111102C090E080E00E94D61B67CFC2
:103E80008C2F837009F041C0111161CF4D2F4295E5
:103E900046954770440F440F0D2F0F7010E030E02F
:103EA00020E0042E04C0000F111F221F331F0A94AC
:103EB000D2F760E070E0CB01D4FF0FC06FE070E09C
:103EC00080E090E004C0660F771F881F991F4A9515
:103ED000D2F76095709580959095C695C695C370FC
:103EE000602B712B822B932BC23049F058F4C130D8
:103EF00019F00E944E242BCF0E943C2428CF0E9410
:103F0000602425CF0E943A2422CF8695112311F0F8
:103F10008C2F8170882309F41ACF4D2F4295469536
:103F20004770440F440F0D2F0F7010E030E020E079
:103F3000042E04C0000F111F221F331F0A94D2F752
:103F400060E070E0CB01D4FF0FC06FE070E080E074
:103F500090E004C0660F771F881F991F4A95D2F71B
:103F60006095709580959095C695C695C370602BA9
:103F7000712B822B932BC23049F058F4C13019F0C9
:103F80000E941325E4CE0E940125E1CE0E94252542
:103F9000DECE0E947624DBCECF70112329F08C2F49
:103FA0000E949C248D2F1DCF8D2F0E943F1E8C2F91
:103FB0000E94BD24CCCED23F89F160F4D03FC9F03D
:103FC000D13F29F1112309F442C00111A8CE8C2F51
:103FD0008F7121C0D33F39F1D43FA1F7112369F18B
:103FE000CF718C2F0E949C2463E08C2F0E94A62608
:103FF000AECE112341F0053008F0A9CE8C2F8F7181
:104000000E94E024A4CE063008F0A1CEF7CF8C2F7A
:104010008F71112369F20E949C2499CE8C2F8F718D
:104020001123C9F3C5CF112329F08C2F8F710E9462
:1040300087248DCE0E9482248ACE81E00E94BB26F6
:10404000023008F484CE82E00E94BB2680CE00239A
:1040500059F0D93309F0F4CE8FEF97EEE3E08150B9
:104060009040E040E1F7EACE8C2F8F71A1CF4C2F2A
:104070004F706D2FC6010E94EF060E94B22367CEDB
:104080004C2F4F706D2FC6010E94F20660CEDF915B
:10409000CF911F910F91FF90EF90DF90CF90BF9045
:1040A00008950F931F93CF93DF93EC01688179817B
:1040B0008A810E94DB258C010E9437250E943924C9
:1040C000B801CE01DF91CF911F910F910C94461E44
:1040D000CF93DF93EC018B819C81892B29F0888120
:1040E000998189238F3F59F4DF91CF910895CE01B3
:1040F0000E945120CE01DF91CF910C94EE04CE01AD
:104100000E947B058111F3CF0E941D26882361F355
:104110008A81882349F382E0DF91CF910C94BB26FA
:1041200090E080E00E94D61B90E080E00E94EC1BB3
:104130000E9444260E9454260C9470260E940D264C
:104140000C9490200E9434260C949E20E92FE29536
:10415000EF70E250EE3070F4F0E0ED58FD4C0C944E
:104160002C31803F19F020F4883E20F481E008953E
:10417000843FE1F380E00895883EC0F3813FD1F7AA
:10418000F5CF93FB882780F908950E94D1250C94E0
:10419000A620CF93DF9300D000D00F92CDB7DEB72B
:1041A0000F900F900F900F900F90DF91CF91089587
:1041B000CF93DF9300D000D000D0CDB7DEB72696E6
:1041C0000FB6F894DEBF0FBECDBFDF91CF9108953B
:1041D0001F93CF93DF93C091B60216E08091B70290
:1041E0008C1304C0DF91CF911F910895D0E01C9FE4
:1041F000F0011D9FF00D1124E854FD4F40815181C5
:1042000062817381848195810E94D8202196C77034
:10421000E5CF4091E8025091E9026091EA02709185
:10422000EB028091EC029091ED020C94D8201F9348
:10423000CF93DF938091ED02807FA9F48091EA0211
:10424000882389F08091B602C091B7026091E8029C
:104250007091E902A091EB02B091EC02D62FD72326
:1042600016E0C81304C0DF91CF911F91089590E02C
:10427000109711F0DF3F19F401968770F2CF189F65
:104280009001199F300D1124F901E854FD4F41812F
:104290004713F2CF40814613EFCF42814111ECCF5B
:1042A000438154814A1B5B0B483C510528F78091A0
:1042B000ED028F7080618093ED02F901E354FD4FB0
:1042C00080818F708061808388EE92E00E946820F8
:1042D000DF91CF911F910C94E820AF92BF92CF92C3
:1042E000DF92EF92FF920F931F93CF93DF93CDB79F
:1042F000DEB761970FB6F894DEBF0FBECDBF8C015D
:1043000085E0F801DE011D9601900D928A95E1F796
:10431000F80140815181E28088EEC82E82E0D82EDB
:104320006091EB027091EC026115710509F461C1B5
:104330009091E8022091E902892F82238F3F09F4AE
:1043400058C1A380B480F090EA02F501E61BF70B98
:10435000FF2009F4FCC08091ED02382F307FE83C4B
:10436000F10508F0B2C0311179C0FE2C251323C02D
:10437000941321C0E1101FC08F7080618093ED0203
:104380000E940921C6010E9468208091ED02F80177
:1043900085838F2D61960FB6F894DEBF0FBECDBF1B
:1043A000DF91CF911F910F91FF90EF90DF90CF9011
:1043B000BF90AF900895AB2829F0842F85238F3FBD
:1043C00009F033C180E0F82FF170DF2E80FF3CC090
:1043D0008091B6022091B70236E0821315C04D8756
:1043E0005E878D859E850E94D125292F22952F706D
:1043F0002230F0F0243018F59F70F1F0F80195812B
:10440000907FD1F4D12C1EC090E0389FF001399FED
:10441000F00D1124E854FD4F6181651306C06081E1
:10442000641303C062816E110FC001968770D5CFEF
:104430009F7011F0882331F3805E883018F3C80133
:104440000E946820FD2CA5CFEE2009F4A2CF809118
:10445000ED0281608093ED02F12C9BCF251306C005
:10446000941304C0F801EE2009F48DC04D875E87D7
:104470008D859E850E94C520882319F1EE2009F1C3
:104480008091ED02803270F02091E8023091E902D3
:1044900038872F831986BB86AA868C87CE0107961C
:1044A0000E94682086E0F801A8EEB2E001900D922B
:1044B0008A95E1F70E9417210E940921FF24F394B5
:1044C00068CFC8010E946820F9CF311113C07A2D3E
:1044D000B98AA88A6E2D89890E94C92088EE92E047
:1044E0000E94682086E0F60111928A95E9F70E9401
:1044F0000921B2CF25130FC094130DC0E1100BC0DA
:10450000F8018583C8010E94682086E0F6011192B7
:104510008A95E9F73ECF4D875E878D859E850E94FF
:10452000C520882371F2EE2061F28091ED02803285
:1045300008F4B8CF2091E8023091E9023A83298348
:104540001B82BD82AC828E83CE010196A9CFE83C4E
:10455000F10508F041C0FE2CEE2009F4B2CF25137E
:104560002AC0941328C08091ED0280FD1BC0982FB3
:10457000907FC1F0F8018583903F31F0982F907FB4
:10458000905F8F70892B8583C8010E94682086E028
:10459000F801A8EEB2E001900D928A95E1F70E9431
:1045A0000921F7CE86E0F801A8EEB2E001900D9265
:1045B0008A95E1F7EECE4D875E878D859E850E94B8
:1045C000C52081116FCF8091ED0281608093ED0253
:1045D000C8010E946820DDCE7A2DB98AA88A6E2D86
:1045E00089890E94C92086E0F60111928A95E9F72F
:1045F000D6CFEE2009F465CF4D875E878D859E85E9
:104600000E94C520F82E882309F45BCF86E0F801CC
:10461000A8EEB2E001900D928A95E1F788EE92E063
:104620000E943B1D0E941721BACF81E08E25CBCE80
:104630001F93CF93DF93CDB7DEB72C970FB6F894C7
:10464000DEBF0FBECDBF4F83588769877A878B87C0
:104650009C87CE0107960E946D21882369F08A8588
:104660009B85892B39F04F815885842F85238F3F77
:1046700009F071C016E05FC086E0FE013796DE01EA
:10468000119601900D928A95E1F78A859B85892B79
:1046900089F38F81988589238F3F61F32091B70239
:1046A00030E0C9010196877099274091B6024817FA
:1046B000190671F40E94A2201092B7021092B6025D
:1046C00086E0E8EEF2E0DF011D928A95E9F7D2CFAD
:1046D00096E0929FD001939FB00D1124A854BD4F36
:1046E000FE01319601900D929A95E1F78093B70201
:1046F0000E94E820BFCF819FC001112488549D4FA4
:104700000E946D218823E9F0E091B6021E9FF0011E
:104710001124E854FD4F408151816281738184816D
:1047200095810E94D8208091B60290E00196877012
:1047300099278093B6028091B6029091B7028913AF
:10474000DACF2C960FB6F894DEBF0FBECDBFDF9147
:10475000CF911F91089569857A858B859C850E94EC
:10476000D82088CFEF92FF920F931F93CF93DF93C0
:104770008C01892B81F0F12CEE24E394E801219641
:10478000F8018491843770F4843008F05FC0813080
:10479000B1F08230A1F1DF91CF911F910F91FF9085
:1047A000EF900895853709F44CC008F43DC09CE7AC
:1047B000980F903780F78F770E94CA1D49C00E5F0F
:1047C0001F4FFE01849190E2980F983060F487703B
:1047D000FE2D01C0FF0F8A95EAF78F2F0E94472612
:1047E0000E94702602C00E94401D8F2D815030F221
:1047F000EFE9FFE03197F1F700C00000F7CF0E5F5F
:104800001F4FFE01849190E2980F983050F487700A
:10481000FE2D01C0FF0F8A95EAF78F2F0E944D26CB
:10482000DFCF0E94CA1DE1CF0E5F1F4FFE01C49172
:10483000C150D8F28FE99FE00197F1F700C0000066
:10484000F7CF0E5F1F4FFE01F490CFCF0E94401DA7
:104850008E01CBCF08950C942A240E942B246093C0
:1048600006037093070380930803909309030C9445
:10487000902008950C942D240F931F93009106030C
:10488000109107032091080330910903602B712BCD
:10489000822B932B1F910F910C942D240F931F9318
:1048A000009106031091070320910803309109033A
:1048B00060237123822393231F910F910C942D2445
:1048C0000F931F9300910603109107032091080393
:1048D0003091090360277127822793271F910F9139
:1048E0000C942D240C942A240C9472240E94742479
:1048F0006093020370930303809304039093050372
:104900000C94902060E070E0CB010C9476240F931F
:104910001F9341E050E060E070E08A019B0104C019
:10492000000F111F221F331F8A95D2F7C901B8014A
:104930001F910F910C9476240F931F9341E050E048
:1049400060E070E004C0440F551F661F771F8A9512
:10495000D2F78091020390910303A0910403B091D8
:1049600005038A019B01082B192B2A2B3B2BC9011C
:10497000B8011F910F910C9476240F931F9341E07F
:1049800050E060E070E004C0440F551F661F771FC1
:104990008A95D2F7CB01BA01609570958095909574
:1049A0000091020310910303209104033091050349
:1049B00060237123822393231F910F910C947624FB
:1049C0000F931F9341E050E060E070E004C0440F9B
:1049D000551F661F771F8A95D2F780910203909129
:1049E0000303A0910403B09105038A019B010827EA
:1049F00019272A273B27C901B8011F910F910C9451
:104A000076240F931F9300910203109103032091CA
:104A1000040330910503602B712B822B932B1F9184
:104A20000F910C9476240F931F9300910203109121
:104A30000303209104033091050360237123822333
:104A400093231F910F910C9476240F931F93009141
:104A500002031091030320910403309105036027A2
:104A60007127822793271F910F910C947624089524
:104A7000E92FEE0FEE0F9E0F890F982F977041E0F0
:104A800001C0440F9A95EAF786958695869595E03C
:104A9000899FF0011124E251FD4F30E020E070E0E9
:104AA0005191DF011197CB01022E02C09695879597
:104AB0000A94E2F7817081958527842385278C935A
:104AC0002F5F3F4F2530310559F70895E92FEE0F3D
:104AD000EE0F9E0F890F982F977086958695869575
:104AE00025E0829FF0011124E251FD4F50E040E0AB
:104AF00080E0219130E0092E02C0369527950A9476
:104B0000E2F721703327042E01C0220F0A94EAF73E
:104B1000822B4F5F5F4F4530510559F70895BF9283
:104B2000CF92DF92EF92FF920F931F93CF93DF9379
:104B30008C01C0900203D0900303E0900403F09036
:104B400005038091060390910703A0910803B0919B
:104B50000903C82AD92AEA2AFB2ACFE1D0E0BC2ED1
:104B6000D701C6010C2E04C0B695A79597958795D9
:104B70000A94D2F780FD0EC0219788F7B12C8B2DB7
:104B8000DF91CF911F910F91FF90EF90DF90CF9029
:104B9000BF900895B8018C2F0E94FB06019761F326
:104BA000EECFCF93DF93EC010E948F25BE01DF9102
:104BB000CF910C94FB061F93CF93DF93EB01909161
:104BC000B502992331F0CB01DF91CF911F910C9465
:104BD000D125882379F0CB010E948F25182F682FCB
:104BE000CE010E943825BE01812FDF91CF911F9108
:104BF0000C94FB06CB010E946625182FF4CF682F7A
:104C000080911E0190911F010C941A28682F8091A9
:104C10001E0190911F010C94252880911E019091F6
:104C20001F010C94302880910A0385958595859500
:104C3000089580910A038770089590910A039770F0
:104C400081E009F480E0089580912E030895909109
:104C50002E03892B80932E030895809590912E0327
:104C6000982390932E03089510922E030895909107
:104C70002D03892B80932D030895809590912D030A
:104C8000982390932D03089510922D0308959091E9
:104C90002C03892B80932C030895809590912C03ED
:104CA000982390932C03089510922C0308958091DB
:104CB0000B03089508950C945A2690910B039817AE
:104CC00021F080930B030C945B26089580910B03D5
:104CD000882329F010920B0380E00C945B26089542
:104CE000E0911E01F0911F0180912E038083E091DD
:104CF0001E01F0911F01808190912D03892B8083EB
:104D0000E0911E01F0911F01808190912C03892B6D
:104D1000808390910B03992381F0E0911E01F09123
:104D20001F018081892B808380911E0190911F013A
:104D30000E94862781110E94662680911E01909113
:104D40001F010C94BC1B08950C94A32698E0899F26
:104D500090011124622B60930A030E949C2480918D
:104D60000A038595859585950C94A42610920A03CF
:104D700080E00C94A42690910A0380958923809367
:104D80000A03282F277071F4282F082E000C330BEC
:104D90009217130639F08595859585950E94BD2457
:104DA0000C94B626089580E008956FEF7FEF90E0B1
:104DB00080E00C94053290E080E00E94E13121E037
:104DC0008B3E9E4F09F020E0822F089582E090E014
:104DD0000C94D33183E090E00C94D331CF9384E0F2
:104DE00090E00E94D331C82F81E290E00E94D3313D
:104DF000982F8C2FCF910895CF93C92F682F84E0DF
:104E000090E00E94E7316C2F81E290E0CF910C940A
:104E1000E731AB01BC018FE090E00C94F931AB01BC
:104E2000BC0183E190E00C94F93160E070E0CB01CB
:104E30000C940F2760E070E0CB010E9409270C94CE
:104E400015276BEE7EEF90E080E00E94053260E077
:104E500082E090E00E94E73160E083E090E00E9411
:104E6000E731109206031092070310920803109284
:104E7000090360E084E090E00E94E73160E081E2B5
:104E800090E00E94E73160E085E090E00E94E73129
:104E900060E086E090E00E94E7316FEF87E090E00D
:104EA0000E94E73140E050E0BA0188E090E00E94C3
:104EB000F93160E08DE090E00E94E73140E050E0A1
:104EC000BA0188E190E00E94F93160E087E190E06A
:104ED0000E94E73140E050E0BA018CE190E00E948E
:104EE000F93160E080E290E00E94E73140E050E07C
:104EF000BA0188E190E00E94F9310C941A270C94D1
:104F00002127682F8EE090E00C94E731FC01329667
:104F100080912A01882321F08091AE059EE187FFD0
:104F200096E080E0915008F4089521912223D1F376
:104F30008F5FF8CF662301F120912A012223F1F03F
:104F40002091AE0527FF1AC0462F469546954695F7
:104F50004E3190F4677021E030E002C0220F331F21
:104F60006A95E2F7840F911DFC01828190E028236D
:104F7000392381E0232B69F480E00895FC01329607
:104F800008962191261721F0E817F907D1F7F4CFF9
:104F900081E008959C01FC0132969FEF80E04191F1
:104FA000461751F09F3F19F4411101C0982F8F5FB0
:104FB0008630A9F79F3F09F40895290F311D97FD09
:104FC0003A95F90162830895FC0132960896219181
:104FD000261303C0DF0111971C92E817F907B9F7F0
:104FE0000895E62FE695E695E695EE3168F4E80F2C
:104FF000F92FF11D677021E030E001C0220F6A95A2
:10500000EAF78281822B82830895E62FE695E69562
:10501000E695EE3170F4E80FF92FF11D677021E08D
:1050200030E001C0220F6A95EAF72095828128239B
:105030002283089520912A01222329F02091AE0590
:1050400027FD0C94F1270C94CA2720912A012223D2
:1050500029F02091AE0527FD0C9405280C94E42737
:10506000FC01329680912A01882351F08091AE058F
:1050700087FF06C08EE1DF011D928A95E9F708954A
:1050800086E0F9CF089508950C9443288091B405E3
:10509000843059F10E94442880E00E94E7060E9473
:1050A00055101092300388E190E020E40FB6F89498
:1050B000A895809360000FBE2093600083B7817F26
:1050C000846083BF83B7816083BF7894889583B7FA
:1050D0008E7F83BF0FB6F894A89580916000886199
:1050E00080936000109260000FBE08950895CF93E2
:1050F0000E9442280E9443090E947628C0E08C2F1B
:105100000E94E508811105C0CF5FC530C1F7CF917E
:10511000089581E0FCCF08950C948B280E94A22072
:105120000E94B01B0E94E7060E944D110C948C282F
:105130001F921FB61F9211248F939F93AF93BF931B
:1051400080913003811113C08091AA059091AB0525
:10515000A091AC05B091AD054196A11DB11D809304
:10516000AA059093AB05A093AC05B093AD05BF9194
:10517000AF919F918F911F901FBE1F90189582E055
:1051800084BD93E095BD9AEF97BD80936E0008951E
:105190002FB7F8948091AA059091AB05A091AC052A
:1051A000B091AD052FBF08952FB7F8946091AA056F
:1051B0007091AB058091AC059091AD052FBF08951E
:1051C0009C014FB7F8948091AA059091AB05A091EE
:1051D000AC05B091AD054FBF821B930B0895789439
:1051E0001F921FB61F9211248F939F93AF93BF936B
:1051F0008091AA059091AB05A091AC05B091AD0549
:105200000196A11DB11D8093AA059093AB05A093B3
:10521000AC05B093AD05BF91AF919F918F911F9059
:105220001FBE1F90189581E08093E00080E280937C
:10523000D8001092C9008FE19EE40197F1F700C0F9
:10524000000087E090EBDC018093BD059093BE05E4
:10525000A093BF05B093C00588E19CE00FB6F89419
:10526000A895809360000FBE90936000FFCF90934D
:10527000EB018093EA0108950C946A130E9443099C
:105280002FEF86E791E0215080409040E1F700C089
:1052900000000E94430980E00E94E50880FF04C0EE
:1052A0000E943C290C94132908950E94DB26811149
:1052B00002C00E947F270E94E62680932F030E944F
:1052C000EE269093AF058093AE050E94EA26682FE4
:1052D00070E090E080E00E943A24609102037091B7
:1052E000030380910403909105030C94742480912E
:1052F000510308950895CF93DF9300D00F92CDB757
:10530000DEB79091B405943011F589837B836A836D
:105310009093E9008FEF9091E800815095FD06C0D1
:1053200095ED9A95F1F700008111F5CF8091E80095
:1053300085FF0DC050E040E063E070E0CE010196D3
:105340000E94E82B8091E8008E778093E8000F9010
:105350000F900F90DF91CF910895BC0184E00C94E1
:105360007B29BC0183E00C947B29CF93DF93EC0174
:1053700080912A018823B1F18091AE0587FF32C068
:1053800060E284E08093E9008FEF9091E800815023
:1053900095FD06C095ED9A95F1F700008111F5CFC6
:1053A0008091E80085FF1BC080912A0170E050E0E9
:1053B00040E0811104C050E040E068E070E0CE01C0
:1053C0000E94E82B8091E8008E778093E80080E2CD
:1053D000FE01A1E3B3E001900D928A95E1F7DF9120
:1053E000CF91089568E081E0CDCFCF93FC0160328A
:1053F00021F58091B405843001F5C091E900CF70AA
:105400002091EC00922F917020FD90E8C92B82E052
:105410008093E9008091E80080FF0CC050E040E0FC
:1054200060E270E0CF010E94E82B8091E8008E7767
:105430008093E800CF70C093E900CF9108958091E8
:10544000B305811109C00E94C72D0E94242E8091AE
:10545000E20084608093E20008951092B3050895FD
:1054600008950895089542E061EC81E00E94432D83
:1054700042E261EC84E00E94432D42E261EC82E072
:105480000E94432D42E260EC83E00C94432D809116
:10549000B605833009F461C030F48130D1F1823037
:1054A00009F49DC008958A3009F489C08B3009F44D
:1054B0006FC0893009F050C08091B505813209F084
:1054C0004BC08091B9059091BA05009719F00297E9
:1054D00009F042C08091E800877F8093E8008091C6
:1054E000E80082FF35C09091F3008091F2000297AE
:1054F00029F48091F1008B7F813021F48091F100BB
:10550000809351038091E8008B778093E8000C949E
:10551000772D8091B505813AF9F48091E800877F75
:105520008093E8008091B9059091BA05892B61F4C8
:1055300060E281E393E070E00E94862C8091E800B5
:105540008B778093E800089560E090E080E0F3CFEF
:105550008091B4058111C3CF08958091B505813A3A
:10556000D9F78091B9059091BA05892BA9F7809157
:10557000E800877F8093E8008091E80080FFFCCFFF
:1055800080912A018093F1008091E8008E77BDCF51
:105590008091B505813201F78091B9059091BA05E6
:1055A000892BD1F68091E800877F8093E8000E94E4
:1055B000772D8091B70580932A010C94A2208091C9
:1055C000B505813249F68091E800877F8093E80035
:1055D0000E94772D8091B8058093520308958091A1
:1055E000B505813A09F0B8CF8091E800877F8093B4
:1055F000E8008091E80080FFFCCF80915203C2CF89
:10560000CDB7DEB7A0970FB6F894DEBF0FBECDBF03
:1056100084B7877F84BF0FB6F894A8958091600007
:10562000886180936000109260000FBE80E890E077
:105630000FB6F89480936100909361000FBE0E94B2
:10564000351C0E94C72D0E94242E8091E2008460A8
:105650008093E20078940E94AD300E94451C80E265
:1056600091E00E94AB1B13E08091B4058530C9F036
:105670000E94561C8091B4058430D1F00E94431CD6
:105680000E94441CF1CF0E9446288091B2058823D5
:1056900041F00E947728882321F00E94D22B0E949B
:1056A000A2208091B405853071F30E948E28E0CF4E
:1056B0001093E9008091E80082FFE0CF8091E8003C
:1056C00090E085FF09C050E040E060E270E0CE016C
:1056D00001960E94372C91E08091E8008B778093AF
:1056E000E800992359F260E2CE0101960E9422144B
:1056F000C5CF0C947B2B292F33272330310521F183
:1057000068F42130310509F443C02230310509F431
:1057100044C090E080E030E020E026C02132310536
:1057200051F122323105A9F76330710590F7FB0181
:10573000EE0FFF1FE352FE4F2081318166527E4FF4
:10574000FB01808190E010C099278130910581F0A4
:10575000009729F00297E9F6E7E5F6E002C0E9E9EB
:10576000F6E0849190E09F01FA013183208308954F
:10577000E1E8F6E0F6CF6330710558F6660F771F63
:10578000FB01ED51FE4F2081318189E090E0ECCFAB
:1057900082E190E028EF36E0E7CF8BE590E02DE95D
:1057A00036E0E2CF80E189BD82E189BD09B400FE27
:1057B000FDCF8091D8008F7D8093D8008091E0004C
:1057C00082608093E0008091E00081FDFCCF08952D
:1057D000AF92BF92CF92DF92FF920F931F93CF931E
:1057E000DF936C01EB018A010E94962DF82E811146
:1057F00023C00115110539F0F80180819181C81B82
:10580000D90BC80ED91EB12CA12C2097A9F08091DC
:10581000E80085FD22C08091E8008E778093E80043
:1058200001151105A1F0F80180819181A80EB91E22
:10583000B182A08285E0F82E8F2DDF91CF911F914C
:105840000F91FF90DF90CF90BF90AF9008950E948E
:10585000962D8823D1F2F82EEFCFF60181916F01BA
:105860008093F1002197FFEFAF1ABF0ACECFAF921E
:10587000BF92CF92DF92FF920F931F93CF93DF934C
:105880006C01EB018A010E94962DF82E811123C034
:105890000115110539F0F80180819181C81BD90BE0
:1058A000C80ED91EB12CA12C2097A9F08091E80038
:1058B00085FD22C08091E8008B778093E800011578
:1058C0001105A1F0F80180819181A80EB91EB18265
:1058D000A08285E0F82E8F2DDF91CF911F910F913F
:1058E000FF90DF90CF90BF90AF9008950E94962DCB
:1058F0008823D1F2F82EEFCF8091F100F601819349
:105900006F012197FFEFAF1ABF0ACECFFC01809144
:10591000BB059091BC0586179707A0F0611571052E
:1059200029F49091E8009E779093E80090E061154B
:10593000710551F4911108C08091E80082FF34C0D4
:1059400080E00895BC01F2CF8091B4058823C1F1B5
:105950008530C1F18091E80083FD30C08091E8007E
:1059600082FDEACF8091E80080FFE1CF8091F300D3
:105970002091F200382F6115710519F0283031059A
:1059800058F091E02830310509F090E02091E800CE
:105990002E772093E800CBCF81918093F100615066
:1059A00071092F5F3F4FE7CF8091B405882341F005
:1059B000853041F08091E80083FFBECF81E00895FB
:1059C00082E0089583E00895FC018091BB059091E9
:1059D000BC0586179707A0F06115710529F4809121
:1059E000E8008E778093E80090E06115710551F42E
:1059F000911108C08091E80082FF35C080E00895D1
:105A0000BC01F2CF8091B4058823C9F18530C9F17A
:105A10008091E80083FD31C08091E80082FDEACFEB
:105A20008091E80080FFE1CF8091F3002091F200A7
:105A3000382F6115710519F02830310558F091E0C3
:105A40002830310509F090E08091E8008E7780934E
:105A5000E800CBCF84918093F100319661507109B9
:105A60002F5F3F4FE6CF8091B405882341F085300A
:105A700041F08091E80083FFBDCF81E0089582E08E
:105A8000089583E00895982F973028F08F708093C1
:105A9000E90081E008959093E900242F762F50E0EB
:105AA000981731F07091EC002091ED005091F000CA
:105AB00021FD02C09F5FE8CF3091EB003E7F309325
:105AC000EB003091ED003D7F3093ED003091EB0025
:105AD00031603093EB007093EC002093ED00509315
