:100003003132333435360037383934353600000071
:10001300000000000000002F0000000007000700A0
:1000230000147F147F1400242A7F2A1200626408BC
:100033001323003649552250000005030000000039
:100043001C224100000041221C000014083E081439
:100053000008083E0808000000A060000008080827
:100063000808000060600000002010080402003E41
:100073005149453E0000427F4000004261514946DC
:10008300002141454B31001814127F1000274545CC
:100093004539003C4A4949300001710905030036DE
:1000A3004949493600064949291E000036360000F1
:1000B30000005636000000081422410000141414F6
:1000C30014140000412214080002015109060032F1
:1000D3004959513E007C1211127C007F494949362F
:1000E300003E41414122007F4141221C007F49499A
:1000F3004941007F09090901003E4149497A007FCE
:100103000808087F0000417F4100002040413F0173
:10011300007F08142241007F40404040007F020CD2
:10012300027F007F0408107F003E4141413E007F73
:1001330009090906003E4151215E007F091929463C
:100143000046494949310001017F0101003F404018
:10015300403F001F2040201F003F4038403F0063C6
:1001630014081463000708700807006151494543E8
:1001730000007F41410000552A552A5500004141A6
:100183007F000004020102040040404040400000A0
:1001930001020400002054545478007F484444383A
:1001A30000384444442000384444487F00385454C1
:1001B300541800087E0901020018A4A4A47C007F3F
:1001C300080404780000447D4000004080847D00E2
:1001D300007F102844000000417F4000007C041889
:1001E3000478007C0804047800384444443800FC54
:1001F300242424180018242418FC007C0804040870
:1002030000485454542000043F444020003C4040E4
:10021300207C001C2040201C003C4030403C00441B
:1002230028102844001CA0A0A07C004464544C4423
:060233001414141414144D
:0E03F2007FE87E03EF1FAC0670011E4C70F614
:0104000022D9
:0E0401007F507EC3EF1FAC0670011E4C70F6DC
:01040F0022CA
:07038600C200ED24B0F50FE9
:10038D00200004C2B08002D2B0C2B1D2B1E4FFE508
:10039D000F3392B0C2B1E50F25E0F50FD2B10FBF0B
:0203AD0008ED59
:0103AF00222B
:10023900C2A51203F21203F2D2A51203F21203F2BB
:10024900C200750FE212038D1203F2C200750FA0EE
:1002590012038DC200750FC812038D1203F2C2007A
:10026900750F2712038DC200750F8112038DC2000D
:10027900750F2012038D1203F2C200750F2C1203A1
:100289008DC200750F2E12038DC200750F2F120338
:0F0299008D1203F2C200750FAF12038D0203F234
:0203B000AE0796
:1003B200E4FD120386C200750F1012038DC200E421
:1003C200F50F12038DE4FCD2008E0F12038D0CBCCC
:0603D20080F50DBD08DC02
:0103D8002202
:0202F800AE074F
:1002FA0074E02BFB120386C200EEC4540F4410F5BF
:10030A000F12038DC200EE540FF50F12038DE4FE97
:10031A00D20075F006EBA42411F582E5F03400F55D
:10032A0083E5822EF582E43583F583E493F50F1293
:06033A00038D0EBE06DA81
:01034000229A
:0A02A8008D098B0A8A0B890CAC0744
:1002B200E4F50DF50EAB0AAA0BA90C1203D9FB60EB
:1002C20034EC7E00250EFFEE350DFED3EF947AEE70
:1002D200940050E1E50E2CFFAD091202F8740625D8
:1002E2000EF50EE4350DF50D7401250CF50CE43513
:0502F2000BF50B80C0BC
:0102F70022E4
:10034100120239E4FF1203B07BFF7A0079037D01C9
:10035100E4FF1202A87BFF7A00790A7D03E4FF1211
:1003610002A8AB080508E4FDFF1202F8120401120D
:100371000401AB0805087D02E4FF1202F812040132
:0503810012040180DD03
:03000000020410E7
:0C041000787FE4F6D8FD758120020341DE
:1003D900BB010689828A83E0225002E722BBFE0222
:0903E900E32289828A83E4932255
:00000001FF
