:10009E000000000000000000004F000000000700FC
:1000AE00070000147F147F1400242A7F2A120023D5
:1000BE001308646200364955225000000503000003
:1000CE0000001C224100000041221C000014083ECA
:1000DE0008140008083E0808000050300000000810
:1000EE0008080808000060600000002010080402E4
:1000FE00003E5149453E0000427F400000426151A2
:10010E004946002141454B31001814127F1000273B
:10011E0045454539003C4A494930000171090503FE
:10012E0000364949493600064949291E000036362F
:10013E000000000056360000000814224100001492
:10014E00141414140000412214080002015109066F
:10015E0000324979413E007E1111117E007F4949DE
:10016E00493E003E41414122007F4141221C007F19
:10017E0049494941007F09090901003E4149497A2F
:10018E00007F0808087F0000417F410000204041A9
:10019E003F01007F08142241007F40404040007F15
:1001AE000204027F007F0408107F003E4141413E61
:1001BE00007F09090906003E4151215E007F0919A1
:1001CE0029460046494949310001017F0101003F9E
:1001DE004040403F001F2040201F003F4038403F1E
:1001EE00006314081463000304780403006151498A
:1001FE00454300007F4141000015167C1615000096
:10020E0041417F0000040201020400404040404092
:10021E00000001020400002054545478007F48442A
:10022E00443800384444442000384444487F003861
:10023E005454541800087E090102000C5252523ECA
:10024E00007F080404780000447D400000204044F4
:10025E003D00007F102844000000417F4000007EDA
:10026E00020C027C007E0402027C003844444438B6
:10027E00007C1414140800081414187C007C080464
:10028E00040800485454542000043F444020003CCD
:10029E004040207C001C2040201C003C4030403C54
:1002AE00004428102844000C5050503C0044645424
:1002BE004C440000083641000000007F00000000A2
:1002CE00413608000008040810080008082A1C0817
:1002DE0000081C2A08080004027F02040010207F78
:1002EE002010001C2A322A1C001C2244221C000052
:1002FE0000000000000000000000000000000000F0
:10030E0000000000000000000000000000000000DF
:10031E0000000000000000000000000000000000CF
:10032E0000000000000000000000000000000000BF
:10033E00000000000000000000000000000030304F
:10034E000080C06030000C060301000C0C000000A1
:10035E0000303000000000000006060000004040A3
:10036E004040404040000202020202020200000031
:10037E000000000000000000000C0C000000000057
:10038E000080C06030000C06030100000000F8FC85
:10039E0004C424FCF800070F0908080F070000101A
:1003AE0018FCFC0000000008080F0F080800080CDD
:1003BE0084C4643C18000E0F0908080C0C00080CCD
:1003CE00444444FCB800040C0808080F0700C0E0C1
:1003DE00B098FCFC8000000000080F0F08007C7C29
:1003EE004444C4C48400040C0808080F0700F0F845
:1003FE004C4444C48000070F0808080F07000C0C7B
:10040E000484C47C3C0000000F0F00000000B8FC08
:10041E00444444FCB800070F0808080F0700387C56
:10042E00444444FCF800000808080C07030000A030
:10043E00A0A0E0C00000070F0808070F080004FC8A
:10044E00FC2060C08000080F0708080F0700C0E0FE
:10045E00202020604000070F0808080C040080C010
:10046E006024FCFC0000070F0808070F0800C0E01E
:10047E00A0A0A0E0C000070F0808080C040040F878
:10048E00FC440C180000080F0F0800000000C0E02C
:10049E002020C0E02000276F48487F3F000004FC6A
:1004AE00FC4020E0C000080F0F00000F0F000000FE
:1004BE0020ECEC0000000000080F0F080000000008
:1004CE00000020ECEC0000307040407F3F0004FC48
:1004DE00FC80C0602000080F0F01030E0C0000000E
:1004EE0004FCFC0000000000080F0F080000E0E014
:1004FE0060C060E0C0000F0F000F000F0F0020E083
:10050E00C02020E0C000000F0F00000F0F00C0E061
:10051E00202020E0C000070F0808080F070020E089
:10052E00C02020E0C000407F7F48080F070040E059
:10053E00A02020604000040C09090B0E040020E0EE
:10054E00C0602060C000080F0F08000000002020CF
:10055E00F8FC202000000000070F080C0400E0E06B
:10056E000000E0E00000070F0808070F080000E099
:10057E00E00000E0E0000003070C0C070300E0E0E1
:10058E00000000E0E000070F0C070C0F07002060D2
:10059E00C080C0602000080C0703070C0800E0E0D4
:1005AE00000000E0E000474F4848683F1F006060D1
:1005BE0020A0E06020000C0E0B09080C0C000000BF
:1005CE000000000000000000101E0E000000E0F011
:1005DE00988C98F0E0000F0F0000000F0F0004FC45
:1005EE00FC4444FCB800080F0F08080F0700F0F891
:1005FE000C04040C180003070C08080C060004FC7D
:10060E00FC040CF8F000080F0F080C07030004FCA4
:10061E00FC44E40C1C00080F0F08080C0E0004FC30
:10062E00FC44E40C1C00080F0F0800000000F0F85A
:10063E000C84848C980003070C0808070F00FCFC40
:10064E00404040FCFC000F0F0000000F0F000000A8
:10065E0004FCFC0400000000080F0F08000000005E
:10066E000004FCFC0400070F08080F07000004FC40
:10067E00FCC0F03C0C00080F0F00010F0E0004FC34
:10068E00FC0400000000080F0F08080C0E00FCFC14
:10069E00387038FCFC000F0F0000000F0F00FCFC40
:1006AE003870E0FCFC000F0F0000000F0F00F0F898
:1006BE000C040CF8F00003070C080C07030004FCF4
:1006CE00FC44447C3800080F0F0800000000F8FCC2
:1006DE00040404FCF800070F080E3C3F270004FC3E
:1006EE00FC44C4FC3800080F0F00000F0F00183C2C
:1006FE006444C49C1800060E0808080F0700001C6E
:10070E000CFCFC0C1C000000080F0F080000FCFC89
:10071E00000000FCFC00070F0808080F0700FCFC97
:10072E00000000FCFC000103060C06030100FCFCAB
:10073E00008000FCFC00030F0E030E0F03000C3CA8
:10074E00F0C0F03C0C000C0F0300030F0C00000077
:10075E000080C06030000C0603010000000004FCA5
:10076E00FCC0F03C0C00080F0F00010F0E00000043
:10077E000030300000000000080E06000000181CBB
:10078E0004C4E43C18000000000D0D000000080C2D
:10079E000603060C0800202020202020202080A008
:1007AE00E0C0C0E0A08000020301010302000000CF
:1007BE00F0F80C040000000003070C080000000015
:1007CE00040CF8F000000000080C070300000010F5
:1007DE001E0E0000000000000000000000000008D7
:1007EE00183060C0800000080C0603010000008075
:1007FE00C0603018080000000103060C08004040DD
:10080E00404040404000020202020202020000800C
:10081E0080E0E08080000000000303000000808084
:10082E00808080808000000000000000000000003A
:10083E00000000000000C060A0202020202020200A
:10084E00202020202020202020202020202020209A
:10085E00202020202020202020202020202020208A
:10086E0020202020202020204080000000000000BA
:10087E00000000000000000000000000000000006A
:10088E0000000000000000000000FF0105FDFD0556
:10089E000101010101F1F90D050DF9F1010105FD4E
:1008AE00FD0501010101010105FDFD0501FF00002E
:1008BE00000000000000FF000001FE020202F2F242
:1008CE0032323232323232323232323232323232FA
:1008DE003232323232323232323232323232F2F26A
:1008EE000202020202020202020203FE00000000E5
:1008FE0000000000000000000000000000000000EA
:10090E0000000000000000000000FF80888F8F882C
:10091E00888C8E808083878C888C87838080888F5C
:10092E008F88888C8E808080888F8F8880FF0000D3
:10093E00000000000000FF000000FF000000FFFFAD
:10094E002010080402010101010106186080000058
:10095E000080000000000000C03806FC0000FFFF11
:10096E000000000000000000000000FF000000007A
:10097E000000000000000000000000000000000069
:10098E000000000000000000000000000000000059
:10099E000000000000000000000000000000000049
:1009AE000000000000000000000000000000000039
:1009BE00000000000000FF000000FF000000FFFF2D
:1009CE000000000000000000000000000007080EFC
:1009DE000100017E8080403E010000010204FFFF05
:1009EE000080402E9995910E000000FF000000003F
:1009FE0000000000000000000000000008080808C9
:100A0E00080888F8848484840404040000000040EC
:100A1E006030AEA29830007F8888844000000000CD
:100A2E0000000000000000000000000000000000B8
:100A3E000000000000000F1020407F4040404F4F4C
:100A4E004C4C4C4C4C4C4C4C4C4C4C4C4C4C4C4CD8
:100A5E004C4C4C4C4C4C4C4C4CCC4C6C5C4C4F4F12
:100A6E004140C067584E48474040407F000000005C
:100A7E000000000000000000000000404020201098
:100A8E000806214040601C03010000000000000029
:100A9E00601F0A8AFF00007E8888848080700000B4
:100AAE000000000000000000000000000000000038
:100ABE000000000000000000000000000000000028
:100ACE000000000000000000000000000000000018
:100ADE00000000000000E01C020100C03008080405
:100AEE0002010000000000000000000000000000F5
:100AFE0000000000000000000000000000000000E8
:100B0E00000000000000000080701800001060005F
:100B1E0000C07000000000000000000000A0A0A0B7
:100B2E00FC9050500000000000000000000000008B
:100B3E0000000000000000000000000000000000A7
:100B4E000000000000000000000000000000000097
:100B5E0000000000000718608000800304080808E9
:100B6E001010102020702020202000000000000017
:100B7E000000000000000000000000000000000067
:100B8E00000000000008040201FF8080414224188A
:100B9E003C63C08080000000808044442414FA0E20
:100BAE009312225941818080000000000000000055
:100BBE000000000000000000000000000000000027
:100BCE000000000000000000000000000000000017
:100BDE0000000000000000000201020408000000F6
:100BEE0000000000000000000000000000000000F7
:100BFE0000000000000000000000000000000000E7
:100C0E0000000000000000000001000000000000D5
:100C1E0000000001010100000000000000000301BF
:100C2E0000000000000001010100000000000000B3
:100C3E0000000000000000000000000000000000A6
:100C4E000000000000000000000000000000000096
:100C5E000000000000000000000000000000000086
:100C6E000000000000000000000000000000000076
:100C7E000000000000000000000000000000000066
:100C8E000000000000000000000000000000000056
:100C9E000000000000000000000000000000000046
:100CAE000000000000000000000000000000000036
:100CBE000000000000000000000000000000000026
:100CCE000000000000000000000000000000000016
:100CDE000000000000000000000000000000000006
:100CEE0000000000000000000000000000000000F6
:100CFE0000000000000000000000000000000000E6
:100D0E0000000000000000000000000000000000D5
:100D1E0000000000000000000000000000000000C5
:100D2E0000000000000000000000000000000000B5
:100D3E0000000000000000000000000000000000A5
:100D4E000000000000000000000000000000000095
:100D5E000000000000000000000000000000000085
:100D6E000000000000000000000000000000000075
:100D7E000000000000000000000000000000000065
:100D8E000000000000000000000000000000000055
:100D9E000000000000000000000000000000000045
:100DAE000000000000000000000000000000000035
:100DBE000000000000000000000000000000000025
:100DCE000000000000000000000000000000000015
:100DDE000000000000000000000000000000000005
:100DEE0000000000000000000000000000000000F5
:100DFE0000000000000000000000000000000000E5
:100E0E0000000000000000000000000000000000D4
:100E1E0000000000000000000000000000000000C4
:100E2E0000000000000000000000000000000000B4
:100E3E0000FF01010101010101FF0000000000009F
:100E4E0000FF0101FF0000000000FF01010101FF92
:100E5E000000000000000000000000000000000084
:100E6E000000000000000000000000000000000074
:100E7E000000000000000000000000000000000064
:100E8E000080C0603000FCFC404040FCFC00606014
:100E9E0020A0E06020000000000000000000000024
:100EAE0000000000000000000000000000002020F4
:100EBE00203F000000000000003F202020202020C6
:100ECE00203F00003F20202020203F000000003F58
:100EDE0020202000000000000000000000000000A4
:100EEE0000000000000000000000000000000000F4
:100EFE0000000000000000000000000000000C06D2
:100F0E000301000000000F0F0000000F0F000C0E79
:100F1E000B09080C0C00000000000000000000008F
:100F2E0000000000000000000000000000000000B3
:100F3E0000000000000000000000000000000000A3
:100F4E000000000000000000000000000000000093
:100F5E000000000000000000000000000000000083
:10114E000000000000000000000080C04040C00011
:10115E000000000000000000000000000000000081
:10116E000000000000000000000000000000000071
:10117E000000000000000000000000000000000061
:10118E000000000000000000000000000000000051
:10119E000000000000000000000000000000000041
:1011AE000000000000000000000000000000000031
:1011BE000000000000000000000606C63E345490F9
:1011CE001010101010101010101010109050311E22
:1011DE007080000000000000000000000000000011
:1011EE0000000000000000000000000000000000F1
:1011FE0000000000000000000000000000000000E1
:10120E0000000000000000000000000000000000D0
:10121E0000000000000000000000000000000000C0
:10122E00000000000000000000000000000000E0D0
:10123E001008040404020242724E434244444870B1
:10124E00C142ECD078F030F00804E2190402020238
:10125E0001031D6101010202020418E000000000FA
:10126E000000000000000000000000000000000070
:10127E000000000000000000000000000000000060
:10128E000000000000000000000000000000000050
:10129E000000000000000000000000000000000040
:1012AE00000000000000000000000000000000012F
:1012BE000204080808101010101010080808040383
:1012CE0000000000010103000000000304040808F0
:1012DE001010101010100808040403000000000085
:1012EE0000000000000000000000000000000000F0
:1012FE0000000000000000000000000000000000E0
:10130E0000000000000000000000000000000000CF
:10131E0000000000000000000000000000000000BF
:1015BE00804020101008080404020202FA0606FAFF
:1015CE0002020404080810102040800000000000F1
:1015DE0000000000000000000000000000000000FD
:1015EE0000000000000000000000000000000000ED
:1015FE0000000000000000000000000000000000DD
:10160E0000000000000000000000000000000000CC
:10161E0000000000000000000000000000000000BC
:10162E000000000000000000000000000000007E2E
:10163E00810000000000000000000000C73838C71D
:10164E0000000000000000000000817E000000008D
:10165E00000000000000000000000000000000007C
:10166E00000000000000000000000000000000006C
:10167E00000000000000000000000000000000005C
:10168E00000000000000000000000000000000004C
:10169E00000000000000000000000000000000003C
:1016AE00000000000000000000000000000000002C
:1016BE000102040808101020202040405F60605F87
:1016CE004040202010100808040201000000000015
:1016DE0000000000000000000000000000000000FC
:1016EE0000000000000000000000000000000000EC
:1016FE0000000000000000000000000000000000DC
:10170E0000000000000000000000000000000000CB
:1019BE00804020101008080404020202FA0606FAFB
:1019CE0002020404080810102040800000000000ED
:1019DE0000000000000000000000000000000000F9
:1019EE0000000000000000000000000000000000E9
:1019FE0000000000000000000000000000000000D9
:101A0E0000000000000000000000000000000000C8
:101A1E0000000000000000000000000000000000B8
:101A2E000000000000000000000000000000007E2A
:101A3E008100000000000080402010907F30307F39
:101A4E0090102040800000000000817E0000000009
:101A5E000000000000000000000000000000000078
:101A6E000000000000000000000000000000000068
:101A7E000000000000000000000000000000000058
:101A8E000000000000000000000000000000000048
:101A9E000000000000000000000000000000000038
:101AAE000000000000000000000000000000000028
:101ABE00010204080C1231282422414040404040CB
:101ACE00404122242811120C0402010000000000E3
:101ADE0000000000000000000000000000000000F8
:101AEE0000000000000000000000000000000000E8
:101AFE0000000000000000000000000000000000D8
:101B0E0000000000000000000000000000000000C7
:101B1E0000000000000000000000000000000000B7
:101B2E0000000000000000000000000000000000A7
:101B3E000000000000000000000000000000000097
:101B4E000000000000000000000000000000000087
:101B5E000000000000000000000000000000000077
:101B6E000000000000000000000000000000000067
:101B7E000000000000000000000000000000000057
:101B8E000000000000000000000000000000000047
:101B9E000000000000000000000000000000000037
:101BAE000000000000000000000000000000000027
:101BBE000000000000000000000000000000000017
:101BCE000000000000000000000000000000000007
:101BDE0000000000000000000000000000000000F7
:101BEE0000000000000000000000000000000000E7
:101BFE0000000000000000000000000000000000D7
:101C0E0000000000000000000000000000000000C6
:101C1E0000000000000000000000000000000000B6
:101C2E0000000000000000000000000000000000A6
:101C3E000000000000000000000000000000000096
:101C4E000000000000000000000000000000000086
:101C5E000000000000000000000000000000000076
:101C6E000000000000000000000000000000000066
:101C7E000000000000000000000000000000000056
:101C8E000000000000000000000000000000000046
:101C9E000000000000000000000000000000000036
:101CAE000000000000000000000000000000000026
:101CBE000000000000000000000000000000000016
:101CCE00000000000000FC04E42424242424242426
:101CDE0024242424242424242424242424242424B6
:101CEE0024242424242424242424242424242424A6
:101CFE002424242424242424242424242424242496
:101D0E002424242424242424242424242424242485
:101D1E00242424E404FC0000000000000000000065
:101D2E0000000000000000000000000000000000A5
:101D3E000000000000000000000000000000000095
:101D4E00000000000000FF00FF0000000000000087
:101D5E000000000000000000000000000000000075
:101D6E000000000000000000000000000000000065
:101D7E000000000000000000000000000000000055
:101D8E000000000000000000000000000000000045
:101D9E00000000FF00FF0000000000000000000037
:101DAE000000000000000000000000000000000025
:101DBE000000000000000000000000000000000015
:101DCE00000000000000FF00FF0000000000000007
:101DDE0000000000000000000000000000000000F5
:101DEE0000000000000000000000000000000000E5
:101DFE0000000000000000000000000000000000D5
:101E0E0000000000000000000000000000000000C4
:101E1E00000000FF00FF00000000000000000000B6
:101E2E0000000000000000000000000000000000A4
:101E3E000000000000000000000000000000000094
:101E4E000000000000000F080B0A0A0A0A0A0A0A1C
:101E5E000A0A0A0A0A0A0A0A0A0A0A0A0A0A0A0AD4
:101E6E000A0A0A0A0A0A0A0A0A0A0A0A0A0A0A0AC4
:101E7E000A0A0A0A0A0A0A0A0A0A0A0A0A0A0A0AB4
:101E8E000A0A0A0A0A0A0A0A0A0A0A0A0A0A0A0AA4
:101E9E000A0A0A0B080F00000000000000000000F4
:101EAE000000000000000000000000000000000024
:101EBE000000000000000000000000000000000014
:101ECE000000000000000000000000000000000004
:101EDE0000000000000000000000000000000000F4
:101EEE0000000000000000000000000000000000E4
:101EFE0000000000000000000000000000000000D4
:101F0E0000000000000000000000000000000000C3
:101F1E0000000000000000000000000000000000B3
:101F2E0000000000000000000000000000000000A3
:101F3E000000000000000000000000000000000093
:101F4E000000000000000000000000000000000083
:101F5E000000000000000000000000000000000073
:101F6E000000000000000000000000000000000063
:101F7E000000000000000000000000000000000053
:101F8E000000000000000000000000000000000043
:101F9E000000000000000000000000000000000033
:101FAE000000000000000000000000000000000023
:101FBE000000000000000000000000000000000013
:101FCE000000000000000000000000000000000003
:101FDE0000000000000000000000000000000000F3
:101FEE0000000000000000000000000000000000E3
:101FFE0000000000000000000000000000000000D3
:10200E0000000000000000000000000000000000C2
:10201E0000000000000000000000000000000000B2
:10202E00000000000000000000000000000040A0C2
:10203E001008041E10101010F00000000102040F12
:10204E000101010101001010921212F212129210EF
:10205E00100004020100080F0000000106002244D7
:10206E0000FC24E4243F24E40C00040208070808C2
:10207E000502050808002027A5A5673867A5AD3716
:10208E002000010F0A0A0E000E0A0A0F0100FC249E
:10209E002424FF242424FC0000000301010107096D
:1020AE00090909080E0000FE02424242FA4242426B
:1020BE0002000807080808080F08090A080040442B
:1020CE005454D47FD454544440000404020F0804E2
:1020DE000102040A090022440024B42CA526A434CB
:1020EE0064000402080403000F0007080E00744F7A
:1020FE00F44024E4BCA7A4A4200002020F010002B5
:10210E0002040609000011F2007A4ACAFFCA4A7A8E
:10211E0002000807080A09080F08090A080010112A
:10212E00F2004F49BF292FA96F00080403040A0AC1
:10213E000A0909080800645CF74410F7555555F76D
:10214E00100002020F0104070505050F0200201002
:10215E002C23E0202023EC102000000804030008AC
:10216E000808070000008868FF4800FE1212F111EF
:10217E00110000000F08060100000F0000002010E3
:10218E00FC031860810680601C0000000F0008042C
:10219E0002010204080010DE10FF1292F90DEB0985
:1021AE00F900090804020100090403040900028A67
:1021BE00529AD6B3D28A528A020002020202020F49
:1021CE000202020202001011F200202020FF202045
:1021DE002000000007020100000F0000000010FCAC
:1021EE0003045454555654540400000F00000F05B8
:1021FE000505050F00002020AF69292929292F2068
:10220E0020000000010101010109090700000E086C
:10221E008878CF484849CA0808000402090804050E
:10222E0002050408080020108E8888FF8888880818
:10223E00000008080808080F0808080808002027EA
:10224E00A5A5673867A5AD372000010F0A0A0E0055
:10225E000E0A0A0F01008682A2CA9283FA82828235
:10226E008600080804040201000202040800FE228F
:10227E0022FE0008488808FF080007020207000037
:10228E000009080F00008868FF48042526FC262553
:10229E00040000000F000101010F01010100040400
:1022AE00846414FF14648404040002010202020F09
:1022BE0002020201020020FEABFE000CE405864481
:1022CE002C000807080F0000070908080E00886890
:1022DE00FF2840FE0202FE00000000000F0804036B
:1022EE00000007080E002244FE02FA02FE00FC0067
:1022FE00FF00040209040304090001080F0011F293
:10230E00000024E42404FF040500000F0400040769
:10231E00020003040E0040A01008041E101010103E
:10232E00F00000000102040F010101010100F88814
:10233E008888888F02048850200000000000000763
:10234E0002010000000004CB12E6AAACABEA0EFAC2
:10235E000200000F00030202020B080F0000009F94
:10236E007555D55555D5555FC000010804020904B1
:10237E00020908080700482A987F284A10EF08F833
:10238E000800090B05050B000805020508000C04E2
:10239E0024242526A46424040C0001010109090F3C
:1023AE00010101010100404A5242C6EAC1415149B0
:1023BE00400004040201000F0001020404008868BA
:1023CE00FF48042526FC2625040000000F0001010D
:1023DE00010F010101008868FF4802FAAFAAAFFAA7
:1023EE00020000000F000A0A0603060A0A00084847
:1023FE0048C8484808FF08090A00080808070404E6
:10240E00040003040E00FC242424FF242424FC00D6
:10241E000000030101010709090909080E00224401
:10242E0040FC2010FF0804FC00000402000708080E
:10243E000B0809090C0000FC4444FF4444FF4444CB
:10244E00FC00000F04040704040704040F0098D4D2
:10245E00B388004848FF24A5260004040202080899
:10246E00040305080E00744FF44024E4BCA7A4A492
:10247E00200002020F01000202040609000011F200
:10248E00007A4ACAFFCA4A7A02000807080A0908EF
:10249E000F08090A0800007F494949FF4949497F49
:1024AE00000008090909090F09090909080012D2D3
:1024BE00FE51802F29E9292F000001000F00080985
:1024CE00090F0909080000FE92FE20E909FA629040
:1024DE0008000807080F0201080F0001020006EAB3
:1024EE002A3E2AAB2A3E2AEA060008090404020103
:1024FE00060808090C0008FFA9A9A9FBADA9A9FFA8
:10250E000800080A0A0A0A0F0A0A0A0A0800828242
:10251E00BAAAAAABAAAABA8282000F00000E0A0AB1
:10252E000A0E00080F0098D4B38802FE8202322EE3
:10253E00E0000404020A0601080502050800020272
:10254E0002FE2222222222E20200080403000000E0
:10255E0008080807000000FE929292FE929292FEE8
:10256E0000000807000000070008080F00000082A6
:10257E0092DAD6B2B19189C1800008040200080F28
:10258E0000000204090098D4B3880064D44DC654E8
:10259E00E400040402020804030007080C001011F2
:1025AE00F20050CF41414FD0100000000702080842
:1025BE000502050808001017D555577D5755D51734
:1025CE00100008080F08080E08080F0808004642F9
:1025DE00AAA6928B92A6AA42460000000F040404FB
:1025EE0004040F00000000FE02EAAAEA029F629BAA
:0E25FE00C20009060006080A0D080C020D00B6
:085728007F187E55DEFEDFFC58
:015730002256
:1056CC00AD07AC06ED1DAE0470011C4E6005125703
:0456DC002880F1220F
:1056E00075C5018FC38DC475C65A75C6A5AFC222D4
:1056F00075C5028BC28FC38DC475C65A75C6A522E7
:0F57000075C5038FC3E4F5C475C65A75C6A522D7
:1054110075C782E4FDFF1256E0EF64F0600EE4F51B
:1054210035F566755B32F55EF56D80257D01E4FF2E
:105431001256E08F350DFF1256E08F660DFF1256A2
:10544100E08F5B0DFF1256E08F5E0DFF1256E08F6D
:055451006DE4F5C72227
:1056540075C782E4FF1257007BF0E4FD1256F0ABED
:10566400350D1256F0AB660D1256F0AB5B0D1256AB
:10567400F0AB5E0D1256F0AB6D0D1256F0F5C7226D
:105456008F20C2C1A20792B7D2C1C2C1A20692B71B
:10546600D2C1C2C1A20592B7D2C1C2C1A20492B72B
:10547600D2C1C2C1A20392B7D2C1C2C1A20292B71F
:10548600D2C1C2C1A20192B7D2C1C2C1A20092B713
:05549600D2C1C2C122D9
:03000600C2B4225F
:03000E00D2B42247
:10531700120006C2B57F027E001256CCD2B57F0AB4
:105327007E001256CCC2B67FE21254567F2C12541E
:10533700567F2E1254560F1254567F231254567FFF
:10534700811254567F281254567FA21254567FC892
:105357001254567FA01254567F401254567FAF12F4
:075367005456D2B602000EFD
:10568400E4FEC2B6EE24B0FF1254567F10125456F4
:10569400E4FF125456D2B6FD124A1EFF1254567439
:0E56A4000129F9E43AFA0DBD80EE0EBE08D4DD
:0156B20022D5
:10007A007B017A007900E4FFE4FEE4124A3704299E
:0C008A00F9E43AFA0EBE80F20FBF08EC59
:010096002247
:0653C2008F0C8D0D8B0E17
:1053C800E4F975F006E50CA424DEF582E5F034FF77
:1053D800F583E58229F582E43583F583E493FFE9D3
:1053E800FDE50D2DFDE433FC75F080E50EA42400E9
:1053F800F582E5F03400F583E5822DF582E5833CFE
:08540800F583EFF009B906BAC3
:015410002279
:08516B008B0D8A0E890F8D10D7
:10517300E4F512AB0DAA0EA90F124A1EFFE512FDAC
:10518300E5102DFDE433FC75F080E511A42400F552
:1051930082E5F03400F583E5822DF582E5833CF565
:1051A30083EFF07401250FF50FE4350EF50E0512AC
:1051B300E512B408BEE4F512AB0DAA0EA90F124A0C
:1051C3001EFFE512FDE5102DFDE433FC75F080E5CF
:1051D30011A42480F582E5F03400F583E5822DF5F2
:1051E30082E5833CF583EFF07401250FF50FE43579
:0A51F3000EF50E0512E512B408BE19
:0151FD00228F
:0851FE008B0D8A0E890F8D1044
:10520600E4F512AB0DAA0EA90F124A1EFFE512FD18
:10521600E5102DFDE433FC75F080E511A42400F5BE
:1052260082E5F03400F583E5822DF582E5833CF5D1
:1052360083EFF07401250FF50FE4350EF50E051218
:10524600E512B40CBEE4F512AB0DAA0EA90F124A74
:105256001EFFE512FDE5102DFDE433FC75F080E53B
:1052660011A42480F582E5F03400F583E5822DF55E
:1052760082E5833CF583EFF07401250FF50FE435E5
:0A5286000EF50E0512E512B40CBE81
:0152900022FB
:10536E00740F900C00F0A304F0A304F0A3E4F0FF7C
:02537E008F0896
:10538000E4F509750A01750B0C750C00AB0AAA0B44
:10539000A90C124A1EFF602975F018A4243CF97468
:1053A0002035F0FA7BFF850811AD091251FE74011A
:1053B000250CF50CE4350BF50B740C2509F509806B
:0153C000CB21
:0153C10022C9
:0C556600F0A37473F0A3E4F07D047F5AFE
:045572008D08AE07EB
:10557600750901750A0C750B16AB09AA0AA90B1257
:105586004A1EFF6018AD06AB081253C27401250B04
:0D559600F50BE4350AF50A74062EFE80DCE4
:0155A30022E5
:045523008F088D0957
:10552700750A01750B0C750C0AAB0AAA0BA90C12AC
:105537004A1EFF602975F010A424FCF9740235F0A7
:10554700FA7BFF850911AD0812516B7401250CF523
:0E5557000CE4350BF50B74082508F50880CB25
:015565002223
:104FA30074002CF582E43404F583E01313543FFFBB
:104FB300E4F536F537F539F53AF53CF53DF53EF5CB
:104FC3003FEFC394085011753680E536A807088073
:104FD30002C313D8FCF53622EFC39410501575376E
:104FE30080EF24F8FFE537A807088002C313D8FC35
:104FF300F53722EFC394185015753980EF24F0FF6D
:10500300E539A807088002C313D8FCF53922EFC39A
:1050130094205015753A80EF24E8FFE53AA8070875
:105023008002C313D8FCF53A22EFC39428501575B8
:105033003C80EF24E0FFE53CA807088002C313D8B7
:10504300FCF53C22EFC394305015753D80EF24D816
:10505300FFE53DA807088002C313D8FCF53D22EF06
:10506300C394385015753E80EF24D0FFE53EA80762
:10507300088002C313D8FCF53E22EFC394405014BA
:10508300753F80EF24C8FFE53FA807088002C313DC
:05509300D8FCF53F22EE
:104DAA00E4FDE543647F45427003FE8004E5430465
:104DBA00FEAC06ECC394805070124FA374002DF51C
:104DCA0082E43400F583E53FF074802DF582E43403
:104DDA0000F583E53EF074002DF582E43401F58395
:104DEA00E53DF074802DF582E43401F583E53CF06D
:104DFA0074002DF582E43402F583E53AF074802DCF
:104E0A00F582E43402F583E539F074002DF582E485
:104E1A003403F583E537F074802DF582E43403F525
:104E2A0083E536F00D0C024DBDE4FCECC39E5070D8
:104E3A00124FA374002DF582E43400F583E53FF0A8
:104E4A0074802DF582E43400F583E53EF074002D7C
:104E5A00F582E43401F583E53DF074802DF582E4B2
:104E6A003401F583E53CF074002DF582E43402F553
:104E7A0083E53AF074802DF582E43402F583E5394E
:104E8A00F074002DF582E43403F583E537F074807D
:104E9A002DF582E43403F583E536F00D0C024E3528
:014EAA0022E5
:104C160090000074FEF0900080740FF09001007414
:104C2600FEF0900180740FF090020074FEF0900286
:104C360080740FF090030074FEF0900380740FF000
:104C460090007F74FEF09000FF740FF090017F7467
:104C5600FEF09001FF740FF090027F74FEF0900258
:104C6600FF740FF090037F74FEF09003FF740FF053
:104C76007D01ED2FFBE43EFA74002BF58274043AB5
:104C8600F583E030E01C74002DF582E43400F583F2
:104C96007419F074802DF582E43400F5837410F0F5
:104CA600801A74002DF582E43400F5837401F074E3
:104CB600802DF582E43400F5837416F0ED2FFBE4C5
:104CC6003EFA74002BF58274043AF583E030E11C59
:104CD60074002DF582E43401F5837419F074802D87
:104CE600F582E43401F5837410F0801A74002DF512
:104CF60082E43401F5837401F074802DF582E43486
:104D060001F5837416F0ED2FFBE43EFA74002BF5E3
:104D16008274043AF583E030E21C74002DF582E4D7
:104D26003402F5837419F074802DF582E43402F5AB
:104D3600837410F0801A74002DF582E43402F58332
:104D46007401F074802DF582E43402F5837416F054
:104D5600ED2FFBE43EFA74002BF58274043AF583DA
:104D6600E030E31C74002DF582E43403F5837419F6
:104D7600F074802DF582E43403F5837410F0801A04
:104D860074002DF582E43403F5837401F074802DEC
:104D9600F582E43403F5837416F00DED647F600349
:034DA600024C7844
:014DA90022E7
:04529100AD07AC06B3
:10529500E4FEEE2DFBE43CFA74002BF58274043A2F
:1052A500124FAB74002EF582E43400F583E53FF030
:1052B50074802EF582E43400F583E53EF074002E0B
:1052C500F582E43401F583E53DF074802EF582E442
:1052D5003401F583E53CF074002EF582E43402F5E3
:1052E50083E53AF074802EF582E43402F583E539DE
:1052F500F074002EF582E43403F583E537F074800D
:105305002EF582E43403F583E536F00EEE64807005
:015315008116
:015316002274
:104EAB00EFC3940850127E80EEA807088002C3134C
:104EBB00D8FCFE7F07024F80EFC3941050167E8004
:104ECB00EF24F8FFEEA807088002C313D8FCFE7F7F
:104EDB0006024F80EFC3941850167E80EF24F0FF2C
:104EEB00EEA807088002C313D8FCFE7F05024F8093
:104EFB00EFC3942050157E80EF24E8FFEEA807083F
:104F0B008002C313D8FCFE7F04806AEFC394285041
:104F1B00157E80EF24E0FFEEA807088002C313D8AC
:104F2B00FCFE7F03804FEFC3943050157E80EF243F
:104F3B00D8FFEEA807088002C313D8FCFE7F0280BF
:104F4B0034EFC3943850157E80EF24D0FFEEA807C2
:104F5B00088002C313D8FCFE7F018019EFC3944075
:104F6B0050137E80EF24C8FFEEA807088002C313FE
:104F7B00D8FCFEE4FFE4FD75F080EFA42400F5827D
:104F8B00E5F03400F583E5822DF582E43583F58376
:074F9B00E04EF00DBD80E0C7
:014FA20022EC
:10549B007F04EFC394825028E4FE75F080EEA424C1
:1054AB0000F582E5F03400F583E5822FF582E435D3
:1054BB0083F58374FFF00EBE08E0740A2FFF80D2D1
:1054CB007F0C124EAB7F19124EAB7F26124EAB7F69
:0454DB0033024EAB9F
:0655E2007BFF7A0C793C0E
:1055E800E4FFE4FE124A1EFD75F080EFA42400F5E6
:1055F80082E5F03400F583E5822EF582E43583F503
:1056080083EDF0740129F9E43AFA0EBE80D60FBF93
:0256180008D0B8
:01561A00226D
:10001E00C2C575B42075BA8090FF147408F090FFB5
:10002E00F27410F090FFF17464F090FFF0E4F09031
:10003E00FF11F090FF13F075BC80759DFF75B80928
:10004E00758903758E14758BF0758DD875D5B07551
:10005E00D43CF59475930FF5927591FF759601F555
:0C006E0095F5B275B10475CA10F5C922F1
:1055A4007F647E001256CC12001E1254111253173F
:1055B400D2A01200067BFF7A08793C1256841200AE
:1055C4000E12007A7FE87E031256CCD222D208D281
:0E55D4008C75D10875A88A75AF20B28280FC54
:0300030002570F92
:0D570F00C0E00565E56570020564D0E0327C
:03000B0002509808
:10509800C0E0C083C082C0D075D000C000C006C0C8
:1050A80007B280301E190543E54370020542D394C8
:1050B8007FE54294004059754200754300805130A5
:1050C800092E0543E54370020542D394FFE5429457
:1050D80007400C754200754300C209C21FD208740C
:1050E800002543F58274043542F583E580F080623B
:1050F8003016310543E54370020542D394FFE5427B
:105108009407400C754200754300C216C21FD208AE
:1051180074002543F58274043542F583E5BDF075C6
:10512800BCE9802E30082B758A74758CFFAFBD756D
:1051380044008F45E545AE447802C333CE33CED81C
:10514800F9F5458E44AFBE2FF545E43544F5447571
:10515800BC88B280D007D006D000D0D0D082D0830F
:03516800D0E03262
:0300130002561B77
:10561B00C0E0C0D075D000C007AF8D7549008F4A70
:10562B00E54A754A00F549AF8BEF254AF54AE43553
:10563B0049F549C313F549E54A13F54A758B0075CE
:09564B008D00D007D0D0D0E03270
:03001B000256B3D7
:1056B300301C0BC2CC85308B852E8DC21C32D2CCD4
:0956C300853B8B852F8DD21C3232
:03009B0002260C2E
:10260C00C0E0C0F0C083C082C0D075D000C000C094
:10261C0001C002C003C004C005C006C007B28105DA
:10262C0040E540D3942740077540000527D20CE5C0
:10263C0027D3943B40057527000538E538D39463C0
:10264C004003753800300C50C20C856446856547D4
:10265C00756400756500E535B4053DAE46AF47AB16
:10266C0007AA06E4F9F8AF5BFCFDFE124AB0E47B66
:10267C003A7A01F9F8124AB08F348E338D328C319C
:10268C00E52B2534F52BE52A3533F52AE5293532AA
:10269C00F529E5283531F528301D0E056AE56AD394
:1026AC00941E4005756A00C21D30A112300D11C276
:1026BC000D301804C2188008D218D21A8002D20D1C
:1026CC0030A227300E26C20E301804B214801DE53D
:1026DC0035B40104B2118014E535B40604B221807E
:1026EC000BE535B40506B21B8002D20E20A5030201
:1026FC002844200F03022846C20F301805B20A02E4
:10270C002846E535B40107B21ED217022846E53536
:10271C006402706B300904C2098072E566C3940AC6
:10272C005058D209D21FC208E5667002807AE5665D
:10273C00B401030227C2E566B402030227CFE566A3
:10274C00B403030227DCE566B404030227E9E5665B
:10275C00B405030227F6E566B40603022803E56612
:10276C00B4070302280DE566B40803022817E566D2
:10277C0064096003022846022821D20902282BE5AD
:10278C003564036003022831301609C216C21FD209
:10279C0008022846E566C3940A4003022829D2168B
:1027AC00D21FC208E5667009758AE0758CB10228E3
:1027BC0046E566B40108758AF0758CD8807CE566B0
:1027CC00B40208758A60758CF0806FE566B40308F6
:1027DC00758A30758CF88062E566B40408758A18C1
:1027EC00758CFC8055E566B40508758A70758CFE91
:1027FC008048E566B40605758A38801CE566B40722
:10280C0005758A9C8012E566B40805758AD880081F
:10281C00E566B40925758AEC758CFF801DD216D23D
:10282C001FC28C8015E535B40510752B00752A0078
:10283C007529007528008002D20F30A373301072F6
:10284C00C210301804B2248069E535B4010BD217DC
:10285C00E566C3940A505B801EE535B4020BD217B3
:10286C00E566C3940A504B800EE535B4030FD217BE
:10287C00E566C3940A503B0566D2238035E535B432
:10288C000508D21D055BD2238028E535B4070FD28D
:10289C000BE55EC39408501A055ED2238014E5350F
:1028AC00B4080FE56DC394025008056DD223800265
:1028BC00D21030A47A301279C212301804B21980B6
:1028CC0070E535B4010BD217E566D39400406280F5
:1028DC001EE535B4020BD217E566D3940040528046
:1028EC000EE535B4030FD217E566D39400404215BC
:1028FC0066D223803CE535B4050FD21DE55BD3943D
:10290C0000402E155BD2238028E535B4070FD20B7F
:10291C00E55ED39400401A155ED2238014E535B4DD
:10292C00080FE56DD394004008156DD2238002D2B8
:10293C00120569E5696401600302466C2018030204
:10294C0031BFE5597003022DB4E55A602064017063
:10295C00030246A6E55A640270030246A6E55A64D1
:10296C000370030246A6E55A64040246A6301A090F
:10297C00C21A755600C224C21912007AE5596401B4
:10298C006003022ABC30240BC224E556D3940040C9
:10299C0002155630190BC219E556C39402500205A4
:1029AC0056E556C394015057900C007417F0A304CD
:1029BC00F0A37427F0A304F0A3741F125379900CA6
:1029CC00007425F0A304F0A304F0A304F0A3E4F036
:1029DC007F0212537E900C007429F0A304F0A30420
:1029EC00F0A304F0A3E4F07F0412537E200A030248
:1029FC002DA1C20AC218755900753501022CC5E506
:102A0C0056C394025054900C007417F0A304F0A316
:102A1C007427125376900C007425F0A304F0A304D1
:102A2C00F0A304F0A3741FF0A3E4F07F0212537E12
:102A3C00900C007429F0A304F0A304F0A304F0A3F9
:102A4C00E4F07F0412537E200A03022DA1C20AC2B5
:102A5C0018755900753503022CC5E556C39403400F
:102A6C0003022DA1900C007417F0A304F0A374279B
:102A7C00125376900C007425F0A304F0A304F0A379
:102A8C0004F0A3E4F07F0212537E900C007429F042
:102A9C00A304F0A304F0A304F0A3741FF0A3E4F0C8
:102AAC007F0412537E200A03022DA1C20A022DA11B
:102ABC00E559B4022530240BC224E556D3940040CA
:102ACC00021556201903022DA1C219E556C394050F
:102ADC004003022DA10556022DA1E55964036003A4
:102AEC00022BFA30240BC224E556D3940040021575
:102AFC005630190BC219E556C3940250020556E51F
:102B0C0056C39401504F900C00740FF0A304F0A323
:102B1C0004F0A3741F125379900C00742DF0A304CD
:102B2C00F0A37411F0A3E4F07F0212537E900C001A
:102B3C00742FF0A304F0A37406F0A3E4F07F041246
:102B4C00537E200A03022DA1C20AC21875590075C2
:102B5C003504022CC5E556C39402504412536E90B2
:102B6C000C00742DF0A304F0A37411F0A3741FF0E7
:102B7C00A3E4F07F0212537E900C00742FF0A30498
:102B8C00F0A37406F0A3E4F07F0412537E200A0332
:102B9C00022DA1C20AC218755900753506022CC542
:102BAC00E556C394034003022DA112536E900C0002
:102BBC00742DF0A304F0A37411F0A3E4F07F0212BF
:102BCC00537E900C00742FF0A304F0A37406F0A3B2
:102BDC00741FF0A3E4F07F0412537E200A03022D2D
:102BEC00A1C20AC218755900753505022CC5E559E4
:102BFC0064047003022DA1E55964057003022DA134
:102C0C00E559B4062530240BC224E557D394004073
:102C1C00021557201903022DA1C219E557C39406BA
:102C2C004003022DA10557022DA1E559640760034D
:102C3C00022DA130240BC224E556D394004002157A
:102C4C005630190BC219E556C3940350020556E5CC
:102C5C0056C39401506A900C007404F0A304F0A3C2
:102C6C0004F0A3741F125379900C007404F0A37435
:102C7C0007F0A314F0A3E4F07F0212537E900C0033
:102C8C007404F0A3743CF0A37406F0A3E4F07F0486
:102C9C0012537E900C007404F0A3743DF0A37406E0
:102CAC00F0A3E4F07F0612537E200A03022DA1C28A
:102CBC000AC21875590075350AD223D222022DA1E9
:102CCC00E556C39402502D7404125370900C00748A
:102CDC0004F0A37407F0A314F0A3741FF0A3E4F0A2
:102CEC007F0212537E900C007404F0A3743CF0A38A
:102CFC0074068035E556C394035046900C0074045A
:102D0C00125373900C007404F0A37407F0A314F026
:102D1C00A3E4F07F0212537E900C007404F0A374B1
:102D2C003CF0A37406F0A3741FF0A3E4F07F04122C
:102D3C00537E900C007404F0A3743DF0A3740680D1
:102D4C004BE556C39404504D900C0074041253730D
:102D5C00900C007404F0A37407F0A314F0A3E4F037
:102D6C007F0212537E900C007404F0A3743CF0A309
:102D7C007406F0A3E4F07F0412537E900C007404EC
:102D8C00F0A3743DF0A37406F0A3741FF0A3E4F059
:102D9C007F0612537E301405C214755900200A03A5
:102DAC000246A6C20A0246A6301A09C21A75480083
:102DBC00C224C21930240BC224E548D3940040022B
:102DCC00154830190BC219E548C394075002054841
:102DDC0012007AE548C394015078900C007421F0ED
:102DEC00A304F0A37401F0A304F0A304F0A3741FD4
:102DFC00125379900C00740AF0A304F0A304F0A30E
:102E0C0004F0A304F0A3E4F07F0212537E900C00B4
:102E1C007423F0A304F0A3740FF0A304F0A304F044
:102E2C00A3E4F07F0412537E900C007412F0A30400
:102E3C00F0A304F0A304F0A304F0A3E4F07F0612C3
:102E4C00537E200A030231AFC20A755901D21A020D
:102E5C0031AFE548C394025072900C007421F0A37A
:102E6C0004F0A37401125373900C00740AF0A304C1
:102E7C00F0A304F0A304F0A304F0A3741FF0A3E4E4
:102E8C00F07F0212537E900C007423F0A304F0A385
:102E9C00740FF0A304F0A304F0A3E4F07F04125326
:102EAC007E900C007412F0A304F0A304F0A304F0C1
:102EBC00A304F0A3E4F07F0612537E200A03023130
:102ECC00AFC20AC2187535020230BEE548C394037E
:102EDC005072900C007421F0A304F0A374011253EF
:102EEC0073900C00740AF0A304F0A304F0A304F094
:102EFC00A304F0A3E4F07F0212537E900C00742321
:102F0C00F0A304F0A3740FF0A304F0A304F0A374D3
:102F1C001FF0A3E4F07F0412537E900C007412F0A7
:102F2C00A304F0A304F0A304F0A304F0A3E4F07F43
:102F3C000612537E200A030231AFC20A755903D21E
:102F4C001A0231AFE548C394045072900C00740A15
:102F5C00F0A304F0A304125373900C007423F0A399
:102F6C0004F0A3740FF0A304F0A304F0A3E4F07F27
:102F7C000212537E900C007412F0A304F0A304F020
:102F8C00A304F0A304F0A3741FF0A3E4F07F0412D5
:102F9C00537E900C00741BF0A304F0A304F0A30464
:102FAC00F0A3740EF0A3E4F07F0612537E200A0304
:102FBC000231AFC20AC2187535070230BEE548C3EC
:102FCC0094055075900C007423F0A304F0A3740FB7
:102FDC00125373900C007412F0A304F0A304F0A32A
:102FEC0004F0A304F0A3E4F07F0212537E900C00D3
:102FFC00741BF0A304F0A304F0A304F0A3740EF06C
:10300C00A3741FF0A3E4F07F0412537E900C0074A1
:10301C0031F0A304F0A3741DF0A37433F0A3740E69
:10302C00F0A3E4F07F0612537E200A030231AFC2F4
:10303C000AC2187535080230BEE548C394065079AB
:10304C00900C007412F0A304F0A304125373900CB0
:10305C0000741BF0A304F0A304F0A304F0A3740EFB
:10306C00F0A3E4F07F0212537E900C007431F0A3B5
:10307C0004F0A3741DF0A37433F0A3740EF0A374C6
:10308C001FF0A3E4F07F0412537E900C007434F014
:10309C00A304F0A304F0A304F0A37406F0A3E4F0DB
:1030AC007F0612537E200A030231AFC20AC2187582
:1030BC003509D223D2220231AFE548C394075074AC
:1030CC00900C00741BF0A304F0A304F0A304F0A371
:1030DC00740E125379900C007431F0A304F0A374A5
:1030EC001DF0A37433F0A3740EF0A3E4F07F02126E
:1030FC00537E900C007434F0A304F0A304F0A304EA
:10310C00F0A37406F0A3741FF0A3E4F07F04125331
:10311C007E900C007438F0A304F0A304F0A304F028
:10312C00A3E4F07F0612537E300A78C20A75590761
:10313C00D21A806FE548C394085068900C00741B39
:10314C00F0A304F0A304F0A304F0A3740E125379BB
:10315C00900C007431F0A304F0A3741DF0A374332D
:10316C00F0A3740EF0A3E4F07F0212537E900C00D7
:10317C007434F0A304F0A304F0A304F0A37406F0D9
:10318C00A3E4F07F0412537E900C007438F0A30477
:10319C00F0A304F0A304F0A3741FF0A3E4F07F06E3
:1031AC0012537E301402C214200A030246A6C20A2D
:1031BC000246A6E535640160030233DD302206C207
:1031CC0022D217C216E566640A600302325F201E23
:1031DC000302325F75BCE9F542F5430000000000C4
:1031EC0000000000000000000000000000000000D3
:1031FC0000000000000000000000000000000000C3
:10320C0000000000000000000000000000000000B2
:10321C0000000000000000000000000000000000A2
:10322C00000000000000000000000074002543F5C1
:10323C008274043542F583E5BDF075BCE9B28005B6
:10324C0043E5437002054264804542708E7542002E
:10325C0075437F124DAA30110312549B20170302A1
:10326C0032F3C217D21DE566B40A04C28C8002D2B6
:10327C008CE5667008758AE0758CB1806AE566B479
:10328C000108758AF0758CD8805DE566B402087506
:10329C008A60758CF08050E566B40308758A3075C9
:1032AC008CF88043E566B40408758A18758CFC802C
:1032BC0036E566B40508758A70758CFE8029E5665E
:1032CC00B40605758A38801CE566B40705758A9CBA
:1032DC008012E566B40805758AD88008E566B409DD
:1032EC0006758AEC758CFF201D030233BDE56670F4
:1032FC000A900C167431F0A3148022E566B4010711
:10330C00900C1674358016E566B40207900C167492
:10331C0032800AE566B4030C900C167431F0A37479
:10332C006D0233BAE566B40411900C167435F0A333
:10333C007430F0A3F0A374758074E566B405119035
:10334C000C167432F0A37430F0A3F0A37475805E85
:10335C00E566B40610900C167431F0A314F0A3F0CB
:10336C00A374758049E566B4070F900C167435F09C
:10337C00A37430F0A374758035E566B4080F900C17
:10338C00167432F0A37430F0A374758021E566B422
:10339C00090E900C167431F0A314F0A37475800E02
:1033AC00E566B40A0C900C167435F0A374751255BE
:1033BC0066301E030246A6900C167473F0A304F03C
:1033CC00A3746FF0A304F0A3E4F07D027F5A0238DB
:1033DC0095E5356402600302363630220AC222D2E9
:1033EC0017C21EC216D28CE566640A6003023487CB
:1033FC0020090302348775BCE9F542F5430000004F
:10340C0000000000000000000000000000000000B0
:10341C0000000000000000000000000000000000A0
:10342C000000000000000000000000000000000090
:10343C000000000000000000000000000000000080
:10344C000000000000000000000000000000000070
:10345C000000000074002543F58274043542F583A6
:10346C00E580F0B2800543E54370020542B4008D5F
:10347C00E542B40888C209C21FD28CE545AE447837
:10348C0002CEC313CE13D8F9FF7C007D07124A4934
:10349C00124C16301704C217D21D201D03023570B2
:1034AC00E566700A900C167431F0A3148022E56660
:1034BC00B40107900C1674358016E566B4020790BB
:1034CC000C167432800AE566B4030C900C16743139
:1034DC00F0A3746D02356DE566B40411900C16748E
:1034EC0035F0A37430F0A3F0A374758074E566B462
:1034FC000511900C167432F0A37430F0A3F0A37481
:10350C0075805EE566B40610900C167431F0A31449
:10351C00F0A3F0A374758049E566B4070F900C1600
:10352C007435F0A37430F0A374758035E566B40877
:10353C000F900C167432F0A37430F0A374758021C4
:10354C00E566B4090E900C167431F0A314F0A37454
:10355C0075800EE566B40A0C900C167435F0A374E5
:10356C0075125566E545AE447802CEC313CE13D81A
:10357C00F9FDAC06E4124964E4FBFA79F0784012E8
:10358C0047B9E4FBFA79FC78421246C8E4FBFA79B5
:10359C00C878421247B9E4FBFAF978451248C212CE
:1035AC00499D8F518E508D4F8C4EE47F63FEFDFCF8
:1035BC00AB51AA50A94FA84ED3124BDB400C900C28
:1035CC00167431F0A314F0A3802FE47B0AFAF9F8F7
:1035DC00AF51AE50AD4FAC4E1254DFEF2430900CC7
:1035EC0016F0E47B0AFAF9F8AF51AE50AD4FAC4E81
:1035FC001254DFEB2430900C17F0A37425F0A3E4E5
:10360C00F07D047F3C125572201F030246A6900CDD
:10361C00167477F0A37461F0A37469F0A37474F05A
:10362C00A3E4F07D037F3C023895E5356403600329
:10363C0002389B302208C222C217C21ED28CE56609
:10364C00640A60030236DE2016030236DE75BCE91E
:10365C00F542F543000000000000000000000000EF
:10366C00000000000000000000000000000000004E
:10367C00000000000000000000000000000000003E
:10368C00000000000000000000000000000000002E
:10369C00000000000000000000000000000000001E
:1036AC00000000000000000074002543F582740443
:1036BC003542F583E5BDF075BCE9B2800543E543C1
:1036CC0070020542B4008DE542B40888C216C21FD0
:1036DC00D28CE545AE447802CEC313CE13D8F9FD97
:1036EC00AC06E4124964E4FBFA79F078401247B96D
:1036FC0012499D125291301704C217D21D201D037E
:10370C000237D3E566700A900C167431F0A314805E
:10371C0022E566B40107900C1674358016E566B484
:10372C000207900C167432800AE566B4030C900CF8
:10373C00167431F0A3746D0237D0E566B4041190A1
:10374C000C167435F0A37430F0A3F0A37475807468
:10375C00E566B40511900C167432F0A37430F0A326
:10376C00F0A37475805EE566B40610900C16743187
:10377C00F0A314F0A3F0A374758049E566B4070FA9
:10378C00900C167435F0A37430F0A374758035E585
:10379C0066B4080F900C167432F0A37430F0A37456
:1037AC00758021E566B4090E900C167431F0A314E3
:1037BC00F0A37475800EE566B40A0C900C16743583
:1037CC00F0A37475125566E545AE447802CEC3136A
:1037DC00CE13D8F9FDAC06E4124964E4FBFA79F097
:1037EC0078401247B9E4FBFAF978431246C8E4FB77
:1037FC00FA79C878421247B9E4FBFAF978451248CD
:10380C00C212499D8F518E508D4F8C4EE47F63FEBA
:10381C00FDFCAB51AA50A94FA84ED3124BDB400C68
:10382C00900C167431F0A314F0A3802FE47B0AFAE9
:10383C00F9F8AF51AE50AD4FAC4E1254DFEF24300F
:10384C00900C16F0E47B0AFAF9F8AF51AE50AD4F7C
:10385C00AC4E1254DFEB2430900C17F0A37425F00F
:10386C00A3E4F07D047F3C125572201F030246A690
:10387C00900C167477F0A37461F0A37469F0A374C0
:10388C0074F0A3E4F07D037F3C1255720246A6E56A
:10389C00356404600302398330220AC222C21E75C9
:1038AC00880543A8011255E2D3E547940FE54694E9
:1038BC00274014AE46AF477C277D10124A5BEF249D
:1038CC000A900C0AF08006900C0A7401F0D3E547BC
:1038DC0094E7E54694034021AE46AF477C277D1024
:1038EC00124A5B7E037FE8CFCDCFCECCCE124A5BA3
:1038FC00EF240A900C0BF08006900C0B7401F0D3A3
:10390C00E5479463E54694004021AE46AF477C03FF
:10391C007DE8124A5B7E007F64CFCDCFCECCCE1239
:10392C004A5BEF240A900C0CF08006900C0C74018E
:10393C00F0D3E5479409E54694004021AE46AF47E5
:10394C007C007D64124A5B7E007F0ACFCDCFCECC4B
:10395C00CE124A5BEF240A900C0DF08006900C0DF1
:10396C007401F0AE46AF477C007D0A124A5BED2431
:10397C000A900C0E023ECFE53564056003023D4E05
:10398C0030220AC222C21E75880543A8017BFF7A29
:10399C0010793C1255E8301D41900C0A7417F0A3B5
:1039AC007407F0E55B75F06484240AA3F0A3740833
:1039BC00F0E55B75F06484E5F075F00A84240AA3E5
:1039CC00F0E55B75F00A84E5F0240AA3F0A37420FB
:1039DC00F0A3E4F07D06FF125523E47B107A27F95F
:1039EC00F8AF2BAE2AAD29AC28124B3B8F518E5021
:1039FC008D4F8C4EE47F0F7E27FDFCAB51AA50A956
:103A0C004FA84ED3124BDB401BE47B107A27F9F8FE
:103A1C00AF51AE50AD4FAC4E1254DFEF240A900CA8
:103A2C000AF08006900C0A7401F0E47FE77E03FD37
:103A3C00FCAB51AA50A94FA84ED3124BDB4031E43A
:103A4C007B107A27F9F8AF51AE50AD4FAC4E1254F3
:103A5C00DFAC00AD01AE02AF03E47BE87A03F9F80A
:103A6C001254DFEF240A900C0BF0A3742DF0800895
:103A7C00900C0B7401F0A3F0E47F63FEFDFCAB51E2
:103A8C00AA50A94FA84ED3124BDB402CE47BE87A0A
:103A9C0003F9F8AF51AE50AD4FAC4E1254DFAC0041
:103AAC00AD01AE02AF03E47B64FAF9F81254DFEF18
:103ABC00240A900C0DF08006900C0D7401F0E47F3C
:103ACC0009FEFDFCAB51AA50A94FA84ED3124BDBFB
:103ADC00402BE47B64FAF9F8AF51AE50AD4FAC4ECD
:103AEC001254DFAC00AD01AE02AF03E47B0AFAF96D
:103AFC00F81254DFEF240A900C0EF08006900C0E96
:103B0C007401F0E47B0AFAF9F8AF51AE50AD4FAC4A
:103B1C004E1254DFEB240A900C0FF0A37420F0A388
:103B2C00E4F07D047F32125523201B03023C4BAF83
:103B3C0034AE33AD32AC31E412495F7466FBFAF942
:103B4C0078401247B9E4FBFA797A78441248C212E9
:103B5C00499D8F518E508D4F8C4EE47FE77E03FD37
:103B6C00FCAB51AA50A94FA84ED3124BDB402DE40D
:103B7C007B107A27F9F8AF51AE50AD4FAC4E1254C2
:103B8C00DFAC00AD01AE02AF03E47BE87A03F9F8D9
:103B9C001254DFEF240A900C0AF08006900C0A7481
:103BAC0001F0E47F63FEFDFCAB51AA50A94FA84E77
:103BBC00D3124BDB402CE47BE87A03F9F8AF51AE1F
:103BCC0050AD4FAC4E1254DFAC00AD01AE02AF03A2
:103BDC00E47B64FAF9F81254DFEF240A900C0BF032
:103BEC008006900C0B7401F0E47B64FAF9F8AF5189
:103BFC00AE50AD4FAC4E1254DFAC00AD01AE02AFC7
:103C0C0003E47B0AFAF9F81254DFEF240A900C0C47
:103C1C00F0A37408F0E47B0AFAF9F8AF51AE50AD9A
:103C2C004FAC4E1254DFEB240A900C0EF0A3741E12
:103C3C00F0A37420F0A37409F0A3741B023D43E4B9
:103C4C007BE87A03F9F8AF34AE33AD32AC31124BBA
:103C5C003B8F518E508D4F8C4EE47FE77E03FDFCE5
:103C6C00AB51AA50A94FA84ED3124BDB402DE47B8D
:103C7C00107A27F9F8AF51AE50AD4FAC4E1254DF5D
:103C8C00AC00AD01AE02AF03E47BE87A03F9F812A5
:103C9C0054DFEF240A900C0AF08006900C0A740191
:103CAC00F0E47F63FEFDFCAB51AA50A94FA84ED3A4
:103CBC00124BDB402CE47BE87A03F9F8AF51AE50A1
:103CCC00AD4FAC4E1254DFAC00AD01AE02AF03E40D
:103CDC007B64FAF9F81254DFEF240A900C0BF08095
:103CEC0006900C0B7401F0E47B64FAF9F8AF51AE5A
:103CFC0050AD4FAC4E1254DFAC00AD01AE02AF0371
:103D0C00E47B0AFAF9F81254DFEF240A900C0CF059
:103D1C00A37408F0E47B0AFAF9F8AF51AE50AD4F3A
:103D2C00AC4E1254DFEB240A900C0EF0A37420F06E
:103D3C00A37409F0A37424F0A3E4F07D027F38028D
:103D4C004667E53564066003023EDA30220AC22279
:103D5C00C21E75880543A8017BFF3021117A1879A2
:103D6C003C1255E8AE46AF477C007D14800F7A14A8
:103D7C00793C1255E8AE46AF477C007D1E124A498D
:103D8C00E48F348E33F532F531E47F0F7E27FDFC62
:103D9C00AB34AA33A932A831D3124BF1401BE47BCC
:103DAC00107A27F9F8AF34AE33AD32AC31124B3B4D
:103DBC00EF240A900C0AF08006900C0A7401F0E4CF
:103DCC007FE77E03FDFCAB34AA33A932A831D312B2
:103DDC004BF14031E47B107A27F9F8AF34AE33ADB8
:103DEC0032AC31124B3BAC00AD01AE02AF03E47B05
:103DFC00E87A03F9F8124B3BEF240A900C0BF0A372
:103E0C00742DF08008900C0B7401F0A3F0E47F6328
:103E1C00FEFDFCAB34AA33A932A831D3124BF140CE
:103E2C002CE47BE87A03F9F8AF34AE33AD32AC3125
:103E3C00124B3BAC00AD01AE02AF03E47B64FAF96C
:103E4C00F8124B3BEF240A900C0DF08006900C0DF1
:103E5C007401F0E47F09FEFDFCAB34AA33A932A84F
:103E6C0031D3124BF1402BE47B64FAF9F8AF34AE4A
:103E7C0033AD32AC31124B3BAC00AD01AE02AF03F3
:103E8C00E47B0AFAF9F8124B3BEF240A900C0EF083
:103E9C008006900C0E7401F0E47B0AFAF9F8AF344A
:103EAC00AE33AD32AC31124B3BEB240A900C0FF01D
:103EBC00A37425F0A37409F0A37420F0A3741CF070
:103ECC00A37421F0A3E4F07D047F28024667E53556
:103EDC00640760030240ED302204C222D20B12555B
:103EEC00E2900C0A743DF0A37444F0A3743AF0A36E
:103EFC007406F0A3E4F07D017F20125523900C0A88
:103F0C007431F0A37427F0A314F0A3742BF0A374F2
:103F1C0006F0A3E4F07D047F28125523AC44AD4594
:103F2C00E41249647B337A33792378411248C21204
:103F3C00499D8F58E558D394634006D2C5D215805D
:103F4C0020E558D394004017301509C215C2C5009E
:103F5C000000000075F58290FF11E558F08005C255
:103F6C00C575F580300B65C20BE55E700875D7A082
:103F7C0075D6F68057E55EB4010875D75075D6FB3B
:103F8C00804AE55EB4020875D72075D6FE803DE503
:103F9C005EB4030575D7108030E55EB4040575D7A3
:103FAC00888026E55EB4050575D7D0801CE55EB427
:103FBC00060575D7E88012E55EB4070575D7F48061
:103FCC0008E55EB4080675D7FB75D6FFE55E700A8A
:103FDC00900C0A740BF0A3148053E55EB4010B90A3
:103FEC000C0A740CF0A3740A8043E55EB4020B90C7
:103FFC000C0A740FF0A3740A8033E55EB4030C90C2
:10400C000C0A740BF0A314F0A38022E55EB4040D2B
:10401C00900C0A740CF0A3740AF0A38010E55EB443
:10402C00050F900C0A740FF0A3740AF0A3F0A38090
:10403C0045E55EB40612900C0A7401F0A3740BF003
:10404C00A314F0A3741E802EE55EB40713900C0A23
:10405C007401F0A3740CF0A3740AF0A3741E801600
:10406C00E55EB40824900C0A7401F0A3740FF0A35D
:10407C00740AF0A3741EF0A37435F0A3742CF0A38F
:10408C00E4F07D017F40125523E558D39463400E34
:10409C00E55875F06484240A900C0AF08006900CA4
:1040AC000A7401F0E558D394094014E55875F0648E
:1040BC0084E5F075F00A84240A900C0BF0800690CD
:1040CC000C0B7401F0E55875F00A84E5F0240A90A5
:1040DC000C0CF0A37405F0A3E4F07D047F500246B1
:1040EC0067E53564086003024348302206C222C2E9
:1040FC001ED28E1255E2E56D1460631470030241FA
:10410C00D824026003024247AE4BAF4CAB07AA0661
:10411C00C374FF9BFF74FF9AFEE49400FDE49400CB
:10412C00FCC006C007D007D006C3EF9BFFEE9AFE7B
:10413C00ED9400FDEC9400FC7808124C028F2EAF2D
:10414C004CC374FF9FC39FF530E54C24BFFFE54B78
:10415C003463FEE54C2FE54B3EF52F02423FAE4B50
:10416C00AF4CAB07AA06C374FF9BFF74FF9AFEE427
:10417C009400FDE49400FCC006C007D007D006C331
:10418C00EF9BFFEE9AFEED9400FDEC9400FC78089A
:10419C00124C028F2EAF4CC374FF9FC39FF530EFB0
:1041AC00247FFBE54B34C1FAE433F9E433F8E4FC47
:1041BC00FDEB2FFFEA354BFEED39FDEC38FC7808B2
:1041CC00124C028F2FAF4CEF247F806CAE4BAF4C58
:1041DC00AB07AA06C374FF9BFF74FF9AFEE494001E
:1041EC00FDE49400FCC006C007D007D006C3EF9BCB
:1041FC00FFEE9AFEED9400FDEC9400FC7808124C56
:10420C00028F2EAF4CC374FF9FC39FF530EF24BFBA
:10421C00FBE54B34E0FAE433F9E433F8E4FCFDEB72
:10422C002FFFEA354BFEED39FDEC38FC7808124CCB
:10423C00028F2FAF4CEF24BF2FF53BE56D7006902E
:10424C000C0A04801DE56DB4010E900C0A740BF081
:10425C00A304F0A3740F8012E56DB40220900C0A35
:10426C00740CF0A3740FF0A3740AF0A37435F0A3CC
:10427C00742CF0A3E4F07D017F38125523E545241E
:10428C00E8F54CE5443403F54BD3E54C94E7E54BAA
:10429C0094034018AE4BAF4C7C037DE8124A5BEFA5
:1042AC00240A900C0AF0A3742DF08008900C0A7468
:1042BC0001F0A3F0D3E54C9463E54B94004021AEA0
:1042CC004BAF4C7C037DE8124A5B7E007F64CFCD04
:1042DC00CFCECCCE124A5BEF240A900C0CF08006A9
:1042EC00900C0C7401F0D3E54C9409E54B94004010
:1042FC0021AE4BAF4C7C007D64124A5B7E007F0A82
:10430C00CFCDCFCECCCE124A5BEF240A900C0DF061
:10431C008006900C0D7401F0AE4BAF4C7C007D0A06
:10432C00124A5BED240A900C0EF0A37427F0A374D0
:10433C0024F0A3E4F07D047F30024667E535640980
:10434C006003024446302207C222C21E43A8041254
:10435C0055E2438990D3E54A940FE54994274014DC
:10436C00AE49AF4A7C277D10124A5BEF240A900CB1
:10437C000AF08006900C0A7401F0D3E54A94E7E544
:10438C004994034025AE49AF4A7C277D10124A5B05
:10439C007E037FE8CFCDCFCECCCE124A5BEF240A82
:1043AC00900C0BF0A3742DF08008900C0B7401F0A2
:1043BC00A3F0D3E54A9463E54994004021AE49AF9C
:1043CC004A7C037DE8124A5B7E007F64CFCDCFCE62
:1043DC00CCCE124A5BEF240A900C0DF08006900CA8
:1043EC000D7401F0D3E54A9409E54994004021AEDF
:1043FC0049AF4A7C007D64124A5B7E007F0ACFCDB8
:10440C00CFCECCCE124A5BEF240A900C0EF0800675
:10441C00900C0E7401F0AE49AF4A7C007D0A124A32
:10442C005BED240A900C0FF0A37427F0A37424F016
:10443C00A3E4F07D047F30024667E535640A60032F
:10444C00024558302202C2227BFF7A1C793C12555D
:10445C00E8AC44AD45E41249647BAA7A8279517880
:10446C003E1248C212499D8E6B8F6CD3E56C940F33
:10447C00E56B942740107C277D10124A5BEF240AD1
:10448C00900C0AF08006900C0A7401F0D3E56C9441
:10449C00E7E56B94034025AE6BAF6C7C277D101267
:1044AC004A5B7E037FE8CFCDCFCECCCE124A5BEFFA
:1044BC00240A900C0BF0A3742DF08008900C0B7454
:1044CC0001F0A3F0D3E56C9463E56B94004021AE4E
:1044DC006BAF6C7C037DE8124A5B7E007F64CFCDB2
:1044EC00CFCECCCE124A5BEF240A900C0DF0800696
:1044FC00900C0D7401F0D3E56C9409E56B940040BD
:10450C0021AE6BAF6C7C007D64124A5B7E007F0A2F
:10451C00CFCDCFCECCCE124A5BEF240A900C0EF04E
:10452C008006900C0E7401F0AE6BAF6C7C007D0AB3
:10453C00124A5BED240A900C0FF0A37420F0A374C4
:10454C0043F0A3E4F07D027F20024667E535640B5F
:10455C0060030246A6302202C2227BFF7A1C793C01
:10456C001255E8AC25AD26E41249647B4A7A0C79E5
:10457C008E78401247B912499D8E2C8F2DD3E52D84
:10458C00940FE52C942740107C277D10124A5BEF8A
:10459C00240A900C0AF08006900C0A7401F0D3E502
:1045AC002D94E7E52C94034025AE2CAF2D7C277D74
:1045BC0010124A5B7E037FE8CFCDCFCECCCE124A11
:1045CC005BEF240A900C0BF0A3742DF08008900C78
:1045DC000B7401F0A3F0D3E52D9463E52C9400400B
:1045EC0021AE2CAF2D7C037DE8124A5B7E007F64EC
:1045FC00CFCDCFCECCCE124A5BEF240A900C0DF06F
:10460C008006900C0D7401F0D3E52D9409E52C94E3
:10461C00004021AE2CAF2D7C007D64124A5B7E00E5
:10462C007F0ACFCDCFCECCCE124A5BEF240A900CB2
:10463C000EF08006900C0E7401F0AE2CAF2D7C00A9
:10464C007D0A124A5BED240A900C0FF0A37420F043
:10465C00A3742EF0A3E4F07D027F20125523803A40
:10466C00E56964026034E5696403602EE5696404FD
:10467C007028F569302305C223125654120006E542
:10468C003570033018087B017A00790080067BFFB7
:10469C007A08793C12568412000ED007D006D00549
:1046AC00D004D003D002D001D000D0D0D082D0839F
:0546BC00D0F0D0E03257
:1046C100024A09E86480F8E933E83360110460F0D4
:1046D100ED33EC337009E8FCE9FDEAFEEBFF22045F
:1046E10060DED3EB9FEA9EE99DE8C2E78CF0C2F75A
:1046F10095F0400CE8CCF8E9CDF9EACEFAEBCFFB26
:104701001249D485D0F05804700320D5B3E8047061
:10471100075002B2D5024A1392D5EC0460F7E4CCFB
:10472100C0E0C398F8603B94186008400DD0E0FBEE
:104731000249EBE4FBFAC9FC8028E830E406E4C94D
:10474100FBE4CAFCE830E305E4C9CACBFCE8540742
:104751006010F8C3E913F9EA13FAEB13FBEC13FC4D
:10476100D8F130F52FC3E49CFCEF9BFFEE9AFEEDF0
:1047710099FDD0E0FBEF4E4D4C701222DB03024A53
:1047810010EC2CFCEF33FFEE33FEED33FDED30E7A3
:10479100EB0249EBEF2BFFEE3AFEED39FDD0E0FBEA
:1047A10050130BBB0003024A13ED13FDEE13FEEF92
:0847B10013FFEC13FC0249EBBD
:1047B900EC4D6011E8497017ED33EC3304600DE4FA
:1047C900FCFFFEFD22E933E8330470F8024A0912BE
:1047D90049D458046009E4CC2481500628500902C0
:1047E9004A13284003024A10C0E0EB4A7044B980DA
:1047F90006D0E0FB0249FFEF4E701CBD8008EBFFBD
:10480900EAFEE9FD80EBE98DF0A4FEE5F00248A29D
:10481900E9CDF9EAFEEBFFEF89F0A4FCE5F0CE89DA
:10482900F0A42EFFE435F0CD89F0A42DFEE435F097
:104839008067EF4E7005BD80D780C3EF8BF0A4ACC5
:10484900F0EE8BF0A42CFCE435F0F8EF8AF0A42C00
:10485900E5F038FCE433CB8DF0A42CFCE5F03BF813
:10486900EE8AF0A42CFCE5F038F8E433CF89F0A403
:104879002CFCE5F038CF3400CE89F0A42FFFE5F009
:104889003EFEE433C98DF0A42EFEE5F039CD8AF061
:10489900A42FFFE5F03EFEE43DFD33D0E0FB5007D9
:1048A9000BBB000F024A13EC2CFCEF33FFEE33FE77
:0648B900ED33FD0249EBA6
:1048BF00024A13EC5D046005E859047003024A09CB
:1048CF001249D4580460F6EC4860F2EC7004FDFE17
:1048DF00FF22C860DB2481C85009C39860025006CC
:1048EF00024A109850CAF582E9294B4A7005AB82EB
:1048FF000249FF75F0007C1A7880C3EF9BEE9AEDAA
:10490F0099400DC3EF9BFFEE9AFEED99FDE842F043
:10491F00DC23ACF0D0E0FFD0E0FED0E0FDAB822096
:10492F00E7101BEB60BAEC2CFCEF33FFEE33FEED20
:10493F0033FD0249EBE803F830E705C0F075F000EE
:10494F00EF2FFFEE33FEED33FD40B830E7C280AA04
:10495F0075F020800E75F010800575F0087D007ED3
:10496F00007F003392D530D503124BCDEC3340107E
:10497F00EF33FFEE33FEED33FDEC33FCD5F0ED22DC
:0E498F00E5F0247EA2D513CC92E7CDCEFF2218
:10499D00EDD2E7CD33EC3392D524814006E4FFFE12
:1049AD00FDFC22FCE4CFCECDCC24E0501174FF8071
:1049BD00EDC3CC13CCCD13CDCE13CECF13CF04700E
:0749CD00F030D5DE024BCDF6
:1049D400E9D2E7C933E833F892D5EDD2E7CD33EC29
:0749E40033FC5002B2D522A2
:1049EB00EC30E7100FBF000C0EBE00080DBD00042D
:1049FB000BEB6014A2D5EB13FCED92E7FD2274FFD9
:104A0B00FCFDFEFF22E480F8A2D574FF13FC7D8031
:034A1B00E480EF45
:0300000002571C88
:0C571C00787FE4F6D8FD75816D0255A47D
:104A1E00BB010689828A83E0225002E722BBFE0296
:094A2E00E32289828A83E49322C9
:104A3700BB010689828A83F0225002F722BBFE015E
:024A4700F32258
:104A4900EF8DF0A4A8F0CF8CF0A428CE8DF0A42E81
:024A5900FE223B
:104A5B00BC000BBE0029EF8DF084FFADF022E4CC3F
:104A6B00F875F008EF2FFFEE33FEEC33FCEE9DEC08
:104A7B00984005FCEE9DFE0FD5F0E9E4CEFD22ED4E
:104A8B00F8F5F0EE8420D21CFEADF075F008EF2F98
:104A9B00FFED33FD4007985006D5F0F222C398FD89
:054AAB000FD5F0EA2226
:104AB000E88FF0A4CC8BF0A42CFCE98EF0A42CFCA5
:104AC0008AF0EDA42CFCEA8EF0A4CDA8F08BF0A423
:104AD0002DCC3825F0FDE98FF0A42CCD35F0FCEB82
:104AE0008EF0A4FEA9F0EB8FF0A4CFC5F02ECD3947
:0F4AF000FEE43CFCEAA42DCE35F0FDE43CFC22B4
:104AFF0075F008758200EF2FFFEE33FECD33CDCC6E
:104B0F0033CCC58233C5829BED9AEC99E5829840F0
:104B1F000CF582EE9BFEED9AFDEC99FC0FD5F0D6CD
:104B2F00E4CEFBE4CDFAE4CCF9A88222B800C1B9F7
:104B3F000059BA002DEC8BF084CFCECDFCE5F0CB35
:104B4F00F97818EF2FFFEE33FEED33FDEC33FCEB6E
:104B5F0033FB10D703994004EB99FB0FD8E5E4F929
:104B6F00FA227818EF2FFFEE33FEED33FDEC33FC16
:104B7F00C933C910D7059BE99A4007EC9BFCE99A0A
:104B8F00F90FD8E0E4C9FAE4CCFB2275F010EF2F4F
:104B9F00FFEE33FEED33FDCC33CCC833C810D7074F
:104BAF009BEC9AE899400AED9BFDEC9AFCE899F88A
:0E4BBF000FD5F0DAE4CDFBE4CCFAE4C8F9221D
:1054DF00C2D5E830E70FB2D5E4C39BFBE49AFAE4F8
:1054EF0099F9E498F8EC30E717B2D5125515124B2D
:1054FF003BE4C39BFBE49AFAE499F9E498F8800340
:10550F00124B3B30D50DE4C39FFFE49EFEE49DFD9F
:04551F00E49CFC22EA
:0E4BCD00C3E49FFFE49EFEE49DFDE49CFC22F9
:104BDB00EB9FF5F0EA9E42F0E99D42F0EC6480C851
:064BEB0064809845F022F1
:104BF100EB9FF5F0EA9E42F0E99D42F0E89C45F01A
:014C01002290
:104C0200E86010ECA2E713FCED13FDEE13FEEF13C8
:044C1200FFD8F022B5
:00000001FF
