:020000040000FA
:100000008802002041020000450200007D0100003E
:1000100000000000000000000000000000000000E0
:100020000000000000000000000000004902000085
:1000300000000000000000004B0200004D02000024
:100040004F0200004F0200004F0200004F0200006C
:10005000190500004F0200004F0200004F0200008F
:100060004F0200004F0200004F0200004F0200004C
:100070004F0200004F0200004F0200004F0200003C
:100080004F0200004F0200004F0200004F0200002C
:100090004F0200004F0200004F0200004F0200001C
:1000A0004F0200004F0200004F0200004F0200000C
:1000B0000D0500004F0200004F0200004F0200003B
:1000C00000F002F800F04BF80CA030C808382418F3
:1000D0002D18A246671EAB4654465D46AC4201D180
:1000E00000F03DF87E460F3E0FCCB6460126334267
:1000F00000D0FB1AA246AB46334318479C1D0000B4
:10010000BC1D0000103A02D378C878C1FAD8520753
:1001100001D330C830C101D504680C6070470000BD
:100120000023002400250026103A01D378C1FBD813
:10013000520700D330C100D50B60704710B5642959
:1001400002D100F0F3FD10BD782902D100F024FEA9
:1001500010BD002010BD1FB51FBD10B510BD01F0B2
:1001600015F91146FFF7F7FF00F099FA01F02DF9A4
:1001700003B4FFF7F2FF03BC01F034F90420714629
:10018000084202D0EFF3098001E0EFF308807146E6
:10019000004A104763090000F8B522A00068224E0B
:1001A0000090316A3013214C214D014201D00021D1
:1001B00018E0080301D5204600E028468A0301D54F
:1001C00001460FE00A04920F6B469A5CCB05890446
:1001D000DB0DC90E891C80089B1C5143584300F05D
:1001E0008EFE8100134F396030694007400F12D0F6
:1001F000022812D0032812D02046B1690907090F3E
:10020000491C00F07CFE0C4978604A10801800F010
:1002100076FEB860F8BD2846EFE70846EDE70748E8
:10022000EBE70000010202040002005000805101CF
:10023000001BB7000000002040420F001027000004
:1002400006480047FEE7FEE7FEE7FEE7FEE7FEE7BB
:1002500003480449024A044B70470000C1000000F3
:100260008800002088020020880000200021F74A32
:100270009161F74908620868012210430860086824
:10028000C043C007FBD07047F04901228A61F049A2
:1002900008620868104308600868C043C007FBD0C4
:1002A000704700B50346B031C8B2FFF7DFFF18074B
:1002B000000FFFF7DBFF18091030FFF7D7FF00BD75
:1002C00010B500242046B030C0B2FFF7CFFF102099
:1002D000FFF7CCFF0020FFF7C9FF00230020FFF746
:1002E000D3FF5B1CDBB2842BF8D3641CE4B2082C74
:1002F000E8D310BD10B5D54C00206061D54800F0A2
:10030000B2FA01206061D44800F0ADFAA220FFF7F4
:10031000ADFFA020FFF7AAFFC820FFF7A7FF22200C
:10032000FFF7A4FF8120FFF7A1FF2D20FFF79EFF1D
:10033000A620FFF79BFF2F20FFF798FFAF20FFF7C6
:1003400095FFFFF7BDFF10BDF7B5944607460025A2
:10035000C24E23E02038C4B238460199FFF7A1FF0E
:1003600000232401E018305CFFF78EFF5B1CDBB23A
:10037000082BF7D30198401CC1B23846FFF791FF14
:100380000023E0188019007AFFF77EFF5B1CDBB2C8
:10039000082BF6D308376D1CFFB2EDB26046405D06
:1003A0000028D7D1FEBDF7B50E4684460025AC4FD8
:1003B00060E060280ED043280ED045280ED04C288F
:1003C0000ED078280ED03A280ED020280ED0303803
:1003D000C4B20CE00A240AE00B2408E00C2406E076
:1003E0000D2404E00E2402E00F2400E01024314626
:1003F0006046FFF756FF0023A401E018385CFFF7C2
:1004000043FF5B1CDBB2102BF7D3701CC1B26046FC
:10041000FFF747FF0023E018C019007CFFF734FF07
:100420005B1CDBB2102BF6D3B01CC1B26046FFF7E9
:1004300038FF0023E018C01920300078FFF724FFB0
:100440005B1CDBB2102BF5D3F01CC1B26046FFF78A
:1004500028FF0023E018C0192030007CFFF714FFAC
:100460005B1CDBB2102BF5D360461030C0B26D1CA4
:100470008446EDB20298405D00289AD1FEBD10B5C9
:1004800000F04AF90C2000F005FA182000F0A1F95C
:100490000021072000F08EF9724800F0D8F9724C64
:1004A000204600F0D4F900221021204600F0A2F9E5
:1004B000A10205200007C163016B0F221203114343
:1004C0000163FFF769FE69490020086010BD38B577
:1004D00067485F4C0090082304220021204600F06A
:1004E00018FB00220121204600F03FFB38BD10B56B
:1004F0006049614800F0DAF910BD10B55F48016845
:1005000020221143016000F023F910BD5B4801680F
:1005100040221143016070475948016AC90601D55C
:10052000102104E0564A403A116A1162016A0162E0
:10053000704710B5504A13683C24A343203313601E
:1005400013681B07FCD5882393601368A343083303
:10055000136013681B07FCD590601068A043083037
:10056000106010680007FCD5080A90601068A0436E
:100570000830106010680007FCD5C8B290601068A1
:10058000A0430830106010680007FCD51068A04335
:10059000183010600A2000F066F910BD10B5364919
:1005A0000B683C22934320330B600B681B07FCD580
:1005B00088238B600B68934308330B600B681B0721
:1005C000FCD5886008689043083008600868000718
:1005D000FCD50868904318300860086890432030C4
:1005E000086008680007FCD5892088600868904387
:1005F0000830086008680007FCD5086890430C3094
:10060000086008680007FCD588680006030C0868C5
:1006100090430830086008680007FCD58868C0B2BD
:10062000C01884B208689043183008600A2000F0AF
:100630001AF9204610BD10B512490120FFF779FFC5
:1006400000210320FFF775FF10BD0000404200505D
:100650000000034010270000204E0000001400009E
:10066000F0190000080000800C0040A600010050B6
:1006700000127A00A0860100000002400002005033
:100680004040005050CE000010B50020FFF786FF1C
:100690000105090D0004000F81400846D4E7FFF76B
:1006A000EEFEFFF714FFFFF725FEFFF720FFFFF731
:1006B000C2FF1F4C03221021204600F0AFF9012297
:1006C0000421204600F0BEF91A4C1020206000F0F2
:1006D00023F820052060184D184C0120FFF75EFF1D
:1006E000FFF7D2FF00F0B0FD294600F0B9FC206012
:1006F00000F066FD82B212A1124800F0DBFA114A46
:1007000000210F20FFF74FFE0FA201216720FFF706
:100710001BFEFFF7F2FEE0E710B559210B48162249
:1007200088230160026003600468002CF9D08BE725
:100730004040005000E100E00000C8420C000020F2
:1007400025356400140000204C757800000100502D
:1007500004490420086104480168C0221143016073
:1007600030BF704700ED00E0000200500448006810
:100770008007800F012801D0002070470148704792
:1007800000020050001BB700044800688007800F7B
:10079000022801D000207047014870470002005035
:1007A000001BB70010B5FFF7F7FC0148006810BD4B
:1007B0000400002010B5334A93691B091B010B4349
:1007C00093611169C908C90001431161FFF7E4FC95
:1007D00010BD10B504462C492A4B05E00A46491EB7
:1007E000002A01DC002010BDDA6820469043F5D1D4
:1007F000012010BD70B5430E1B070ED04300214CE5
:100800009B0F9B0010341B191C68C5002D0FC601DF
:10081000F60EB540AC430C431C60830A1906090E62
:100820000DD00103174C890F8900183409190C6881
:100830008005DBB2C00E83409C4314430C6070BD46
:10084000104A116938239943014311617047C10F60
:100850008A000C4951184A68C306DB0E01209840F3
:1008600002434A607047094909684843084948619A
:1008700000228A61052008610869C003FCD50A616D
:10088000704700000002005080F5200008000020A2
:1008900000E000E0044982070A6801D09208920053
:1008A00002430A60704700000002005070B51A4D04
:1008B000044628680A228900504300F020FB0A21E0
:1008C000401D00F01CFB401E2061216840221143A6
:1008D00021608100091D286800F011FB70BD41698D
:1008E0000122114341617047016880221143016078
:1008F000704752001A43002905D0012905D002296A
:1009000005D0032905D04260704782617047C261FB
:1009100070470262704700000400002010B50446D2
:1009200001681FA000F0B8F920A0616800F0B4F9D8
:1009300021A0A16800F0B0F922A0E16800F0ACF9B4
:1009400023A0216900F0A8F924A0616900F0A4F9AE
:1009500025A0A16900F0A0F926A0E16900F09CF9AA
:1009600010BD044626A000F097F92046FFF7D6FFF9
:10097000FEE729498A691202FCD408600A2804D1DA
:1009800088690002FCD40D200860704700B503465A
:10099000FFF7EFFF184600BD0020C043704700007E
:1009A000723020203D20307825780A0072312020D6
:1009B0003D20307825780A00723220203D203078A2
:1009C00025780A00723320203D20307825780A00EF
:1009D000723132203D20307825780A006C72202058
:1009E0003D20307825780A00706320203D20307843
:1009F00025780A00707372203D20307825780A002F
:100A0000496E2048617264204661756C74204861AB
:100A10006E646C65720A000000000540F0B50023AA
:100A200001273C469C400C4208D005685C00032628
:100A3000A640B5431646A640354305605B1C082B0F
:100A4000EFD3F0BD10B58369140E8C40234383614E
:100A5000C3691202120A8A401343C36110BD000029
:100A600008B589A0006800908848016A0013014217
:100A700001D0002008BD080301D5854800E0854865
:100A80008A03F7D40A04920F6B469B5CCA0589045B
:100A9000D20DC90E891C8008921C5943504300F0A6
:100AA0002EFA800008BD70B5064678480D464169AB
:100AB0008906890F21D040698006800F022823D043
:100AC000FFF770FE0446A54200D90546002D1ED052
:100AD0002946204600F013FA401C4008401EFF281B
:100AE00000D9FF207168090A0902014371604100C1
:100AF0002046891C00F003FA70BDFFF737FE0400A2
:100B0000E1D1FFF741FEDDE7FFF7AAFFDAE70020BA
:100B100070BD30B4029C202B00D10023DB000B43BE
:100B20001343036001229204914201D1102181609C
:100B3000214630BCB7E705200007C2680121090340
:100B40000A43C260C2688A43C2607047016C0122D6
:100B5000114301647047016C022211430164704724
:100B60008168082291438160704710B5836805242D
:100B7000A34311430B4308210B43836010BD10B501
:100B8000036C33242406A34309070B4311060B43CC
:100B900003640168012252051143016010BD016820
:100BA0000122520591430160704710B50446374851
:100BB00041698906890F0DD040698006800F02289F
:100BC0000FD0FFF7EFFD61680906C90D891C00F021
:100BD00096F910BDFFF7CAFD0028F4D1FFF7D4FD48
:100BE000F1E7FFF73DFFEEE7CA0704D002680123F3
:100BF0005B041A4302604A0704D5C26B01239B02BF
:100C00001A43C2630A0703D5026C08231A4302641D
:100C1000CA0603D5026C04231A4302648A0603D56C
:100C2000026C40231A430264490604D5016C012278
:100C30005205114301647047CA0704D002680123BA
:100C40005B049A4302604A0704D5C26B01239B02EE
:100C50009A43C2630A0703D5026C08239A430264CD
:100C6000CA0603D5026C04239A4302648A0603D59C
:100C7000026C40239A430264490604D5016C0122A8
:100C800052059143016470470102020400020050C2
:100C900000805101001BB7000FB4054910B503AA2D
:100CA000029800F04BFB10BC08BC04B018470000D1
:100CB000100000200FB41CB5074B06AA7B44694600
:100CC0000090059800F021FB0020694600F030FB01
:100CD0001CBC08BC04B018477106000070B504467F
:100CE00085690068C10601D5302600E02026C007CE
:100CF00007D070BD62683046A1689047206A401CEA
:100D000020626D1EF6D570BD70B504468569007809
:100D1000C00707D170BD6268A16820209047206A93
:100D2000401C20626D1EF6D570BD0000F7B5002591
:100D300075291068009914A611D0C046C046002835
:100D400002DA404211A608E0009909688A0701D535
:100D50000FA602E0490704D50EA6012501E0C04612
:100D6000C046009F0024243704E000F0FBFA303135
:100D70003955641C0028F8D12B463246214600988C
:100D800000F065FAFEBD0000000000002D0000002C
:100D90002B0000002000000070B504460D462146DF
:100DA0001068C046C0462188090502D50F4A7A441A
:100DB00002E00E4A7A440E3223460021243305E035
:100DC00006070009360F965D5E54491C0028F7D1CE
:100DD00020780023000705D5702D03D0002901D00D
:100DE00002231132204600F032FA70BD7E1000005E
:100DF000F3B50446002081B020622046E1688847B0
:100E000000287AD0252802D06268A16871E0E168E4
:100E100020460025884706460020E0610746A0617D
:100E20002A2E0AD0304600F0E4FA002827D0B80075
:100E30000019303E0090866119E00298BA0012193C
:100E400002C8916102902046E1688847012F06465A
:100E500017D1E06900281FDA202085431CE00098A4
:100E60000A218069484300998019303888612046FA
:100E7000E1688847064600F0BCFA0028EFD1012F50
:100E80000AD02E2E08D12046E16888470646202049
:100E900005437F1C022FC3DBA069002803DA404210
:100EA000A06101200543E80701D010208543002EF2
:100EB00023D030464138192803D80120C002054309
:100EC0002036204625603146029A1546FFF736F94E
:100ED00000280BD0012806D0ED1DE808C00008301E
:100EE00002908AE709E02D1D029586E76268304688
:100EF000A1689047206A401C7EE7206AFEBD002260
:100F000003098B422CD3030A8B4211D300239C4646
:100F10004EE003460B433CD4002243088B4231D3BE
:100F200003098B421CD3030A8B4201D394463FE052
:100F3000C3098B4201D3CB01C01A524183098B42B2
:100F400001D38B01C01A524143098B4201D34B019B
:100F5000C01A524103098B4201D30B01C01A5241FE
:100F6000C3088B4201D3CB00C01A524183088B4285
:100F700001D38B00C01A524143088B4201D34B006E
:100F8000C01A5241411A00D20146524110467047E0
:100F90005DE0CA0F00D04942031000D340425340E5
:100FA00000229C4603098B422DD3030A8B4212D3A5
:100FB000FC22890112BA030A8B420CD389019211D7
:100FC0008B4208D3890192118B4204D389013AD014
:100FD000921100E08909C3098B4201D3CB01C01AE9
:100FE000524183098B4201D38B01C01A52414309FC
:100FF0008B4201D34B01C01A524103098B4201D3EA
:101000000B01C01A5241C3088B4201D3CB00C01A56
:10101000524183088B4201D38B00C01A5241D9D26E
:1010200043088B4201D34B00C01A5241411A00D2EF
:101030000146634652415B10104601D34042002BEB
:1010400000D54942704763465B1000D3404201B56A
:101050000020C046C04602BD704770477047000080
:10106000F0B5FF252D04C609C209FF2704462E400E
:101070000137CB093E4348402A402B400746002A0F
:101080006BD0002B69D0AA4267D0AB4265D0002854
:1010900000DA32460125ED0529432C4309022002DE
:1010A000090AD21A4B0C7F24E31A434C000A7C44F1
:1010B000E35C7D242404121914145B00A2188842F6
:1010C00001D3521C00E0400049420C465C4324110D
:1010D0005C43DB016415E318040A5C43C502200D80
:1010E0000C4644436419250A5D432303EC0C0D466A
:1010F000654300030019EB184C42A34201D35B186F
:10110000401CD4052018002B07D05B00C91804D35D
:10111000401C002901D1400840003F2189048A4237
:1011200009D3002A08DC1106090F04D0032149075E
:101130004018C00FC007F0BD0122410012068918F7
:101140007F2252069142F6D205214907C84201D5B5
:101150009010F0BDFF20C005F0BD002F00DA324630
:101160001648AA4207D2AB4205D21902090E17D07F
:10117000F80FC007F0BDFF2563002D06AB42F9D87C
:101180004900A942F6D8AB4201D1A942F2D0A94206
:1011900001D1002101E061004908D0050843F0BDFC
:1011A0001102090EFBD0FF200243D005F0BD0A4614
:1011B0000146104654E70000A60D00000000C07F65
:1011C0000102C21504D00123DB071943002A0ADB00
:1011D0009E239A1A02D40846D0407047FF2241004D
:1011E0001206914201D900207047C017C0437047D2
:1011F0001F22030C02D10F2200041CD0030E01D1C8
:101200000002083A030F01D10001121F830F01D120
:101210008000921E002801DB4000521ED2055118AA
:10122000021251181922904004D3491C002801D100
:101230004908490008467047C10FC90700D040421D
:10124000012292071143D3E701218907D0E7FFB5B7
:1012500004460D4681B0243000902168880604D5EC
:101260001022E0699143216000E00120A84201DDE5
:10127000471B00E000270498A1697A191018081A82
:10128000A0612078C00602D42046FFF727FD002683
:1012900008E003986268A168805D9047206A401C5E
:1012A000761C206204988642F3DB2078C0060AD5BB
:1012B0002046FFF713FD06E06268A16830209047E2
:1012C000206A401C206238467F1E0028F4DC07E0BC
:1012D00000986268A168405D9047206A401C2062C7
:1012E00028466D1E0028F3DC2046FFF70DFD207810
:1012F000000602D5022005B0F0BD0120FBE700008A
:1013000001694A1C02610878704700B58FB00291EC
:1013100000210591054901937944039111460490F8
:101320006846FFF765FD0FB000BD0000E5FFFFFF59
:101330000A681070521C0A6070470000084B70B5B4
:101340000D467B44FFF7E1FF04462846FFF724FBE8
:10135000002802D00020C04370BD204670BD0000B0
:1013600047F6FFFF01468008081A02091018020A12
:101370001018020C1018C008820012185200891AA6
:1013800001E0401C0A390A29FBD27047754600F07B
:1013900025F8AE46050069465346C008C00085469C
:1013A00018B020B5FEF754FF60BC00274908B646C8
:1013B0000026C0C5C0C5C0C5C0C5C0C5C0C5C0C564
:1013C000C0C5403D49008D46704710B50446C04633
:1013D000C0462046FEF7CCFE10BD00000048704716
:1013E0002800002001491820ABBEFEE726000200BD
:1013F000704730380A2801D201207047002070471A
:1014000000000000000000000000000000000000DC
:10141000000000F800000000000000333000000071
:1014200000100C06100C0600000000000000000078
:1014300040C07840C0784000043F04043F040400EA
:10144000007088FC08300000001820FF211E0000FA
:10145000F008F000E018000000211C031E211E000F
:1014600000F00888700000001E2123241927211095
:1014700010160E0000000000000000000000000038
:10148000000000E0180402000000000718204000DF
:1014900000020418E00000000040201807000000CF
:1014A000404080F0804040000202010F0102020033
:1014B000000000F0000000000101011F0101010017
:1014C000000000000000000080B07000000000007C
:1014D0000000000000000000000101010101010105
:1014E000000000000000000000303000000000009C
:1014F0000000000080601804006018060100000071
:1015000000E010080810E000000F102020100F006D
:10151000001010F8000000000020203F20200000F4
:10152000007008080888700000302824222130004C
:1015300000300888884830000018202020110E0054
:101540000000C02010F8000000070424243F2400FD
:1015500000F80888880808000019212020110E00D2
:1015600000E0108888180000000F112020110E00E4
:1015700000380808C83808000000003F00000000DC
:101580000070880808887000001C222121221C009D
:1015900000E010080810E0000000312222110F00C6
:1015A000000000C0C000000000000030300000005B
:1015B00000000080000000000000806000000000CB
:1015C00000008040201008000001020408102000E4
:1015D000404040404040400004040404040404002F
:1015E00000081020408000000020100804020100C4
:1015F000007048080808F0000000003036010000C4
:10160000C030C828E810E0000718272423140B0076
:101610000000C038E0000000203C230202273820F0
:1016200008F8888888700000203F202020110E00D4
:10163000C0300808080838000718202020100800CB
:1016400008F808080810E000203F202020100F00B4
:1016500008F88888E8081000203F20202320180080
:1016600008F88888E8081000203F200003000000E8
:10167000C03008080838000007182020221E020089
:1016800008F808000008F808203F210101213F2048
:10169000000808F8080800000020203F2020000073
:1016A00000000808F8080800C08080807F00000063
:1016B00008F888C028180800203F2001263820009C
:1016C00008F8080000000000203F20202020300003
:1016D00008F8F800F8F80800203F003F003F20001D
:1016E00008F830C00008F808203F200007183F0025
:1016F000E01008080810E0000F10202020100F0054
:1017000008F808080808F000203F21010101000046
:10171000E01008080810E0000F18242438504F008B
:1017200008F8888888887000203F2000030C30204B
:1017300000708808080838000038202121221C0089
:10174000180808F8080818000000203F20000000D2
:1017500008F808000008F808001F202020201F00BB
:101760000878880000C83808000007380E0100001B
:10177000F80800F80008F800033C0700073C0300E5
:10178000081868808068180820302C03032C30204B
:101790000838C800C83808000000203F20000000BA
:1017A00010080808C8380800203826212020180012
:1017B000000000FE020202000000007F40404000E6
:1017C000000C30C000000000000000010638C0001E
:1017D00000020202FE000000004040407F000000C6
:1017E00000000402020204000000000000000000EB
:1017F00000000000000000008080808080808080E9
:101800000000000C12120C0000000000000000009C
:1018100000008080808000000019242222223F20C6
:1018200008F8008080000000003F112020110E0009
:101830000000008080800000000E11202020110098
:10184000000000808088F800000E112020103F204A
:101850000000808080800000001F222222221300CE
:10186000008080F0888888180020203F2020000019
:101870000000808080808000006B949494936000CE
:1018800008F8008080800000203F210000203F20D9
:1018900000809898000000000020203F20200000D9
:1018A000000000809898000000C08080807F0000C9
:1018B00008F8000080808000203F24022D302000A6
:1018C000000808F8000000000020203F2020000051
:1018D0008080808080808000203F20003F20003F6B
:1018E0008080008080800000203F210000203F2079
:1018F0000000808080800000001F202020201F002A
:10190000808000808000000080FFA12020110E0058
:101910000000008080808000000E112020A0FF8049
:10192000808080008080800020203F2120000100F6
:10193000000080808080800000332424242419004B
:10194000008080E0808000000000001F2020000058
:101950008080000000808000001F202020103F2099
:10196000808080000080808000010E300806010029
:1019700080800080008080800F300C030C300F00CE
:1019800000808000808080000020312E0E312000F9
:10199000808080000080808080818E701806010029
:1019A00000808080808080000021302C2221300047
:1019B00000000000807C020200000000003F404068
:1019C00000000000FF00000000000000FF00000019
:1019D0000002027C800000000040403F0000000048
:1019E00000060101020204040000000000000000E3
:1019F000000080C0E0F070383878F0F0E0C00000FF
:101A000000FCFFFFFF03000000000007FFFFFFF0E6
:101A1000001FFFFFFFE00000000080F0FFFF7F07D6
:101A200000000001070F0F0E0E0E0F07030100004C
:101A3000000000808080C0E0F8F8F800000000009E
:101A400000000001010101FFFFFFFF000000000096
:101A500000000000000000FFFFFFFF00000000008A
:101A6000000000000000000F0F0F0F00000000003A
:101A7000000000C0E0F07038383870F0F0E080000E
:101A8000000007070707000000C0F0FFFF7F0F00FE
:101A9000000000C0E0F8FC3E1F0F0701000000003E
:101AA000000C0F0F0F0F0E0E0E0E0E0E0E0E0E0070
:101AB000000080E0F0F070383838F0F0E0C000004E
:101AC00000000303030300C0C0E0F0FF3F1F070056
:101AD0000030F0F0F0800000000103FFFFFEFC008A
:101AE00000000103070F0E0E0E0E0F0F070300007C
:101AF0000000000000000080E0F8F8F8F8000000A6
:101B000000000080E0F8FE3F0FFFFFFFFF00000035
:101B100000787E7F7F73707070FFFFFFFF707070C2
:101B20000000000000000000000F0F0F0F00000079
:101B30000000F8F8F8F838383838383838383800CD
:101B40000000FFFFFFFF60703030F0F0E0C00000E9
:101B50000020E1E1E1810000000080FFFFFF7F0045
:101B600000000103070F0E0E0E0E0F070301000009
:101B700000000080C0E0F070383878F0F0E08000BD
:101B80000000FCFFFFFFE370307070F1E1C18100E5
:101B900000003FFFFFFF8000000000FFFFFFFF008D
:101BA0000000000103070F0E0E0E0F0F07030000C9
:101BB0000000383838383838383838F8F8F87800CD
:101BC000000000000000000000E0FEFF7F070000B2
:101BD00000000000000080F0FFFF7F070000000011
:101BE0000000000000080F0F0F03000000000000BD
:101BF000000080E0F0F07038383870F0E0C000008D
:101C000000000F3F7FFFE0C0C0C0E0FF7F3F0F003C
:101C10000030FCFFFF870101000103FFFFFEFC0015
:101C200000000103070F0F0E0E0E0F0F0703010038
:101C3000000080E0F0F078383878F0F0E0800000C4
:101C40000000FFFFFFFF0000000080FFFFFFFE001D
:101C50000000C0C3C7C70F0E0E07E7FFFFFF1F003E
:101C600000000103070F0F0E0E0F0F070100000009
:101C70000000000000000000708804040488700068
:101C80000000000000000000000001010100000051
:101C90000000000000000000000000000000000044
:101CA0000000000000000000000000000000000034
:101CB000000000000080C0404040408080C0000024
:101CC00000E0FC0E030000000000000001030C0017
:101CD000001FFFE000000000000000000080600026
:101CE00000000001030204040404040203010000D4
:101CF000004040C0C040404040404040C0C00000A4
:101D0000000000FFFF8080808080C0F0000306009C
:101D1000000000FFFF000000000001070000C000FD
:101D20000004040707040404040404040607000074
:101D3000002020E0E0202000000000000000000063
:101D4000000000FFFF000000000000000000000095
:101D5000000000FFFF000000000000000000C000C5
:101D60000004040707040404040404040607000034
:101D70000000000000000000000000000000000063
:101D80000000202060E0E0200020A0602020000073
:101D90000000000000C1671F3E7AE18000000000E3
:101DA00000040406070400000004050706040400FC
:101DB0000000000000000000000000000000000023
:101DC0000000000000000C1E1E0C000000000000BF
:101DD00000000000000060F0F06000000000000063
:101DE00000000000000000000000000000000000F3
:101DF00000000000000000000000000000000000E3
:101E000000000000000000000000000000000000D2
:101E100000000000000000000000000000000000C2
:101E200000000000000000000000000000000000B2
:101E30003031323334353637383941424344454600
:101E400040305800303132333435363738396162FA
:101E500063646566403078008182838485868788E4
:101E6000898B8C8D8E8F919293959697999A9C9D44
:101E70009FA0A2A3A5A7A8AAACAEB0B2B3B5B7B9AC
:101E8000BCBEC0C2C5C7C9CCCED1D4D7D9DCDFE275
:101E9000E6E9ECF0F3F7FAFEB81E000000000020BF
:101EA0001400000004010000CC1E000014000020FB
:101EB00074020000200100000080510100000000B9
:0C1EC00000000000000000000000000016
:0400000500000241B4
:00000001FF
